{
  "contracts/SmartWill.sol": {
    "SmartWill": {
      "abi": [
        {
          "inputs": [
            {
              "internalType": "address",
              "name": "_feeRecipient",
              "type": "address"
            }
          ],
          "stateMutability": "nonpayable",
          "type": "constructor"
        },
        {
          "inputs": [],
          "name": "GuardianThresholdNotMet",
          "type": "error"
        },
        {
          "inputs": [],
          "name": "InsufficientBalance",
          "type": "error"
        },
        {
          "inputs": [],
          "name": "InvalidAllocation",
          "type": "error"
        },
        {
          "inputs": [],
          "name": "InvalidGuardianThreshold",
          "type": "error"
        },
        {
          "inputs": [],
          "name": "InvalidPercentage",
          "type": "error"
        },
        {
          "inputs": [],
          "name": "NotGuardian",
          "type": "error"
        },
        {
          "inputs": [],
          "name": "ReentrancyGuardReentrantCall",
          "type": "error"
        },
        {
          "inputs": [],
          "name": "Unauthorized",
          "type": "error"
        },
        {
          "inputs": [],
          "name": "WillAlreadyExecuted",
          "type": "error"
        },
        {
          "inputs": [],
          "name": "WillNotActive",
          "type": "error"
        },
        {
          "inputs": [],
          "name": "WillNotFound",
          "type": "error"
        },
        {
          "anonymous": false,
          "inputs": [
            {
              "indexed": true,
              "internalType": "uint256",
              "name": "willId",
              "type": "uint256"
            },
            {
              "indexed": true,
              "internalType": "address",
              "name": "recipient",
              "type": "address"
            },
            {
              "indexed": false,
              "internalType": "uint256",
              "name": "amount",
              "type": "uint256"
            },
            {
              "indexed": false,
              "internalType": "enum SmartWill.AssetType",
              "name": "assetType",
              "type": "uint8"
            },
            {
              "indexed": false,
              "internalType": "address",
              "name": "tokenAddress",
              "type": "address"
            }
          ],
          "name": "AllocationDistributed",
          "type": "event"
        },
        {
          "anonymous": false,
          "inputs": [
            {
              "indexed": true,
              "internalType": "uint256",
              "name": "willId",
              "type": "uint256"
            },
            {
              "indexed": false,
              "internalType": "uint256",
              "name": "amount",
              "type": "uint256"
            },
            {
              "indexed": false,
              "internalType": "uint256",
              "name": "timestamp",
              "type": "uint256"
            }
          ],
          "name": "FeePaid",
          "type": "event"
        },
        {
          "anonymous": false,
          "inputs": [
            {
              "indexed": true,
              "internalType": "uint256",
              "name": "willId",
              "type": "uint256"
            },
            {
              "indexed": true,
              "internalType": "address",
              "name": "guardian",
              "type": "address"
            },
            {
              "indexed": false,
              "internalType": "uint256",
              "name": "approvalCount",
              "type": "uint256"
            },
            {
              "indexed": false,
              "internalType": "bool",
              "name": "executed",
              "type": "bool"
            }
          ],
          "name": "GuardianApproved",
          "type": "event"
        },
        {
          "anonymous": false,
          "inputs": [
            {
              "indexed": true,
              "internalType": "uint256",
              "name": "willId",
              "type": "uint256"
            },
            {
              "indexed": true,
              "internalType": "address",
              "name": "owner",
              "type": "address"
            },
            {
              "indexed": false,
              "internalType": "uint256",
              "name": "allocationCount",
              "type": "uint256"
            },
            {
              "indexed": false,
              "internalType": "uint256",
              "name": "timestamp",
              "type": "uint256"
            }
          ],
          "name": "WillCreated",
          "type": "event"
        },
        {
          "anonymous": false,
          "inputs": [
            {
              "indexed": true,
              "internalType": "uint256",
              "name": "willId",
              "type": "uint256"
            },
            {
              "indexed": true,
              "internalType": "address",
              "name": "executor",
              "type": "address"
            },
            {
              "indexed": false,
              "internalType": "uint256",
              "name": "timestamp",
              "type": "uint256"
            },
            {
              "indexed": false,
              "internalType": "uint256",
              "name": "totalDistributed",
              "type": "uint256"
            }
          ],
          "name": "WillExecuted",
          "type": "event"
        },
        {
          "inputs": [],
          "name": "annualFee",
          "outputs": [
            {
              "internalType": "uint256",
              "name": "",
              "type": "uint256"
            }
          ],
          "stateMutability": "view",
          "type": "function"
        },
        {
          "inputs": [
            {
              "internalType": "uint256",
              "name": "willId",
              "type": "uint256"
            }
          ],
          "name": "approveExecution",
          "outputs": [],
          "stateMutability": "nonpayable",
          "type": "function"
        },
        {
          "inputs": [
            {
              "internalType": "address[]",
              "name": "recipients",
              "type": "address[]"
            },
            {
              "internalType": "uint256[]",
              "name": "percentages",
              "type": "uint256[]"
            },
            {
              "internalType": "bool[]",
              "name": "nftOnlyFlags",
              "type": "bool[]"
            },
            {
              "internalType": "address[]",
              "name": "tokenAddresses",
              "type": "address[]"
            },
            {
              "internalType": "bool[]",
              "name": "charityDAOFlags",
              "type": "bool[]"
            },
            {
              "internalType": "string",
              "name": "metadataHash",
              "type": "string"
            },
            {
              "internalType": "bool",
              "name": "requiresGuardianAttestation",
              "type": "bool"
            },
            {
              "internalType": "address[]",
              "name": "guardians",
              "type": "address[]"
            },
            {
              "internalType": "uint256",
              "name": "guardianThreshold",
              "type": "uint256"
            }
          ],
          "name": "createWill",
          "outputs": [
            {
              "internalType": "uint256",
              "name": "willId",
              "type": "uint256"
            }
          ],
          "stateMutability": "payable",
          "type": "function"
        },
        {
          "inputs": [
            {
              "internalType": "uint256",
              "name": "willId",
              "type": "uint256"
            },
            {
              "internalType": "address[]",
              "name": "tokenAddresses",
              "type": "address[]"
            },
            {
              "internalType": "address[]",
              "name": "nftAddresses",
              "type": "address[]"
            },
            {
              "internalType": "uint256[]",
              "name": "nftTokenIds",
              "type": "uint256[]"
            }
          ],
          "name": "executeWill",
          "outputs": [],
          "stateMutability": "nonpayable",
          "type": "function"
        },
        {
          "inputs": [],
          "name": "feeRecipient",
          "outputs": [
            {
              "internalType": "address",
              "name": "",
              "type": "address"
            }
          ],
          "stateMutability": "view",
          "type": "function"
        },
        {
          "inputs": [
            {
              "internalType": "uint256",
              "name": "willId",
              "type": "uint256"
            }
          ],
          "name": "getGuardianApprovalCount",
          "outputs": [
            {
              "internalType": "uint256",
              "name": "",
              "type": "uint256"
            }
          ],
          "stateMutability": "view",
          "type": "function"
        },
        {
          "inputs": [
            {
              "internalType": "address",
              "name": "owner",
              "type": "address"
            }
          ],
          "name": "getOwnerWills",
          "outputs": [
            {
              "internalType": "uint256[]",
              "name": "",
              "type": "uint256[]"
            }
          ],
          "stateMutability": "view",
          "type": "function"
        },
        {
          "inputs": [
            {
              "internalType": "uint256",
              "name": "willId",
              "type": "uint256"
            }
          ],
          "name": "getWill",
          "outputs": [
            {
              "internalType": "address",
              "name": "owner",
              "type": "address"
            },
            {
              "internalType": "string",
              "name": "metadataHash",
              "type": "string"
            },
            {
              "components": [
                {
                  "internalType": "address",
                  "name": "recipient",
                  "type": "address"
                },
                {
                  "internalType": "uint256",
                  "name": "percentage",
                  "type": "uint256"
                },
                {
                  "internalType": "bool",
                  "name": "nftOnly",
                  "type": "bool"
                },
                {
                  "internalType": "address",
                  "name": "tokenAddress",
                  "type": "address"
                },
                {
                  "internalType": "bool",
                  "name": "isCharityDAO",
                  "type": "bool"
                }
              ],
              "internalType": "struct SmartWill.Allocation[]",
              "name": "allocations",
              "type": "tuple[]"
            },
            {
              "internalType": "uint256",
              "name": "createdAt",
              "type": "uint256"
            },
            {
              "internalType": "uint256",
              "name": "executedAt",
              "type": "uint256"
            },
            {
              "internalType": "bool",
              "name": "isActive",
              "type": "bool"
            },
            {
              "internalType": "bool",
              "name": "requiresGuardianAttestation",
              "type": "bool"
            },
            {
              "internalType": "address[]",
              "name": "guardians",
              "type": "address[]"
            },
            {
              "internalType": "uint256",
              "name": "guardianThreshold",
              "type": "uint256"
            }
          ],
          "stateMutability": "view",
          "type": "function"
        },
        {
          "inputs": [
            {
              "internalType": "uint256",
              "name": "willId",
              "type": "uint256"
            },
            {
              "internalType": "address",
              "name": "guardian",
              "type": "address"
            }
          ],
          "name": "hasGuardianApproved",
          "outputs": [
            {
              "internalType": "bool",
              "name": "",
              "type": "bool"
            }
          ],
          "stateMutability": "view",
          "type": "function"
        },
        {
          "inputs": [
            {
              "internalType": "uint256",
              "name": "willId",
              "type": "uint256"
            }
          ],
          "name": "payAnnualFee",
          "outputs": [],
          "stateMutability": "payable",
          "type": "function"
        },
        {
          "inputs": [
            {
              "internalType": "uint256",
              "name": "willId",
              "type": "uint256"
            }
          ],
          "name": "revokeWill",
          "outputs": [],
          "stateMutability": "nonpayable",
          "type": "function"
        },
        {
          "inputs": [],
          "name": "setupFee",
          "outputs": [
            {
              "internalType": "uint256",
              "name": "",
              "type": "uint256"
            }
          ],
          "stateMutability": "view",
          "type": "function"
        },
        {
          "inputs": [
            {
              "internalType": "uint256",
              "name": "willId",
              "type": "uint256"
            },
            {
              "components": [
                {
                  "internalType": "address",
                  "name": "recipient",
                  "type": "address"
                },
                {
                  "internalType": "uint256",
                  "name": "percentage",
                  "type": "uint256"
                },
                {
                  "internalType": "bool",
                  "name": "nftOnly",
                  "type": "bool"
                },
                {
                  "internalType": "address",
                  "name": "tokenAddress",
                  "type": "address"
                },
                {
                  "internalType": "bool",
                  "name": "isCharityDAO",
                  "type": "bool"
                }
              ],
              "internalType": "struct SmartWill.Allocation[]",
              "name": "allocations",
              "type": "tuple[]"
            }
          ],
          "name": "updateWill",
          "outputs": [],
          "stateMutability": "nonpayable",
          "type": "function"
        }
      ],
      "evm": {
        "bytecode": {
          "linkReferences": {},
          "object": "608034607b57601f611e2c38819003918201601f19168301916001600160401b03831184841017608057808492602094604052833981010312607b57516001600160a01b03811690819003607b5760016000556000600655600060075560018060a01b03196005541617600555604051611d9590816100978239f35b600080fd5b634e487b7160e01b600052604160045260246000fdfe610180604052600436101561001357600080fd5b60003560e01c8063079c48a9146118fd5780630d84128e1461183f5780631dfda2e71461182157806326fe47361461172157806332df90e01461168f5780634192bbb0146113905780634342b456146110c057806346904840146110975780635386d26c146108e5578063560df8011461088a5780636a80b6f014610808578063a40b56b9146107ea5763ef7042af146100ac57600080fd5b34610340576080366003190112610340576024356001600160401b038111610340576100dc903690600401611ab6565b906080526044356001600160401b038111610340576100ff903690600401611ab6565b6064356001600160401b0381116103405761011e903690600401611ab6565b92610127611d3d565b6004356000908152600360205260409020546001600160a01b0316156107d9576004356000526003602052604060002060a052600560a05101805460ff81161580156107ca575b6107b95760ff8160081c1661072d575b42600460a051015560ff1916905560009447806105c0575b5060005b8181106103835750508493600093600260a05101945b8181106101f5578660405190428252602082015233907f16881b0159fdfdac11898f5e611bc693c89bb69af46d691531cff9d68d30caf1604060043592a36001600055005b6001600160a01b0361021061020b838588611d2d565b611cd0565b169660005b87548110156103785761023161022b828a611d04565b50611c6c565b60608101519091906001600160a01b03168015159081610357575b50610345575b858410610265575b600191505b01610215565b81516001600160a01b03169161027c85888b611d2d565b358b3b156103405760008c916064600196836040519586948593632142170760e11b8552306004860152602485015260448401525af1908161032f575b506102c5575b5061025a565b828060a01b039051166102d985888b611d2d565b356102e861020b87898c611d2d565b60405191825260026020830152848060a01b031660408201527faff808144e25410ffb44d80daab04c80fd545bec1fcb5823a3e96af08faac3cd606060043592a38a6102bf565b600061033a91611b3e565b8c6102b9565b600080fd5b6040820151610252576001915061025f565b90506001600160a01b0361036f61020b87898c611d2d565b1614158b61024c565b5096506001016101b0565b60018060a01b0361039a61020b8385608051611d2d565b1660c0526040516370a0823160e01b815230600482015260208160248160c0515afa9081156105465760009161058f575b50806103db575b5060010161019a565b95919360009793979591955b600260a051015481101561057d5761040761022b82600260a05101611d04565b60408101516105525760608101516001600160a01b0316801515908161055b575b506105525761271061043e60208301518b611cf1565b0490811515806104be575b90600193929161045d575b50505b016103e7565b838060a01b039051169061047761020b8b8b608051611d2d565b604051918252846020830152848060a01b031660408201527faff808144e25410ffb44d80daab04c80fd545bec1fcb5823a3e96af08faac3cd606060043592a33880610454565b5060018060a01b038151166040519063a9059cbb60e01b82526004820152826024820152602081604481600060c0515af190811561054657600091610504575b50610449565b6020813d821161053e575b8161051c60209383611b3e565b8101031261053a5751908115158203610537575060016104fe565b80fd5b5080fd5b3d915061050f565b6040513d6000823e3d90fd5b50600190610457565b905060018060a01b0361057461020b8b8b608051611d2d565b16141538610428565b509391955093600190969296906103d2565b906020823d82116105b8575b816105a860209383611b3e565b81010312610537575051386103cb565b3d915061059b565b926000959294919594600260a05101955b865481101561071f5760ff60026105e8838a611d04565b5001541615806106fd575b610600575b6001016105d1565b61271061061b6001610612848b611d04565b50015488611cf1565b0480610628575b506105f8565b989060008080808d61063a868e611d04565b50546001600160a01b03165af161064f611b6c565b50156106b8576106618a600193611ce4565b9961066c828a611d04565b50838060a01b0390541690604051908152600080602083015260408201527faff808144e25410ffb44d80daab04c80fd545bec1fcb5823a3e96af08faac3cd606060043592a390610622565b60405162461bcd60e51b815260206004820152601c60248201527f4e617469766520746f6b656e207472616e73666572206661696c6564000000006044820152606490fd5b506107088188611d04565b506002015460081c6001600160a01b0316156105f3565b509295919450925038610196565b600080600660a0510190815491600860a05101915b83811061076b5750505050600760a0510154111561017e576321bee88360e11b60005260046000fd5b60ff60406107798385611ae6565b905460039190911b1c6001600160a01b0316600090815260208690522054166107a5575b600101610742565b936107b1600191611b14565b94905061079d565b63133f3d5960e11b60005260046000fd5b50600460a0510154151561016e565b63f73656bf60e01b60005260046000fd5b34610340576000366003190112610340576020600654604051908152f35b34610340576020366003190112610340576004356000818152600360205260409020546001600160a01b0316330361087a576000818152600360205260409020546001600160a01b0316156107d9576000526003602052604060002060048101546107b957600501805460ff19169055005b6282b42960e81b60005260046000fd5b34610340576040366003190112610340576024356001600160a01b038116810361034057600435600052600360205260086040600020019060018060a01b0316600052602052602060ff604060002054166040519015158152f35b610120366003190112610340576004356001600160401b03811161034057610911903690600401611ab6565b6101405260e0526024356001600160401b03811161034057610937903690600401611ab6565b6044356001600160401b03811161034057610956903690600401611ab6565b916064356001600160401b03811161034057610976903690600401611ab6565b9190946084356001600160401b03811161034057610998903690600401611ab6565b6001600160401b0360a497929735116103405736602360a435011215610340576001600160401b0360a435600401351161016052610160516103405736602460a4356004013560a4350101116103405760c435151560c435036103405760e4356001600160401b03811161034057610a14903690600401611ab6565b9590976101405115801561108a575b801561107d575b8015611070575b8015611063575b611052576000805b610140518210610fe457612710915003610fd35760c435610f9e575b6000998a6101005260065480610f68575b5060015461012052610a8161012051611b14565b60015561012051600052600360205260406000209860018060a01b0333166bffffffffffffffffffffffff60a01b8b5416178a55600061016052610ac860018b0154611c32565b601f8111610f0f575b5061016051601f60a4356004013511600114610e7857610160519060a43560040135610e68575b5060a4356004013560011b9060001960a4356004013560031b1c19161760018b01559998995b4260038c015560058b01805461ffff191660c435151560081b61ff00161760011790556101043560078c0155610160515b610140518110610cec578c8c8c8c6006610160519301925b818110610c9757843361016051526002602052604061016051208054600160401b811015610c7d57610b9e91600182018155611ae6565b81549060031b9061012051821b91600019901b1916179055610120516101605152600860205242604061016051205560405161014051815242602082015233907f620e43ffac03ce036e7afeb5616ece72b1c309c18cee7e56412ebb6e5180919b60406101205192a380610c58575b5061010051610c24575b6020604051610120518152f35b6101605161010051600554610c5392918291829182916001600160a01b03165af1610c4d611b6c565b50611bf0565b610c17565b61016051610c7791819081908190335af1610c71611b6c565b50611bab565b80610c0d565b634e487b7160e01b61016051526041600452602461016051fd5b610ca561020b828486611d2d565b90845491600160401b831015610c7d57610cc6836001809501885587611ae6565b819291549060031b91858060a01b0316821b91858060a01b03901b191617905501610b67565b610d0261020b826101409e9d9e5160e051611d2d565b90610d0e818b8b611d2d565b35610d22610d1d838b87611d2d565b611d20565b610d3061020b848a89611d2d565b90610d3f610d1d858c8b611d2d565b9260405195610d4d87611b23565b6001600160a01b039081168752602087019190915290151560408601521660608401521515608083015260028c0154600160401b811015610c7d578060028e6001610d9d94018282015501611d04565b610e4c5760019260806002610e4393868060a01b03878060a01b03855116166bffffffffffffffffffffffff60a01b8254161781556020840151878201550191610df960408201511515849060ff801983541691151516179055565b60608101518354610100600160a81b03191660a088901b8890039190911660081b610100600160a81b03161783550151815460ff60a81b191690151560a81b60ff60a81b16179055565b019a999a610b4f565b634e487b7160e01b610160515261016051600452602461016051fd5b6024915060a4350101358d610af8565b60018b0161016051526020610160512090610160515b600460a4350135601f19168110610ef25750600460a4350135601f19811610610ecd575b5050600160a43560040135811b0160018b0155999899610b1e565b602460001960f860a4356004013560031b161c199160a4350101351690558c80610eb2565b909160206001819260248660a43501013581550193019101610e8e565b60018b01610160515260206101605120601f60a435600401350160051c8101602060a4356004013510610f61575b601f830160051c82018110610f53575050610ad1565b610160518155600101610f3d565b5080610f3d565b803410610f8f57806101005280341115610a6d57610f88919b5034611b5f565b998b610a6d565b631e9acf1760e31b8c5260048cfd5b8615610fb65761010435158015610fc7575b15610a5c575b63ccb1533d60e01b60005260046000fd5b50866101043511610fb0565b631f3b85d360e01b60005260046000fd5b60018060a01b03610ffe61020b846101405160e051611d2d565b16156110525761100f828989611d2d565b3515801561103c575b610fd35761103460019161102d848b8b611d2d565b3590611ce4565b910190610a40565b5061271061104b838a8a611d2d565b3511611018565b6305d7ba1960e11b60005260046000fd5b5061014051831415610a38565b5061014051821415610a31565b5061014051841415610a2a565b5061014051861415610a23565b34610340576000366003190112610340576005546040516001600160a01b039091168152602090f35b34610340576040366003190112610340576004356024356001600160401b0381116103405736602382011215610340578060040135916001600160401b0383116103405760248201916024369160a08602010111610340576000818152600360205260409020546001600160a01b0316330361087a576000818152600360205260409020546001600160a01b0316156107d9576000526003602052604060002060ff600582015416158015611383575b6107b9576000805b84821061131057612710915003610fd35760020191825460008455806112b6575b5060005b8181106111a657005b6111b1818385611cc0565b908454600160401b8110156112a0578060016111d09201875586611d04565b61128a576001926112849161126a906080906002906001600160a01b036111f686611cd0565b82546001600160a01b0319169116178155602085013588820155019261123361122160408301611d20565b859060ff801983541691151516179055565b61126461124260608301611cd0565b8554610100600160a81b03191660089190911b610100600160a81b0316178555565b01611d20565b815460ff60a81b191690151560a81b60ff60a81b16179055565b0161119d565b634e487b7160e01b600052600060045260246000fd5b634e487b7160e01b600052604160045260246000fd5b806003029060038204036112fa57836000526020600020908101905b8181106112df5750611199565b806000600392556000600182015560006002820155016112d2565b634e487b7160e01b600052601160045260246000fd5b6001600160a01b0361132661020b848888611cc0565b1615611052576020611339838787611cc0565b013515801561136a575b610fd357611362600191602061135a858989611cc0565b013590611ce4565b910190611178565b50612710602061137b848888611cc0565b013511611343565b5060048101541515611170565b34610340576020366003190112610340576004356000818152600360205260409020546001600160a01b0316156107d9576000526003602052604060002060018060a01b03815416600182019160028101926003820154906004830154600584015490600760068601950154936040519384600082549261141084611c32565b808452936001811690811561166d5750600114611626575b5061143592500385611b3e565b87546001600160401b0381116112a0576040519061145960208260051b0183611b3e565b80825260208201809a60005260206000206000915b838310611608575050505060405194858660208a549283815201809a60005260206000209260005b8181106115e65750506114ab92500387611b3e565b60405198895261012060208a0152805190816101208b015260005b8281106115d0575050806000610140610160938c010152601f801991011689016101408101926101408b83030160408c01525180935201989060005b81811061157e575050506060870152608086015260ff808216151560a087015260089190911c16151560c085015283850360e08501525180855260009460200192905b80861061155b5750508293506101008301520390f35b81516001600160a01b031684526001959095019460209384019390910190611545565b909199602060a060019260808e518580851b03815116835284810151858401526040810151151560408401528580851b036060820151166060840152015115156080820152019b019101919091611502565b60208183018101516101408d84010152016114c6565b84546001600160a01b031683526001948501948b945060209093019201611496565b6003602060019261161885611c6c565b81520192019201919061146e565b90506000929192526020600020906000915b818310611651575050906020611435928201018b611428565b6020919350806001915483858b01015201910190918692611638565b90506020925061143594915060ff191682840152151560051b8201018b611428565b346103405760203660031901126103405760043560005260036020526040600020600090600060068201600881549301915b8381106116d357602085604051908152f35b60ff60406116e18385611ae6565b905460039190911b1c6001600160a01b03166000908152602086905220541661170d575b6001016116c1565b93611719600191611b14565b949050611705565b602036600319011261034057600435611738611d3d565b6000818152600360205260409020546001600160a01b0316330361087a5760075490811561105257813410611810576000918034116117fd575b50806000526008602052426040600020557f9bec96fb6d100e4d478528377d4ef6e077836973c5de940a41a1e6845229999260406007548151908152426020820152a2806117e3575b6117dc600080808060018060a01b0360055416600754905af1610c4d611b6c565b6001600055005b60008080806117f794335af1610c71611b6c565b806117bb565b61180991925034611b5f565b9082611772565b631e9acf1760e31b60005260046000fd5b34610340576000366003190112610340576020600754604051908152f35b34610340576020366003190112610340576004356001600160a01b0381169081900361034057600052600260205260406000206040518060208354918281520190819360005260206000209060005b8181106118e757505050816118a4910382611b3e565b6040519182916020830190602084525180915260408301919060005b8181106118ce575050500390f35b82518452859450602093840193909201916001016118c0565b825484526020909301926001928301920161188e565b34610340576020366003190112610340576004356000818152600360205260409020546001600160a01b0316156107d957806000526003602052604060002090600582015460ff8116158015611aa9575b611a985760081c60ff1615610fb65760009160009260068201938454905b818110611a62575b505015611a5157600881019260018060a01b0333166000528360205260ff6040600020541661087a57336000908152602085905260408120805460ff19166001179055815490949091855b838110611a03578686600787015482101560405192835260208301527f4b46cbc6f49a47ad7eae79e51227b7d0d3df6c24203afc987f8e111a667df35860403393a3005b60ff6040611a118385611ae6565b905460039190911b1c6001600160a01b031660009081526020869052205416611a3d575b6001016119bf565b95611a49600191611b14565b969050611a35565b6377b6878160e11b60005260046000fd5b611a6c8187611ae6565b905460039190911b1c6001600160a01b03163314611a8c5760010161196c565b50505060018480611974565b63207e617b60e11b60005260046000fd5b506004830154151561194e565b9181601f84011215610340578235916001600160401b038311610340576020808501948460051b01011161034057565b8054821015611afe5760005260206000200190600090565b634e487b7160e01b600052603260045260246000fd5b60001981146112fa5760010190565b60a081019081106001600160401b038211176112a057604052565b90601f801991011681019081106001600160401b038211176112a057604052565b919082039182116112fa57565b3d15611ba6573d906001600160401b0382116112a05760405191611b9a601f8201601f191660200184611b3e565b82523d6000602084013e565b606090565b15611bb257565b60405162461bcd60e51b81526020600482015260166024820152751499599d5b99081d1c985b9cd9995c8819985a5b195960521b6044820152606490fd5b15611bf757565b60405162461bcd60e51b8152602060048201526013602482015272119959481d1c985b9cd9995c8819985a5b1959606a1b6044820152606490fd5b90600182811c92168015611c62575b6020831014611c4c57565b634e487b7160e01b600052602260045260246000fd5b91607f1691611c41565b90604051611c7981611b23565b82546001600160a01b0390811682526001840154602083015260029093015460ff80821615156040840152600882901c909416606083015260a81c90921615156080830152565b9190811015611afe5760a0020190565b356001600160a01b03811681036103405790565b919082018092116112fa57565b818102929181159184041417156112fa57565b8054821015611afe576000526003602060002091020190600090565b3580151581036103405790565b9190811015611afe5760051b0190565b600260005414611d4e576002600055565b633ee5aeb560e01b60005260046000fdfea2646970667358221220c69ea49897dcc8978aabb5a68a11fb6e59b754563a01a4d580db1b86cb96bc2064736f6c634300081a0033",
          "opcodes": "PUSH1 0x80 CALLVALUE PUSH1 0x7B JUMPI PUSH1 0x1F PUSH2 0x1E2C CODESIZE DUP2 SWAP1 SUB SWAP2 DUP3 ADD PUSH1 0x1F NOT AND DUP4 ADD SWAP2 PUSH1 0x1 PUSH1 0x1 PUSH1 0x40 SHL SUB DUP4 GT DUP5 DUP5 LT OR PUSH1 0x80 JUMPI DUP1 DUP5 SWAP3 PUSH1 0x20 SWAP5 PUSH1 0x40 MSTORE DUP4 CODECOPY DUP2 ADD SUB SLT PUSH1 0x7B JUMPI MLOAD PUSH1 0x1 PUSH1 0x1 PUSH1 0xA0 SHL SUB DUP2 AND SWAP1 DUP2 SWAP1 SUB PUSH1 0x7B JUMPI PUSH1 0x1 PUSH1 0x0 SSTORE PUSH1 0x0 PUSH1 0x6 SSTORE PUSH1 0x0 PUSH1 0x7 SSTORE PUSH1 0x1 DUP1 PUSH1 0xA0 SHL SUB NOT PUSH1 0x5 SLOAD AND OR PUSH1 0x5 SSTORE PUSH1 0x40 MLOAD PUSH2 0x1D95 SWAP1 DUP2 PUSH2 0x97 DUP3 CODECOPY RETURN JUMPDEST PUSH1 0x0 DUP1 REVERT JUMPDEST PUSH4 0x4E487B71 PUSH1 0xE0 SHL PUSH1 0x0 MSTORE PUSH1 0x41 PUSH1 0x4 MSTORE PUSH1 0x24 PUSH1 0x0 REVERT INVALID PUSH2 0x180 PUSH1 0x40 MSTORE PUSH1 0x4 CALLDATASIZE LT ISZERO PUSH2 0x13 JUMPI PUSH1 0x0 DUP1 REVERT JUMPDEST PUSH1 0x0 CALLDATALOAD PUSH1 0xE0 SHR DUP1 PUSH4 0x79C48A9 EQ PUSH2 0x18FD JUMPI DUP1 PUSH4 0xD84128E EQ PUSH2 0x183F JUMPI DUP1 PUSH4 0x1DFDA2E7 EQ PUSH2 0x1821 JUMPI DUP1 PUSH4 0x26FE4736 EQ PUSH2 0x1721 JUMPI DUP1 PUSH4 0x32DF90E0 EQ PUSH2 0x168F JUMPI DUP1 PUSH4 0x4192BBB0 EQ PUSH2 0x1390 JUMPI DUP1 PUSH4 0x4342B456 EQ PUSH2 0x10C0 JUMPI DUP1 PUSH4 0x46904840 EQ PUSH2 0x1097 JUMPI DUP1 PUSH4 0x5386D26C EQ PUSH2 0x8E5 JUMPI DUP1 PUSH4 0x560DF801 EQ PUSH2 0x88A JUMPI DUP1 PUSH4 0x6A80B6F0 EQ PUSH2 0x808 JUMPI DUP1 PUSH4 0xA40B56B9 EQ PUSH2 0x7EA JUMPI PUSH4 0xEF7042AF EQ PUSH2 0xAC JUMPI PUSH1 0x0 DUP1 REVERT JUMPDEST CALLVALUE PUSH2 0x340 JUMPI PUSH1 0x80 CALLDATASIZE PUSH1 0x3 NOT ADD SLT PUSH2 0x340 JUMPI PUSH1 0x24 CALLDATALOAD PUSH1 0x1 PUSH1 0x1 PUSH1 0x40 SHL SUB DUP2 GT PUSH2 0x340 JUMPI PUSH2 0xDC SWAP1 CALLDATASIZE SWAP1 PUSH1 0x4 ADD PUSH2 0x1AB6 JUMP JUMPDEST SWAP1 PUSH1 0x80 MSTORE PUSH1 0x44 CALLDATALOAD PUSH1 0x1 PUSH1 0x1 PUSH1 0x40 SHL SUB DUP2 GT PUSH2 0x340 JUMPI PUSH2 0xFF SWAP1 CALLDATASIZE SWAP1 PUSH1 0x4 ADD PUSH2 0x1AB6 JUMP JUMPDEST PUSH1 0x64 CALLDATALOAD PUSH1 0x1 PUSH1 0x1 PUSH1 0x40 SHL SUB DUP2 GT PUSH2 0x340 JUMPI PUSH2 0x11E SWAP1 CALLDATASIZE SWAP1 PUSH1 0x4 ADD PUSH2 0x1AB6 JUMP JUMPDEST SWAP3 PUSH2 0x127 PUSH2 0x1D3D JUMP JUMPDEST PUSH1 0x4 CALLDATALOAD PUSH1 0x0 SWAP1 DUP2 MSTORE PUSH1 0x3 PUSH1 0x20 MSTORE PUSH1 0x40 SWAP1 KECCAK256 SLOAD PUSH1 0x1 PUSH1 0x1 PUSH1 0xA0 SHL SUB AND ISZERO PUSH2 0x7D9 JUMPI PUSH1 0x4 CALLDATALOAD PUSH1 0x0 MSTORE PUSH1 0x3 PUSH1 0x20 MSTORE PUSH1 0x40 PUSH1 0x0 KECCAK256 PUSH1 0xA0 MSTORE PUSH1 0x5 PUSH1 0xA0 MLOAD ADD DUP1 SLOAD PUSH1 0xFF DUP2 AND ISZERO DUP1 ISZERO PUSH2 0x7CA JUMPI JUMPDEST PUSH2 0x7B9 JUMPI PUSH1 0xFF DUP2 PUSH1 0x8 SHR AND PUSH2 0x72D JUMPI JUMPDEST TIMESTAMP PUSH1 0x4 PUSH1 0xA0 MLOAD ADD SSTORE PUSH1 0xFF NOT AND SWAP1 SSTORE PUSH1 0x0 SWAP5 SELFBALANCE DUP1 PUSH2 0x5C0 JUMPI JUMPDEST POP PUSH1 0x0 JUMPDEST DUP2 DUP2 LT PUSH2 0x383 JUMPI POP POP DUP5 SWAP4 PUSH1 0x0 SWAP4 PUSH1 0x2 PUSH1 0xA0 MLOAD ADD SWAP5 JUMPDEST DUP2 DUP2 LT PUSH2 0x1F5 JUMPI DUP7 PUSH1 0x40 MLOAD SWAP1 TIMESTAMP DUP3 MSTORE PUSH1 0x20 DUP3 ADD MSTORE CALLER SWAP1 PUSH32 0x16881B0159FDFDAC11898F5E611BC693C89BB69AF46D691531CFF9D68D30CAF1 PUSH1 0x40 PUSH1 0x4 CALLDATALOAD SWAP3 LOG3 PUSH1 0x1 PUSH1 0x0 SSTORE STOP JUMPDEST PUSH1 0x1 PUSH1 0x1 PUSH1 0xA0 SHL SUB PUSH2 0x210 PUSH2 0x20B DUP4 DUP6 DUP9 PUSH2 0x1D2D JUMP JUMPDEST PUSH2 0x1CD0 JUMP JUMPDEST AND SWAP7 PUSH1 0x0 JUMPDEST DUP8 SLOAD DUP2 LT ISZERO PUSH2 0x378 JUMPI PUSH2 0x231 PUSH2 0x22B DUP3 DUP11 PUSH2 0x1D04 JUMP JUMPDEST POP PUSH2 0x1C6C JUMP JUMPDEST PUSH1 0x60 DUP2 ADD MLOAD SWAP1 SWAP2 SWAP1 PUSH1 0x1 PUSH1 0x1 PUSH1 0xA0 SHL SUB AND DUP1 ISZERO ISZERO SWAP1 DUP2 PUSH2 0x357 JUMPI JUMPDEST POP PUSH2 0x345 JUMPI JUMPDEST DUP6 DUP5 LT PUSH2 0x265 JUMPI JUMPDEST PUSH1 0x1 SWAP2 POP JUMPDEST ADD PUSH2 0x215 JUMP JUMPDEST DUP2 MLOAD PUSH1 0x1 PUSH1 0x1 PUSH1 0xA0 SHL SUB AND SWAP2 PUSH2 0x27C DUP6 DUP9 DUP12 PUSH2 0x1D2D JUMP JUMPDEST CALLDATALOAD DUP12 EXTCODESIZE ISZERO PUSH2 0x340 JUMPI PUSH1 0x0 DUP13 SWAP2 PUSH1 0x64 PUSH1 0x1 SWAP7 DUP4 PUSH1 0x40 MLOAD SWAP6 DUP7 SWAP5 DUP6 SWAP4 PUSH4 0x21421707 PUSH1 0xE1 SHL DUP6 MSTORE ADDRESS PUSH1 0x4 DUP7 ADD MSTORE PUSH1 0x24 DUP6 ADD MSTORE PUSH1 0x44 DUP5 ADD MSTORE GAS CALL SWAP1 DUP2 PUSH2 0x32F JUMPI JUMPDEST POP PUSH2 0x2C5 JUMPI JUMPDEST POP PUSH2 0x25A JUMP JUMPDEST DUP3 DUP1 PUSH1 0xA0 SHL SUB SWAP1 MLOAD AND PUSH2 0x2D9 DUP6 DUP9 DUP12 PUSH2 0x1D2D JUMP JUMPDEST CALLDATALOAD PUSH2 0x2E8 PUSH2 0x20B DUP8 DUP10 DUP13 PUSH2 0x1D2D JUMP JUMPDEST PUSH1 0x40 MLOAD SWAP2 DUP3 MSTORE PUSH1 0x2 PUSH1 0x20 DUP4 ADD MSTORE DUP5 DUP1 PUSH1 0xA0 SHL SUB AND PUSH1 0x40 DUP3 ADD MSTORE PUSH32 0xAFF808144E25410FFB44D80DAAB04C80FD545BEC1FCB5823A3E96AF08FAAC3CD PUSH1 0x60 PUSH1 0x4 CALLDATALOAD SWAP3 LOG3 DUP11 PUSH2 0x2BF JUMP JUMPDEST PUSH1 0x0 PUSH2 0x33A SWAP2 PUSH2 0x1B3E JUMP JUMPDEST DUP13 PUSH2 0x2B9 JUMP JUMPDEST PUSH1 0x0 DUP1 REVERT JUMPDEST PUSH1 0x40 DUP3 ADD MLOAD PUSH2 0x252 JUMPI PUSH1 0x1 SWAP2 POP PUSH2 0x25F JUMP JUMPDEST SWAP1 POP PUSH1 0x1 PUSH1 0x1 PUSH1 0xA0 SHL SUB PUSH2 0x36F PUSH2 0x20B DUP8 DUP10 DUP13 PUSH2 0x1D2D JUMP JUMPDEST AND EQ ISZERO DUP12 PUSH2 0x24C JUMP JUMPDEST POP SWAP7 POP PUSH1 0x1 ADD PUSH2 0x1B0 JUMP JUMPDEST PUSH1 0x1 DUP1 PUSH1 0xA0 SHL SUB PUSH2 0x39A PUSH2 0x20B DUP4 DUP6 PUSH1 0x80 MLOAD PUSH2 0x1D2D JUMP JUMPDEST AND PUSH1 0xC0 MSTORE PUSH1 0x40 MLOAD PUSH4 0x70A08231 PUSH1 0xE0 SHL DUP2 MSTORE ADDRESS PUSH1 0x4 DUP3 ADD MSTORE PUSH1 0x20 DUP2 PUSH1 0x24 DUP2 PUSH1 0xC0 MLOAD GAS STATICCALL SWAP1 DUP2 ISZERO PUSH2 0x546 JUMPI PUSH1 0x0 SWAP2 PUSH2 0x58F JUMPI JUMPDEST POP DUP1 PUSH2 0x3DB JUMPI JUMPDEST POP PUSH1 0x1 ADD PUSH2 0x19A JUMP JUMPDEST SWAP6 SWAP2 SWAP4 PUSH1 0x0 SWAP8 SWAP4 SWAP8 SWAP6 SWAP2 SWAP6 JUMPDEST PUSH1 0x2 PUSH1 0xA0 MLOAD ADD SLOAD DUP2 LT ISZERO PUSH2 0x57D JUMPI PUSH2 0x407 PUSH2 0x22B DUP3 PUSH1 0x2 PUSH1 0xA0 MLOAD ADD PUSH2 0x1D04 JUMP JUMPDEST PUSH1 0x40 DUP2 ADD MLOAD PUSH2 0x552 JUMPI PUSH1 0x60 DUP2 ADD MLOAD PUSH1 0x1 PUSH1 0x1 PUSH1 0xA0 SHL SUB AND DUP1 ISZERO ISZERO SWAP1 DUP2 PUSH2 0x55B JUMPI JUMPDEST POP PUSH2 0x552 JUMPI PUSH2 0x2710 PUSH2 0x43E PUSH1 0x20 DUP4 ADD MLOAD DUP12 PUSH2 0x1CF1 JUMP JUMPDEST DIV SWAP1 DUP2 ISZERO ISZERO DUP1 PUSH2 0x4BE JUMPI JUMPDEST SWAP1 PUSH1 0x1 SWAP4 SWAP3 SWAP2 PUSH2 0x45D JUMPI JUMPDEST POP POP JUMPDEST ADD PUSH2 0x3E7 JUMP JUMPDEST DUP4 DUP1 PUSH1 0xA0 SHL SUB SWAP1 MLOAD AND SWAP1 PUSH2 0x477 PUSH2 0x20B DUP12 DUP12 PUSH1 0x80 MLOAD PUSH2 0x1D2D JUMP JUMPDEST PUSH1 0x40 MLOAD SWAP2 DUP3 MSTORE DUP5 PUSH1 0x20 DUP4 ADD MSTORE DUP5 DUP1 PUSH1 0xA0 SHL SUB AND PUSH1 0x40 DUP3 ADD MSTORE PUSH32 0xAFF808144E25410FFB44D80DAAB04C80FD545BEC1FCB5823A3E96AF08FAAC3CD PUSH1 0x60 PUSH1 0x4 CALLDATALOAD SWAP3 LOG3 CODESIZE DUP1 PUSH2 0x454 JUMP JUMPDEST POP PUSH1 0x1 DUP1 PUSH1 0xA0 SHL SUB DUP2 MLOAD AND PUSH1 0x40 MLOAD SWAP1 PUSH4 0xA9059CBB PUSH1 0xE0 SHL DUP3 MSTORE PUSH1 0x4 DUP3 ADD MSTORE DUP3 PUSH1 0x24 DUP3 ADD MSTORE PUSH1 0x20 DUP2 PUSH1 0x44 DUP2 PUSH1 0x0 PUSH1 0xC0 MLOAD GAS CALL SWAP1 DUP2 ISZERO PUSH2 0x546 JUMPI PUSH1 0x0 SWAP2 PUSH2 0x504 JUMPI JUMPDEST POP PUSH2 0x449 JUMP JUMPDEST PUSH1 0x20 DUP2 RETURNDATASIZE DUP3 GT PUSH2 0x53E JUMPI JUMPDEST DUP2 PUSH2 0x51C PUSH1 0x20 SWAP4 DUP4 PUSH2 0x1B3E JUMP JUMPDEST DUP2 ADD SUB SLT PUSH2 0x53A JUMPI MLOAD SWAP1 DUP2 ISZERO ISZERO DUP3 SUB PUSH2 0x537 JUMPI POP PUSH1 0x1 PUSH2 0x4FE JUMP JUMPDEST DUP1 REVERT JUMPDEST POP DUP1 REVERT JUMPDEST RETURNDATASIZE SWAP2 POP PUSH2 0x50F JUMP JUMPDEST PUSH1 0x40 MLOAD RETURNDATASIZE PUSH1 0x0 DUP3 RETURNDATACOPY RETURNDATASIZE SWAP1 REVERT JUMPDEST POP PUSH1 0x1 SWAP1 PUSH2 0x457 JUMP JUMPDEST SWAP1 POP PUSH1 0x1 DUP1 PUSH1 0xA0 SHL SUB PUSH2 0x574 PUSH2 0x20B DUP12 DUP12 PUSH1 0x80 MLOAD PUSH2 0x1D2D JUMP JUMPDEST AND EQ ISZERO CODESIZE PUSH2 0x428 JUMP JUMPDEST POP SWAP4 SWAP2 SWAP6 POP SWAP4 PUSH1 0x1 SWAP1 SWAP7 SWAP3 SWAP7 SWAP1 PUSH2 0x3D2 JUMP JUMPDEST SWAP1 PUSH1 0x20 DUP3 RETURNDATASIZE DUP3 GT PUSH2 0x5B8 JUMPI JUMPDEST DUP2 PUSH2 0x5A8 PUSH1 0x20 SWAP4 DUP4 PUSH2 0x1B3E JUMP JUMPDEST DUP2 ADD SUB SLT PUSH2 0x537 JUMPI POP MLOAD CODESIZE PUSH2 0x3CB JUMP JUMPDEST RETURNDATASIZE SWAP2 POP PUSH2 0x59B JUMP JUMPDEST SWAP3 PUSH1 0x0 SWAP6 SWAP3 SWAP5 SWAP2 SWAP6 SWAP5 PUSH1 0x2 PUSH1 0xA0 MLOAD ADD SWAP6 JUMPDEST DUP7 SLOAD DUP2 LT ISZERO PUSH2 0x71F JUMPI PUSH1 0xFF PUSH1 0x2 PUSH2 0x5E8 DUP4 DUP11 PUSH2 0x1D04 JUMP JUMPDEST POP ADD SLOAD AND ISZERO DUP1 PUSH2 0x6FD JUMPI JUMPDEST PUSH2 0x600 JUMPI JUMPDEST PUSH1 0x1 ADD PUSH2 0x5D1 JUMP JUMPDEST PUSH2 0x2710 PUSH2 0x61B PUSH1 0x1 PUSH2 0x612 DUP5 DUP12 PUSH2 0x1D04 JUMP JUMPDEST POP ADD SLOAD DUP9 PUSH2 0x1CF1 JUMP JUMPDEST DIV DUP1 PUSH2 0x628 JUMPI JUMPDEST POP PUSH2 0x5F8 JUMP JUMPDEST SWAP9 SWAP1 PUSH1 0x0 DUP1 DUP1 DUP1 DUP14 PUSH2 0x63A DUP7 DUP15 PUSH2 0x1D04 JUMP JUMPDEST POP SLOAD PUSH1 0x1 PUSH1 0x1 PUSH1 0xA0 SHL SUB AND GAS CALL PUSH2 0x64F PUSH2 0x1B6C JUMP JUMPDEST POP ISZERO PUSH2 0x6B8 JUMPI PUSH2 0x661 DUP11 PUSH1 0x1 SWAP4 PUSH2 0x1CE4 JUMP JUMPDEST SWAP10 PUSH2 0x66C DUP3 DUP11 PUSH2 0x1D04 JUMP JUMPDEST POP DUP4 DUP1 PUSH1 0xA0 SHL SUB SWAP1 SLOAD AND SWAP1 PUSH1 0x40 MLOAD SWAP1 DUP2 MSTORE PUSH1 0x0 DUP1 PUSH1 0x20 DUP4 ADD MSTORE PUSH1 0x40 DUP3 ADD MSTORE PUSH32 0xAFF808144E25410FFB44D80DAAB04C80FD545BEC1FCB5823A3E96AF08FAAC3CD PUSH1 0x60 PUSH1 0x4 CALLDATALOAD SWAP3 LOG3 SWAP1 PUSH2 0x622 JUMP JUMPDEST PUSH1 0x40 MLOAD PUSH3 0x461BCD PUSH1 0xE5 SHL DUP2 MSTORE PUSH1 0x20 PUSH1 0x4 DUP3 ADD MSTORE PUSH1 0x1C PUSH1 0x24 DUP3 ADD MSTORE PUSH32 0x4E617469766520746F6B656E207472616E73666572206661696C656400000000 PUSH1 0x44 DUP3 ADD MSTORE PUSH1 0x64 SWAP1 REVERT JUMPDEST POP PUSH2 0x708 DUP2 DUP9 PUSH2 0x1D04 JUMP JUMPDEST POP PUSH1 0x2 ADD SLOAD PUSH1 0x8 SHR PUSH1 0x1 PUSH1 0x1 PUSH1 0xA0 SHL SUB AND ISZERO PUSH2 0x5F3 JUMP JUMPDEST POP SWAP3 SWAP6 SWAP2 SWAP5 POP SWAP3 POP CODESIZE PUSH2 0x196 JUMP JUMPDEST PUSH1 0x0 DUP1 PUSH1 0x6 PUSH1 0xA0 MLOAD ADD SWAP1 DUP2 SLOAD SWAP2 PUSH1 0x8 PUSH1 0xA0 MLOAD ADD SWAP2 JUMPDEST DUP4 DUP2 LT PUSH2 0x76B JUMPI POP POP POP POP PUSH1 0x7 PUSH1 0xA0 MLOAD ADD SLOAD GT ISZERO PUSH2 0x17E JUMPI PUSH4 0x21BEE883 PUSH1 0xE1 SHL PUSH1 0x0 MSTORE PUSH1 0x4 PUSH1 0x0 REVERT JUMPDEST PUSH1 0xFF PUSH1 0x40 PUSH2 0x779 DUP4 DUP6 PUSH2 0x1AE6 JUMP JUMPDEST SWAP1 SLOAD PUSH1 0x3 SWAP2 SWAP1 SWAP2 SHL SHR PUSH1 0x1 PUSH1 0x1 PUSH1 0xA0 SHL SUB AND PUSH1 0x0 SWAP1 DUP2 MSTORE PUSH1 0x20 DUP7 SWAP1 MSTORE KECCAK256 SLOAD AND PUSH2 0x7A5 JUMPI JUMPDEST PUSH1 0x1 ADD PUSH2 0x742 JUMP JUMPDEST SWAP4 PUSH2 0x7B1 PUSH1 0x1 SWAP2 PUSH2 0x1B14 JUMP JUMPDEST SWAP5 SWAP1 POP PUSH2 0x79D JUMP JUMPDEST PUSH4 0x133F3D59 PUSH1 0xE1 SHL PUSH1 0x0 MSTORE PUSH1 0x4 PUSH1 0x0 REVERT JUMPDEST POP PUSH1 0x4 PUSH1 0xA0 MLOAD ADD SLOAD ISZERO ISZERO PUSH2 0x16E JUMP JUMPDEST PUSH4 0xF73656BF PUSH1 0xE0 SHL PUSH1 0x0 MSTORE PUSH1 0x4 PUSH1 0x0 REVERT JUMPDEST CALLVALUE PUSH2 0x340 JUMPI PUSH1 0x0 CALLDATASIZE PUSH1 0x3 NOT ADD SLT PUSH2 0x340 JUMPI PUSH1 0x20 PUSH1 0x6 SLOAD PUSH1 0x40 MLOAD SWAP1 DUP2 MSTORE RETURN JUMPDEST CALLVALUE PUSH2 0x340 JUMPI PUSH1 0x20 CALLDATASIZE PUSH1 0x3 NOT ADD SLT PUSH2 0x340 JUMPI PUSH1 0x4 CALLDATALOAD PUSH1 0x0 DUP2 DUP2 MSTORE PUSH1 0x3 PUSH1 0x20 MSTORE PUSH1 0x40 SWAP1 KECCAK256 SLOAD PUSH1 0x1 PUSH1 0x1 PUSH1 0xA0 SHL SUB AND CALLER SUB PUSH2 0x87A JUMPI PUSH1 0x0 DUP2 DUP2 MSTORE PUSH1 0x3 PUSH1 0x20 MSTORE PUSH1 0x40 SWAP1 KECCAK256 SLOAD PUSH1 0x1 PUSH1 0x1 PUSH1 0xA0 SHL SUB AND ISZERO PUSH2 0x7D9 JUMPI PUSH1 0x0 MSTORE PUSH1 0x3 PUSH1 0x20 MSTORE PUSH1 0x40 PUSH1 0x0 KECCAK256 PUSH1 0x4 DUP2 ADD SLOAD PUSH2 0x7B9 JUMPI PUSH1 0x5 ADD DUP1 SLOAD PUSH1 0xFF NOT AND SWAP1 SSTORE STOP JUMPDEST PUSH3 0x82B429 PUSH1 0xE8 SHL PUSH1 0x0 MSTORE PUSH1 0x4 PUSH1 0x0 REVERT JUMPDEST CALLVALUE PUSH2 0x340 JUMPI PUSH1 0x40 CALLDATASIZE PUSH1 0x3 NOT ADD SLT PUSH2 0x340 JUMPI PUSH1 0x24 CALLDATALOAD PUSH1 0x1 PUSH1 0x1 PUSH1 0xA0 SHL SUB DUP2 AND DUP2 SUB PUSH2 0x340 JUMPI PUSH1 0x4 CALLDATALOAD PUSH1 0x0 MSTORE PUSH1 0x3 PUSH1 0x20 MSTORE PUSH1 0x8 PUSH1 0x40 PUSH1 0x0 KECCAK256 ADD SWAP1 PUSH1 0x1 DUP1 PUSH1 0xA0 SHL SUB AND PUSH1 0x0 MSTORE PUSH1 0x20 MSTORE PUSH1 0x20 PUSH1 0xFF PUSH1 0x40 PUSH1 0x0 KECCAK256 SLOAD AND PUSH1 0x40 MLOAD SWAP1 ISZERO ISZERO DUP2 MSTORE RETURN JUMPDEST PUSH2 0x120 CALLDATASIZE PUSH1 0x3 NOT ADD SLT PUSH2 0x340 JUMPI PUSH1 0x4 CALLDATALOAD PUSH1 0x1 PUSH1 0x1 PUSH1 0x40 SHL SUB DUP2 GT PUSH2 0x340 JUMPI PUSH2 0x911 SWAP1 CALLDATASIZE SWAP1 PUSH1 0x4 ADD PUSH2 0x1AB6 JUMP JUMPDEST PUSH2 0x140 MSTORE PUSH1 0xE0 MSTORE PUSH1 0x24 CALLDATALOAD PUSH1 0x1 PUSH1 0x1 PUSH1 0x40 SHL SUB DUP2 GT PUSH2 0x340 JUMPI PUSH2 0x937 SWAP1 CALLDATASIZE SWAP1 PUSH1 0x4 ADD PUSH2 0x1AB6 JUMP JUMPDEST PUSH1 0x44 CALLDATALOAD PUSH1 0x1 PUSH1 0x1 PUSH1 0x40 SHL SUB DUP2 GT PUSH2 0x340 JUMPI PUSH2 0x956 SWAP1 CALLDATASIZE SWAP1 PUSH1 0x4 ADD PUSH2 0x1AB6 JUMP JUMPDEST SWAP2 PUSH1 0x64 CALLDATALOAD PUSH1 0x1 PUSH1 0x1 PUSH1 0x40 SHL SUB DUP2 GT PUSH2 0x340 JUMPI PUSH2 0x976 SWAP1 CALLDATASIZE SWAP1 PUSH1 0x4 ADD PUSH2 0x1AB6 JUMP JUMPDEST SWAP2 SWAP1 SWAP5 PUSH1 0x84 CALLDATALOAD PUSH1 0x1 PUSH1 0x1 PUSH1 0x40 SHL SUB DUP2 GT PUSH2 0x340 JUMPI PUSH2 0x998 SWAP1 CALLDATASIZE SWAP1 PUSH1 0x4 ADD PUSH2 0x1AB6 JUMP JUMPDEST PUSH1 0x1 PUSH1 0x1 PUSH1 0x40 SHL SUB PUSH1 0xA4 SWAP8 SWAP3 SWAP8 CALLDATALOAD GT PUSH2 0x340 JUMPI CALLDATASIZE PUSH1 0x23 PUSH1 0xA4 CALLDATALOAD ADD SLT ISZERO PUSH2 0x340 JUMPI PUSH1 0x1 PUSH1 0x1 PUSH1 0x40 SHL SUB PUSH1 0xA4 CALLDATALOAD PUSH1 0x4 ADD CALLDATALOAD GT PUSH2 0x160 MSTORE PUSH2 0x160 MLOAD PUSH2 0x340 JUMPI CALLDATASIZE PUSH1 0x24 PUSH1 0xA4 CALLDATALOAD PUSH1 0x4 ADD CALLDATALOAD PUSH1 0xA4 CALLDATALOAD ADD ADD GT PUSH2 0x340 JUMPI PUSH1 0xC4 CALLDATALOAD ISZERO ISZERO PUSH1 0xC4 CALLDATALOAD SUB PUSH2 0x340 JUMPI PUSH1 0xE4 CALLDATALOAD PUSH1 0x1 PUSH1 0x1 PUSH1 0x40 SHL SUB DUP2 GT PUSH2 0x340 JUMPI PUSH2 0xA14 SWAP1 CALLDATASIZE SWAP1 PUSH1 0x4 ADD PUSH2 0x1AB6 JUMP JUMPDEST SWAP6 SWAP1 SWAP8 PUSH2 0x140 MLOAD ISZERO DUP1 ISZERO PUSH2 0x108A JUMPI JUMPDEST DUP1 ISZERO PUSH2 0x107D JUMPI JUMPDEST DUP1 ISZERO PUSH2 0x1070 JUMPI JUMPDEST DUP1 ISZERO PUSH2 0x1063 JUMPI JUMPDEST PUSH2 0x1052 JUMPI PUSH1 0x0 DUP1 JUMPDEST PUSH2 0x140 MLOAD DUP3 LT PUSH2 0xFE4 JUMPI PUSH2 0x2710 SWAP2 POP SUB PUSH2 0xFD3 JUMPI PUSH1 0xC4 CALLDATALOAD PUSH2 0xF9E JUMPI JUMPDEST PUSH1 0x0 SWAP10 DUP11 PUSH2 0x100 MSTORE PUSH1 0x6 SLOAD DUP1 PUSH2 0xF68 JUMPI JUMPDEST POP PUSH1 0x1 SLOAD PUSH2 0x120 MSTORE PUSH2 0xA81 PUSH2 0x120 MLOAD PUSH2 0x1B14 JUMP JUMPDEST PUSH1 0x1 SSTORE PUSH2 0x120 MLOAD PUSH1 0x0 MSTORE PUSH1 0x3 PUSH1 0x20 MSTORE PUSH1 0x40 PUSH1 0x0 KECCAK256 SWAP9 PUSH1 0x1 DUP1 PUSH1 0xA0 SHL SUB CALLER AND PUSH12 0xFFFFFFFFFFFFFFFFFFFFFFFF PUSH1 0xA0 SHL DUP12 SLOAD AND OR DUP11 SSTORE PUSH1 0x0 PUSH2 0x160 MSTORE PUSH2 0xAC8 PUSH1 0x1 DUP12 ADD SLOAD PUSH2 0x1C32 JUMP JUMPDEST PUSH1 0x1F DUP2 GT PUSH2 0xF0F JUMPI JUMPDEST POP PUSH2 0x160 MLOAD PUSH1 0x1F PUSH1 0xA4 CALLDATALOAD PUSH1 0x4 ADD CALLDATALOAD GT PUSH1 0x1 EQ PUSH2 0xE78 JUMPI PUSH2 0x160 MLOAD SWAP1 PUSH1 0xA4 CALLDATALOAD PUSH1 0x4 ADD CALLDATALOAD PUSH2 0xE68 JUMPI JUMPDEST POP PUSH1 0xA4 CALLDATALOAD PUSH1 0x4 ADD CALLDATALOAD PUSH1 0x1 SHL SWAP1 PUSH1 0x0 NOT PUSH1 0xA4 CALLDATALOAD PUSH1 0x4 ADD CALLDATALOAD PUSH1 0x3 SHL SHR NOT AND OR PUSH1 0x1 DUP12 ADD SSTORE SWAP10 SWAP9 SWAP10 JUMPDEST TIMESTAMP PUSH1 0x3 DUP13 ADD SSTORE PUSH1 0x5 DUP12 ADD DUP1 SLOAD PUSH2 0xFFFF NOT AND PUSH1 0xC4 CALLDATALOAD ISZERO ISZERO PUSH1 0x8 SHL PUSH2 0xFF00 AND OR PUSH1 0x1 OR SWAP1 SSTORE PUSH2 0x104 CALLDATALOAD PUSH1 0x7 DUP13 ADD SSTORE PUSH2 0x160 MLOAD JUMPDEST PUSH2 0x140 MLOAD DUP2 LT PUSH2 0xCEC JUMPI DUP13 DUP13 DUP13 DUP13 PUSH1 0x6 PUSH2 0x160 MLOAD SWAP4 ADD SWAP3 JUMPDEST DUP2 DUP2 LT PUSH2 0xC97 JUMPI DUP5 CALLER PUSH2 0x160 MLOAD MSTORE PUSH1 0x2 PUSH1 0x20 MSTORE PUSH1 0x40 PUSH2 0x160 MLOAD KECCAK256 DUP1 SLOAD PUSH1 0x1 PUSH1 0x40 SHL DUP2 LT ISZERO PUSH2 0xC7D JUMPI PUSH2 0xB9E SWAP2 PUSH1 0x1 DUP3 ADD DUP2 SSTORE PUSH2 0x1AE6 JUMP JUMPDEST DUP2 SLOAD SWAP1 PUSH1 0x3 SHL SWAP1 PUSH2 0x120 MLOAD DUP3 SHL SWAP2 PUSH1 0x0 NOT SWAP1 SHL NOT AND OR SWAP1 SSTORE PUSH2 0x120 MLOAD PUSH2 0x160 MLOAD MSTORE PUSH1 0x8 PUSH1 0x20 MSTORE TIMESTAMP PUSH1 0x40 PUSH2 0x160 MLOAD KECCAK256 SSTORE PUSH1 0x40 MLOAD PUSH2 0x140 MLOAD DUP2 MSTORE TIMESTAMP PUSH1 0x20 DUP3 ADD MSTORE CALLER SWAP1 PUSH32 0x620E43FFAC03CE036E7AFEB5616ECE72B1C309C18CEE7E56412EBB6E5180919B PUSH1 0x40 PUSH2 0x120 MLOAD SWAP3 LOG3 DUP1 PUSH2 0xC58 JUMPI JUMPDEST POP PUSH2 0x100 MLOAD PUSH2 0xC24 JUMPI JUMPDEST PUSH1 0x20 PUSH1 0x40 MLOAD PUSH2 0x120 MLOAD DUP2 MSTORE RETURN JUMPDEST PUSH2 0x160 MLOAD PUSH2 0x100 MLOAD PUSH1 0x5 SLOAD PUSH2 0xC53 SWAP3 SWAP2 DUP3 SWAP2 DUP3 SWAP2 DUP3 SWAP2 PUSH1 0x1 PUSH1 0x1 PUSH1 0xA0 SHL SUB AND GAS CALL PUSH2 0xC4D PUSH2 0x1B6C JUMP JUMPDEST POP PUSH2 0x1BF0 JUMP JUMPDEST PUSH2 0xC17 JUMP JUMPDEST PUSH2 0x160 MLOAD PUSH2 0xC77 SWAP2 DUP2 SWAP1 DUP2 SWAP1 DUP2 SWAP1 CALLER GAS CALL PUSH2 0xC71 PUSH2 0x1B6C JUMP JUMPDEST POP PUSH2 0x1BAB JUMP JUMPDEST DUP1 PUSH2 0xC0D JUMP JUMPDEST PUSH4 0x4E487B71 PUSH1 0xE0 SHL PUSH2 0x160 MLOAD MSTORE PUSH1 0x41 PUSH1 0x4 MSTORE PUSH1 0x24 PUSH2 0x160 MLOAD REVERT JUMPDEST PUSH2 0xCA5 PUSH2 0x20B DUP3 DUP5 DUP7 PUSH2 0x1D2D JUMP JUMPDEST SWAP1 DUP5 SLOAD SWAP2 PUSH1 0x1 PUSH1 0x40 SHL DUP4 LT ISZERO PUSH2 0xC7D JUMPI PUSH2 0xCC6 DUP4 PUSH1 0x1 DUP1 SWAP6 ADD DUP9 SSTORE DUP8 PUSH2 0x1AE6 JUMP JUMPDEST DUP2 SWAP3 SWAP2 SLOAD SWAP1 PUSH1 0x3 SHL SWAP2 DUP6 DUP1 PUSH1 0xA0 SHL SUB AND DUP3 SHL SWAP2 DUP6 DUP1 PUSH1 0xA0 SHL SUB SWAP1 SHL NOT AND OR SWAP1 SSTORE ADD PUSH2 0xB67 JUMP JUMPDEST PUSH2 0xD02 PUSH2 0x20B DUP3 PUSH2 0x140 SWAP15 SWAP14 SWAP15 MLOAD PUSH1 0xE0 MLOAD PUSH2 0x1D2D JUMP JUMPDEST SWAP1 PUSH2 0xD0E DUP2 DUP12 DUP12 PUSH2 0x1D2D JUMP JUMPDEST CALLDATALOAD PUSH2 0xD22 PUSH2 0xD1D DUP4 DUP12 DUP8 PUSH2 0x1D2D JUMP JUMPDEST PUSH2 0x1D20 JUMP JUMPDEST PUSH2 0xD30 PUSH2 0x20B DUP5 DUP11 DUP10 PUSH2 0x1D2D JUMP JUMPDEST SWAP1 PUSH2 0xD3F PUSH2 0xD1D DUP6 DUP13 DUP12 PUSH2 0x1D2D JUMP JUMPDEST SWAP3 PUSH1 0x40 MLOAD SWAP6 PUSH2 0xD4D DUP8 PUSH2 0x1B23 JUMP JUMPDEST PUSH1 0x1 PUSH1 0x1 PUSH1 0xA0 SHL SUB SWAP1 DUP2 AND DUP8 MSTORE PUSH1 0x20 DUP8 ADD SWAP2 SWAP1 SWAP2 MSTORE SWAP1 ISZERO ISZERO PUSH1 0x40 DUP7 ADD MSTORE AND PUSH1 0x60 DUP5 ADD MSTORE ISZERO ISZERO PUSH1 0x80 DUP4 ADD MSTORE PUSH1 0x2 DUP13 ADD SLOAD PUSH1 0x1 PUSH1 0x40 SHL DUP2 LT ISZERO PUSH2 0xC7D JUMPI DUP1 PUSH1 0x2 DUP15 PUSH1 0x1 PUSH2 0xD9D SWAP5 ADD DUP3 DUP3 ADD SSTORE ADD PUSH2 0x1D04 JUMP JUMPDEST PUSH2 0xE4C JUMPI PUSH1 0x1 SWAP3 PUSH1 0x80 PUSH1 0x2 PUSH2 0xE43 SWAP4 DUP7 DUP1 PUSH1 0xA0 SHL SUB DUP8 DUP1 PUSH1 0xA0 SHL SUB DUP6 MLOAD AND AND PUSH12 0xFFFFFFFFFFFFFFFFFFFFFFFF PUSH1 0xA0 SHL DUP3 SLOAD AND OR DUP2 SSTORE PUSH1 0x20 DUP5 ADD MLOAD DUP8 DUP3 ADD SSTORE ADD SWAP2 PUSH2 0xDF9 PUSH1 0x40 DUP3 ADD MLOAD ISZERO ISZERO DUP5 SWAP1 PUSH1 0xFF DUP1 NOT DUP4 SLOAD AND SWAP2 ISZERO ISZERO AND OR SWAP1 SSTORE JUMP JUMPDEST PUSH1 0x60 DUP2 ADD MLOAD DUP4 SLOAD PUSH2 0x100 PUSH1 0x1 PUSH1 0xA8 SHL SUB NOT AND PUSH1 0xA0 DUP9 SWAP1 SHL DUP9 SWAP1 SUB SWAP2 SWAP1 SWAP2 AND PUSH1 0x8 SHL PUSH2 0x100 PUSH1 0x1 PUSH1 0xA8 SHL SUB AND OR DUP4 SSTORE ADD MLOAD DUP2 SLOAD PUSH1 0xFF PUSH1 0xA8 SHL NOT AND SWAP1 ISZERO ISZERO PUSH1 0xA8 SHL PUSH1 0xFF PUSH1 0xA8 SHL AND OR SWAP1 SSTORE JUMP JUMPDEST ADD SWAP11 SWAP10 SWAP11 PUSH2 0xB4F JUMP JUMPDEST PUSH4 0x4E487B71 PUSH1 0xE0 SHL PUSH2 0x160 MLOAD MSTORE PUSH2 0x160 MLOAD PUSH1 0x4 MSTORE PUSH1 0x24 PUSH2 0x160 MLOAD REVERT JUMPDEST PUSH1 0x24 SWAP2 POP PUSH1 0xA4 CALLDATALOAD ADD ADD CALLDATALOAD DUP14 PUSH2 0xAF8 JUMP JUMPDEST PUSH1 0x1 DUP12 ADD PUSH2 0x160 MLOAD MSTORE PUSH1 0x20 PUSH2 0x160 MLOAD KECCAK256 SWAP1 PUSH2 0x160 MLOAD JUMPDEST PUSH1 0x4 PUSH1 0xA4 CALLDATALOAD ADD CALLDATALOAD PUSH1 0x1F NOT AND DUP2 LT PUSH2 0xEF2 JUMPI POP PUSH1 0x4 PUSH1 0xA4 CALLDATALOAD ADD CALLDATALOAD PUSH1 0x1F NOT DUP2 AND LT PUSH2 0xECD JUMPI JUMPDEST POP POP PUSH1 0x1 PUSH1 0xA4 CALLDATALOAD PUSH1 0x4 ADD CALLDATALOAD DUP2 SHL ADD PUSH1 0x1 DUP12 ADD SSTORE SWAP10 SWAP9 SWAP10 PUSH2 0xB1E JUMP JUMPDEST PUSH1 0x24 PUSH1 0x0 NOT PUSH1 0xF8 PUSH1 0xA4 CALLDATALOAD PUSH1 0x4 ADD CALLDATALOAD PUSH1 0x3 SHL AND SHR NOT SWAP2 PUSH1 0xA4 CALLDATALOAD ADD ADD CALLDATALOAD AND SWAP1 SSTORE DUP13 DUP1 PUSH2 0xEB2 JUMP JUMPDEST SWAP1 SWAP2 PUSH1 0x20 PUSH1 0x1 DUP2 SWAP3 PUSH1 0x24 DUP7 PUSH1 0xA4 CALLDATALOAD ADD ADD CALLDATALOAD DUP2 SSTORE ADD SWAP4 ADD SWAP2 ADD PUSH2 0xE8E JUMP JUMPDEST PUSH1 0x1 DUP12 ADD PUSH2 0x160 MLOAD MSTORE PUSH1 0x20 PUSH2 0x160 MLOAD KECCAK256 PUSH1 0x1F PUSH1 0xA4 CALLDATALOAD PUSH1 0x4 ADD CALLDATALOAD ADD PUSH1 0x5 SHR DUP2 ADD PUSH1 0x20 PUSH1 0xA4 CALLDATALOAD PUSH1 0x4 ADD CALLDATALOAD LT PUSH2 0xF61 JUMPI JUMPDEST PUSH1 0x1F DUP4 ADD PUSH1 0x5 SHR DUP3 ADD DUP2 LT PUSH2 0xF53 JUMPI POP POP PUSH2 0xAD1 JUMP JUMPDEST PUSH2 0x160 MLOAD DUP2 SSTORE PUSH1 0x1 ADD PUSH2 0xF3D JUMP JUMPDEST POP DUP1 PUSH2 0xF3D JUMP JUMPDEST DUP1 CALLVALUE LT PUSH2 0xF8F JUMPI DUP1 PUSH2 0x100 MSTORE DUP1 CALLVALUE GT ISZERO PUSH2 0xA6D JUMPI PUSH2 0xF88 SWAP2 SWAP12 POP CALLVALUE PUSH2 0x1B5F JUMP JUMPDEST SWAP10 DUP12 PUSH2 0xA6D JUMP JUMPDEST PUSH4 0x1E9ACF17 PUSH1 0xE3 SHL DUP13 MSTORE PUSH1 0x4 DUP13 REVERT JUMPDEST DUP7 ISZERO PUSH2 0xFB6 JUMPI PUSH2 0x104 CALLDATALOAD ISZERO DUP1 ISZERO PUSH2 0xFC7 JUMPI JUMPDEST ISZERO PUSH2 0xA5C JUMPI JUMPDEST PUSH4 0xCCB1533D PUSH1 0xE0 SHL PUSH1 0x0 MSTORE PUSH1 0x4 PUSH1 0x0 REVERT JUMPDEST POP DUP7 PUSH2 0x104 CALLDATALOAD GT PUSH2 0xFB0 JUMP JUMPDEST PUSH4 0x1F3B85D3 PUSH1 0xE0 SHL PUSH1 0x0 MSTORE PUSH1 0x4 PUSH1 0x0 REVERT JUMPDEST PUSH1 0x1 DUP1 PUSH1 0xA0 SHL SUB PUSH2 0xFFE PUSH2 0x20B DUP5 PUSH2 0x140 MLOAD PUSH1 0xE0 MLOAD PUSH2 0x1D2D JUMP JUMPDEST AND ISZERO PUSH2 0x1052 JUMPI PUSH2 0x100F DUP3 DUP10 DUP10 PUSH2 0x1D2D JUMP JUMPDEST CALLDATALOAD ISZERO DUP1 ISZERO PUSH2 0x103C JUMPI JUMPDEST PUSH2 0xFD3 JUMPI PUSH2 0x1034 PUSH1 0x1 SWAP2 PUSH2 0x102D DUP5 DUP12 DUP12 PUSH2 0x1D2D JUMP JUMPDEST CALLDATALOAD SWAP1 PUSH2 0x1CE4 JUMP JUMPDEST SWAP2 ADD SWAP1 PUSH2 0xA40 JUMP JUMPDEST POP PUSH2 0x2710 PUSH2 0x104B DUP4 DUP11 DUP11 PUSH2 0x1D2D JUMP JUMPDEST CALLDATALOAD GT PUSH2 0x1018 JUMP JUMPDEST PUSH4 0x5D7BA19 PUSH1 0xE1 SHL PUSH1 0x0 MSTORE PUSH1 0x4 PUSH1 0x0 REVERT JUMPDEST POP PUSH2 0x140 MLOAD DUP4 EQ ISZERO PUSH2 0xA38 JUMP JUMPDEST POP PUSH2 0x140 MLOAD DUP3 EQ ISZERO PUSH2 0xA31 JUMP JUMPDEST POP PUSH2 0x140 MLOAD DUP5 EQ ISZERO PUSH2 0xA2A JUMP JUMPDEST POP PUSH2 0x140 MLOAD DUP7 EQ ISZERO PUSH2 0xA23 JUMP JUMPDEST CALLVALUE PUSH2 0x340 JUMPI PUSH1 0x0 CALLDATASIZE PUSH1 0x3 NOT ADD SLT PUSH2 0x340 JUMPI PUSH1 0x5 SLOAD PUSH1 0x40 MLOAD PUSH1 0x1 PUSH1 0x1 PUSH1 0xA0 SHL SUB SWAP1 SWAP2 AND DUP2 MSTORE PUSH1 0x20 SWAP1 RETURN JUMPDEST CALLVALUE PUSH2 0x340 JUMPI PUSH1 0x40 CALLDATASIZE PUSH1 0x3 NOT ADD SLT PUSH2 0x340 JUMPI PUSH1 0x4 CALLDATALOAD PUSH1 0x24 CALLDATALOAD PUSH1 0x1 PUSH1 0x1 PUSH1 0x40 SHL SUB DUP2 GT PUSH2 0x340 JUMPI CALLDATASIZE PUSH1 0x23 DUP3 ADD SLT ISZERO PUSH2 0x340 JUMPI DUP1 PUSH1 0x4 ADD CALLDATALOAD SWAP2 PUSH1 0x1 PUSH1 0x1 PUSH1 0x40 SHL SUB DUP4 GT PUSH2 0x340 JUMPI PUSH1 0x24 DUP3 ADD SWAP2 PUSH1 0x24 CALLDATASIZE SWAP2 PUSH1 0xA0 DUP7 MUL ADD ADD GT PUSH2 0x340 JUMPI PUSH1 0x0 DUP2 DUP2 MSTORE PUSH1 0x3 PUSH1 0x20 MSTORE PUSH1 0x40 SWAP1 KECCAK256 SLOAD PUSH1 0x1 PUSH1 0x1 PUSH1 0xA0 SHL SUB AND CALLER SUB PUSH2 0x87A JUMPI PUSH1 0x0 DUP2 DUP2 MSTORE PUSH1 0x3 PUSH1 0x20 MSTORE PUSH1 0x40 SWAP1 KECCAK256 SLOAD PUSH1 0x1 PUSH1 0x1 PUSH1 0xA0 SHL SUB AND ISZERO PUSH2 0x7D9 JUMPI PUSH1 0x0 MSTORE PUSH1 0x3 PUSH1 0x20 MSTORE PUSH1 0x40 PUSH1 0x0 KECCAK256 PUSH1 0xFF PUSH1 0x5 DUP3 ADD SLOAD AND ISZERO DUP1 ISZERO PUSH2 0x1383 JUMPI JUMPDEST PUSH2 0x7B9 JUMPI PUSH1 0x0 DUP1 JUMPDEST DUP5 DUP3 LT PUSH2 0x1310 JUMPI PUSH2 0x2710 SWAP2 POP SUB PUSH2 0xFD3 JUMPI PUSH1 0x2 ADD SWAP2 DUP3 SLOAD PUSH1 0x0 DUP5 SSTORE DUP1 PUSH2 0x12B6 JUMPI JUMPDEST POP PUSH1 0x0 JUMPDEST DUP2 DUP2 LT PUSH2 0x11A6 JUMPI STOP JUMPDEST PUSH2 0x11B1 DUP2 DUP4 DUP6 PUSH2 0x1CC0 JUMP JUMPDEST SWAP1 DUP5 SLOAD PUSH1 0x1 PUSH1 0x40 SHL DUP2 LT ISZERO PUSH2 0x12A0 JUMPI DUP1 PUSH1 0x1 PUSH2 0x11D0 SWAP3 ADD DUP8 SSTORE DUP7 PUSH2 0x1D04 JUMP JUMPDEST PUSH2 0x128A JUMPI PUSH1 0x1 SWAP3 PUSH2 0x1284 SWAP2 PUSH2 0x126A SWAP1 PUSH1 0x80 SWAP1 PUSH1 0x2 SWAP1 PUSH1 0x1 PUSH1 0x1 PUSH1 0xA0 SHL SUB PUSH2 0x11F6 DUP7 PUSH2 0x1CD0 JUMP JUMPDEST DUP3 SLOAD PUSH1 0x1 PUSH1 0x1 PUSH1 0xA0 SHL SUB NOT AND SWAP2 AND OR DUP2 SSTORE PUSH1 0x20 DUP6 ADD CALLDATALOAD DUP9 DUP3 ADD SSTORE ADD SWAP3 PUSH2 0x1233 PUSH2 0x1221 PUSH1 0x40 DUP4 ADD PUSH2 0x1D20 JUMP JUMPDEST DUP6 SWAP1 PUSH1 0xFF DUP1 NOT DUP4 SLOAD AND SWAP2 ISZERO ISZERO AND OR SWAP1 SSTORE JUMP JUMPDEST PUSH2 0x1264 PUSH2 0x1242 PUSH1 0x60 DUP4 ADD PUSH2 0x1CD0 JUMP JUMPDEST DUP6 SLOAD PUSH2 0x100 PUSH1 0x1 PUSH1 0xA8 SHL SUB NOT AND PUSH1 0x8 SWAP2 SWAP1 SWAP2 SHL PUSH2 0x100 PUSH1 0x1 PUSH1 0xA8 SHL SUB AND OR DUP6 SSTORE JUMP JUMPDEST ADD PUSH2 0x1D20 JUMP JUMPDEST DUP2 SLOAD PUSH1 0xFF PUSH1 0xA8 SHL NOT AND SWAP1 ISZERO ISZERO PUSH1 0xA8 SHL PUSH1 0xFF PUSH1 0xA8 SHL AND OR SWAP1 SSTORE JUMP JUMPDEST ADD PUSH2 0x119D JUMP JUMPDEST PUSH4 0x4E487B71 PUSH1 0xE0 SHL PUSH1 0x0 MSTORE PUSH1 0x0 PUSH1 0x4 MSTORE PUSH1 0x24 PUSH1 0x0 REVERT JUMPDEST PUSH4 0x4E487B71 PUSH1 0xE0 SHL PUSH1 0x0 MSTORE PUSH1 0x41 PUSH1 0x4 MSTORE PUSH1 0x24 PUSH1 0x0 REVERT JUMPDEST DUP1 PUSH1 0x3 MUL SWAP1 PUSH1 0x3 DUP3 DIV SUB PUSH2 0x12FA JUMPI DUP4 PUSH1 0x0 MSTORE PUSH1 0x20 PUSH1 0x0 KECCAK256 SWAP1 DUP2 ADD SWAP1 JUMPDEST DUP2 DUP2 LT PUSH2 0x12DF JUMPI POP PUSH2 0x1199 JUMP JUMPDEST DUP1 PUSH1 0x0 PUSH1 0x3 SWAP3 SSTORE PUSH1 0x0 PUSH1 0x1 DUP3 ADD SSTORE PUSH1 0x0 PUSH1 0x2 DUP3 ADD SSTORE ADD PUSH2 0x12D2 JUMP JUMPDEST PUSH4 0x4E487B71 PUSH1 0xE0 SHL PUSH1 0x0 MSTORE PUSH1 0x11 PUSH1 0x4 MSTORE PUSH1 0x24 PUSH1 0x0 REVERT JUMPDEST PUSH1 0x1 PUSH1 0x1 PUSH1 0xA0 SHL SUB PUSH2 0x1326 PUSH2 0x20B DUP5 DUP9 DUP9 PUSH2 0x1CC0 JUMP JUMPDEST AND ISZERO PUSH2 0x1052 JUMPI PUSH1 0x20 PUSH2 0x1339 DUP4 DUP8 DUP8 PUSH2 0x1CC0 JUMP JUMPDEST ADD CALLDATALOAD ISZERO DUP1 ISZERO PUSH2 0x136A JUMPI JUMPDEST PUSH2 0xFD3 JUMPI PUSH2 0x1362 PUSH1 0x1 SWAP2 PUSH1 0x20 PUSH2 0x135A DUP6 DUP10 DUP10 PUSH2 0x1CC0 JUMP JUMPDEST ADD CALLDATALOAD SWAP1 PUSH2 0x1CE4 JUMP JUMPDEST SWAP2 ADD SWAP1 PUSH2 0x1178 JUMP JUMPDEST POP PUSH2 0x2710 PUSH1 0x20 PUSH2 0x137B DUP5 DUP9 DUP9 PUSH2 0x1CC0 JUMP JUMPDEST ADD CALLDATALOAD GT PUSH2 0x1343 JUMP JUMPDEST POP PUSH1 0x4 DUP2 ADD SLOAD ISZERO ISZERO PUSH2 0x1170 JUMP JUMPDEST CALLVALUE PUSH2 0x340 JUMPI PUSH1 0x20 CALLDATASIZE PUSH1 0x3 NOT ADD SLT PUSH2 0x340 JUMPI PUSH1 0x4 CALLDATALOAD PUSH1 0x0 DUP2 DUP2 MSTORE PUSH1 0x3 PUSH1 0x20 MSTORE PUSH1 0x40 SWAP1 KECCAK256 SLOAD PUSH1 0x1 PUSH1 0x1 PUSH1 0xA0 SHL SUB AND ISZERO PUSH2 0x7D9 JUMPI PUSH1 0x0 MSTORE PUSH1 0x3 PUSH1 0x20 MSTORE PUSH1 0x40 PUSH1 0x0 KECCAK256 PUSH1 0x1 DUP1 PUSH1 0xA0 SHL SUB DUP2 SLOAD AND PUSH1 0x1 DUP3 ADD SWAP2 PUSH1 0x2 DUP2 ADD SWAP3 PUSH1 0x3 DUP3 ADD SLOAD SWAP1 PUSH1 0x4 DUP4 ADD SLOAD PUSH1 0x5 DUP5 ADD SLOAD SWAP1 PUSH1 0x7 PUSH1 0x6 DUP7 ADD SWAP6 ADD SLOAD SWAP4 PUSH1 0x40 MLOAD SWAP4 DUP5 PUSH1 0x0 DUP3 SLOAD SWAP3 PUSH2 0x1410 DUP5 PUSH2 0x1C32 JUMP JUMPDEST DUP1 DUP5 MSTORE SWAP4 PUSH1 0x1 DUP2 AND SWAP1 DUP2 ISZERO PUSH2 0x166D JUMPI POP PUSH1 0x1 EQ PUSH2 0x1626 JUMPI JUMPDEST POP PUSH2 0x1435 SWAP3 POP SUB DUP6 PUSH2 0x1B3E JUMP JUMPDEST DUP8 SLOAD PUSH1 0x1 PUSH1 0x1 PUSH1 0x40 SHL SUB DUP2 GT PUSH2 0x12A0 JUMPI PUSH1 0x40 MLOAD SWAP1 PUSH2 0x1459 PUSH1 0x20 DUP3 PUSH1 0x5 SHL ADD DUP4 PUSH2 0x1B3E JUMP JUMPDEST DUP1 DUP3 MSTORE PUSH1 0x20 DUP3 ADD DUP1 SWAP11 PUSH1 0x0 MSTORE PUSH1 0x20 PUSH1 0x0 KECCAK256 PUSH1 0x0 SWAP2 JUMPDEST DUP4 DUP4 LT PUSH2 0x1608 JUMPI POP POP POP POP PUSH1 0x40 MLOAD SWAP5 DUP6 DUP7 PUSH1 0x20 DUP11 SLOAD SWAP3 DUP4 DUP2 MSTORE ADD DUP1 SWAP11 PUSH1 0x0 MSTORE PUSH1 0x20 PUSH1 0x0 KECCAK256 SWAP3 PUSH1 0x0 JUMPDEST DUP2 DUP2 LT PUSH2 0x15E6 JUMPI POP POP PUSH2 0x14AB SWAP3 POP SUB DUP8 PUSH2 0x1B3E JUMP JUMPDEST PUSH1 0x40 MLOAD SWAP9 DUP10 MSTORE PUSH2 0x120 PUSH1 0x20 DUP11 ADD MSTORE DUP1 MLOAD SWAP1 DUP2 PUSH2 0x120 DUP12 ADD MSTORE PUSH1 0x0 JUMPDEST DUP3 DUP2 LT PUSH2 0x15D0 JUMPI POP POP DUP1 PUSH1 0x0 PUSH2 0x140 PUSH2 0x160 SWAP4 DUP13 ADD ADD MSTORE PUSH1 0x1F DUP1 NOT SWAP2 ADD AND DUP10 ADD PUSH2 0x140 DUP2 ADD SWAP3 PUSH2 0x140 DUP12 DUP4 SUB ADD PUSH1 0x40 DUP13 ADD MSTORE MLOAD DUP1 SWAP4 MSTORE ADD SWAP9 SWAP1 PUSH1 0x0 JUMPDEST DUP2 DUP2 LT PUSH2 0x157E JUMPI POP POP POP PUSH1 0x60 DUP8 ADD MSTORE PUSH1 0x80 DUP7 ADD MSTORE PUSH1 0xFF DUP1 DUP3 AND ISZERO ISZERO PUSH1 0xA0 DUP8 ADD MSTORE PUSH1 0x8 SWAP2 SWAP1 SWAP2 SHR AND ISZERO ISZERO PUSH1 0xC0 DUP6 ADD MSTORE DUP4 DUP6 SUB PUSH1 0xE0 DUP6 ADD MSTORE MLOAD DUP1 DUP6 MSTORE PUSH1 0x0 SWAP5 PUSH1 0x20 ADD SWAP3 SWAP1 JUMPDEST DUP1 DUP7 LT PUSH2 0x155B JUMPI POP POP DUP3 SWAP4 POP PUSH2 0x100 DUP4 ADD MSTORE SUB SWAP1 RETURN JUMPDEST DUP2 MLOAD PUSH1 0x1 PUSH1 0x1 PUSH1 0xA0 SHL SUB AND DUP5 MSTORE PUSH1 0x1 SWAP6 SWAP1 SWAP6 ADD SWAP5 PUSH1 0x20 SWAP4 DUP5 ADD SWAP4 SWAP1 SWAP2 ADD SWAP1 PUSH2 0x1545 JUMP JUMPDEST SWAP1 SWAP2 SWAP10 PUSH1 0x20 PUSH1 0xA0 PUSH1 0x1 SWAP3 PUSH1 0x80 DUP15 MLOAD DUP6 DUP1 DUP6 SHL SUB DUP2 MLOAD AND DUP4 MSTORE DUP5 DUP2 ADD MLOAD DUP6 DUP5 ADD MSTORE PUSH1 0x40 DUP2 ADD MLOAD ISZERO ISZERO PUSH1 0x40 DUP5 ADD MSTORE DUP6 DUP1 DUP6 SHL SUB PUSH1 0x60 DUP3 ADD MLOAD AND PUSH1 0x60 DUP5 ADD MSTORE ADD MLOAD ISZERO ISZERO PUSH1 0x80 DUP3 ADD MSTORE ADD SWAP12 ADD SWAP2 ADD SWAP2 SWAP1 SWAP2 PUSH2 0x1502 JUMP JUMPDEST PUSH1 0x20 DUP2 DUP4 ADD DUP2 ADD MLOAD PUSH2 0x140 DUP14 DUP5 ADD ADD MSTORE ADD PUSH2 0x14C6 JUMP JUMPDEST DUP5 SLOAD PUSH1 0x1 PUSH1 0x1 PUSH1 0xA0 SHL SUB AND DUP4 MSTORE PUSH1 0x1 SWAP5 DUP6 ADD SWAP5 DUP12 SWAP5 POP PUSH1 0x20 SWAP1 SWAP4 ADD SWAP3 ADD PUSH2 0x1496 JUMP JUMPDEST PUSH1 0x3 PUSH1 0x20 PUSH1 0x1 SWAP3 PUSH2 0x1618 DUP6 PUSH2 0x1C6C JUMP JUMPDEST DUP2 MSTORE ADD SWAP3 ADD SWAP3 ADD SWAP2 SWAP1 PUSH2 0x146E JUMP JUMPDEST SWAP1 POP PUSH1 0x0 SWAP3 SWAP2 SWAP3 MSTORE PUSH1 0x20 PUSH1 0x0 KECCAK256 SWAP1 PUSH1 0x0 SWAP2 JUMPDEST DUP2 DUP4 LT PUSH2 0x1651 JUMPI POP POP SWAP1 PUSH1 0x20 PUSH2 0x1435 SWAP3 DUP3 ADD ADD DUP12 PUSH2 0x1428 JUMP JUMPDEST PUSH1 0x20 SWAP2 SWAP4 POP DUP1 PUSH1 0x1 SWAP2 SLOAD DUP4 DUP6 DUP12 ADD ADD MSTORE ADD SWAP2 ADD SWAP1 SWAP2 DUP7 SWAP3 PUSH2 0x1638 JUMP JUMPDEST SWAP1 POP PUSH1 0x20 SWAP3 POP PUSH2 0x1435 SWAP5 SWAP2 POP PUSH1 0xFF NOT AND DUP3 DUP5 ADD MSTORE ISZERO ISZERO PUSH1 0x5 SHL DUP3 ADD ADD DUP12 PUSH2 0x1428 JUMP JUMPDEST CALLVALUE PUSH2 0x340 JUMPI PUSH1 0x20 CALLDATASIZE PUSH1 0x3 NOT ADD SLT PUSH2 0x340 JUMPI PUSH1 0x4 CALLDATALOAD PUSH1 0x0 MSTORE PUSH1 0x3 PUSH1 0x20 MSTORE PUSH1 0x40 PUSH1 0x0 KECCAK256 PUSH1 0x0 SWAP1 PUSH1 0x0 PUSH1 0x6 DUP3 ADD PUSH1 0x8 DUP2 SLOAD SWAP4 ADD SWAP2 JUMPDEST DUP4 DUP2 LT PUSH2 0x16D3 JUMPI PUSH1 0x20 DUP6 PUSH1 0x40 MLOAD SWAP1 DUP2 MSTORE RETURN JUMPDEST PUSH1 0xFF PUSH1 0x40 PUSH2 0x16E1 DUP4 DUP6 PUSH2 0x1AE6 JUMP JUMPDEST SWAP1 SLOAD PUSH1 0x3 SWAP2 SWAP1 SWAP2 SHL SHR PUSH1 0x1 PUSH1 0x1 PUSH1 0xA0 SHL SUB AND PUSH1 0x0 SWAP1 DUP2 MSTORE PUSH1 0x20 DUP7 SWAP1 MSTORE KECCAK256 SLOAD AND PUSH2 0x170D JUMPI JUMPDEST PUSH1 0x1 ADD PUSH2 0x16C1 JUMP JUMPDEST SWAP4 PUSH2 0x1719 PUSH1 0x1 SWAP2 PUSH2 0x1B14 JUMP JUMPDEST SWAP5 SWAP1 POP PUSH2 0x1705 JUMP JUMPDEST PUSH1 0x20 CALLDATASIZE PUSH1 0x3 NOT ADD SLT PUSH2 0x340 JUMPI PUSH1 0x4 CALLDATALOAD PUSH2 0x1738 PUSH2 0x1D3D JUMP JUMPDEST PUSH1 0x0 DUP2 DUP2 MSTORE PUSH1 0x3 PUSH1 0x20 MSTORE PUSH1 0x40 SWAP1 KECCAK256 SLOAD PUSH1 0x1 PUSH1 0x1 PUSH1 0xA0 SHL SUB AND CALLER SUB PUSH2 0x87A JUMPI PUSH1 0x7 SLOAD SWAP1 DUP2 ISZERO PUSH2 0x1052 JUMPI DUP2 CALLVALUE LT PUSH2 0x1810 JUMPI PUSH1 0x0 SWAP2 DUP1 CALLVALUE GT PUSH2 0x17FD JUMPI JUMPDEST POP DUP1 PUSH1 0x0 MSTORE PUSH1 0x8 PUSH1 0x20 MSTORE TIMESTAMP PUSH1 0x40 PUSH1 0x0 KECCAK256 SSTORE PUSH32 0x9BEC96FB6D100E4D478528377D4EF6E077836973C5DE940A41A1E68452299992 PUSH1 0x40 PUSH1 0x7 SLOAD DUP2 MLOAD SWAP1 DUP2 MSTORE TIMESTAMP PUSH1 0x20 DUP3 ADD MSTORE LOG2 DUP1 PUSH2 0x17E3 JUMPI JUMPDEST PUSH2 0x17DC PUSH1 0x0 DUP1 DUP1 DUP1 PUSH1 0x1 DUP1 PUSH1 0xA0 SHL SUB PUSH1 0x5 SLOAD AND PUSH1 0x7 SLOAD SWAP1 GAS CALL PUSH2 0xC4D PUSH2 0x1B6C JUMP JUMPDEST PUSH1 0x1 PUSH1 0x0 SSTORE STOP JUMPDEST PUSH1 0x0 DUP1 DUP1 DUP1 PUSH2 0x17F7 SWAP5 CALLER GAS CALL PUSH2 0xC71 PUSH2 0x1B6C JUMP JUMPDEST DUP1 PUSH2 0x17BB JUMP JUMPDEST PUSH2 0x1809 SWAP2 SWAP3 POP CALLVALUE PUSH2 0x1B5F JUMP JUMPDEST SWAP1 DUP3 PUSH2 0x1772 JUMP JUMPDEST PUSH4 0x1E9ACF17 PUSH1 0xE3 SHL PUSH1 0x0 MSTORE PUSH1 0x4 PUSH1 0x0 REVERT JUMPDEST CALLVALUE PUSH2 0x340 JUMPI PUSH1 0x0 CALLDATASIZE PUSH1 0x3 NOT ADD SLT PUSH2 0x340 JUMPI PUSH1 0x20 PUSH1 0x7 SLOAD PUSH1 0x40 MLOAD SWAP1 DUP2 MSTORE RETURN JUMPDEST CALLVALUE PUSH2 0x340 JUMPI PUSH1 0x20 CALLDATASIZE PUSH1 0x3 NOT ADD SLT PUSH2 0x340 JUMPI PUSH1 0x4 CALLDATALOAD PUSH1 0x1 PUSH1 0x1 PUSH1 0xA0 SHL SUB DUP2 AND SWAP1 DUP2 SWAP1 SUB PUSH2 0x340 JUMPI PUSH1 0x0 MSTORE PUSH1 0x2 PUSH1 0x20 MSTORE PUSH1 0x40 PUSH1 0x0 KECCAK256 PUSH1 0x40 MLOAD DUP1 PUSH1 0x20 DUP4 SLOAD SWAP2 DUP3 DUP2 MSTORE ADD SWAP1 DUP2 SWAP4 PUSH1 0x0 MSTORE PUSH1 0x20 PUSH1 0x0 KECCAK256 SWAP1 PUSH1 0x0 JUMPDEST DUP2 DUP2 LT PUSH2 0x18E7 JUMPI POP POP POP DUP2 PUSH2 0x18A4 SWAP2 SUB DUP3 PUSH2 0x1B3E JUMP JUMPDEST PUSH1 0x40 MLOAD SWAP2 DUP3 SWAP2 PUSH1 0x20 DUP4 ADD SWAP1 PUSH1 0x20 DUP5 MSTORE MLOAD DUP1 SWAP2 MSTORE PUSH1 0x40 DUP4 ADD SWAP2 SWAP1 PUSH1 0x0 JUMPDEST DUP2 DUP2 LT PUSH2 0x18CE JUMPI POP POP POP SUB SWAP1 RETURN JUMPDEST DUP3 MLOAD DUP5 MSTORE DUP6 SWAP5 POP PUSH1 0x20 SWAP4 DUP5 ADD SWAP4 SWAP1 SWAP3 ADD SWAP2 PUSH1 0x1 ADD PUSH2 0x18C0 JUMP JUMPDEST DUP3 SLOAD DUP5 MSTORE PUSH1 0x20 SWAP1 SWAP4 ADD SWAP3 PUSH1 0x1 SWAP3 DUP4 ADD SWAP3 ADD PUSH2 0x188E JUMP JUMPDEST CALLVALUE PUSH2 0x340 JUMPI PUSH1 0x20 CALLDATASIZE PUSH1 0x3 NOT ADD SLT PUSH2 0x340 JUMPI PUSH1 0x4 CALLDATALOAD PUSH1 0x0 DUP2 DUP2 MSTORE PUSH1 0x3 PUSH1 0x20 MSTORE PUSH1 0x40 SWAP1 KECCAK256 SLOAD PUSH1 0x1 PUSH1 0x1 PUSH1 0xA0 SHL SUB AND ISZERO PUSH2 0x7D9 JUMPI DUP1 PUSH1 0x0 MSTORE PUSH1 0x3 PUSH1 0x20 MSTORE PUSH1 0x40 PUSH1 0x0 KECCAK256 SWAP1 PUSH1 0x5 DUP3 ADD SLOAD PUSH1 0xFF DUP2 AND ISZERO DUP1 ISZERO PUSH2 0x1AA9 JUMPI JUMPDEST PUSH2 0x1A98 JUMPI PUSH1 0x8 SHR PUSH1 0xFF AND ISZERO PUSH2 0xFB6 JUMPI PUSH1 0x0 SWAP2 PUSH1 0x0 SWAP3 PUSH1 0x6 DUP3 ADD SWAP4 DUP5 SLOAD SWAP1 JUMPDEST DUP2 DUP2 LT PUSH2 0x1A62 JUMPI JUMPDEST POP POP ISZERO PUSH2 0x1A51 JUMPI PUSH1 0x8 DUP2 ADD SWAP3 PUSH1 0x1 DUP1 PUSH1 0xA0 SHL SUB CALLER AND PUSH1 0x0 MSTORE DUP4 PUSH1 0x20 MSTORE PUSH1 0xFF PUSH1 0x40 PUSH1 0x0 KECCAK256 SLOAD AND PUSH2 0x87A JUMPI CALLER PUSH1 0x0 SWAP1 DUP2 MSTORE PUSH1 0x20 DUP6 SWAP1 MSTORE PUSH1 0x40 DUP2 KECCAK256 DUP1 SLOAD PUSH1 0xFF NOT AND PUSH1 0x1 OR SWAP1 SSTORE DUP2 SLOAD SWAP1 SWAP5 SWAP1 SWAP2 DUP6 JUMPDEST DUP4 DUP2 LT PUSH2 0x1A03 JUMPI DUP7 DUP7 PUSH1 0x7 DUP8 ADD SLOAD DUP3 LT ISZERO PUSH1 0x40 MLOAD SWAP3 DUP4 MSTORE PUSH1 0x20 DUP4 ADD MSTORE PUSH32 0x4B46CBC6F49A47AD7EAE79E51227B7D0D3DF6C24203AFC987F8E111A667DF358 PUSH1 0x40 CALLER SWAP4 LOG3 STOP JUMPDEST PUSH1 0xFF PUSH1 0x40 PUSH2 0x1A11 DUP4 DUP6 PUSH2 0x1AE6 JUMP JUMPDEST SWAP1 SLOAD PUSH1 0x3 SWAP2 SWAP1 SWAP2 SHL SHR PUSH1 0x1 PUSH1 0x1 PUSH1 0xA0 SHL SUB AND PUSH1 0x0 SWAP1 DUP2 MSTORE PUSH1 0x20 DUP7 SWAP1 MSTORE KECCAK256 SLOAD AND PUSH2 0x1A3D JUMPI JUMPDEST PUSH1 0x1 ADD PUSH2 0x19BF JUMP JUMPDEST SWAP6 PUSH2 0x1A49 PUSH1 0x1 SWAP2 PUSH2 0x1B14 JUMP JUMPDEST SWAP7 SWAP1 POP PUSH2 0x1A35 JUMP JUMPDEST PUSH4 0x77B68781 PUSH1 0xE1 SHL PUSH1 0x0 MSTORE PUSH1 0x4 PUSH1 0x0 REVERT JUMPDEST PUSH2 0x1A6C DUP2 DUP8 PUSH2 0x1AE6 JUMP JUMPDEST SWAP1 SLOAD PUSH1 0x3 SWAP2 SWAP1 SWAP2 SHL SHR PUSH1 0x1 PUSH1 0x1 PUSH1 0xA0 SHL SUB AND CALLER EQ PUSH2 0x1A8C JUMPI PUSH1 0x1 ADD PUSH2 0x196C JUMP JUMPDEST POP POP POP PUSH1 0x1 DUP5 DUP1 PUSH2 0x1974 JUMP JUMPDEST PUSH4 0x207E617B PUSH1 0xE1 SHL PUSH1 0x0 MSTORE PUSH1 0x4 PUSH1 0x0 REVERT JUMPDEST POP PUSH1 0x4 DUP4 ADD SLOAD ISZERO ISZERO PUSH2 0x194E JUMP JUMPDEST SWAP2 DUP2 PUSH1 0x1F DUP5 ADD SLT ISZERO PUSH2 0x340 JUMPI DUP3 CALLDATALOAD SWAP2 PUSH1 0x1 PUSH1 0x1 PUSH1 0x40 SHL SUB DUP4 GT PUSH2 0x340 JUMPI PUSH1 0x20 DUP1 DUP6 ADD SWAP5 DUP5 PUSH1 0x5 SHL ADD ADD GT PUSH2 0x340 JUMPI JUMP JUMPDEST DUP1 SLOAD DUP3 LT ISZERO PUSH2 0x1AFE JUMPI PUSH1 0x0 MSTORE PUSH1 0x20 PUSH1 0x0 KECCAK256 ADD SWAP1 PUSH1 0x0 SWAP1 JUMP JUMPDEST PUSH4 0x4E487B71 PUSH1 0xE0 SHL PUSH1 0x0 MSTORE PUSH1 0x32 PUSH1 0x4 MSTORE PUSH1 0x24 PUSH1 0x0 REVERT JUMPDEST PUSH1 0x0 NOT DUP2 EQ PUSH2 0x12FA JUMPI PUSH1 0x1 ADD SWAP1 JUMP JUMPDEST PUSH1 0xA0 DUP2 ADD SWAP1 DUP2 LT PUSH1 0x1 PUSH1 0x1 PUSH1 0x40 SHL SUB DUP3 GT OR PUSH2 0x12A0 JUMPI PUSH1 0x40 MSTORE JUMP JUMPDEST SWAP1 PUSH1 0x1F DUP1 NOT SWAP2 ADD AND DUP2 ADD SWAP1 DUP2 LT PUSH1 0x1 PUSH1 0x1 PUSH1 0x40 SHL SUB DUP3 GT OR PUSH2 0x12A0 JUMPI PUSH1 0x40 MSTORE JUMP JUMPDEST SWAP2 SWAP1 DUP3 SUB SWAP2 DUP3 GT PUSH2 0x12FA JUMPI JUMP JUMPDEST RETURNDATASIZE ISZERO PUSH2 0x1BA6 JUMPI RETURNDATASIZE SWAP1 PUSH1 0x1 PUSH1 0x1 PUSH1 0x40 SHL SUB DUP3 GT PUSH2 0x12A0 JUMPI PUSH1 0x40 MLOAD SWAP2 PUSH2 0x1B9A PUSH1 0x1F DUP3 ADD PUSH1 0x1F NOT AND PUSH1 0x20 ADD DUP5 PUSH2 0x1B3E JUMP JUMPDEST DUP3 MSTORE RETURNDATASIZE PUSH1 0x0 PUSH1 0x20 DUP5 ADD RETURNDATACOPY JUMP JUMPDEST PUSH1 0x60 SWAP1 JUMP JUMPDEST ISZERO PUSH2 0x1BB2 JUMPI JUMP JUMPDEST PUSH1 0x40 MLOAD PUSH3 0x461BCD PUSH1 0xE5 SHL DUP2 MSTORE PUSH1 0x20 PUSH1 0x4 DUP3 ADD MSTORE PUSH1 0x16 PUSH1 0x24 DUP3 ADD MSTORE PUSH22 0x1499599D5B99081D1C985B9CD9995C8819985A5B1959 PUSH1 0x52 SHL PUSH1 0x44 DUP3 ADD MSTORE PUSH1 0x64 SWAP1 REVERT JUMPDEST ISZERO PUSH2 0x1BF7 JUMPI JUMP JUMPDEST PUSH1 0x40 MLOAD PUSH3 0x461BCD PUSH1 0xE5 SHL DUP2 MSTORE PUSH1 0x20 PUSH1 0x4 DUP3 ADD MSTORE PUSH1 0x13 PUSH1 0x24 DUP3 ADD MSTORE PUSH19 0x119959481D1C985B9CD9995C8819985A5B1959 PUSH1 0x6A SHL PUSH1 0x44 DUP3 ADD MSTORE PUSH1 0x64 SWAP1 REVERT JUMPDEST SWAP1 PUSH1 0x1 DUP3 DUP2 SHR SWAP3 AND DUP1 ISZERO PUSH2 0x1C62 JUMPI JUMPDEST PUSH1 0x20 DUP4 LT EQ PUSH2 0x1C4C JUMPI JUMP JUMPDEST PUSH4 0x4E487B71 PUSH1 0xE0 SHL PUSH1 0x0 MSTORE PUSH1 0x22 PUSH1 0x4 MSTORE PUSH1 0x24 PUSH1 0x0 REVERT JUMPDEST SWAP2 PUSH1 0x7F AND SWAP2 PUSH2 0x1C41 JUMP JUMPDEST SWAP1 PUSH1 0x40 MLOAD PUSH2 0x1C79 DUP2 PUSH2 0x1B23 JUMP JUMPDEST DUP3 SLOAD PUSH1 0x1 PUSH1 0x1 PUSH1 0xA0 SHL SUB SWAP1 DUP2 AND DUP3 MSTORE PUSH1 0x1 DUP5 ADD SLOAD PUSH1 0x20 DUP4 ADD MSTORE PUSH1 0x2 SWAP1 SWAP4 ADD SLOAD PUSH1 0xFF DUP1 DUP3 AND ISZERO ISZERO PUSH1 0x40 DUP5 ADD MSTORE PUSH1 0x8 DUP3 SWAP1 SHR SWAP1 SWAP5 AND PUSH1 0x60 DUP4 ADD MSTORE PUSH1 0xA8 SHR SWAP1 SWAP3 AND ISZERO ISZERO PUSH1 0x80 DUP4 ADD MSTORE JUMP JUMPDEST SWAP2 SWAP1 DUP2 LT ISZERO PUSH2 0x1AFE JUMPI PUSH1 0xA0 MUL ADD SWAP1 JUMP JUMPDEST CALLDATALOAD PUSH1 0x1 PUSH1 0x1 PUSH1 0xA0 SHL SUB DUP2 AND DUP2 SUB PUSH2 0x340 JUMPI SWAP1 JUMP JUMPDEST SWAP2 SWAP1 DUP3 ADD DUP1 SWAP3 GT PUSH2 0x12FA JUMPI JUMP JUMPDEST DUP2 DUP2 MUL SWAP3 SWAP2 DUP2 ISZERO SWAP2 DUP5 DIV EQ OR ISZERO PUSH2 0x12FA JUMPI JUMP JUMPDEST DUP1 SLOAD DUP3 LT ISZERO PUSH2 0x1AFE JUMPI PUSH1 0x0 MSTORE PUSH1 0x3 PUSH1 0x20 PUSH1 0x0 KECCAK256 SWAP2 MUL ADD SWAP1 PUSH1 0x0 SWAP1 JUMP JUMPDEST CALLDATALOAD DUP1 ISZERO ISZERO DUP2 SUB PUSH2 0x340 JUMPI SWAP1 JUMP JUMPDEST SWAP2 SWAP1 DUP2 LT ISZERO PUSH2 0x1AFE JUMPI PUSH1 0x5 SHL ADD SWAP1 JUMP JUMPDEST PUSH1 0x2 PUSH1 0x0 SLOAD EQ PUSH2 0x1D4E JUMPI PUSH1 0x2 PUSH1 0x0 SSTORE JUMP JUMPDEST PUSH4 0x3EE5AEB5 PUSH1 0xE0 SHL PUSH1 0x0 MSTORE PUSH1 0x4 PUSH1 0x0 REVERT INVALID LOG2 PUSH5 0x6970667358 0x22 SLT KECCAK256 0xC6 SWAP15 LOG4 SWAP9 SWAP8 0xDC 0xC8 SWAP8 DUP11 0xAB 0xB5 0xA6 DUP11 GT 0xFB PUSH15 0x59B754563A01A4D580DB1B86CB96BC KECCAK256 PUSH5 0x736F6C6343 STOP ADDMOD BYTE STOP CALLER "
        },
        "methodIdentifiers": {
          "annualFee()": "1dfda2e7",
          "approveExecution(uint256)": "079c48a9",
          "createWill(address[],uint256[],bool[],address[],bool[],string,bool,address[],uint256)": "5386d26c",
          "executeWill(uint256,address[],address[],uint256[])": "ef7042af",
          "feeRecipient()": "46904840",
          "getGuardianApprovalCount(uint256)": "32df90e0",
          "getOwnerWills(address)": "0d84128e",
          "getWill(uint256)": "4192bbb0",
          "hasGuardianApproved(uint256,address)": "560df801",
          "payAnnualFee(uint256)": "26fe4736",
          "revokeWill(uint256)": "6a80b6f0",
          "setupFee()": "a40b56b9",
          "updateWill(uint256,(address,uint256,bool,address,bool)[])": "4342b456"
        }
      }
    }
  }
}