{
  "contracts/YieldVault.sol": {
    "YieldVault": {
      "abi": [
        {
          "inputs": [
            {
              "internalType": "address",
              "name": "_treasury",
              "type": "address"
            }
          ],
          "stateMutability": "nonpayable",
          "type": "constructor"
        },
        {
          "inputs": [],
          "name": "AlreadyTriggered",
          "type": "error"
        },
        {
          "inputs": [],
          "name": "InsufficientBalance",
          "type": "error"
        },
        {
          "inputs": [],
          "name": "InvalidAmount",
          "type": "error"
        },
        {
          "inputs": [],
          "name": "InvalidStakingProtocol",
          "type": "error"
        },
        {
          "inputs": [
            {
              "internalType": "address",
              "name": "owner",
              "type": "address"
            }
          ],
          "name": "OwnableInvalidOwner",
          "type": "error"
        },
        {
          "inputs": [
            {
              "internalType": "address",
              "name": "account",
              "type": "address"
            }
          ],
          "name": "OwnableUnauthorizedAccount",
          "type": "error"
        },
        {
          "inputs": [],
          "name": "ReentrancyGuardReentrantCall",
          "type": "error"
        },
        {
          "inputs": [
            {
              "internalType": "address",
              "name": "token",
              "type": "address"
            }
          ],
          "name": "SafeERC20FailedOperation",
          "type": "error"
        },
        {
          "inputs": [],
          "name": "Unauthorized",
          "type": "error"
        },
        {
          "inputs": [],
          "name": "VaultNotActive",
          "type": "error"
        },
        {
          "inputs": [],
          "name": "VaultNotFound",
          "type": "error"
        },
        {
          "anonymous": false,
          "inputs": [
            {
              "indexed": true,
              "internalType": "uint256",
              "name": "vaultId",
              "type": "uint256"
            },
            {
              "indexed": true,
              "internalType": "address",
              "name": "stakingProtocol",
              "type": "address"
            },
            {
              "indexed": false,
              "internalType": "uint256",
              "name": "amount",
              "type": "uint256"
            }
          ],
          "name": "FundsStaked",
          "type": "event"
        },
        {
          "anonymous": false,
          "inputs": [
            {
              "indexed": true,
              "internalType": "address",
              "name": "previousOwner",
              "type": "address"
            },
            {
              "indexed": true,
              "internalType": "address",
              "name": "newOwner",
              "type": "address"
            }
          ],
          "name": "OwnershipTransferred",
          "type": "event"
        },
        {
          "anonymous": false,
          "inputs": [
            {
              "indexed": true,
              "internalType": "uint256",
              "name": "vaultId",
              "type": "uint256"
            },
            {
              "indexed": false,
              "internalType": "uint256",
              "name": "principal",
              "type": "uint256"
            },
            {
              "indexed": false,
              "internalType": "uint256",
              "name": "yield",
              "type": "uint256"
            },
            {
              "indexed": false,
              "internalType": "uint256",
              "name": "totalAmount",
              "type": "uint256"
            }
          ],
          "name": "VaultTriggered",
          "type": "event"
        },
        {
          "anonymous": false,
          "inputs": [
            {
              "indexed": true,
              "internalType": "uint256",
              "name": "vaultId",
              "type": "uint256"
            },
            {
              "indexed": false,
              "internalType": "uint256",
              "name": "yieldAmount",
              "type": "uint256"
            },
            {
              "indexed": false,
              "internalType": "uint256",
              "name": "feeAmount",
              "type": "uint256"
            }
          ],
          "name": "YieldAccrued",
          "type": "event"
        },
        {
          "anonymous": false,
          "inputs": [
            {
              "indexed": true,
              "internalType": "uint256",
              "name": "vaultId",
              "type": "uint256"
            },
            {
              "indexed": true,
              "internalType": "address",
              "name": "owner",
              "type": "address"
            },
            {
              "indexed": false,
              "internalType": "address",
              "name": "guardiaVaultIdOrAsset",
              "type": "address"
            },
            {
              "indexed": false,
              "internalType": "address",
              "name": "assetOrZero",
              "type": "address"
            },
            {
              "indexed": false,
              "internalType": "uint256",
              "name": "principal",
              "type": "uint256"
            }
          ],
          "name": "YieldVaultCreated",
          "type": "event"
        },
        {
          "inputs": [],
          "name": "BPS_DENOMINATOR",
          "outputs": [
            {
              "internalType": "uint256",
              "name": "",
              "type": "uint256"
            }
          ],
          "stateMutability": "view",
          "type": "function"
        },
        {
          "inputs": [],
          "name": "PERFORMANCE_FEE_BPS",
          "outputs": [
            {
              "internalType": "uint256",
              "name": "",
              "type": "uint256"
            }
          ],
          "stateMutability": "view",
          "type": "function"
        },
        {
          "inputs": [],
          "name": "aaveAdapter",
          "outputs": [
            {
              "internalType": "contract AaveAdapter",
              "name": "",
              "type": "address"
            }
          ],
          "stateMutability": "view",
          "type": "function"
        },
        {
          "inputs": [
            {
              "internalType": "address",
              "name": "",
              "type": "address"
            }
          ],
          "name": "approvedStakingProtocols",
          "outputs": [
            {
              "internalType": "bool",
              "name": "",
              "type": "bool"
            }
          ],
          "stateMutability": "view",
          "type": "function"
        },
        {
          "inputs": [
            {
              "internalType": "uint256",
              "name": "guardiaVaultId",
              "type": "uint256"
            },
            {
              "internalType": "address",
              "name": "asset",
              "type": "address"
            },
            {
              "internalType": "uint256",
              "name": "amount",
              "type": "uint256"
            },
            {
              "internalType": "address",
              "name": "stakingProtocol",
              "type": "address"
            }
          ],
          "name": "createYieldVault",
          "outputs": [
            {
              "internalType": "uint256",
              "name": "vaultId",
              "type": "uint256"
            }
          ],
          "stateMutability": "nonpayable",
          "type": "function"
        },
        {
          "inputs": [
            {
              "internalType": "uint256",
              "name": "guardiaVaultId",
              "type": "uint256"
            },
            {
              "internalType": "address",
              "name": "stakingProtocol",
              "type": "address"
            }
          ],
          "name": "deposit",
          "outputs": [
            {
              "internalType": "uint256",
              "name": "vaultId",
              "type": "uint256"
            }
          ],
          "stateMutability": "payable",
          "type": "function"
        },
        {
          "inputs": [
            {
              "internalType": "address",
              "name": "stakingProtocol",
              "type": "address"
            }
          ],
          "name": "getEstimatedAPY",
          "outputs": [
            {
              "internalType": "uint256",
              "name": "",
              "type": "uint256"
            }
          ],
          "stateMutability": "view",
          "type": "function"
        },
        {
          "inputs": [
            {
              "internalType": "uint256",
              "name": "vaultId",
              "type": "uint256"
            }
          ],
          "name": "getVault",
          "outputs": [
            {
              "internalType": "address",
              "name": "owner",
              "type": "address"
            },
            {
              "internalType": "uint256",
              "name": "guardiaVaultId",
              "type": "uint256"
            },
            {
              "internalType": "address",
              "name": "asset",
              "type": "address"
            },
            {
              "internalType": "uint256",
              "name": "principal",
              "type": "uint256"
            },
            {
              "internalType": "uint256",
              "name": "yieldAccumulated",
              "type": "uint256"
            },
            {
              "internalType": "uint256",
              "name": "yieldFeeCollected",
              "type": "uint256"
            },
            {
              "internalType": "address",
              "name": "stakingProtocol",
              "type": "address"
            },
            {
              "internalType": "uint256",
              "name": "stakedAmount",
              "type": "uint256"
            },
            {
              "internalType": "uint256",
              "name": "createdAt",
              "type": "uint256"
            },
            {
              "internalType": "uint256",
              "name": "lastHarvest",
              "type": "uint256"
            },
            {
              "internalType": "bool",
              "name": "isNative",
              "type": "bool"
            },
            {
              "internalType": "uint256",
              "name": "totalValue",
              "type": "uint256"
            }
          ],
          "stateMutability": "view",
          "type": "function"
        },
        {
          "inputs": [
            {
              "internalType": "address",
              "name": "owner",
              "type": "address"
            }
          ],
          "name": "getVaultsByOwner",
          "outputs": [
            {
              "internalType": "uint256[]",
              "name": "",
              "type": "uint256[]"
            }
          ],
          "stateMutability": "view",
          "type": "function"
        },
        {
          "inputs": [
            {
              "internalType": "uint256",
              "name": "guardiaVaultId",
              "type": "uint256"
            }
          ],
          "name": "getYieldVaultForGuardiaVault",
          "outputs": [
            {
              "internalType": "uint256",
              "name": "",
              "type": "uint256"
            }
          ],
          "stateMutability": "view",
          "type": "function"
        },
        {
          "inputs": [],
          "name": "guardiaVault",
          "outputs": [
            {
              "internalType": "address",
              "name": "",
              "type": "address"
            }
          ],
          "stateMutability": "view",
          "type": "function"
        },
        {
          "inputs": [
            {
              "internalType": "uint256",
              "name": "vaultId",
              "type": "uint256"
            }
          ],
          "name": "harvest",
          "outputs": [],
          "stateMutability": "nonpayable",
          "type": "function"
        },
        {
          "inputs": [],
          "name": "lidoAdapter",
          "outputs": [
            {
              "internalType": "contract LidoAdapter",
              "name": "",
              "type": "address"
            }
          ],
          "stateMutability": "view",
          "type": "function"
        },
        {
          "inputs": [],
          "name": "owner",
          "outputs": [
            {
              "internalType": "address",
              "name": "",
              "type": "address"
            }
          ],
          "stateMutability": "view",
          "type": "function"
        },
        {
          "inputs": [
            {
              "internalType": "address",
              "name": "",
              "type": "address"
            }
          ],
          "name": "protocolTokenMap",
          "outputs": [
            {
              "internalType": "address",
              "name": "",
              "type": "address"
            }
          ],
          "stateMutability": "view",
          "type": "function"
        },
        {
          "inputs": [
            {
              "internalType": "address",
              "name": "",
              "type": "address"
            }
          ],
          "name": "protocolTypes",
          "outputs": [
            {
              "internalType": "enum YieldVault.ProtocolType",
              "name": "",
              "type": "uint8"
            }
          ],
          "stateMutability": "view",
          "type": "function"
        },
        {
          "inputs": [],
          "name": "renounceOwnership",
          "outputs": [],
          "stateMutability": "nonpayable",
          "type": "function"
        },
        {
          "inputs": [
            {
              "internalType": "address",
              "name": "protocol",
              "type": "address"
            },
            {
              "internalType": "address",
              "name": "yieldToken",
              "type": "address"
            },
            {
              "internalType": "enum YieldVault.ProtocolType",
              "name": "protocolType",
              "type": "uint8"
            }
          ],
          "name": "setApprovedProtocol",
          "outputs": [],
          "stateMutability": "nonpayable",
          "type": "function"
        },
        {
          "inputs": [
            {
              "internalType": "address",
              "name": "_guardiaVault",
              "type": "address"
            }
          ],
          "name": "setGuardiaVault",
          "outputs": [],
          "stateMutability": "nonpayable",
          "type": "function"
        },
        {
          "inputs": [
            {
              "internalType": "address",
              "name": "_treasury",
              "type": "address"
            }
          ],
          "name": "setTreasury",
          "outputs": [],
          "stateMutability": "nonpayable",
          "type": "function"
        },
        {
          "inputs": [
            {
              "internalType": "address",
              "name": "newOwner",
              "type": "address"
            }
          ],
          "name": "transferOwnership",
          "outputs": [],
          "stateMutability": "nonpayable",
          "type": "function"
        },
        {
          "inputs": [],
          "name": "treasury",
          "outputs": [
            {
              "internalType": "address",
              "name": "",
              "type": "address"
            }
          ],
          "stateMutability": "view",
          "type": "function"
        },
        {
          "inputs": [
            {
              "internalType": "uint256",
              "name": "vaultId",
              "type": "uint256"
            },
            {
              "internalType": "address",
              "name": "beneficiary",
              "type": "address"
            }
          ],
          "name": "triggerVault",
          "outputs": [
            {
              "internalType": "uint256",
              "name": "",
              "type": "uint256"
            }
          ],
          "stateMutability": "nonpayable",
          "type": "function"
        },
        {
          "inputs": [
            {
              "internalType": "uint256",
              "name": "vaultId",
              "type": "uint256"
            },
            {
              "internalType": "uint256",
              "name": "newTotalValue",
              "type": "uint256"
            }
          ],
          "name": "updateYield",
          "outputs": [],
          "stateMutability": "nonpayable",
          "type": "function"
        },
        {
          "inputs": [
            {
              "internalType": "address",
              "name": "beneficiary",
              "type": "address"
            },
            {
              "internalType": "uint256",
              "name": "vaultId",
              "type": "uint256"
            },
            {
              "internalType": "uint256",
              "name": "amount",
              "type": "uint256"
            }
          ],
          "name": "withdraw",
          "outputs": [],
          "stateMutability": "nonpayable",
          "type": "function"
        }
      ],
      "evm": {
        "bytecode": {
          "linkReferences": {},
          "object": "6080806040523461026e5761002a9061335980380380916100208285610273565b8339810190610296565b600160005533156102585760018054336001600160a01b0319821681179092556040519291906001600160a01b03167f8be0079c531659141344cd1fd0a4f28419497f9722a3daafe3b4186f6b6457e0600080a3600c80546001600160a01b0319166001600160a01b03929092169190911790556106d88181016001600160401b03811183821017610242578291612c81833903906000f0801561023657600980546001600160a01b0319166001600160a01b0392909216919091179055604051610d1c8082016001600160401b03811183821017610242578291611f65833903906000f0801561023657600a80546001600160a01b0319166001600160a01b03928316179055600980548216600090815260066020908152604091829020805460ff1916600117905591549051630e00bfe560e41b815292169082600481845afa91821561023657600092610205575b50600090815260076020908152604080832080546001600160a01b0319166001600160a01b03958616179055600954841683526008808352818420805460ff199081166001908117909255600a80548816875260068652848720805483169093179092559054909516845290915290819020805490921660021790915551611caf90816102b68239f35b61022891925060203d60201161022f575b6102208183610273565b810190610296565b903861017b565b503d610216565b6040513d6000823e3d90fd5b634e487b7160e01b600052604160045260246000fd5b631e4fbdf760e01b600052600060045260246000fd5b600080fd5b601f909101601f19168101906001600160401b0382119082101761024257604052565b9081602091031261026e57516001600160a01b038116810361026e579056fe608080604052600436101561001357600080fd5b60003560e01c908163099788b514610e0b575080630a92630014610dcc5780630e0ec8be14610da057806334fa698314610bab57806346b0c01614610b145780634dda1fbf14610aeb57806354973c0e14610aa8578063571eb11414610a7f5780635b01e37414610a635780635fce540114610a3a57806361d027b314610a115780636e553f651461086c578063715018a61461080f5780638da5cb5b146107e65780639403b634146106ff578063ac81871114610645578063b0db972f1461061a578063b5c5f67214610478578063c4c88dd514610436578063c7d1fa9d146102eb578063ddc6326214610264578063e1a4521814610247578063e559ed1b14610204578063f0f44260146101c15763f2fde38b1461013257600080fd5b346101bc5760203660031901126101bc5761014b610e65565b610153611587565b6001600160a01b031680156101a657600180546001600160a01b0319811683179091556001600160a01b03167f8be0079c531659141344cd1fd0a4f28419497f9722a3daafe3b4186f6b6457e0600080a3005b631e4fbdf760e01b600052600060045260246000fd5b600080fd5b346101bc5760203660031901126101bc576101da610e65565b6101e2611587565b600c80546001600160a01b0319166001600160a01b0392909216919091179055005b346101bc5760203660031901126101bc5761021d610e65565b610225611587565b600b80546001600160a01b0319166001600160a01b0392909216919091179055005b346101bc5760003660031901126101bc5760206040516127108152f35b346101bc5760203660031901126101bc5760043580600052600360205260ff600a6040600020015416156102da57806102c491600052600360205260018060a01b0360406000205416331480156102c6575b6102bf90611332565b61190e565b005b506001546001600160a01b031633146102b6565b63dee790fb60e01b60005260046000fd5b346101bc5760403660031901126101bc57600435610307610e7b565b61030f61136f565b81600052600360205260ff600a6040600020015416156102da5781602092600052600383527ffe7030b3e32ead70d4b55ad4b7823e6e4d4b3e781f8538b71e6db66c716f5d536060604060002060018060a01b03600b541633148015610423575b61037990611332565b61038d6001600160a01b038616151561126b565b600381018054916103a46004820193845490610f1d565b966103ae87611659565b87600a83019260ff845460081c1660001461040757506000808080936103de955af16103d8610f4c565b506112f0565b60ff19815416905554905460405191825286820152846040820152a26001600055604051908152f35b6002015461041e92906001600160a01b03166115b0565b6103de565b5080546001600160a01b03163314610370565b346101bc5760203660031901126101bc576001600160a01b03610457610e65565b166000526007602052602060018060a01b0360406000205416604051908152f35b346101bc5760603660031901126101bc57610491610e65565b602435604435916104a061136f565b81600052600360205260ff600a6040600020015416156102da57600082815260036020526040902080549093906001600160a01b031633036105e9576104f06001600160a01b038316151561126b565b806105e357506003830154915b610517600385019161051283548611156112ad565b611659565b600a8401918360ff845460081c166000146105c657600080808093610540955af16103d8610f4c565b61054b838254610f10565b905561055c60078401928354610f10565b908183558161056d575b6001600055005b5460081c60ff161561059d57506006909101549054610594916001600160a01b03166115ee565b80808080610566565b60028301546006909301546105c1939192506001600160a01b039081169116611391565b610594565b60028601546105de92906001600160a01b03166115b0565b610540565b916104fd565b60405162461bcd60e51b81526020600482015260096024820152682737ba1037bbb732b960b91b6044820152606490fd5b346101bc5760203660031901126101bc57602061063d610638610e65565b61113c565b604051908152f35b346101bc5760203660031901126101bc576001600160a01b03610666610e65565b16600052600460205260406000206040518060208354918281520190819360005260206000209060005b8181106106e957505050816106a6910382610f2a565b6040519182916020830190602084525180915260408301919060005b8181106106d0575050500390f35b82518452859450602093840193909201916001016106c2565b8254845260209093019260019283019201610690565b346101bc5760203660031901126101bc5760043580600052600360205260ff600a6040600020015416156102da576000526003602052610180604060002060018060a01b038154169060018101549060018060a01b036002820154169060038101546004820154600583015460018060a01b036006850154169060078501549260088601549460ff600a600989015498015460081c16976107a08383610f1d565b996040519b8c5260208c015260408b015260608a0152608089015260a088015260c087015260e08601526101008501526101208401521515610140830152610160820152f35b346101bc5760003660031901126101bc576001546040516001600160a01b039091168152602090f35b346101bc5760003660031901126101bc57610828611587565b600180546001600160a01b031981169091556000906001600160a01b03167f8be0079c531659141344cd1fd0a4f28419497f9722a3daafe3b4186f6b6457e08280a3005b60403660031901126101bc57600435610883610e7b565b61088b61136f565b3415610a00576001600160a01b03811660008181526006602052604090205460ff16156109ef57602092610973600254936108c585610e91565b6002558460005260038652600a604060002060018060a01b0333166001600160601b0360a01b825416178155846001820155600281016001600160601b0360a01b815416905534600382015560068101866001600160601b0360a01b8254161790553460078201554260088201554260098201550161010161ffff19825416179055336000526004865261095d856040600020610eb6565b82600052600586528460406000205534906115ee565b604080516001600160a01b0390921682526000858301523490820152339083907fd0f40211720072cd6e0a9e469931fbde6134a78e61127c4b255be496be72b36a90606090a3817e60a8caba85df807229fc2c649864fb5a7e4fe0f0582fb20615506e1a691cf984604051348152a36001600055604051908152f35b6318d7a57360e01b60005260046000fd5b63162908e360e11b60005260046000fd5b346101bc5760003660031901126101bc57600c546040516001600160a01b039091168152602090f35b346101bc5760003660031901126101bc57600b546040516001600160a01b039091168152602090f35b346101bc5760003660031901126101bc57602060405160648152f35b346101bc5760003660031901126101bc57600a546040516001600160a01b039091168152602090f35b346101bc5760403660031901126101bc57600435610ac461136f565b80600052600360205260ff600a6040600020015416156102da576105669060243590610fce565b346101bc5760003660031901126101bc576009546040516001600160a01b039091168152602090f35b346101bc5760603660031901126101bc57610b2d610e65565b610b35610e7b565b6044359160038310156101bc57610b4a611587565b6001600160a01b039081166000908152600660209081526040808320805460ff199081166001179091556007835281842080546001600160a01b03191696909516959095179093556008905220805460ff9390931692909116919091179055005b346101bc5760803660031901126101bc57600435610bc7610e7b565b604435916064356001600160a01b038116918282036101bc57610be861136f565b8415610a005782600052600660205260ff60406000205416156109ef576001600160a01b038416918215610a00576040516323b872dd60e01b6020808301919091523360248301523060448301526064808301899052825296600a967e60a8caba85df807229fc2c649864fb5a7e4fe0f0582fb20615506e1a691cf9948994929391929091610c8e918591610c8890610c82608482610f2a565b8a611a7e565b84611391565b600254978896610c9d88610e91565b600255876000526003865260406000209060018060a01b0333166001600160601b0360a01b83541617825583600183015560028201906001600160601b0360a01b82541617905584600382015560068101896001600160601b0360a01b82541617905584600782015542600882015542600982015501600161ffff198254161790553360005260048452610d35866040600020610eb6565b60009081526005845260409081902086905580516001600160a01b039290921680835260208301528101829052339085907fd0f40211720072cd6e0a9e469931fbde6134a78e61127c4b255be496be72b36a90606090a3604051908152a36001600055604051908152f35b346101bc5760203660031901126101bc5760043560005260056020526020604060002054604051908152f35b346101bc5760203660031901126101bc576001600160a01b03610ded610e65565b166000526006602052602060ff604060002054166040519015158152f35b346101bc5760203660031901126101bc576001600160a01b03610e2c610e65565b16600052600860205260ff60406000205416906003821015610e4f576020918152f35b634e487b7160e01b600052602160045260246000fd5b600435906001600160a01b03821682036101bc57565b602435906001600160a01b03821682036101bc57565b6000198114610ea05760010190565b634e487b7160e01b600052601160045260246000fd5b80549068010000000000000000821015610efa5760018201808255821015610ee45760005260206000200155565b634e487b7160e01b600052603260045260246000fd5b634e487b7160e01b600052604160045260246000fd5b91908203918211610ea057565b91908201809211610ea057565b90601f8019910116810190811067ffffffffffffffff821117610efa57604052565b3d15610f87573d9067ffffffffffffffff8211610efa5760405191610f7b601f8201601f191660200184610f2a565b82523d6000602084013e565b606090565b15610f9357565b60405162461bcd60e51b8152602060048201526013602482015272119959481d1c985b9cd9995c8819985a5b1959606a1b6044820152606490fd5b90816000526003602052604060002090600382015490818111156111215790610ff691610f10565b90600481019161100883548092610f10565b90811592831561101b575b505050505050565b60648302938385046064141715610ea0577fd3bca34d88bc8c8d0d3304ca482da710a7f673bcd8e764fdae6f4f2b66bb315d9461106961271060409604936110638587610f10565b90610f1d565b90556005810161107a838254610f1d565b9055426009820155600c5482906001600160a01b031680151580611118575b6110b7575b50505082519182526020820152a2388080808080611013565b600a83015460081c60ff16156110fa5750600c546110f292506000918291829182916001600160a01b03165af16110ec610f4c565b50610f8c565b38818161109e565b60029092015461111392906001600160a01b03166115b0565b6110f2565b50811515611099565b50509050600942910155565b908160209103126101bc575190565b6001600160a01b031660009081526008602052604090205460ff166003811015610e4f57600181036111dc5750600954604051634b16524b60e11b815290602090829060049082906001600160a01b03165afa9081156111d0576000916111a1575090565b90506020813d6020116111c8575b816111bc60209383610f2a565b810103126101bc575190565b3d91506111af565b6040513d6000823e3d90fd5b6002600091146111ec5750600090565b600a5460405163545dc19760e11b81526004810183905290602090829060249082906001600160a01b03165afa91821561125f57809261122b57505090565b9091506020823d602011611257575b8161124760209383610f2a565b8101031261125457505190565b80fd5b3d915061123a565b604051903d90823e3d90fd5b1561127257565b60405162461bcd60e51b8152602060048201526013602482015272496e76616c69642062656e656669636961727960681b6044820152606490fd5b156112b457565b60405162461bcd60e51b8152602060048201526014602482015273496e73756666696369656e742062616c616e636560601b6044820152606490fd5b156112f757565b60405162461bcd60e51b8152602060048201526013602482015272115512081d1c985b9cd9995c8819985a5b1959606a1b6044820152606490fd5b1561133957565b60405162461bcd60e51b815260206004820152600e60248201526d139bdd08185d5d1a1bdc9a5e995960921b6044820152606490fd5b600260005414611380576002600055565b633ee5aeb560e01b60005260046000fd5b919060018060a01b0316600052600860205260ff604060002054166003811015610e4f576002036109ef57600a54604051636eb1769f60e11b81523060048201526001600160a01b0391821660248201819052918416939190602081604481885afa9081156111d05760009161154b575b50906114ae94611416856020969594610f1d565b60405163095ea7b360e01b8782019081526001600160a01b038516602483015260448083019390935291815291908690600090611454606486610f2a565b84519082855af16000513d8261152f575b5050156114ea575b5050600a54604051631e573fb760e31b81526001600160a01b0393841660048201526024810194909452929485939092169183915060009082906044820190565b03925af180156111d0576114bf5750565b6114e09060203d6020116114e3575b6114d88183610f2a565b81019061112d565b50565b503d6114ce565b611522611527936040519063095ea7b360e01b898301526024820152600060448201526044815261151c606482610f2a565b82611a7e565b611a7e565b38808061146d565b9091506115435750803b15155b3880611465565b60011461153c565b93929190506020843d60201161157f575b8161156960209383610f2a565b810103126101bc579251919290916114ae611402565b3d915061155c565b6001546001600160a01b0316330361159b57565b63118cdaa760e01b6000523360045260246000fd5b60405163a9059cbb60e01b60208201526001600160a01b039290921660248301526044808301939093529181526115ec91611522606483610f2a565b565b6001600160a01b031660009081526008602052604090205460ff166003811015610e4f576001036109ef57611625814710156112ad565b60095460405163dceb986d60e01b81529160209183916004918391906001600160a01b03165af180156111d0576114bf5750565b600052600360205260406000209060078201918254156119095760068101546001600160a01b031660009081526008602052604090205460ff16906003821015610e4f576001820361177357505060095460405163f8b2cb4f60e01b815230600482015292906001600160a01b0316602084602481845afa9384156111d05760009461173c575b509260009293816116f057505055565b602460209260405195869384926305c2fbcf60e31b845260048401525af19182156111d057600092611720575055565b6117389060203d6020116114e3576114d88183610f2a565b5055565b6020813d60201161176b575b8161175560209383610f2a565b810103126117675751935060006116e0565b8480fd5b3d9150611748565b60026000949214611788575b50600091925055565b600a54600290910154604051633995297760e11b81526001600160a01b0391821660048201819052929091169190602081602481865afa9081156118b95786916118c4575b506040516370a0823160e01b81523060048201529190602090839060249082906001600160a01b03165afa9182156118b9578692611881575b5081611814575b505061177f565b906064602092876040519586948593631a4ca37b60e21b8552600485015260248401523060448401525af18015611876576000939450611857575b83928161180d565b61186f9060203d6020116114e3576114d88183610f2a565b503861184f565b6040513d86823e3d90fd5b9091506020813d6020116118b1575b8161189d60209383610f2a565b810103126118ad57519038611806565b8580fd5b3d9150611890565b6040513d88823e3d90fd5b90506020813d602011611901575b816118df60209383610f2a565b810103126118ad5751906001600160a01b03821682036118ad579060206117cd565b3d91506118d2565b509050565b8060005260036020526040600020600a8101549060ff821615611a795761193483611ad9565b60038201549081811115611a6c579061194c91610f10565b90600481019161195e83548092610f10565b918215918215611972575b50505050505050565b60648402928484046064141715610ea0577fd3bca34d88bc8c8d0d3304ca482da710a7f673bcd8e764fdae6f4f2b66bb315d956040956127106119bd95049485936110638589610f10565b9055600583016119ce838254610f1d565b9055426009840155600c546001600160a01b03169081151580611a63575b611a0c575b5050505082519182526020820152a238808080808080611969565b60081c60ff1615611a455750600c54611a3c92506000918291829182916001600160a01b03165af16110ec610f4c565b388181806119f1565b600290920154611a5e92906001600160a01b03166115b0565b611a3c565b508215156119ec565b5050915050600942910155565b505050565b906000602091828151910182855af1156111d0576000513d611ad057506001600160a01b0381163b155b611aaf5750565b635274afe760e01b60009081526001600160a01b0391909116600452602490fd5b60011415611aa8565b6000526003602052604060002060018060a01b03600682015416600052600860205260ff604060002054166003811015610e4f5760018103611bc3575060095460405163f8b2cb4f60e01b81523060048201526001600160a01b039091169190602081602481865afa9081156111d057600091611b91575b5080611b61575060039150015490565b6020915060246040518094819363d5bda32d60e01b835260048301525afa9081156111d0576000916111a1575090565b906020823d602011611bbb575b81611bab60209383610f2a565b8101031261125457505138611b51565b3d9150611b9e565b90600260009214611bd75760039150015490565b600a54600282015460405163d4fac45d60e01b81526001600160a01b039182166004820152306024820152939160209185916044918391165afa928315611c6c578193611c34575b50508115611c2b575090565b60039150015490565b9092506020813d602011611c64575b81611c5060209383610f2a565b81010312611c6057519138611c1f565b8280fd5b3d9150611c43565b50604051903d90823e3d90fdfea26469706673582212204fc15edf23ea34341bb4fcc954b8f2eb77f8c5187c0ec0091df360fb6a785dd464736f6c634300081a003360808060405234601a576001600055610cfc90816100208239f35b600080fdfe608080604052600436101561001357600080fd5b600090813560e01c90816308a0167514610a015750806369328dec146107fd578063732a52ee1461076157806389a3027114610732578063a8bb832e14610688578063ad5c464814610659578063c54e44eb1461062a578063d4fac45d146104f6578063e0bab4c4146104c75763f2b9fdb81461008f57600080fd5b346104c45760403660031901126104c4576100a8610a2f565b602435906100b4610bf7565b811561047f576001600160a01b03166100cf82303384610c19565b6040516335ea6a7560e01b8152600481018290526101e0816024817387870bca3f3fd6335c3f4ce8392d69350b4fa4e25afa908115610325578491610450575b5061010001516040516370a0823160e01b8152306004820152926001600160a01b039091169190602084602481865afa938415610445578594610411575b50604051636eb1769f60e11b81523060048201527387870bca3f3fd6335c3f4ce8392d69350b4fa4e26024820152602081604481865afa9081156104065786916103d0575b508181018091116103bc57602086604051928284019063095ea7b360e01b82527387870bca3f3fd6335c3f4ce8392d69350b4fa4e260248601526044850152604484526101e0606485610a45565b83519082875af186513d826103a0575b505015610348575b507387870bca3f3fd6335c3f4ce8392d69350b4fa4e23b15610344576040519163617ba03760e01b8352600483015260248201523060448201528360648201528381608481837387870bca3f3fd6335c3f4ce8392d69350b4fa4e25af1801561032557610330575b506040516370a0823160e01b815230600482015291602083602481855afa9283156103255784936102ec575b5082039182116102d8576020926102cf6001926040519063a9059cbb60e01b87830152336024830152856044830152604482526102ca606483610a45565b610c5f565b55604051908152f35b634e487b7160e01b83526011600452602483fd5b9092506020813d60201161031d575b8161030860209383610a45565b810103126103185751913861028c565b600080fd5b3d91506102fb565b6040513d86823e3d90fd5b8361033d91949294610a45565b9138610260565b8480fd5b61039a9061039460405163095ea7b360e01b60208201527387870bca3f3fd6335c3f4ce8392d69350b4fa4e260248201528860448201526044815261038e606482610a45565b85610c5f565b83610c5f565b386101f8565b9091506103b45750823b15155b38806101f0565b6001146103ad565b634e487b7160e01b86526011600452602486fd5b90506020813d6020116103fe575b816103eb60209383610a45565b810103126103fa575138610192565b8580fd5b3d91506103de565b6040513d88823e3d90fd5b9093506020813d60201161043d575b8161042d60209383610a45565b810103126103445751923861014d565b3d9150610420565b6040513d87823e3d90fd5b61047291506101e03d8111610478575b61046a8183610a45565b810190610aa5565b3861010f565b503d610460565b60405162461bcd60e51b815260206004820152601d60248201527f416d6f756e74206d7573742062652067726561746572207468616e20300000006044820152606490fd5b80fd5b50346104c457806003193601126104c4576020604051736b175474e89094c44da98b954eedeac495271d0f8152f35b50346104c45760403660031901126104c457610510610a2f565b6024356001600160a01b0381169190829003610626576040516335ea6a7560e01b81526001600160a01b0390911660048201526101e0816024817387870bca3f3fd6335c3f4ce8392d69350b4fa4e25afa801561061b5760209184916105fc575b5061010001516040516370a0823160e01b81526004810193909352829060249082906001600160a01b03165afa9081156105f15782916105b7575b602082604051908152f35b90506020813d6020116105e9575b816105d260209383610a45565b810103126105e5576020915051386105ac565b5080fd5b3d91506105c5565b6040513d84823e3d90fd5b61061591506101e03d81116104785761046a8183610a45565b38610571565b6040513d85823e3d90fd5b8280fd5b50346104c457806003193601126104c457602060405173dac17f958d2ee523a2206206994597c13d831ec78152f35b50346104c457806003193601126104c457602060405173c02aaa39b223fe8d0a0e5c4f27ead9083c756cc28152f35b50346104c45760203660031901126104c4576106a2610a2f565b6040516335ea6a7560e01b81526001600160a01b0390911660048201526101e0816024817387870bca3f3fd6335c3f4ce8392d69350b4fa4e25afa9081156105f1576001600160801b036040819369152d02c7e14af68000009360209691610713575b500151160416604051908152f35b61072c91506101e03d81116104785761046a8183610a45565b38610705565b50346104c457806003193601126104c457602060405173a0b86a33e6441b8435b662303c4b5c5b7b8e4e8a8152f35b50346104c45760203660031901126104c45761077b610a2f565b6040516335ea6a7560e01b81526001600160a01b0390911660048201526101e0816024817387870bca3f3fd6335c3f4ce8392d69350b4fa4e25afa9081156105f157602092916107de575b5061010001516040516001600160a01b039091168152f35b6107f791506101e03d81116104785761046a8183610a45565b386107c6565b50346104c45760603660031901126104c457610817610a2f565b6044356001600160a01b03811690602435908290036109fd57610838610bf7565b8082156109c4576040516335ea6a7560e01b81526001600160a01b0390941660048501819052936101e0816024817387870bca3f3fd6335c3f4ce8392d69350b4fa4e25afa9081156104065786916109a5575b5061010001516001600160a01b0316906000191461093d575b816108b29130903390610c19565b60405192631a4ca37b60e21b8452600484015260248301526044820152602081606481857387870bca3f3fd6335c3f4ce8392d69350b4fa4e25af19081156105f157829161090a575b50600160209255604051908152f35b90506020813d602011610935575b8161092560209383610a45565b810103126105e5575160016108fb565b3d9150610918565b6040516370a0823160e01b8152336004820152909150602081602481855afa8015610445578590610971575b9190506108a4565b506020813d60201161099d575b8161098b60209383610a45565b81010312610344576108b29051610969565b3d915061097e565b6109be91506101e03d81116104785761046a8183610a45565b3861088b565b60405162461bcd60e51b8152602060048201526011602482015270125b9d985b1a59081c9958da5c1a595b9d607a1b6044820152606490fd5b8380fd5b9050346105e557816003193601126105e557807387870bca3f3fd6335c3f4ce8392d69350b4fa4e260209252f35b600435906001600160a01b038216820361031857565b90601f8019910116810190811067ffffffffffffffff821117610a6757604052565b634e487b7160e01b600052604160045260246000fd5b51906001600160801b038216820361031857565b51906001600160a01b038216820361031857565b90816101e0910312610318576040519060006101e0830167ffffffffffffffff811184821017610be35760405281518352610ae260208301610a7d565b6020840152610af360408301610a7d565b6040840152610b0460608301610a7d565b6060840152610b1560808301610a7d565b6080840152610b2660a08301610a7d565b60a084015260c082015164ffffffffff811681036105e55760c084015260e08201519061ffff821682036104c45750610bda916101c09160e0850152610b6f6101008201610a91565b610100850152610b826101208201610a91565b610120850152610b956101408201610a91565b610140850152610ba86101608201610a91565b610160850152610bbb6101808201610a7d565b610180850152610bce6101a08201610a7d565b6101a085015201610a7d565b6101c082015290565b634e487b7160e01b82526041600452602482fd5b600260005414610c08576002600055565b633ee5aeb560e01b60005260046000fd5b6040516323b872dd60e01b60208201526001600160a01b039283166024820152929091166044830152606480830193909352918152610c5d916102ca608483610a45565b565b906000602091828151910182855af115610cba576000513d610cb157506001600160a01b0381163b155b610c905750565b635274afe760e01b60009081526001600160a01b0391909116600452602490fd5b60011415610c89565b6040513d6000823e3d90fdfea2646970667358221220fee1d213dea2a93d3007a8d6c1767c1f87e1bc0c5e2005bd34593140e2c1e91264736f6c634300081a003360808060405234601a5760016000556106b890816100208239f35b600080fdfe6080604052600436101561001257600080fd5b60003560e01c80632e17de781461040c5780638b21f1701461011c578063962ca496146103ef578063d5bda32d14610322578063dceb986d1461014b578063e00bfe501461011c5763f8b2cb4f1461006957600080fd5b34610103576020366003190112610103576004356001600160a01b0381169081900361010357604051906370a0823160e01b8252600482015260208160248173ae7ab96520de3a18e5e111b5eaab095312d7fe845afa8015610110576000906100d8575b602090604051908152f35b506020813d602011610108575b816100f2602093836105be565b8101031261010357602090516100cd565b600080fd5b3d91506100e5565b6040513d6000823e3d90fd5b3461010357600036600319011261010357602060405173ae7ab96520de3a18e5e111b5eaab095312d7fe848152f35b60003660031901126101035761015f6105e0565b61016a341515610572565b6040516370a0823160e01b815230600482015260208160248173ae7ab96520de3a18e5e111b5eaab095312d7fe845afa908115610110576000916102f0575b5060405163a1903eab60e01b8152600060048201526020816024813473ae7ab96520de3a18e5e111b5eaab095312d7fe845af18015610110576102c1575b506040516370a0823160e01b81523060048201529060208260248173ae7ab96520de3a18e5e111b5eaab095312d7fe845afa9182156101105760009261028a575b5081039081116102745760209061026760405163a9059cbb60e01b84820152336024820152826044820152604481526102626064826105be565b610602565b6001600055604051908152f35b634e487b7160e01b600052601160045260246000fd5b90916020823d6020116102b9575b816102a5602093836105be565b810103126102b65750519082610228565b80fd5b3d9150610298565b6020813d6020116102e8575b816102da602093836105be565b8101031261010357516101e7565b3d91506102cd565b90506020813d60201161031a575b8161030b602093836105be565b810103126101035751816101a9565b3d91506102fe565b3461010357602036600319011261010357604051631920845160e01b8152600480359082015260208160248173ae7ab96520de3a18e5e111b5eaab095312d7fe845afa908115610110576000916103bd575b5060405190630f451f7160e31b8252600482015260208160248173ae7ab96520de3a18e5e111b5eaab095312d7fe845afa8015610110576000906100d857602090604051908152f35b90506020813d6020116103e7575b816103d8602093836105be565b81010312610103575181610374565b3d91506103cb565b346101035760003660031901126101035760206040516102088152f35b34610103576020366003190112610103576004356104286105e0565b610433811515610572565b6104676040516323b872dd60e01b6020820152336024820152306044820152826064820152606481526102626084826105be565b6040519063d5bda32d60e01b82526004820152602081602481305afa90811561011057600091610540575b50600080808084335af13d1561053b573d67ffffffffffffffff811161052557604051906104ca601f8201601f1916602001836105be565b8152600060203d92013e5b156104ea576020906001600055604051908152f35b60405162461bcd60e51b8152602060048201526013602482015272115512081d1c985b9cd9995c8819985a5b1959606a1b6044820152606490fd5b634e487b7160e01b600052604160045260246000fd5b6104d5565b906020823d60201161056a575b8161055a602093836105be565b810103126102b657505181610492565b3d915061054d565b1561057957565b60405162461bcd60e51b815260206004820152601d60248201527f416d6f756e74206d7573742062652067726561746572207468616e20300000006044820152606490fd5b90601f8019910116810190811067ffffffffffffffff82111761052557604052565b6002600054146105f1576002600055565b633ee5aeb560e01b60005260046000fd5b600060209182815191018273ae7ab96520de3a18e5e111b5eaab095312d7fe845af115610110576000513d610679575073ae7ab96520de3a18e5e111b5eaab095312d7fe843b155b61065057565b635274afe760e01b60005273ae7ab96520de3a18e5e111b5eaab095312d7fe8460045260246000fd5b6001141561064a56fea2646970667358221220ec482414745c7adf5689de2bc3af35694e1bf874253dcc0d3fd6d0969c93565a64736f6c634300081a0033",
          "opcodes": "PUSH1 0x80 DUP1 PUSH1 0x40 MSTORE CALLVALUE PUSH2 0x26E JUMPI PUSH2 0x2A SWAP1 PUSH2 0x3359 DUP1 CODESIZE SUB DUP1 SWAP2 PUSH2 0x20 DUP3 DUP6 PUSH2 0x273 JUMP JUMPDEST DUP4 CODECOPY DUP2 ADD SWAP1 PUSH2 0x296 JUMP JUMPDEST PUSH1 0x1 PUSH1 0x0 SSTORE CALLER ISZERO PUSH2 0x258 JUMPI PUSH1 0x1 DUP1 SLOAD CALLER PUSH1 0x1 PUSH1 0x1 PUSH1 0xA0 SHL SUB NOT DUP3 AND DUP2 OR SWAP1 SWAP3 SSTORE PUSH1 0x40 MLOAD SWAP3 SWAP2 SWAP1 PUSH1 0x1 PUSH1 0x1 PUSH1 0xA0 SHL SUB AND PUSH32 0x8BE0079C531659141344CD1FD0A4F28419497F9722A3DAAFE3B4186F6B6457E0 PUSH1 0x0 DUP1 LOG3 PUSH1 0xC DUP1 SLOAD PUSH1 0x1 PUSH1 0x1 PUSH1 0xA0 SHL SUB NOT AND PUSH1 0x1 PUSH1 0x1 PUSH1 0xA0 SHL SUB SWAP3 SWAP1 SWAP3 AND SWAP2 SWAP1 SWAP2 OR SWAP1 SSTORE PUSH2 0x6D8 DUP2 DUP2 ADD PUSH1 0x1 PUSH1 0x1 PUSH1 0x40 SHL SUB DUP2 GT DUP4 DUP3 LT OR PUSH2 0x242 JUMPI DUP3 SWAP2 PUSH2 0x2C81 DUP4 CODECOPY SUB SWAP1 PUSH1 0x0 CREATE DUP1 ISZERO PUSH2 0x236 JUMPI PUSH1 0x9 DUP1 SLOAD PUSH1 0x1 PUSH1 0x1 PUSH1 0xA0 SHL SUB NOT AND PUSH1 0x1 PUSH1 0x1 PUSH1 0xA0 SHL SUB SWAP3 SWAP1 SWAP3 AND SWAP2 SWAP1 SWAP2 OR SWAP1 SSTORE PUSH1 0x40 MLOAD PUSH2 0xD1C DUP1 DUP3 ADD PUSH1 0x1 PUSH1 0x1 PUSH1 0x40 SHL SUB DUP2 GT DUP4 DUP3 LT OR PUSH2 0x242 JUMPI DUP3 SWAP2 PUSH2 0x1F65 DUP4 CODECOPY SUB SWAP1 PUSH1 0x0 CREATE DUP1 ISZERO PUSH2 0x236 JUMPI PUSH1 0xA DUP1 SLOAD PUSH1 0x1 PUSH1 0x1 PUSH1 0xA0 SHL SUB NOT AND PUSH1 0x1 PUSH1 0x1 PUSH1 0xA0 SHL SUB SWAP3 DUP4 AND OR SWAP1 SSTORE PUSH1 0x9 DUP1 SLOAD DUP3 AND PUSH1 0x0 SWAP1 DUP2 MSTORE PUSH1 0x6 PUSH1 0x20 SWAP1 DUP2 MSTORE PUSH1 0x40 SWAP2 DUP3 SWAP1 KECCAK256 DUP1 SLOAD PUSH1 0xFF NOT AND PUSH1 0x1 OR SWAP1 SSTORE SWAP2 SLOAD SWAP1 MLOAD PUSH4 0xE00BFE5 PUSH1 0xE4 SHL DUP2 MSTORE SWAP3 AND SWAP1 DUP3 PUSH1 0x4 DUP2 DUP5 GAS STATICCALL SWAP2 DUP3 ISZERO PUSH2 0x236 JUMPI PUSH1 0x0 SWAP3 PUSH2 0x205 JUMPI JUMPDEST POP PUSH1 0x0 SWAP1 DUP2 MSTORE PUSH1 0x7 PUSH1 0x20 SWAP1 DUP2 MSTORE PUSH1 0x40 DUP1 DUP4 KECCAK256 DUP1 SLOAD PUSH1 0x1 PUSH1 0x1 PUSH1 0xA0 SHL SUB NOT AND PUSH1 0x1 PUSH1 0x1 PUSH1 0xA0 SHL SUB SWAP6 DUP7 AND OR SWAP1 SSTORE PUSH1 0x9 SLOAD DUP5 AND DUP4 MSTORE PUSH1 0x8 DUP1 DUP4 MSTORE DUP2 DUP5 KECCAK256 DUP1 SLOAD PUSH1 0xFF NOT SWAP1 DUP2 AND PUSH1 0x1 SWAP1 DUP2 OR SWAP1 SWAP3 SSTORE PUSH1 0xA DUP1 SLOAD DUP9 AND DUP8 MSTORE PUSH1 0x6 DUP7 MSTORE DUP5 DUP8 KECCAK256 DUP1 SLOAD DUP4 AND SWAP1 SWAP4 OR SWAP1 SWAP3 SSTORE SWAP1 SLOAD SWAP1 SWAP6 AND DUP5 MSTORE SWAP1 SWAP2 MSTORE SWAP1 DUP2 SWAP1 KECCAK256 DUP1 SLOAD SWAP1 SWAP3 AND PUSH1 0x2 OR SWAP1 SWAP2 SSTORE MLOAD PUSH2 0x1CAF SWAP1 DUP2 PUSH2 0x2B6 DUP3 CODECOPY RETURN JUMPDEST PUSH2 0x228 SWAP2 SWAP3 POP PUSH1 0x20 RETURNDATASIZE PUSH1 0x20 GT PUSH2 0x22F JUMPI JUMPDEST PUSH2 0x220 DUP2 DUP4 PUSH2 0x273 JUMP JUMPDEST DUP2 ADD SWAP1 PUSH2 0x296 JUMP JUMPDEST SWAP1 CODESIZE PUSH2 0x17B JUMP JUMPDEST POP RETURNDATASIZE PUSH2 0x216 JUMP JUMPDEST PUSH1 0x40 MLOAD RETURNDATASIZE PUSH1 0x0 DUP3 RETURNDATACOPY RETURNDATASIZE SWAP1 REVERT JUMPDEST PUSH4 0x4E487B71 PUSH1 0xE0 SHL PUSH1 0x0 MSTORE PUSH1 0x41 PUSH1 0x4 MSTORE PUSH1 0x24 PUSH1 0x0 REVERT JUMPDEST PUSH4 0x1E4FBDF7 PUSH1 0xE0 SHL PUSH1 0x0 MSTORE PUSH1 0x0 PUSH1 0x4 MSTORE PUSH1 0x24 PUSH1 0x0 REVERT JUMPDEST PUSH1 0x0 DUP1 REVERT JUMPDEST PUSH1 0x1F SWAP1 SWAP2 ADD PUSH1 0x1F NOT AND DUP2 ADD SWAP1 PUSH1 0x1 PUSH1 0x1 PUSH1 0x40 SHL SUB DUP3 GT SWAP1 DUP3 LT OR PUSH2 0x242 JUMPI PUSH1 0x40 MSTORE JUMP JUMPDEST SWAP1 DUP2 PUSH1 0x20 SWAP2 SUB SLT PUSH2 0x26E JUMPI MLOAD PUSH1 0x1 PUSH1 0x1 PUSH1 0xA0 SHL SUB DUP2 AND DUP2 SUB PUSH2 0x26E JUMPI SWAP1 JUMP INVALID PUSH1 0x80 DUP1 PUSH1 0x40 MSTORE PUSH1 0x4 CALLDATASIZE LT ISZERO PUSH2 0x13 JUMPI PUSH1 0x0 DUP1 REVERT JUMPDEST PUSH1 0x0 CALLDATALOAD PUSH1 0xE0 SHR SWAP1 DUP2 PUSH4 0x99788B5 EQ PUSH2 0xE0B JUMPI POP DUP1 PUSH4 0xA926300 EQ PUSH2 0xDCC JUMPI DUP1 PUSH4 0xE0EC8BE EQ PUSH2 0xDA0 JUMPI DUP1 PUSH4 0x34FA6983 EQ PUSH2 0xBAB JUMPI DUP1 PUSH4 0x46B0C016 EQ PUSH2 0xB14 JUMPI DUP1 PUSH4 0x4DDA1FBF EQ PUSH2 0xAEB JUMPI DUP1 PUSH4 0x54973C0E EQ PUSH2 0xAA8 JUMPI DUP1 PUSH4 0x571EB114 EQ PUSH2 0xA7F JUMPI DUP1 PUSH4 0x5B01E374 EQ PUSH2 0xA63 JUMPI DUP1 PUSH4 0x5FCE5401 EQ PUSH2 0xA3A JUMPI DUP1 PUSH4 0x61D027B3 EQ PUSH2 0xA11 JUMPI DUP1 PUSH4 0x6E553F65 EQ PUSH2 0x86C JUMPI DUP1 PUSH4 0x715018A6 EQ PUSH2 0x80F JUMPI DUP1 PUSH4 0x8DA5CB5B EQ PUSH2 0x7E6 JUMPI DUP1 PUSH4 0x9403B634 EQ PUSH2 0x6FF JUMPI DUP1 PUSH4 0xAC818711 EQ PUSH2 0x645 JUMPI DUP1 PUSH4 0xB0DB972F EQ PUSH2 0x61A JUMPI DUP1 PUSH4 0xB5C5F672 EQ PUSH2 0x478 JUMPI DUP1 PUSH4 0xC4C88DD5 EQ PUSH2 0x436 JUMPI DUP1 PUSH4 0xC7D1FA9D EQ PUSH2 0x2EB JUMPI DUP1 PUSH4 0xDDC63262 EQ PUSH2 0x264 JUMPI DUP1 PUSH4 0xE1A45218 EQ PUSH2 0x247 JUMPI DUP1 PUSH4 0xE559ED1B EQ PUSH2 0x204 JUMPI DUP1 PUSH4 0xF0F44260 EQ PUSH2 0x1C1 JUMPI PUSH4 0xF2FDE38B EQ PUSH2 0x132 JUMPI PUSH1 0x0 DUP1 REVERT JUMPDEST CALLVALUE PUSH2 0x1BC JUMPI PUSH1 0x20 CALLDATASIZE PUSH1 0x3 NOT ADD SLT PUSH2 0x1BC JUMPI PUSH2 0x14B PUSH2 0xE65 JUMP JUMPDEST PUSH2 0x153 PUSH2 0x1587 JUMP JUMPDEST PUSH1 0x1 PUSH1 0x1 PUSH1 0xA0 SHL SUB AND DUP1 ISZERO PUSH2 0x1A6 JUMPI PUSH1 0x1 DUP1 SLOAD PUSH1 0x1 PUSH1 0x1 PUSH1 0xA0 SHL SUB NOT DUP2 AND DUP4 OR SWAP1 SWAP2 SSTORE PUSH1 0x1 PUSH1 0x1 PUSH1 0xA0 SHL SUB AND PUSH32 0x8BE0079C531659141344CD1FD0A4F28419497F9722A3DAAFE3B4186F6B6457E0 PUSH1 0x0 DUP1 LOG3 STOP JUMPDEST PUSH4 0x1E4FBDF7 PUSH1 0xE0 SHL PUSH1 0x0 MSTORE PUSH1 0x0 PUSH1 0x4 MSTORE PUSH1 0x24 PUSH1 0x0 REVERT JUMPDEST PUSH1 0x0 DUP1 REVERT JUMPDEST CALLVALUE PUSH2 0x1BC JUMPI PUSH1 0x20 CALLDATASIZE PUSH1 0x3 NOT ADD SLT PUSH2 0x1BC JUMPI PUSH2 0x1DA PUSH2 0xE65 JUMP JUMPDEST PUSH2 0x1E2 PUSH2 0x1587 JUMP JUMPDEST PUSH1 0xC DUP1 SLOAD PUSH1 0x1 PUSH1 0x1 PUSH1 0xA0 SHL SUB NOT AND PUSH1 0x1 PUSH1 0x1 PUSH1 0xA0 SHL SUB SWAP3 SWAP1 SWAP3 AND SWAP2 SWAP1 SWAP2 OR SWAP1 SSTORE STOP JUMPDEST CALLVALUE PUSH2 0x1BC JUMPI PUSH1 0x20 CALLDATASIZE PUSH1 0x3 NOT ADD SLT PUSH2 0x1BC JUMPI PUSH2 0x21D PUSH2 0xE65 JUMP JUMPDEST PUSH2 0x225 PUSH2 0x1587 JUMP JUMPDEST PUSH1 0xB DUP1 SLOAD PUSH1 0x1 PUSH1 0x1 PUSH1 0xA0 SHL SUB NOT AND PUSH1 0x1 PUSH1 0x1 PUSH1 0xA0 SHL SUB SWAP3 SWAP1 SWAP3 AND SWAP2 SWAP1 SWAP2 OR SWAP1 SSTORE STOP JUMPDEST CALLVALUE PUSH2 0x1BC JUMPI PUSH1 0x0 CALLDATASIZE PUSH1 0x3 NOT ADD SLT PUSH2 0x1BC JUMPI PUSH1 0x20 PUSH1 0x40 MLOAD PUSH2 0x2710 DUP2 MSTORE RETURN JUMPDEST CALLVALUE PUSH2 0x1BC JUMPI PUSH1 0x20 CALLDATASIZE PUSH1 0x3 NOT ADD SLT PUSH2 0x1BC JUMPI PUSH1 0x4 CALLDATALOAD DUP1 PUSH1 0x0 MSTORE PUSH1 0x3 PUSH1 0x20 MSTORE PUSH1 0xFF PUSH1 0xA PUSH1 0x40 PUSH1 0x0 KECCAK256 ADD SLOAD AND ISZERO PUSH2 0x2DA JUMPI DUP1 PUSH2 0x2C4 SWAP2 PUSH1 0x0 MSTORE PUSH1 0x3 PUSH1 0x20 MSTORE PUSH1 0x1 DUP1 PUSH1 0xA0 SHL SUB PUSH1 0x40 PUSH1 0x0 KECCAK256 SLOAD AND CALLER EQ DUP1 ISZERO PUSH2 0x2C6 JUMPI JUMPDEST PUSH2 0x2BF SWAP1 PUSH2 0x1332 JUMP JUMPDEST PUSH2 0x190E JUMP JUMPDEST STOP JUMPDEST POP PUSH1 0x1 SLOAD PUSH1 0x1 PUSH1 0x1 PUSH1 0xA0 SHL SUB AND CALLER EQ PUSH2 0x2B6 JUMP JUMPDEST PUSH4 0xDEE790FB PUSH1 0xE0 SHL PUSH1 0x0 MSTORE PUSH1 0x4 PUSH1 0x0 REVERT JUMPDEST CALLVALUE PUSH2 0x1BC JUMPI PUSH1 0x40 CALLDATASIZE PUSH1 0x3 NOT ADD SLT PUSH2 0x1BC JUMPI PUSH1 0x4 CALLDATALOAD PUSH2 0x307 PUSH2 0xE7B JUMP JUMPDEST PUSH2 0x30F PUSH2 0x136F JUMP JUMPDEST DUP2 PUSH1 0x0 MSTORE PUSH1 0x3 PUSH1 0x20 MSTORE PUSH1 0xFF PUSH1 0xA PUSH1 0x40 PUSH1 0x0 KECCAK256 ADD SLOAD AND ISZERO PUSH2 0x2DA JUMPI DUP2 PUSH1 0x20 SWAP3 PUSH1 0x0 MSTORE PUSH1 0x3 DUP4 MSTORE PUSH32 0xFE7030B3E32EAD70D4B55AD4B7823E6E4D4B3E781F8538B71E6DB66C716F5D53 PUSH1 0x60 PUSH1 0x40 PUSH1 0x0 KECCAK256 PUSH1 0x1 DUP1 PUSH1 0xA0 SHL SUB PUSH1 0xB SLOAD AND CALLER EQ DUP1 ISZERO PUSH2 0x423 JUMPI JUMPDEST PUSH2 0x379 SWAP1 PUSH2 0x1332 JUMP JUMPDEST PUSH2 0x38D PUSH1 0x1 PUSH1 0x1 PUSH1 0xA0 SHL SUB DUP7 AND ISZERO ISZERO PUSH2 0x126B JUMP JUMPDEST PUSH1 0x3 DUP2 ADD DUP1 SLOAD SWAP2 PUSH2 0x3A4 PUSH1 0x4 DUP3 ADD SWAP4 DUP5 SLOAD SWAP1 PUSH2 0xF1D JUMP JUMPDEST SWAP7 PUSH2 0x3AE DUP8 PUSH2 0x1659 JUMP JUMPDEST DUP8 PUSH1 0xA DUP4 ADD SWAP3 PUSH1 0xFF DUP5 SLOAD PUSH1 0x8 SHR AND PUSH1 0x0 EQ PUSH2 0x407 JUMPI POP PUSH1 0x0 DUP1 DUP1 DUP1 SWAP4 PUSH2 0x3DE SWAP6 GAS CALL PUSH2 0x3D8 PUSH2 0xF4C JUMP JUMPDEST POP PUSH2 0x12F0 JUMP JUMPDEST PUSH1 0xFF NOT DUP2 SLOAD AND SWAP1 SSTORE SLOAD SWAP1 SLOAD PUSH1 0x40 MLOAD SWAP2 DUP3 MSTORE DUP7 DUP3 ADD MSTORE DUP5 PUSH1 0x40 DUP3 ADD MSTORE LOG2 PUSH1 0x1 PUSH1 0x0 SSTORE PUSH1 0x40 MLOAD SWAP1 DUP2 MSTORE RETURN JUMPDEST PUSH1 0x2 ADD SLOAD PUSH2 0x41E SWAP3 SWAP1 PUSH1 0x1 PUSH1 0x1 PUSH1 0xA0 SHL SUB AND PUSH2 0x15B0 JUMP JUMPDEST PUSH2 0x3DE JUMP JUMPDEST POP DUP1 SLOAD PUSH1 0x1 PUSH1 0x1 PUSH1 0xA0 SHL SUB AND CALLER EQ PUSH2 0x370 JUMP JUMPDEST CALLVALUE PUSH2 0x1BC JUMPI PUSH1 0x20 CALLDATASIZE PUSH1 0x3 NOT ADD SLT PUSH2 0x1BC JUMPI PUSH1 0x1 PUSH1 0x1 PUSH1 0xA0 SHL SUB PUSH2 0x457 PUSH2 0xE65 JUMP JUMPDEST AND PUSH1 0x0 MSTORE PUSH1 0x7 PUSH1 0x20 MSTORE PUSH1 0x20 PUSH1 0x1 DUP1 PUSH1 0xA0 SHL SUB PUSH1 0x40 PUSH1 0x0 KECCAK256 SLOAD AND PUSH1 0x40 MLOAD SWAP1 DUP2 MSTORE RETURN JUMPDEST CALLVALUE PUSH2 0x1BC JUMPI PUSH1 0x60 CALLDATASIZE PUSH1 0x3 NOT ADD SLT PUSH2 0x1BC JUMPI PUSH2 0x491 PUSH2 0xE65 JUMP JUMPDEST PUSH1 0x24 CALLDATALOAD PUSH1 0x44 CALLDATALOAD SWAP2 PUSH2 0x4A0 PUSH2 0x136F JUMP JUMPDEST DUP2 PUSH1 0x0 MSTORE PUSH1 0x3 PUSH1 0x20 MSTORE PUSH1 0xFF PUSH1 0xA PUSH1 0x40 PUSH1 0x0 KECCAK256 ADD SLOAD AND ISZERO PUSH2 0x2DA JUMPI PUSH1 0x0 DUP3 DUP2 MSTORE PUSH1 0x3 PUSH1 0x20 MSTORE PUSH1 0x40 SWAP1 KECCAK256 DUP1 SLOAD SWAP1 SWAP4 SWAP1 PUSH1 0x1 PUSH1 0x1 PUSH1 0xA0 SHL SUB AND CALLER SUB PUSH2 0x5E9 JUMPI PUSH2 0x4F0 PUSH1 0x1 PUSH1 0x1 PUSH1 0xA0 SHL SUB DUP4 AND ISZERO ISZERO PUSH2 0x126B JUMP JUMPDEST DUP1 PUSH2 0x5E3 JUMPI POP PUSH1 0x3 DUP4 ADD SLOAD SWAP2 JUMPDEST PUSH2 0x517 PUSH1 0x3 DUP6 ADD SWAP2 PUSH2 0x512 DUP4 SLOAD DUP7 GT ISZERO PUSH2 0x12AD JUMP JUMPDEST PUSH2 0x1659 JUMP JUMPDEST PUSH1 0xA DUP5 ADD SWAP2 DUP4 PUSH1 0xFF DUP5 SLOAD PUSH1 0x8 SHR AND PUSH1 0x0 EQ PUSH2 0x5C6 JUMPI PUSH1 0x0 DUP1 DUP1 DUP1 SWAP4 PUSH2 0x540 SWAP6 GAS CALL PUSH2 0x3D8 PUSH2 0xF4C JUMP JUMPDEST PUSH2 0x54B DUP4 DUP3 SLOAD PUSH2 0xF10 JUMP JUMPDEST SWAP1 SSTORE PUSH2 0x55C PUSH1 0x7 DUP5 ADD SWAP3 DUP4 SLOAD PUSH2 0xF10 JUMP JUMPDEST SWAP1 DUP2 DUP4 SSTORE DUP2 PUSH2 0x56D JUMPI JUMPDEST PUSH1 0x1 PUSH1 0x0 SSTORE STOP JUMPDEST SLOAD PUSH1 0x8 SHR PUSH1 0xFF AND ISZERO PUSH2 0x59D JUMPI POP PUSH1 0x6 SWAP1 SWAP2 ADD SLOAD SWAP1 SLOAD PUSH2 0x594 SWAP2 PUSH1 0x1 PUSH1 0x1 PUSH1 0xA0 SHL SUB AND PUSH2 0x15EE JUMP JUMPDEST DUP1 DUP1 DUP1 DUP1 PUSH2 0x566 JUMP JUMPDEST PUSH1 0x2 DUP4 ADD SLOAD PUSH1 0x6 SWAP1 SWAP4 ADD SLOAD PUSH2 0x5C1 SWAP4 SWAP2 SWAP3 POP PUSH1 0x1 PUSH1 0x1 PUSH1 0xA0 SHL SUB SWAP1 DUP2 AND SWAP2 AND PUSH2 0x1391 JUMP JUMPDEST PUSH2 0x594 JUMP JUMPDEST PUSH1 0x2 DUP7 ADD SLOAD PUSH2 0x5DE SWAP3 SWAP1 PUSH1 0x1 PUSH1 0x1 PUSH1 0xA0 SHL SUB AND PUSH2 0x15B0 JUMP JUMPDEST PUSH2 0x540 JUMP JUMPDEST SWAP2 PUSH2 0x4FD JUMP JUMPDEST PUSH1 0x40 MLOAD PUSH3 0x461BCD PUSH1 0xE5 SHL DUP2 MSTORE PUSH1 0x20 PUSH1 0x4 DUP3 ADD MSTORE PUSH1 0x9 PUSH1 0x24 DUP3 ADD MSTORE PUSH9 0x2737BA1037BBB732B9 PUSH1 0xB9 SHL PUSH1 0x44 DUP3 ADD MSTORE PUSH1 0x64 SWAP1 REVERT JUMPDEST CALLVALUE PUSH2 0x1BC JUMPI PUSH1 0x20 CALLDATASIZE PUSH1 0x3 NOT ADD SLT PUSH2 0x1BC JUMPI PUSH1 0x20 PUSH2 0x63D PUSH2 0x638 PUSH2 0xE65 JUMP JUMPDEST PUSH2 0x113C JUMP JUMPDEST PUSH1 0x40 MLOAD SWAP1 DUP2 MSTORE RETURN JUMPDEST CALLVALUE PUSH2 0x1BC JUMPI PUSH1 0x20 CALLDATASIZE PUSH1 0x3 NOT ADD SLT PUSH2 0x1BC JUMPI PUSH1 0x1 PUSH1 0x1 PUSH1 0xA0 SHL SUB PUSH2 0x666 PUSH2 0xE65 JUMP JUMPDEST AND PUSH1 0x0 MSTORE PUSH1 0x4 PUSH1 0x20 MSTORE PUSH1 0x40 PUSH1 0x0 KECCAK256 PUSH1 0x40 MLOAD DUP1 PUSH1 0x20 DUP4 SLOAD SWAP2 DUP3 DUP2 MSTORE ADD SWAP1 DUP2 SWAP4 PUSH1 0x0 MSTORE PUSH1 0x20 PUSH1 0x0 KECCAK256 SWAP1 PUSH1 0x0 JUMPDEST DUP2 DUP2 LT PUSH2 0x6E9 JUMPI POP POP POP DUP2 PUSH2 0x6A6 SWAP2 SUB DUP3 PUSH2 0xF2A JUMP JUMPDEST PUSH1 0x40 MLOAD SWAP2 DUP3 SWAP2 PUSH1 0x20 DUP4 ADD SWAP1 PUSH1 0x20 DUP5 MSTORE MLOAD DUP1 SWAP2 MSTORE PUSH1 0x40 DUP4 ADD SWAP2 SWAP1 PUSH1 0x0 JUMPDEST DUP2 DUP2 LT PUSH2 0x6D0 JUMPI POP POP POP SUB SWAP1 RETURN JUMPDEST DUP3 MLOAD DUP5 MSTORE DUP6 SWAP5 POP PUSH1 0x20 SWAP4 DUP5 ADD SWAP4 SWAP1 SWAP3 ADD SWAP2 PUSH1 0x1 ADD PUSH2 0x6C2 JUMP JUMPDEST DUP3 SLOAD DUP5 MSTORE PUSH1 0x20 SWAP1 SWAP4 ADD SWAP3 PUSH1 0x1 SWAP3 DUP4 ADD SWAP3 ADD PUSH2 0x690 JUMP JUMPDEST CALLVALUE PUSH2 0x1BC JUMPI PUSH1 0x20 CALLDATASIZE PUSH1 0x3 NOT ADD SLT PUSH2 0x1BC JUMPI PUSH1 0x4 CALLDATALOAD DUP1 PUSH1 0x0 MSTORE PUSH1 0x3 PUSH1 0x20 MSTORE PUSH1 0xFF PUSH1 0xA PUSH1 0x40 PUSH1 0x0 KECCAK256 ADD SLOAD AND ISZERO PUSH2 0x2DA JUMPI PUSH1 0x0 MSTORE PUSH1 0x3 PUSH1 0x20 MSTORE PUSH2 0x180 PUSH1 0x40 PUSH1 0x0 KECCAK256 PUSH1 0x1 DUP1 PUSH1 0xA0 SHL SUB DUP2 SLOAD AND SWAP1 PUSH1 0x1 DUP2 ADD SLOAD SWAP1 PUSH1 0x1 DUP1 PUSH1 0xA0 SHL SUB PUSH1 0x2 DUP3 ADD SLOAD AND SWAP1 PUSH1 0x3 DUP2 ADD SLOAD PUSH1 0x4 DUP3 ADD SLOAD PUSH1 0x5 DUP4 ADD SLOAD PUSH1 0x1 DUP1 PUSH1 0xA0 SHL SUB PUSH1 0x6 DUP6 ADD SLOAD AND SWAP1 PUSH1 0x7 DUP6 ADD SLOAD SWAP3 PUSH1 0x8 DUP7 ADD SLOAD SWAP5 PUSH1 0xFF PUSH1 0xA PUSH1 0x9 DUP10 ADD SLOAD SWAP9 ADD SLOAD PUSH1 0x8 SHR AND SWAP8 PUSH2 0x7A0 DUP4 DUP4 PUSH2 0xF1D JUMP JUMPDEST SWAP10 PUSH1 0x40 MLOAD SWAP12 DUP13 MSTORE PUSH1 0x20 DUP13 ADD MSTORE PUSH1 0x40 DUP12 ADD MSTORE PUSH1 0x60 DUP11 ADD MSTORE PUSH1 0x80 DUP10 ADD MSTORE PUSH1 0xA0 DUP9 ADD MSTORE PUSH1 0xC0 DUP8 ADD MSTORE PUSH1 0xE0 DUP7 ADD MSTORE PUSH2 0x100 DUP6 ADD MSTORE PUSH2 0x120 DUP5 ADD MSTORE ISZERO ISZERO PUSH2 0x140 DUP4 ADD MSTORE PUSH2 0x160 DUP3 ADD MSTORE RETURN JUMPDEST CALLVALUE PUSH2 0x1BC JUMPI PUSH1 0x0 CALLDATASIZE PUSH1 0x3 NOT ADD SLT PUSH2 0x1BC JUMPI PUSH1 0x1 SLOAD PUSH1 0x40 MLOAD PUSH1 0x1 PUSH1 0x1 PUSH1 0xA0 SHL SUB SWAP1 SWAP2 AND DUP2 MSTORE PUSH1 0x20 SWAP1 RETURN JUMPDEST CALLVALUE PUSH2 0x1BC JUMPI PUSH1 0x0 CALLDATASIZE PUSH1 0x3 NOT ADD SLT PUSH2 0x1BC JUMPI PUSH2 0x828 PUSH2 0x1587 JUMP JUMPDEST PUSH1 0x1 DUP1 SLOAD PUSH1 0x1 PUSH1 0x1 PUSH1 0xA0 SHL SUB NOT DUP2 AND SWAP1 SWAP2 SSTORE PUSH1 0x0 SWAP1 PUSH1 0x1 PUSH1 0x1 PUSH1 0xA0 SHL SUB AND PUSH32 0x8BE0079C531659141344CD1FD0A4F28419497F9722A3DAAFE3B4186F6B6457E0 DUP3 DUP1 LOG3 STOP JUMPDEST PUSH1 0x40 CALLDATASIZE PUSH1 0x3 NOT ADD SLT PUSH2 0x1BC JUMPI PUSH1 0x4 CALLDATALOAD PUSH2 0x883 PUSH2 0xE7B JUMP JUMPDEST PUSH2 0x88B PUSH2 0x136F JUMP JUMPDEST CALLVALUE ISZERO PUSH2 0xA00 JUMPI PUSH1 0x1 PUSH1 0x1 PUSH1 0xA0 SHL SUB DUP2 AND PUSH1 0x0 DUP2 DUP2 MSTORE PUSH1 0x6 PUSH1 0x20 MSTORE PUSH1 0x40 SWAP1 KECCAK256 SLOAD PUSH1 0xFF AND ISZERO PUSH2 0x9EF JUMPI PUSH1 0x20 SWAP3 PUSH2 0x973 PUSH1 0x2 SLOAD SWAP4 PUSH2 0x8C5 DUP6 PUSH2 0xE91 JUMP JUMPDEST PUSH1 0x2 SSTORE DUP5 PUSH1 0x0 MSTORE PUSH1 0x3 DUP7 MSTORE PUSH1 0xA PUSH1 0x40 PUSH1 0x0 KECCAK256 PUSH1 0x1 DUP1 PUSH1 0xA0 SHL SUB CALLER AND PUSH1 0x1 PUSH1 0x1 PUSH1 0x60 SHL SUB PUSH1 0xA0 SHL DUP3 SLOAD AND OR DUP2 SSTORE DUP5 PUSH1 0x1 DUP3 ADD SSTORE PUSH1 0x2 DUP2 ADD PUSH1 0x1 PUSH1 0x1 PUSH1 0x60 SHL SUB PUSH1 0xA0 SHL DUP2 SLOAD AND SWAP1 SSTORE CALLVALUE PUSH1 0x3 DUP3 ADD SSTORE PUSH1 0x6 DUP2 ADD DUP7 PUSH1 0x1 PUSH1 0x1 PUSH1 0x60 SHL SUB PUSH1 0xA0 SHL DUP3 SLOAD AND OR SWAP1 SSTORE CALLVALUE PUSH1 0x7 DUP3 ADD SSTORE TIMESTAMP PUSH1 0x8 DUP3 ADD SSTORE TIMESTAMP PUSH1 0x9 DUP3 ADD SSTORE ADD PUSH2 0x101 PUSH2 0xFFFF NOT DUP3 SLOAD AND OR SWAP1 SSTORE CALLER PUSH1 0x0 MSTORE PUSH1 0x4 DUP7 MSTORE PUSH2 0x95D DUP6 PUSH1 0x40 PUSH1 0x0 KECCAK256 PUSH2 0xEB6 JUMP JUMPDEST DUP3 PUSH1 0x0 MSTORE PUSH1 0x5 DUP7 MSTORE DUP5 PUSH1 0x40 PUSH1 0x0 KECCAK256 SSTORE CALLVALUE SWAP1 PUSH2 0x15EE JUMP JUMPDEST PUSH1 0x40 DUP1 MLOAD PUSH1 0x1 PUSH1 0x1 PUSH1 0xA0 SHL SUB SWAP1 SWAP3 AND DUP3 MSTORE PUSH1 0x0 DUP6 DUP4 ADD MSTORE CALLVALUE SWAP1 DUP3 ADD MSTORE CALLER SWAP1 DUP4 SWAP1 PUSH32 0xD0F40211720072CD6E0A9E469931FBDE6134A78E61127C4B255BE496BE72B36A SWAP1 PUSH1 0x60 SWAP1 LOG3 DUP2 PUSH31 0x60A8CABA85DF807229FC2C649864FB5A7E4FE0F0582FB20615506E1A691CF9 DUP5 PUSH1 0x40 MLOAD CALLVALUE DUP2 MSTORE LOG3 PUSH1 0x1 PUSH1 0x0 SSTORE PUSH1 0x40 MLOAD SWAP1 DUP2 MSTORE RETURN JUMPDEST PUSH4 0x18D7A573 PUSH1 0xE0 SHL PUSH1 0x0 MSTORE PUSH1 0x4 PUSH1 0x0 REVERT JUMPDEST PUSH4 0x162908E3 PUSH1 0xE1 SHL PUSH1 0x0 MSTORE PUSH1 0x4 PUSH1 0x0 REVERT JUMPDEST CALLVALUE PUSH2 0x1BC JUMPI PUSH1 0x0 CALLDATASIZE PUSH1 0x3 NOT ADD SLT PUSH2 0x1BC JUMPI PUSH1 0xC SLOAD PUSH1 0x40 MLOAD PUSH1 0x1 PUSH1 0x1 PUSH1 0xA0 SHL SUB SWAP1 SWAP2 AND DUP2 MSTORE PUSH1 0x20 SWAP1 RETURN JUMPDEST CALLVALUE PUSH2 0x1BC JUMPI PUSH1 0x0 CALLDATASIZE PUSH1 0x3 NOT ADD SLT PUSH2 0x1BC JUMPI PUSH1 0xB SLOAD PUSH1 0x40 MLOAD PUSH1 0x1 PUSH1 0x1 PUSH1 0xA0 SHL SUB SWAP1 SWAP2 AND DUP2 MSTORE PUSH1 0x20 SWAP1 RETURN JUMPDEST CALLVALUE PUSH2 0x1BC JUMPI PUSH1 0x0 CALLDATASIZE PUSH1 0x3 NOT ADD SLT PUSH2 0x1BC JUMPI PUSH1 0x20 PUSH1 0x40 MLOAD PUSH1 0x64 DUP2 MSTORE RETURN JUMPDEST CALLVALUE PUSH2 0x1BC JUMPI PUSH1 0x0 CALLDATASIZE PUSH1 0x3 NOT ADD SLT PUSH2 0x1BC JUMPI PUSH1 0xA SLOAD PUSH1 0x40 MLOAD PUSH1 0x1 PUSH1 0x1 PUSH1 0xA0 SHL SUB SWAP1 SWAP2 AND DUP2 MSTORE PUSH1 0x20 SWAP1 RETURN JUMPDEST CALLVALUE PUSH2 0x1BC JUMPI PUSH1 0x40 CALLDATASIZE PUSH1 0x3 NOT ADD SLT PUSH2 0x1BC JUMPI PUSH1 0x4 CALLDATALOAD PUSH2 0xAC4 PUSH2 0x136F JUMP JUMPDEST DUP1 PUSH1 0x0 MSTORE PUSH1 0x3 PUSH1 0x20 MSTORE PUSH1 0xFF PUSH1 0xA PUSH1 0x40 PUSH1 0x0 KECCAK256 ADD SLOAD AND ISZERO PUSH2 0x2DA JUMPI PUSH2 0x566 SWAP1 PUSH1 0x24 CALLDATALOAD SWAP1 PUSH2 0xFCE JUMP JUMPDEST CALLVALUE PUSH2 0x1BC JUMPI PUSH1 0x0 CALLDATASIZE PUSH1 0x3 NOT ADD SLT PUSH2 0x1BC JUMPI PUSH1 0x9 SLOAD PUSH1 0x40 MLOAD PUSH1 0x1 PUSH1 0x1 PUSH1 0xA0 SHL SUB SWAP1 SWAP2 AND DUP2 MSTORE PUSH1 0x20 SWAP1 RETURN JUMPDEST CALLVALUE PUSH2 0x1BC JUMPI PUSH1 0x60 CALLDATASIZE PUSH1 0x3 NOT ADD SLT PUSH2 0x1BC JUMPI PUSH2 0xB2D PUSH2 0xE65 JUMP JUMPDEST PUSH2 0xB35 PUSH2 0xE7B JUMP JUMPDEST PUSH1 0x44 CALLDATALOAD SWAP2 PUSH1 0x3 DUP4 LT ISZERO PUSH2 0x1BC JUMPI PUSH2 0xB4A PUSH2 0x1587 JUMP JUMPDEST PUSH1 0x1 PUSH1 0x1 PUSH1 0xA0 SHL SUB SWAP1 DUP2 AND PUSH1 0x0 SWAP1 DUP2 MSTORE PUSH1 0x6 PUSH1 0x20 SWAP1 DUP2 MSTORE PUSH1 0x40 DUP1 DUP4 KECCAK256 DUP1 SLOAD PUSH1 0xFF NOT SWAP1 DUP2 AND PUSH1 0x1 OR SWAP1 SWAP2 SSTORE PUSH1 0x7 DUP4 MSTORE DUP2 DUP5 KECCAK256 DUP1 SLOAD PUSH1 0x1 PUSH1 0x1 PUSH1 0xA0 SHL SUB NOT AND SWAP7 SWAP1 SWAP6 AND SWAP6 SWAP1 SWAP6 OR SWAP1 SWAP4 SSTORE PUSH1 0x8 SWAP1 MSTORE KECCAK256 DUP1 SLOAD PUSH1 0xFF SWAP4 SWAP1 SWAP4 AND SWAP3 SWAP1 SWAP2 AND SWAP2 SWAP1 SWAP2 OR SWAP1 SSTORE STOP JUMPDEST CALLVALUE PUSH2 0x1BC JUMPI PUSH1 0x80 CALLDATASIZE PUSH1 0x3 NOT ADD SLT PUSH2 0x1BC JUMPI PUSH1 0x4 CALLDATALOAD PUSH2 0xBC7 PUSH2 0xE7B JUMP JUMPDEST PUSH1 0x44 CALLDATALOAD SWAP2 PUSH1 0x64 CALLDATALOAD PUSH1 0x1 PUSH1 0x1 PUSH1 0xA0 SHL SUB DUP2 AND SWAP2 DUP3 DUP3 SUB PUSH2 0x1BC JUMPI PUSH2 0xBE8 PUSH2 0x136F JUMP JUMPDEST DUP5 ISZERO PUSH2 0xA00 JUMPI DUP3 PUSH1 0x0 MSTORE PUSH1 0x6 PUSH1 0x20 MSTORE PUSH1 0xFF PUSH1 0x40 PUSH1 0x0 KECCAK256 SLOAD AND ISZERO PUSH2 0x9EF JUMPI PUSH1 0x1 PUSH1 0x1 PUSH1 0xA0 SHL SUB DUP5 AND SWAP2 DUP3 ISZERO PUSH2 0xA00 JUMPI PUSH1 0x40 MLOAD PUSH4 0x23B872DD PUSH1 0xE0 SHL PUSH1 0x20 DUP1 DUP4 ADD SWAP2 SWAP1 SWAP2 MSTORE CALLER PUSH1 0x24 DUP4 ADD MSTORE ADDRESS PUSH1 0x44 DUP4 ADD MSTORE PUSH1 0x64 DUP1 DUP4 ADD DUP10 SWAP1 MSTORE DUP3 MSTORE SWAP7 PUSH1 0xA SWAP7 PUSH31 0x60A8CABA85DF807229FC2C649864FB5A7E4FE0F0582FB20615506E1A691CF9 SWAP5 DUP10 SWAP5 SWAP3 SWAP4 SWAP2 SWAP3 SWAP1 SWAP2 PUSH2 0xC8E SWAP2 DUP6 SWAP2 PUSH2 0xC88 SWAP1 PUSH2 0xC82 PUSH1 0x84 DUP3 PUSH2 0xF2A JUMP JUMPDEST DUP11 PUSH2 0x1A7E JUMP JUMPDEST DUP5 PUSH2 0x1391 JUMP JUMPDEST PUSH1 0x2 SLOAD SWAP8 DUP9 SWAP7 PUSH2 0xC9D DUP9 PUSH2 0xE91 JUMP JUMPDEST PUSH1 0x2 SSTORE DUP8 PUSH1 0x0 MSTORE PUSH1 0x3 DUP7 MSTORE PUSH1 0x40 PUSH1 0x0 KECCAK256 SWAP1 PUSH1 0x1 DUP1 PUSH1 0xA0 SHL SUB CALLER AND PUSH1 0x1 PUSH1 0x1 PUSH1 0x60 SHL SUB PUSH1 0xA0 SHL DUP4 SLOAD AND OR DUP3 SSTORE DUP4 PUSH1 0x1 DUP4 ADD SSTORE PUSH1 0x2 DUP3 ADD SWAP1 PUSH1 0x1 PUSH1 0x1 PUSH1 0x60 SHL SUB PUSH1 0xA0 SHL DUP3 SLOAD AND OR SWAP1 SSTORE DUP5 PUSH1 0x3 DUP3 ADD SSTORE PUSH1 0x6 DUP2 ADD DUP10 PUSH1 0x1 PUSH1 0x1 PUSH1 0x60 SHL SUB PUSH1 0xA0 SHL DUP3 SLOAD AND OR SWAP1 SSTORE DUP5 PUSH1 0x7 DUP3 ADD SSTORE TIMESTAMP PUSH1 0x8 DUP3 ADD SSTORE TIMESTAMP PUSH1 0x9 DUP3 ADD SSTORE ADD PUSH1 0x1 PUSH2 0xFFFF NOT DUP3 SLOAD AND OR SWAP1 SSTORE CALLER PUSH1 0x0 MSTORE PUSH1 0x4 DUP5 MSTORE PUSH2 0xD35 DUP7 PUSH1 0x40 PUSH1 0x0 KECCAK256 PUSH2 0xEB6 JUMP JUMPDEST PUSH1 0x0 SWAP1 DUP2 MSTORE PUSH1 0x5 DUP5 MSTORE PUSH1 0x40 SWAP1 DUP2 SWAP1 KECCAK256 DUP7 SWAP1 SSTORE DUP1 MLOAD PUSH1 0x1 PUSH1 0x1 PUSH1 0xA0 SHL SUB SWAP3 SWAP1 SWAP3 AND DUP1 DUP4 MSTORE PUSH1 0x20 DUP4 ADD MSTORE DUP2 ADD DUP3 SWAP1 MSTORE CALLER SWAP1 DUP6 SWAP1 PUSH32 0xD0F40211720072CD6E0A9E469931FBDE6134A78E61127C4B255BE496BE72B36A SWAP1 PUSH1 0x60 SWAP1 LOG3 PUSH1 0x40 MLOAD SWAP1 DUP2 MSTORE LOG3 PUSH1 0x1 PUSH1 0x0 SSTORE PUSH1 0x40 MLOAD SWAP1 DUP2 MSTORE RETURN JUMPDEST CALLVALUE PUSH2 0x1BC JUMPI PUSH1 0x20 CALLDATASIZE PUSH1 0x3 NOT ADD SLT PUSH2 0x1BC JUMPI PUSH1 0x4 CALLDATALOAD PUSH1 0x0 MSTORE PUSH1 0x5 PUSH1 0x20 MSTORE PUSH1 0x20 PUSH1 0x40 PUSH1 0x0 KECCAK256 SLOAD PUSH1 0x40 MLOAD SWAP1 DUP2 MSTORE RETURN JUMPDEST CALLVALUE PUSH2 0x1BC JUMPI PUSH1 0x20 CALLDATASIZE PUSH1 0x3 NOT ADD SLT PUSH2 0x1BC JUMPI PUSH1 0x1 PUSH1 0x1 PUSH1 0xA0 SHL SUB PUSH2 0xDED PUSH2 0xE65 JUMP JUMPDEST AND PUSH1 0x0 MSTORE PUSH1 0x6 PUSH1 0x20 MSTORE PUSH1 0x20 PUSH1 0xFF PUSH1 0x40 PUSH1 0x0 KECCAK256 SLOAD AND PUSH1 0x40 MLOAD SWAP1 ISZERO ISZERO DUP2 MSTORE RETURN JUMPDEST CALLVALUE PUSH2 0x1BC JUMPI PUSH1 0x20 CALLDATASIZE PUSH1 0x3 NOT ADD SLT PUSH2 0x1BC JUMPI PUSH1 0x1 PUSH1 0x1 PUSH1 0xA0 SHL SUB PUSH2 0xE2C PUSH2 0xE65 JUMP JUMPDEST AND PUSH1 0x0 MSTORE PUSH1 0x8 PUSH1 0x20 MSTORE PUSH1 0xFF PUSH1 0x40 PUSH1 0x0 KECCAK256 SLOAD AND SWAP1 PUSH1 0x3 DUP3 LT ISZERO PUSH2 0xE4F JUMPI PUSH1 0x20 SWAP2 DUP2 MSTORE RETURN JUMPDEST PUSH4 0x4E487B71 PUSH1 0xE0 SHL PUSH1 0x0 MSTORE PUSH1 0x21 PUSH1 0x4 MSTORE PUSH1 0x24 PUSH1 0x0 REVERT JUMPDEST PUSH1 0x4 CALLDATALOAD SWAP1 PUSH1 0x1 PUSH1 0x1 PUSH1 0xA0 SHL SUB DUP3 AND DUP3 SUB PUSH2 0x1BC JUMPI JUMP JUMPDEST PUSH1 0x24 CALLDATALOAD SWAP1 PUSH1 0x1 PUSH1 0x1 PUSH1 0xA0 SHL SUB DUP3 AND DUP3 SUB PUSH2 0x1BC JUMPI JUMP JUMPDEST PUSH1 0x0 NOT DUP2 EQ PUSH2 0xEA0 JUMPI PUSH1 0x1 ADD SWAP1 JUMP JUMPDEST PUSH4 0x4E487B71 PUSH1 0xE0 SHL PUSH1 0x0 MSTORE PUSH1 0x11 PUSH1 0x4 MSTORE PUSH1 0x24 PUSH1 0x0 REVERT JUMPDEST DUP1 SLOAD SWAP1 PUSH9 0x10000000000000000 DUP3 LT ISZERO PUSH2 0xEFA JUMPI PUSH1 0x1 DUP3 ADD DUP1 DUP3 SSTORE DUP3 LT ISZERO PUSH2 0xEE4 JUMPI PUSH1 0x0 MSTORE PUSH1 0x20 PUSH1 0x0 KECCAK256 ADD SSTORE JUMP JUMPDEST PUSH4 0x4E487B71 PUSH1 0xE0 SHL PUSH1 0x0 MSTORE PUSH1 0x32 PUSH1 0x4 MSTORE PUSH1 0x24 PUSH1 0x0 REVERT JUMPDEST PUSH4 0x4E487B71 PUSH1 0xE0 SHL PUSH1 0x0 MSTORE PUSH1 0x41 PUSH1 0x4 MSTORE PUSH1 0x24 PUSH1 0x0 REVERT JUMPDEST SWAP2 SWAP1 DUP3 SUB SWAP2 DUP3 GT PUSH2 0xEA0 JUMPI JUMP JUMPDEST SWAP2 SWAP1 DUP3 ADD DUP1 SWAP3 GT PUSH2 0xEA0 JUMPI JUMP JUMPDEST SWAP1 PUSH1 0x1F DUP1 NOT SWAP2 ADD AND DUP2 ADD SWAP1 DUP2 LT PUSH8 0xFFFFFFFFFFFFFFFF DUP3 GT OR PUSH2 0xEFA JUMPI PUSH1 0x40 MSTORE JUMP JUMPDEST RETURNDATASIZE ISZERO PUSH2 0xF87 JUMPI RETURNDATASIZE SWAP1 PUSH8 0xFFFFFFFFFFFFFFFF DUP3 GT PUSH2 0xEFA JUMPI PUSH1 0x40 MLOAD SWAP2 PUSH2 0xF7B PUSH1 0x1F DUP3 ADD PUSH1 0x1F NOT AND PUSH1 0x20 ADD DUP5 PUSH2 0xF2A JUMP JUMPDEST DUP3 MSTORE RETURNDATASIZE PUSH1 0x0 PUSH1 0x20 DUP5 ADD RETURNDATACOPY JUMP JUMPDEST PUSH1 0x60 SWAP1 JUMP JUMPDEST ISZERO PUSH2 0xF93 JUMPI JUMP JUMPDEST PUSH1 0x40 MLOAD PUSH3 0x461BCD PUSH1 0xE5 SHL DUP2 MSTORE PUSH1 0x20 PUSH1 0x4 DUP3 ADD MSTORE PUSH1 0x13 PUSH1 0x24 DUP3 ADD MSTORE PUSH19 0x119959481D1C985B9CD9995C8819985A5B1959 PUSH1 0x6A SHL PUSH1 0x44 DUP3 ADD MSTORE PUSH1 0x64 SWAP1 REVERT JUMPDEST SWAP1 DUP2 PUSH1 0x0 MSTORE PUSH1 0x3 PUSH1 0x20 MSTORE PUSH1 0x40 PUSH1 0x0 KECCAK256 SWAP1 PUSH1 0x3 DUP3 ADD SLOAD SWAP1 DUP2 DUP2 GT ISZERO PUSH2 0x1121 JUMPI SWAP1 PUSH2 0xFF6 SWAP2 PUSH2 0xF10 JUMP JUMPDEST SWAP1 PUSH1 0x4 DUP2 ADD SWAP2 PUSH2 0x1008 DUP4 SLOAD DUP1 SWAP3 PUSH2 0xF10 JUMP JUMPDEST SWAP1 DUP2 ISZERO SWAP3 DUP4 ISZERO PUSH2 0x101B JUMPI JUMPDEST POP POP POP POP POP POP JUMP JUMPDEST PUSH1 0x64 DUP4 MUL SWAP4 DUP4 DUP6 DIV PUSH1 0x64 EQ OR ISZERO PUSH2 0xEA0 JUMPI PUSH32 0xD3BCA34D88BC8C8D0D3304CA482DA710A7F673BCD8E764FDAE6F4F2B66BB315D SWAP5 PUSH2 0x1069 PUSH2 0x2710 PUSH1 0x40 SWAP7 DIV SWAP4 PUSH2 0x1063 DUP6 DUP8 PUSH2 0xF10 JUMP JUMPDEST SWAP1 PUSH2 0xF1D JUMP JUMPDEST SWAP1 SSTORE PUSH1 0x5 DUP2 ADD PUSH2 0x107A DUP4 DUP3 SLOAD PUSH2 0xF1D JUMP JUMPDEST SWAP1 SSTORE TIMESTAMP PUSH1 0x9 DUP3 ADD SSTORE PUSH1 0xC SLOAD DUP3 SWAP1 PUSH1 0x1 PUSH1 0x1 PUSH1 0xA0 SHL SUB AND DUP1 ISZERO ISZERO DUP1 PUSH2 0x1118 JUMPI JUMPDEST PUSH2 0x10B7 JUMPI JUMPDEST POP POP POP DUP3 MLOAD SWAP2 DUP3 MSTORE PUSH1 0x20 DUP3 ADD MSTORE LOG2 CODESIZE DUP1 DUP1 DUP1 DUP1 DUP1 PUSH2 0x1013 JUMP JUMPDEST PUSH1 0xA DUP4 ADD SLOAD PUSH1 0x8 SHR PUSH1 0xFF AND ISZERO PUSH2 0x10FA JUMPI POP PUSH1 0xC SLOAD PUSH2 0x10F2 SWAP3 POP PUSH1 0x0 SWAP2 DUP3 SWAP2 DUP3 SWAP2 DUP3 SWAP2 PUSH1 0x1 PUSH1 0x1 PUSH1 0xA0 SHL SUB AND GAS CALL PUSH2 0x10EC PUSH2 0xF4C JUMP JUMPDEST POP PUSH2 0xF8C JUMP JUMPDEST CODESIZE DUP2 DUP2 PUSH2 0x109E JUMP JUMPDEST PUSH1 0x2 SWAP1 SWAP3 ADD SLOAD PUSH2 0x1113 SWAP3 SWAP1 PUSH1 0x1 PUSH1 0x1 PUSH1 0xA0 SHL SUB AND PUSH2 0x15B0 JUMP JUMPDEST PUSH2 0x10F2 JUMP JUMPDEST POP DUP2 ISZERO ISZERO PUSH2 0x1099 JUMP JUMPDEST POP POP SWAP1 POP PUSH1 0x9 TIMESTAMP SWAP2 ADD SSTORE JUMP JUMPDEST SWAP1 DUP2 PUSH1 0x20 SWAP2 SUB SLT PUSH2 0x1BC JUMPI MLOAD SWAP1 JUMP JUMPDEST PUSH1 0x1 PUSH1 0x1 PUSH1 0xA0 SHL SUB AND PUSH1 0x0 SWAP1 DUP2 MSTORE PUSH1 0x8 PUSH1 0x20 MSTORE PUSH1 0x40 SWAP1 KECCAK256 SLOAD PUSH1 0xFF AND PUSH1 0x3 DUP2 LT ISZERO PUSH2 0xE4F JUMPI PUSH1 0x1 DUP2 SUB PUSH2 0x11DC JUMPI POP PUSH1 0x9 SLOAD PUSH1 0x40 MLOAD PUSH4 0x4B16524B PUSH1 0xE1 SHL DUP2 MSTORE SWAP1 PUSH1 0x20 SWAP1 DUP3 SWAP1 PUSH1 0x4 SWAP1 DUP3 SWAP1 PUSH1 0x1 PUSH1 0x1 PUSH1 0xA0 SHL SUB AND GAS STATICCALL SWAP1 DUP2 ISZERO PUSH2 0x11D0 JUMPI PUSH1 0x0 SWAP2 PUSH2 0x11A1 JUMPI POP SWAP1 JUMP JUMPDEST SWAP1 POP PUSH1 0x20 DUP2 RETURNDATASIZE PUSH1 0x20 GT PUSH2 0x11C8 JUMPI JUMPDEST DUP2 PUSH2 0x11BC PUSH1 0x20 SWAP4 DUP4 PUSH2 0xF2A JUMP JUMPDEST DUP2 ADD SUB SLT PUSH2 0x1BC JUMPI MLOAD SWAP1 JUMP JUMPDEST RETURNDATASIZE SWAP2 POP PUSH2 0x11AF JUMP JUMPDEST PUSH1 0x40 MLOAD RETURNDATASIZE PUSH1 0x0 DUP3 RETURNDATACOPY RETURNDATASIZE SWAP1 REVERT JUMPDEST PUSH1 0x2 PUSH1 0x0 SWAP2 EQ PUSH2 0x11EC JUMPI POP PUSH1 0x0 SWAP1 JUMP JUMPDEST PUSH1 0xA SLOAD PUSH1 0x40 MLOAD PUSH4 0x545DC197 PUSH1 0xE1 SHL DUP2 MSTORE PUSH1 0x4 DUP2 ADD DUP4 SWAP1 MSTORE SWAP1 PUSH1 0x20 SWAP1 DUP3 SWAP1 PUSH1 0x24 SWAP1 DUP3 SWAP1 PUSH1 0x1 PUSH1 0x1 PUSH1 0xA0 SHL SUB AND GAS STATICCALL SWAP2 DUP3 ISZERO PUSH2 0x125F JUMPI DUP1 SWAP3 PUSH2 0x122B JUMPI POP POP SWAP1 JUMP JUMPDEST SWAP1 SWAP2 POP PUSH1 0x20 DUP3 RETURNDATASIZE PUSH1 0x20 GT PUSH2 0x1257 JUMPI JUMPDEST DUP2 PUSH2 0x1247 PUSH1 0x20 SWAP4 DUP4 PUSH2 0xF2A JUMP JUMPDEST DUP2 ADD SUB SLT PUSH2 0x1254 JUMPI POP MLOAD SWAP1 JUMP JUMPDEST DUP1 REVERT JUMPDEST RETURNDATASIZE SWAP2 POP PUSH2 0x123A JUMP JUMPDEST PUSH1 0x40 MLOAD SWAP1 RETURNDATASIZE SWAP1 DUP3 RETURNDATACOPY RETURNDATASIZE SWAP1 REVERT JUMPDEST ISZERO PUSH2 0x1272 JUMPI JUMP JUMPDEST PUSH1 0x40 MLOAD PUSH3 0x461BCD PUSH1 0xE5 SHL DUP2 MSTORE PUSH1 0x20 PUSH1 0x4 DUP3 ADD MSTORE PUSH1 0x13 PUSH1 0x24 DUP3 ADD MSTORE PUSH19 0x496E76616C69642062656E6566696369617279 PUSH1 0x68 SHL PUSH1 0x44 DUP3 ADD MSTORE PUSH1 0x64 SWAP1 REVERT JUMPDEST ISZERO PUSH2 0x12B4 JUMPI JUMP JUMPDEST PUSH1 0x40 MLOAD PUSH3 0x461BCD PUSH1 0xE5 SHL DUP2 MSTORE PUSH1 0x20 PUSH1 0x4 DUP3 ADD MSTORE PUSH1 0x14 PUSH1 0x24 DUP3 ADD MSTORE PUSH20 0x496E73756666696369656E742062616C616E6365 PUSH1 0x60 SHL PUSH1 0x44 DUP3 ADD MSTORE PUSH1 0x64 SWAP1 REVERT JUMPDEST ISZERO PUSH2 0x12F7 JUMPI JUMP JUMPDEST PUSH1 0x40 MLOAD PUSH3 0x461BCD PUSH1 0xE5 SHL DUP2 MSTORE PUSH1 0x20 PUSH1 0x4 DUP3 ADD MSTORE PUSH1 0x13 PUSH1 0x24 DUP3 ADD MSTORE PUSH19 0x115512081D1C985B9CD9995C8819985A5B1959 PUSH1 0x6A SHL PUSH1 0x44 DUP3 ADD MSTORE PUSH1 0x64 SWAP1 REVERT JUMPDEST ISZERO PUSH2 0x1339 JUMPI JUMP JUMPDEST PUSH1 0x40 MLOAD PUSH3 0x461BCD PUSH1 0xE5 SHL DUP2 MSTORE PUSH1 0x20 PUSH1 0x4 DUP3 ADD MSTORE PUSH1 0xE PUSH1 0x24 DUP3 ADD MSTORE PUSH14 0x139BDD08185D5D1A1BDC9A5E9959 PUSH1 0x92 SHL PUSH1 0x44 DUP3 ADD MSTORE PUSH1 0x64 SWAP1 REVERT JUMPDEST PUSH1 0x2 PUSH1 0x0 SLOAD EQ PUSH2 0x1380 JUMPI PUSH1 0x2 PUSH1 0x0 SSTORE JUMP JUMPDEST PUSH4 0x3EE5AEB5 PUSH1 0xE0 SHL PUSH1 0x0 MSTORE PUSH1 0x4 PUSH1 0x0 REVERT JUMPDEST SWAP2 SWAP1 PUSH1 0x1 DUP1 PUSH1 0xA0 SHL SUB AND PUSH1 0x0 MSTORE PUSH1 0x8 PUSH1 0x20 MSTORE PUSH1 0xFF PUSH1 0x40 PUSH1 0x0 KECCAK256 SLOAD AND PUSH1 0x3 DUP2 LT ISZERO PUSH2 0xE4F JUMPI PUSH1 0x2 SUB PUSH2 0x9EF JUMPI PUSH1 0xA SLOAD PUSH1 0x40 MLOAD PUSH4 0x6EB1769F PUSH1 0xE1 SHL DUP2 MSTORE ADDRESS PUSH1 0x4 DUP3 ADD MSTORE PUSH1 0x1 PUSH1 0x1 PUSH1 0xA0 SHL SUB SWAP2 DUP3 AND PUSH1 0x24 DUP3 ADD DUP2 SWAP1 MSTORE SWAP2 DUP5 AND SWAP4 SWAP2 SWAP1 PUSH1 0x20 DUP2 PUSH1 0x44 DUP2 DUP9 GAS STATICCALL SWAP1 DUP2 ISZERO PUSH2 0x11D0 JUMPI PUSH1 0x0 SWAP2 PUSH2 0x154B JUMPI JUMPDEST POP SWAP1 PUSH2 0x14AE SWAP5 PUSH2 0x1416 DUP6 PUSH1 0x20 SWAP7 SWAP6 SWAP5 PUSH2 0xF1D JUMP JUMPDEST PUSH1 0x40 MLOAD PUSH4 0x95EA7B3 PUSH1 0xE0 SHL DUP8 DUP3 ADD SWAP1 DUP2 MSTORE PUSH1 0x1 PUSH1 0x1 PUSH1 0xA0 SHL SUB DUP6 AND PUSH1 0x24 DUP4 ADD MSTORE PUSH1 0x44 DUP1 DUP4 ADD SWAP4 SWAP1 SWAP4 MSTORE SWAP2 DUP2 MSTORE SWAP2 SWAP1 DUP7 SWAP1 PUSH1 0x0 SWAP1 PUSH2 0x1454 PUSH1 0x64 DUP7 PUSH2 0xF2A JUMP JUMPDEST DUP5 MLOAD SWAP1 DUP3 DUP6 GAS CALL PUSH1 0x0 MLOAD RETURNDATASIZE DUP3 PUSH2 0x152F JUMPI JUMPDEST POP POP ISZERO PUSH2 0x14EA JUMPI JUMPDEST POP POP PUSH1 0xA SLOAD PUSH1 0x40 MLOAD PUSH4 0x1E573FB7 PUSH1 0xE3 SHL DUP2 MSTORE PUSH1 0x1 PUSH1 0x1 PUSH1 0xA0 SHL SUB SWAP4 DUP5 AND PUSH1 0x4 DUP3 ADD MSTORE PUSH1 0x24 DUP2 ADD SWAP5 SWAP1 SWAP5 MSTORE SWAP3 SWAP5 DUP6 SWAP4 SWAP1 SWAP3 AND SWAP2 DUP4 SWAP2 POP PUSH1 0x0 SWAP1 DUP3 SWAP1 PUSH1 0x44 DUP3 ADD SWAP1 JUMP JUMPDEST SUB SWAP3 GAS CALL DUP1 ISZERO PUSH2 0x11D0 JUMPI PUSH2 0x14BF JUMPI POP JUMP JUMPDEST PUSH2 0x14E0 SWAP1 PUSH1 0x20 RETURNDATASIZE PUSH1 0x20 GT PUSH2 0x14E3 JUMPI JUMPDEST PUSH2 0x14D8 DUP2 DUP4 PUSH2 0xF2A JUMP JUMPDEST DUP2 ADD SWAP1 PUSH2 0x112D JUMP JUMPDEST POP JUMP JUMPDEST POP RETURNDATASIZE PUSH2 0x14CE JUMP JUMPDEST PUSH2 0x1522 PUSH2 0x1527 SWAP4 PUSH1 0x40 MLOAD SWAP1 PUSH4 0x95EA7B3 PUSH1 0xE0 SHL DUP10 DUP4 ADD MSTORE PUSH1 0x24 DUP3 ADD MSTORE PUSH1 0x0 PUSH1 0x44 DUP3 ADD MSTORE PUSH1 0x44 DUP2 MSTORE PUSH2 0x151C PUSH1 0x64 DUP3 PUSH2 0xF2A JUMP JUMPDEST DUP3 PUSH2 0x1A7E JUMP JUMPDEST PUSH2 0x1A7E JUMP JUMPDEST CODESIZE DUP1 DUP1 PUSH2 0x146D JUMP JUMPDEST SWAP1 SWAP2 POP PUSH2 0x1543 JUMPI POP DUP1 EXTCODESIZE ISZERO ISZERO JUMPDEST CODESIZE DUP1 PUSH2 0x1465 JUMP JUMPDEST PUSH1 0x1 EQ PUSH2 0x153C JUMP JUMPDEST SWAP4 SWAP3 SWAP2 SWAP1 POP PUSH1 0x20 DUP5 RETURNDATASIZE PUSH1 0x20 GT PUSH2 0x157F JUMPI JUMPDEST DUP2 PUSH2 0x1569 PUSH1 0x20 SWAP4 DUP4 PUSH2 0xF2A JUMP JUMPDEST DUP2 ADD SUB SLT PUSH2 0x1BC JUMPI SWAP3 MLOAD SWAP2 SWAP3 SWAP1 SWAP2 PUSH2 0x14AE PUSH2 0x1402 JUMP JUMPDEST RETURNDATASIZE SWAP2 POP PUSH2 0x155C JUMP JUMPDEST PUSH1 0x1 SLOAD PUSH1 0x1 PUSH1 0x1 PUSH1 0xA0 SHL SUB AND CALLER SUB PUSH2 0x159B JUMPI JUMP JUMPDEST PUSH4 0x118CDAA7 PUSH1 0xE0 SHL PUSH1 0x0 MSTORE CALLER PUSH1 0x4 MSTORE PUSH1 0x24 PUSH1 0x0 REVERT JUMPDEST PUSH1 0x40 MLOAD PUSH4 0xA9059CBB PUSH1 0xE0 SHL PUSH1 0x20 DUP3 ADD MSTORE PUSH1 0x1 PUSH1 0x1 PUSH1 0xA0 SHL SUB SWAP3 SWAP1 SWAP3 AND PUSH1 0x24 DUP4 ADD MSTORE PUSH1 0x44 DUP1 DUP4 ADD SWAP4 SWAP1 SWAP4 MSTORE SWAP2 DUP2 MSTORE PUSH2 0x15EC SWAP2 PUSH2 0x1522 PUSH1 0x64 DUP4 PUSH2 0xF2A JUMP JUMPDEST JUMP JUMPDEST PUSH1 0x1 PUSH1 0x1 PUSH1 0xA0 SHL SUB AND PUSH1 0x0 SWAP1 DUP2 MSTORE PUSH1 0x8 PUSH1 0x20 MSTORE PUSH1 0x40 SWAP1 KECCAK256 SLOAD PUSH1 0xFF AND PUSH1 0x3 DUP2 LT ISZERO PUSH2 0xE4F JUMPI PUSH1 0x1 SUB PUSH2 0x9EF JUMPI PUSH2 0x1625 DUP2 SELFBALANCE LT ISZERO PUSH2 0x12AD JUMP JUMPDEST PUSH1 0x9 SLOAD PUSH1 0x40 MLOAD PUSH4 0xDCEB986D PUSH1 0xE0 SHL DUP2 MSTORE SWAP2 PUSH1 0x20 SWAP2 DUP4 SWAP2 PUSH1 0x4 SWAP2 DUP4 SWAP2 SWAP1 PUSH1 0x1 PUSH1 0x1 PUSH1 0xA0 SHL SUB AND GAS CALL DUP1 ISZERO PUSH2 0x11D0 JUMPI PUSH2 0x14BF JUMPI POP JUMP JUMPDEST PUSH1 0x0 MSTORE PUSH1 0x3 PUSH1 0x20 MSTORE PUSH1 0x40 PUSH1 0x0 KECCAK256 SWAP1 PUSH1 0x7 DUP3 ADD SWAP2 DUP3 SLOAD ISZERO PUSH2 0x1909 JUMPI PUSH1 0x6 DUP2 ADD SLOAD PUSH1 0x1 PUSH1 0x1 PUSH1 0xA0 SHL SUB AND PUSH1 0x0 SWAP1 DUP2 MSTORE PUSH1 0x8 PUSH1 0x20 MSTORE PUSH1 0x40 SWAP1 KECCAK256 SLOAD PUSH1 0xFF AND SWAP1 PUSH1 0x3 DUP3 LT ISZERO PUSH2 0xE4F JUMPI PUSH1 0x1 DUP3 SUB PUSH2 0x1773 JUMPI POP POP PUSH1 0x9 SLOAD PUSH1 0x40 MLOAD PUSH4 0xF8B2CB4F PUSH1 0xE0 SHL DUP2 MSTORE ADDRESS PUSH1 0x4 DUP3 ADD MSTORE SWAP3 SWAP1 PUSH1 0x1 PUSH1 0x1 PUSH1 0xA0 SHL SUB AND PUSH1 0x20 DUP5 PUSH1 0x24 DUP2 DUP5 GAS STATICCALL SWAP4 DUP5 ISZERO PUSH2 0x11D0 JUMPI PUSH1 0x0 SWAP5 PUSH2 0x173C JUMPI JUMPDEST POP SWAP3 PUSH1 0x0 SWAP3 SWAP4 DUP2 PUSH2 0x16F0 JUMPI POP POP SSTORE JUMP JUMPDEST PUSH1 0x24 PUSH1 0x20 SWAP3 PUSH1 0x40 MLOAD SWAP6 DUP7 SWAP4 DUP5 SWAP3 PUSH4 0x5C2FBCF PUSH1 0xE3 SHL DUP5 MSTORE PUSH1 0x4 DUP5 ADD MSTORE GAS CALL SWAP2 DUP3 ISZERO PUSH2 0x11D0 JUMPI PUSH1 0x0 SWAP3 PUSH2 0x1720 JUMPI POP SSTORE JUMP JUMPDEST PUSH2 0x1738 SWAP1 PUSH1 0x20 RETURNDATASIZE PUSH1 0x20 GT PUSH2 0x14E3 JUMPI PUSH2 0x14D8 DUP2 DUP4 PUSH2 0xF2A JUMP JUMPDEST POP SSTORE JUMP JUMPDEST PUSH1 0x20 DUP2 RETURNDATASIZE PUSH1 0x20 GT PUSH2 0x176B JUMPI JUMPDEST DUP2 PUSH2 0x1755 PUSH1 0x20 SWAP4 DUP4 PUSH2 0xF2A JUMP JUMPDEST DUP2 ADD SUB SLT PUSH2 0x1767 JUMPI MLOAD SWAP4 POP PUSH1 0x0 PUSH2 0x16E0 JUMP JUMPDEST DUP5 DUP1 REVERT JUMPDEST RETURNDATASIZE SWAP2 POP PUSH2 0x1748 JUMP JUMPDEST PUSH1 0x2 PUSH1 0x0 SWAP5 SWAP3 EQ PUSH2 0x1788 JUMPI JUMPDEST POP PUSH1 0x0 SWAP2 SWAP3 POP SSTORE JUMP JUMPDEST PUSH1 0xA SLOAD PUSH1 0x2 SWAP1 SWAP2 ADD SLOAD PUSH1 0x40 MLOAD PUSH4 0x39952977 PUSH1 0xE1 SHL DUP2 MSTORE PUSH1 0x1 PUSH1 0x1 PUSH1 0xA0 SHL SUB SWAP2 DUP3 AND PUSH1 0x4 DUP3 ADD DUP2 SWAP1 MSTORE SWAP3 SWAP1 SWAP2 AND SWAP2 SWAP1 PUSH1 0x20 DUP2 PUSH1 0x24 DUP2 DUP7 GAS STATICCALL SWAP1 DUP2 ISZERO PUSH2 0x18B9 JUMPI DUP7 SWAP2 PUSH2 0x18C4 JUMPI JUMPDEST POP PUSH1 0x40 MLOAD PUSH4 0x70A08231 PUSH1 0xE0 SHL DUP2 MSTORE ADDRESS PUSH1 0x4 DUP3 ADD MSTORE SWAP2 SWAP1 PUSH1 0x20 SWAP1 DUP4 SWAP1 PUSH1 0x24 SWAP1 DUP3 SWAP1 PUSH1 0x1 PUSH1 0x1 PUSH1 0xA0 SHL SUB AND GAS STATICCALL SWAP2 DUP3 ISZERO PUSH2 0x18B9 JUMPI DUP7 SWAP3 PUSH2 0x1881 JUMPI JUMPDEST POP DUP2 PUSH2 0x1814 JUMPI JUMPDEST POP POP PUSH2 0x177F JUMP JUMPDEST SWAP1 PUSH1 0x64 PUSH1 0x20 SWAP3 DUP8 PUSH1 0x40 MLOAD SWAP6 DUP7 SWAP5 DUP6 SWAP4 PUSH4 0x1A4CA37B PUSH1 0xE2 SHL DUP6 MSTORE PUSH1 0x4 DUP6 ADD MSTORE PUSH1 0x24 DUP5 ADD MSTORE ADDRESS PUSH1 0x44 DUP5 ADD MSTORE GAS CALL DUP1 ISZERO PUSH2 0x1876 JUMPI PUSH1 0x0 SWAP4 SWAP5 POP PUSH2 0x1857 JUMPI JUMPDEST DUP4 SWAP3 DUP2 PUSH2 0x180D JUMP JUMPDEST PUSH2 0x186F SWAP1 PUSH1 0x20 RETURNDATASIZE PUSH1 0x20 GT PUSH2 0x14E3 JUMPI PUSH2 0x14D8 DUP2 DUP4 PUSH2 0xF2A JUMP JUMPDEST POP CODESIZE PUSH2 0x184F JUMP JUMPDEST PUSH1 0x40 MLOAD RETURNDATASIZE DUP7 DUP3 RETURNDATACOPY RETURNDATASIZE SWAP1 REVERT JUMPDEST SWAP1 SWAP2 POP PUSH1 0x20 DUP2 RETURNDATASIZE PUSH1 0x20 GT PUSH2 0x18B1 JUMPI JUMPDEST DUP2 PUSH2 0x189D PUSH1 0x20 SWAP4 DUP4 PUSH2 0xF2A JUMP JUMPDEST DUP2 ADD SUB SLT PUSH2 0x18AD JUMPI MLOAD SWAP1 CODESIZE PUSH2 0x1806 JUMP JUMPDEST DUP6 DUP1 REVERT JUMPDEST RETURNDATASIZE SWAP2 POP PUSH2 0x1890 JUMP JUMPDEST PUSH1 0x40 MLOAD RETURNDATASIZE DUP9 DUP3 RETURNDATACOPY RETURNDATASIZE SWAP1 REVERT JUMPDEST SWAP1 POP PUSH1 0x20 DUP2 RETURNDATASIZE PUSH1 0x20 GT PUSH2 0x1901 JUMPI JUMPDEST DUP2 PUSH2 0x18DF PUSH1 0x20 SWAP4 DUP4 PUSH2 0xF2A JUMP JUMPDEST DUP2 ADD SUB SLT PUSH2 0x18AD JUMPI MLOAD SWAP1 PUSH1 0x1 PUSH1 0x1 PUSH1 0xA0 SHL SUB DUP3 AND DUP3 SUB PUSH2 0x18AD JUMPI SWAP1 PUSH1 0x20 PUSH2 0x17CD JUMP JUMPDEST RETURNDATASIZE SWAP2 POP PUSH2 0x18D2 JUMP JUMPDEST POP SWAP1 POP JUMP JUMPDEST DUP1 PUSH1 0x0 MSTORE PUSH1 0x3 PUSH1 0x20 MSTORE PUSH1 0x40 PUSH1 0x0 KECCAK256 PUSH1 0xA DUP2 ADD SLOAD SWAP1 PUSH1 0xFF DUP3 AND ISZERO PUSH2 0x1A79 JUMPI PUSH2 0x1934 DUP4 PUSH2 0x1AD9 JUMP JUMPDEST PUSH1 0x3 DUP3 ADD SLOAD SWAP1 DUP2 DUP2 GT ISZERO PUSH2 0x1A6C JUMPI SWAP1 PUSH2 0x194C SWAP2 PUSH2 0xF10 JUMP JUMPDEST SWAP1 PUSH1 0x4 DUP2 ADD SWAP2 PUSH2 0x195E DUP4 SLOAD DUP1 SWAP3 PUSH2 0xF10 JUMP JUMPDEST SWAP2 DUP3 ISZERO SWAP2 DUP3 ISZERO PUSH2 0x1972 JUMPI JUMPDEST POP POP POP POP POP POP POP JUMP JUMPDEST PUSH1 0x64 DUP5 MUL SWAP3 DUP5 DUP5 DIV PUSH1 0x64 EQ OR ISZERO PUSH2 0xEA0 JUMPI PUSH32 0xD3BCA34D88BC8C8D0D3304CA482DA710A7F673BCD8E764FDAE6F4F2B66BB315D SWAP6 PUSH1 0x40 SWAP6 PUSH2 0x2710 PUSH2 0x19BD SWAP6 DIV SWAP5 DUP6 SWAP4 PUSH2 0x1063 DUP6 DUP10 PUSH2 0xF10 JUMP JUMPDEST SWAP1 SSTORE PUSH1 0x5 DUP4 ADD PUSH2 0x19CE DUP4 DUP3 SLOAD PUSH2 0xF1D JUMP JUMPDEST SWAP1 SSTORE TIMESTAMP PUSH1 0x9 DUP5 ADD SSTORE PUSH1 0xC SLOAD PUSH1 0x1 PUSH1 0x1 PUSH1 0xA0 SHL SUB AND SWAP1 DUP2 ISZERO ISZERO DUP1 PUSH2 0x1A63 JUMPI JUMPDEST PUSH2 0x1A0C JUMPI JUMPDEST POP POP POP POP DUP3 MLOAD SWAP2 DUP3 MSTORE PUSH1 0x20 DUP3 ADD MSTORE LOG2 CODESIZE DUP1 DUP1 DUP1 DUP1 DUP1 DUP1 PUSH2 0x1969 JUMP JUMPDEST PUSH1 0x8 SHR PUSH1 0xFF AND ISZERO PUSH2 0x1A45 JUMPI POP PUSH1 0xC SLOAD PUSH2 0x1A3C SWAP3 POP PUSH1 0x0 SWAP2 DUP3 SWAP2 DUP3 SWAP2 DUP3 SWAP2 PUSH1 0x1 PUSH1 0x1 PUSH1 0xA0 SHL SUB AND GAS CALL PUSH2 0x10EC PUSH2 0xF4C JUMP JUMPDEST CODESIZE DUP2 DUP2 DUP1 PUSH2 0x19F1 JUMP JUMPDEST PUSH1 0x2 SWAP1 SWAP3 ADD SLOAD PUSH2 0x1A5E SWAP3 SWAP1 PUSH1 0x1 PUSH1 0x1 PUSH1 0xA0 SHL SUB AND PUSH2 0x15B0 JUMP JUMPDEST PUSH2 0x1A3C JUMP JUMPDEST POP DUP3 ISZERO ISZERO PUSH2 0x19EC JUMP JUMPDEST POP POP SWAP2 POP POP PUSH1 0x9 TIMESTAMP SWAP2 ADD SSTORE JUMP JUMPDEST POP POP POP JUMP JUMPDEST SWAP1 PUSH1 0x0 PUSH1 0x20 SWAP2 DUP3 DUP2 MLOAD SWAP2 ADD DUP3 DUP6 GAS CALL ISZERO PUSH2 0x11D0 JUMPI PUSH1 0x0 MLOAD RETURNDATASIZE PUSH2 0x1AD0 JUMPI POP PUSH1 0x1 PUSH1 0x1 PUSH1 0xA0 SHL SUB DUP2 AND EXTCODESIZE ISZERO JUMPDEST PUSH2 0x1AAF JUMPI POP JUMP JUMPDEST PUSH4 0x5274AFE7 PUSH1 0xE0 SHL PUSH1 0x0 SWAP1 DUP2 MSTORE PUSH1 0x1 PUSH1 0x1 PUSH1 0xA0 SHL SUB SWAP2 SWAP1 SWAP2 AND PUSH1 0x4 MSTORE PUSH1 0x24 SWAP1 REVERT JUMPDEST PUSH1 0x1 EQ ISZERO PUSH2 0x1AA8 JUMP JUMPDEST PUSH1 0x0 MSTORE PUSH1 0x3 PUSH1 0x20 MSTORE PUSH1 0x40 PUSH1 0x0 KECCAK256 PUSH1 0x1 DUP1 PUSH1 0xA0 SHL SUB PUSH1 0x6 DUP3 ADD SLOAD AND PUSH1 0x0 MSTORE PUSH1 0x8 PUSH1 0x20 MSTORE PUSH1 0xFF PUSH1 0x40 PUSH1 0x0 KECCAK256 SLOAD AND PUSH1 0x3 DUP2 LT ISZERO PUSH2 0xE4F JUMPI PUSH1 0x1 DUP2 SUB PUSH2 0x1BC3 JUMPI POP PUSH1 0x9 SLOAD PUSH1 0x40 MLOAD PUSH4 0xF8B2CB4F PUSH1 0xE0 SHL DUP2 MSTORE ADDRESS PUSH1 0x4 DUP3 ADD MSTORE PUSH1 0x1 PUSH1 0x1 PUSH1 0xA0 SHL SUB SWAP1 SWAP2 AND SWAP2 SWAP1 PUSH1 0x20 DUP2 PUSH1 0x24 DUP2 DUP7 GAS STATICCALL SWAP1 DUP2 ISZERO PUSH2 0x11D0 JUMPI PUSH1 0x0 SWAP2 PUSH2 0x1B91 JUMPI JUMPDEST POP DUP1 PUSH2 0x1B61 JUMPI POP PUSH1 0x3 SWAP2 POP ADD SLOAD SWAP1 JUMP JUMPDEST PUSH1 0x20 SWAP2 POP PUSH1 0x24 PUSH1 0x40 MLOAD DUP1 SWAP5 DUP2 SWAP4 PUSH4 0xD5BDA32D PUSH1 0xE0 SHL DUP4 MSTORE PUSH1 0x4 DUP4 ADD MSTORE GAS STATICCALL SWAP1 DUP2 ISZERO PUSH2 0x11D0 JUMPI PUSH1 0x0 SWAP2 PUSH2 0x11A1 JUMPI POP SWAP1 JUMP JUMPDEST SWAP1 PUSH1 0x20 DUP3 RETURNDATASIZE PUSH1 0x20 GT PUSH2 0x1BBB JUMPI JUMPDEST DUP2 PUSH2 0x1BAB PUSH1 0x20 SWAP4 DUP4 PUSH2 0xF2A JUMP JUMPDEST DUP2 ADD SUB SLT PUSH2 0x1254 JUMPI POP MLOAD CODESIZE PUSH2 0x1B51 JUMP JUMPDEST RETURNDATASIZE SWAP2 POP PUSH2 0x1B9E JUMP JUMPDEST SWAP1 PUSH1 0x2 PUSH1 0x0 SWAP3 EQ PUSH2 0x1BD7 JUMPI PUSH1 0x3 SWAP2 POP ADD SLOAD SWAP1 JUMP JUMPDEST PUSH1 0xA SLOAD PUSH1 0x2 DUP3 ADD SLOAD PUSH1 0x40 MLOAD PUSH4 0xD4FAC45D PUSH1 0xE0 SHL DUP2 MSTORE PUSH1 0x1 PUSH1 0x1 PUSH1 0xA0 SHL SUB SWAP2 DUP3 AND PUSH1 0x4 DUP3 ADD MSTORE ADDRESS PUSH1 0x24 DUP3 ADD MSTORE SWAP4 SWAP2 PUSH1 0x20 SWAP2 DUP6 SWAP2 PUSH1 0x44 SWAP2 DUP4 SWAP2 AND GAS STATICCALL SWAP3 DUP4 ISZERO PUSH2 0x1C6C JUMPI DUP2 SWAP4 PUSH2 0x1C34 JUMPI JUMPDEST POP POP DUP2 ISZERO PUSH2 0x1C2B JUMPI POP SWAP1 JUMP JUMPDEST PUSH1 0x3 SWAP2 POP ADD SLOAD SWAP1 JUMP JUMPDEST SWAP1 SWAP3 POP PUSH1 0x20 DUP2 RETURNDATASIZE PUSH1 0x20 GT PUSH2 0x1C64 JUMPI JUMPDEST DUP2 PUSH2 0x1C50 PUSH1 0x20 SWAP4 DUP4 PUSH2 0xF2A JUMP JUMPDEST DUP2 ADD SUB SLT PUSH2 0x1C60 JUMPI MLOAD SWAP2 CODESIZE PUSH2 0x1C1F JUMP JUMPDEST DUP3 DUP1 REVERT JUMPDEST RETURNDATASIZE SWAP2 POP PUSH2 0x1C43 JUMP JUMPDEST POP PUSH1 0x40 MLOAD SWAP1 RETURNDATASIZE SWAP1 DUP3 RETURNDATACOPY RETURNDATASIZE SWAP1 REVERT INVALID LOG2 PUSH5 0x6970667358 0x22 SLT KECCAK256 0x4F 0xC1 MCOPY 0xDF 0x23 0xEA CALLVALUE CALLVALUE SHL 0xB4 0xFC 0xC9 SLOAD 0xB8 CALLCODE 0xEB PUSH24 0xF8C5187C0EC0091DF360FB6A785DD464736F6C634300081A STOP CALLER PUSH1 0x80 DUP1 PUSH1 0x40 MSTORE CALLVALUE PUSH1 0x1A JUMPI PUSH1 0x1 PUSH1 0x0 SSTORE PUSH2 0xCFC SWAP1 DUP2 PUSH2 0x20 DUP3 CODECOPY RETURN JUMPDEST PUSH1 0x0 DUP1 REVERT INVALID PUSH1 0x80 DUP1 PUSH1 0x40 MSTORE PUSH1 0x4 CALLDATASIZE LT ISZERO PUSH2 0x13 JUMPI PUSH1 0x0 DUP1 REVERT JUMPDEST PUSH1 0x0 SWAP1 DUP2 CALLDATALOAD PUSH1 0xE0 SHR SWAP1 DUP2 PUSH4 0x8A01675 EQ PUSH2 0xA01 JUMPI POP DUP1 PUSH4 0x69328DEC EQ PUSH2 0x7FD JUMPI DUP1 PUSH4 0x732A52EE EQ PUSH2 0x761 JUMPI DUP1 PUSH4 0x89A30271 EQ PUSH2 0x732 JUMPI DUP1 PUSH4 0xA8BB832E EQ PUSH2 0x688 JUMPI DUP1 PUSH4 0xAD5C4648 EQ PUSH2 0x659 JUMPI DUP1 PUSH4 0xC54E44EB EQ PUSH2 0x62A JUMPI DUP1 PUSH4 0xD4FAC45D EQ PUSH2 0x4F6 JUMPI DUP1 PUSH4 0xE0BAB4C4 EQ PUSH2 0x4C7 JUMPI PUSH4 0xF2B9FDB8 EQ PUSH2 0x8F JUMPI PUSH1 0x0 DUP1 REVERT JUMPDEST CALLVALUE PUSH2 0x4C4 JUMPI PUSH1 0x40 CALLDATASIZE PUSH1 0x3 NOT ADD SLT PUSH2 0x4C4 JUMPI PUSH2 0xA8 PUSH2 0xA2F JUMP JUMPDEST PUSH1 0x24 CALLDATALOAD SWAP1 PUSH2 0xB4 PUSH2 0xBF7 JUMP JUMPDEST DUP2 ISZERO PUSH2 0x47F JUMPI PUSH1 0x1 PUSH1 0x1 PUSH1 0xA0 SHL SUB AND PUSH2 0xCF DUP3 ADDRESS CALLER DUP5 PUSH2 0xC19 JUMP JUMPDEST PUSH1 0x40 MLOAD PUSH4 0x35EA6A75 PUSH1 0xE0 SHL DUP2 MSTORE PUSH1 0x4 DUP2 ADD DUP3 SWAP1 MSTORE PUSH2 0x1E0 DUP2 PUSH1 0x24 DUP2 PUSH20 0x87870BCA3F3FD6335C3F4CE8392D69350B4FA4E2 GAS STATICCALL SWAP1 DUP2 ISZERO PUSH2 0x325 JUMPI DUP5 SWAP2 PUSH2 0x450 JUMPI JUMPDEST POP PUSH2 0x100 ADD MLOAD PUSH1 0x40 MLOAD PUSH4 0x70A08231 PUSH1 0xE0 SHL DUP2 MSTORE ADDRESS PUSH1 0x4 DUP3 ADD MSTORE SWAP3 PUSH1 0x1 PUSH1 0x1 PUSH1 0xA0 SHL SUB SWAP1 SWAP2 AND SWAP2 SWAP1 PUSH1 0x20 DUP5 PUSH1 0x24 DUP2 DUP7 GAS STATICCALL SWAP4 DUP5 ISZERO PUSH2 0x445 JUMPI DUP6 SWAP5 PUSH2 0x411 JUMPI JUMPDEST POP PUSH1 0x40 MLOAD PUSH4 0x6EB1769F PUSH1 0xE1 SHL DUP2 MSTORE ADDRESS PUSH1 0x4 DUP3 ADD MSTORE PUSH20 0x87870BCA3F3FD6335C3F4CE8392D69350B4FA4E2 PUSH1 0x24 DUP3 ADD MSTORE PUSH1 0x20 DUP2 PUSH1 0x44 DUP2 DUP7 GAS STATICCALL SWAP1 DUP2 ISZERO PUSH2 0x406 JUMPI DUP7 SWAP2 PUSH2 0x3D0 JUMPI JUMPDEST POP DUP2 DUP2 ADD DUP1 SWAP2 GT PUSH2 0x3BC JUMPI PUSH1 0x20 DUP7 PUSH1 0x40 MLOAD SWAP3 DUP3 DUP5 ADD SWAP1 PUSH4 0x95EA7B3 PUSH1 0xE0 SHL DUP3 MSTORE PUSH20 0x87870BCA3F3FD6335C3F4CE8392D69350B4FA4E2 PUSH1 0x24 DUP7 ADD MSTORE PUSH1 0x44 DUP6 ADD MSTORE PUSH1 0x44 DUP5 MSTORE PUSH2 0x1E0 PUSH1 0x64 DUP6 PUSH2 0xA45 JUMP JUMPDEST DUP4 MLOAD SWAP1 DUP3 DUP8 GAS CALL DUP7 MLOAD RETURNDATASIZE DUP3 PUSH2 0x3A0 JUMPI JUMPDEST POP POP ISZERO PUSH2 0x348 JUMPI JUMPDEST POP PUSH20 0x87870BCA3F3FD6335C3F4CE8392D69350B4FA4E2 EXTCODESIZE ISZERO PUSH2 0x344 JUMPI PUSH1 0x40 MLOAD SWAP2 PUSH4 0x617BA037 PUSH1 0xE0 SHL DUP4 MSTORE PUSH1 0x4 DUP4 ADD MSTORE PUSH1 0x24 DUP3 ADD MSTORE ADDRESS PUSH1 0x44 DUP3 ADD MSTORE DUP4 PUSH1 0x64 DUP3 ADD MSTORE DUP4 DUP2 PUSH1 0x84 DUP2 DUP4 PUSH20 0x87870BCA3F3FD6335C3F4CE8392D69350B4FA4E2 GAS CALL DUP1 ISZERO PUSH2 0x325 JUMPI PUSH2 0x330 JUMPI JUMPDEST POP PUSH1 0x40 MLOAD PUSH4 0x70A08231 PUSH1 0xE0 SHL DUP2 MSTORE ADDRESS PUSH1 0x4 DUP3 ADD MSTORE SWAP2 PUSH1 0x20 DUP4 PUSH1 0x24 DUP2 DUP6 GAS STATICCALL SWAP3 DUP4 ISZERO PUSH2 0x325 JUMPI DUP5 SWAP4 PUSH2 0x2EC JUMPI JUMPDEST POP DUP3 SUB SWAP2 DUP3 GT PUSH2 0x2D8 JUMPI PUSH1 0x20 SWAP3 PUSH2 0x2CF PUSH1 0x1 SWAP3 PUSH1 0x40 MLOAD SWAP1 PUSH4 0xA9059CBB PUSH1 0xE0 SHL DUP8 DUP4 ADD MSTORE CALLER PUSH1 0x24 DUP4 ADD MSTORE DUP6 PUSH1 0x44 DUP4 ADD MSTORE PUSH1 0x44 DUP3 MSTORE PUSH2 0x2CA PUSH1 0x64 DUP4 PUSH2 0xA45 JUMP JUMPDEST PUSH2 0xC5F JUMP JUMPDEST SSTORE PUSH1 0x40 MLOAD SWAP1 DUP2 MSTORE RETURN JUMPDEST PUSH4 0x4E487B71 PUSH1 0xE0 SHL DUP4 MSTORE PUSH1 0x11 PUSH1 0x4 MSTORE PUSH1 0x24 DUP4 REVERT JUMPDEST SWAP1 SWAP3 POP PUSH1 0x20 DUP2 RETURNDATASIZE PUSH1 0x20 GT PUSH2 0x31D JUMPI JUMPDEST DUP2 PUSH2 0x308 PUSH1 0x20 SWAP4 DUP4 PUSH2 0xA45 JUMP JUMPDEST DUP2 ADD SUB SLT PUSH2 0x318 JUMPI MLOAD SWAP2 CODESIZE PUSH2 0x28C JUMP JUMPDEST PUSH1 0x0 DUP1 REVERT JUMPDEST RETURNDATASIZE SWAP2 POP PUSH2 0x2FB JUMP JUMPDEST PUSH1 0x40 MLOAD RETURNDATASIZE DUP7 DUP3 RETURNDATACOPY RETURNDATASIZE SWAP1 REVERT JUMPDEST DUP4 PUSH2 0x33D SWAP2 SWAP5 SWAP3 SWAP5 PUSH2 0xA45 JUMP JUMPDEST SWAP2 CODESIZE PUSH2 0x260 JUMP JUMPDEST DUP5 DUP1 REVERT JUMPDEST PUSH2 0x39A SWAP1 PUSH2 0x394 PUSH1 0x40 MLOAD PUSH4 0x95EA7B3 PUSH1 0xE0 SHL PUSH1 0x20 DUP3 ADD MSTORE PUSH20 0x87870BCA3F3FD6335C3F4CE8392D69350B4FA4E2 PUSH1 0x24 DUP3 ADD MSTORE DUP9 PUSH1 0x44 DUP3 ADD MSTORE PUSH1 0x44 DUP2 MSTORE PUSH2 0x38E PUSH1 0x64 DUP3 PUSH2 0xA45 JUMP JUMPDEST DUP6 PUSH2 0xC5F JUMP JUMPDEST DUP4 PUSH2 0xC5F JUMP JUMPDEST CODESIZE PUSH2 0x1F8 JUMP JUMPDEST SWAP1 SWAP2 POP PUSH2 0x3B4 JUMPI POP DUP3 EXTCODESIZE ISZERO ISZERO JUMPDEST CODESIZE DUP1 PUSH2 0x1F0 JUMP JUMPDEST PUSH1 0x1 EQ PUSH2 0x3AD JUMP JUMPDEST PUSH4 0x4E487B71 PUSH1 0xE0 SHL DUP7 MSTORE PUSH1 0x11 PUSH1 0x4 MSTORE PUSH1 0x24 DUP7 REVERT JUMPDEST SWAP1 POP PUSH1 0x20 DUP2 RETURNDATASIZE PUSH1 0x20 GT PUSH2 0x3FE JUMPI JUMPDEST DUP2 PUSH2 0x3EB PUSH1 0x20 SWAP4 DUP4 PUSH2 0xA45 JUMP JUMPDEST DUP2 ADD SUB SLT PUSH2 0x3FA JUMPI MLOAD CODESIZE PUSH2 0x192 JUMP JUMPDEST DUP6 DUP1 REVERT JUMPDEST RETURNDATASIZE SWAP2 POP PUSH2 0x3DE JUMP JUMPDEST PUSH1 0x40 MLOAD RETURNDATASIZE DUP9 DUP3 RETURNDATACOPY RETURNDATASIZE SWAP1 REVERT JUMPDEST SWAP1 SWAP4 POP PUSH1 0x20 DUP2 RETURNDATASIZE PUSH1 0x20 GT PUSH2 0x43D JUMPI JUMPDEST DUP2 PUSH2 0x42D PUSH1 0x20 SWAP4 DUP4 PUSH2 0xA45 JUMP JUMPDEST DUP2 ADD SUB SLT PUSH2 0x344 JUMPI MLOAD SWAP3 CODESIZE PUSH2 0x14D JUMP JUMPDEST RETURNDATASIZE SWAP2 POP PUSH2 0x420 JUMP JUMPDEST PUSH1 0x40 MLOAD RETURNDATASIZE DUP8 DUP3 RETURNDATACOPY RETURNDATASIZE SWAP1 REVERT JUMPDEST PUSH2 0x472 SWAP2 POP PUSH2 0x1E0 RETURNDATASIZE DUP2 GT PUSH2 0x478 JUMPI JUMPDEST PUSH2 0x46A DUP2 DUP4 PUSH2 0xA45 JUMP JUMPDEST DUP2 ADD SWAP1 PUSH2 0xAA5 JUMP JUMPDEST CODESIZE PUSH2 0x10F JUMP JUMPDEST POP RETURNDATASIZE PUSH2 0x460 JUMP JUMPDEST PUSH1 0x40 MLOAD PUSH3 0x461BCD PUSH1 0xE5 SHL DUP2 MSTORE PUSH1 0x20 PUSH1 0x4 DUP3 ADD MSTORE PUSH1 0x1D PUSH1 0x24 DUP3 ADD MSTORE PUSH32 0x416D6F756E74206D7573742062652067726561746572207468616E2030000000 PUSH1 0x44 DUP3 ADD MSTORE PUSH1 0x64 SWAP1 REVERT JUMPDEST DUP1 REVERT JUMPDEST POP CALLVALUE PUSH2 0x4C4 JUMPI DUP1 PUSH1 0x3 NOT CALLDATASIZE ADD SLT PUSH2 0x4C4 JUMPI PUSH1 0x20 PUSH1 0x40 MLOAD PUSH20 0x6B175474E89094C44DA98B954EEDEAC495271D0F DUP2 MSTORE RETURN JUMPDEST POP CALLVALUE PUSH2 0x4C4 JUMPI PUSH1 0x40 CALLDATASIZE PUSH1 0x3 NOT ADD SLT PUSH2 0x4C4 JUMPI PUSH2 0x510 PUSH2 0xA2F JUMP JUMPDEST PUSH1 0x24 CALLDATALOAD PUSH1 0x1 PUSH1 0x1 PUSH1 0xA0 SHL SUB DUP2 AND SWAP2 SWAP1 DUP3 SWAP1 SUB PUSH2 0x626 JUMPI PUSH1 0x40 MLOAD PUSH4 0x35EA6A75 PUSH1 0xE0 SHL DUP2 MSTORE PUSH1 0x1 PUSH1 0x1 PUSH1 0xA0 SHL SUB SWAP1 SWAP2 AND PUSH1 0x4 DUP3 ADD MSTORE PUSH2 0x1E0 DUP2 PUSH1 0x24 DUP2 PUSH20 0x87870BCA3F3FD6335C3F4CE8392D69350B4FA4E2 GAS STATICCALL DUP1 ISZERO PUSH2 0x61B JUMPI PUSH1 0x20 SWAP2 DUP5 SWAP2 PUSH2 0x5FC JUMPI JUMPDEST POP PUSH2 0x100 ADD MLOAD PUSH1 0x40 MLOAD PUSH4 0x70A08231 PUSH1 0xE0 SHL DUP2 MSTORE PUSH1 0x4 DUP2 ADD SWAP4 SWAP1 SWAP4 MSTORE DUP3 SWAP1 PUSH1 0x24 SWAP1 DUP3 SWAP1 PUSH1 0x1 PUSH1 0x1 PUSH1 0xA0 SHL SUB AND GAS STATICCALL SWAP1 DUP2 ISZERO PUSH2 0x5F1 JUMPI DUP3 SWAP2 PUSH2 0x5B7 JUMPI JUMPDEST PUSH1 0x20 DUP3 PUSH1 0x40 MLOAD SWAP1 DUP2 MSTORE RETURN JUMPDEST SWAP1 POP PUSH1 0x20 DUP2 RETURNDATASIZE PUSH1 0x20 GT PUSH2 0x5E9 JUMPI JUMPDEST DUP2 PUSH2 0x5D2 PUSH1 0x20 SWAP4 DUP4 PUSH2 0xA45 JUMP JUMPDEST DUP2 ADD SUB SLT PUSH2 0x5E5 JUMPI PUSH1 0x20 SWAP2 POP MLOAD CODESIZE PUSH2 0x5AC JUMP JUMPDEST POP DUP1 REVERT JUMPDEST RETURNDATASIZE SWAP2 POP PUSH2 0x5C5 JUMP JUMPDEST PUSH1 0x40 MLOAD RETURNDATASIZE DUP5 DUP3 RETURNDATACOPY RETURNDATASIZE SWAP1 REVERT JUMPDEST PUSH2 0x615 SWAP2 POP PUSH2 0x1E0 RETURNDATASIZE DUP2 GT PUSH2 0x478 JUMPI PUSH2 0x46A DUP2 DUP4 PUSH2 0xA45 JUMP JUMPDEST CODESIZE PUSH2 0x571 JUMP JUMPDEST PUSH1 0x40 MLOAD RETURNDATASIZE DUP6 DUP3 RETURNDATACOPY RETURNDATASIZE SWAP1 REVERT JUMPDEST DUP3 DUP1 REVERT JUMPDEST POP CALLVALUE PUSH2 0x4C4 JUMPI DUP1 PUSH1 0x3 NOT CALLDATASIZE ADD SLT PUSH2 0x4C4 JUMPI PUSH1 0x20 PUSH1 0x40 MLOAD PUSH20 0xDAC17F958D2EE523A2206206994597C13D831EC7 DUP2 MSTORE RETURN JUMPDEST POP CALLVALUE PUSH2 0x4C4 JUMPI DUP1 PUSH1 0x3 NOT CALLDATASIZE ADD SLT PUSH2 0x4C4 JUMPI PUSH1 0x20 PUSH1 0x40 MLOAD PUSH20 0xC02AAA39B223FE8D0A0E5C4F27EAD9083C756CC2 DUP2 MSTORE RETURN JUMPDEST POP CALLVALUE PUSH2 0x4C4 JUMPI PUSH1 0x20 CALLDATASIZE PUSH1 0x3 NOT ADD SLT PUSH2 0x4C4 JUMPI PUSH2 0x6A2 PUSH2 0xA2F JUMP JUMPDEST PUSH1 0x40 MLOAD PUSH4 0x35EA6A75 PUSH1 0xE0 SHL DUP2 MSTORE PUSH1 0x1 PUSH1 0x1 PUSH1 0xA0 SHL SUB SWAP1 SWAP2 AND PUSH1 0x4 DUP3 ADD MSTORE PUSH2 0x1E0 DUP2 PUSH1 0x24 DUP2 PUSH20 0x87870BCA3F3FD6335C3F4CE8392D69350B4FA4E2 GAS STATICCALL SWAP1 DUP2 ISZERO PUSH2 0x5F1 JUMPI PUSH1 0x1 PUSH1 0x1 PUSH1 0x80 SHL SUB PUSH1 0x40 DUP2 SWAP4 PUSH10 0x152D02C7E14AF6800000 SWAP4 PUSH1 0x20 SWAP7 SWAP2 PUSH2 0x713 JUMPI JUMPDEST POP ADD MLOAD AND DIV AND PUSH1 0x40 MLOAD SWAP1 DUP2 MSTORE RETURN JUMPDEST PUSH2 0x72C SWAP2 POP PUSH2 0x1E0 RETURNDATASIZE DUP2 GT PUSH2 0x478 JUMPI PUSH2 0x46A DUP2 DUP4 PUSH2 0xA45 JUMP JUMPDEST CODESIZE PUSH2 0x705 JUMP JUMPDEST POP CALLVALUE PUSH2 0x4C4 JUMPI DUP1 PUSH1 0x3 NOT CALLDATASIZE ADD SLT PUSH2 0x4C4 JUMPI PUSH1 0x20 PUSH1 0x40 MLOAD PUSH20 0xA0B86A33E6441B8435B662303C4B5C5B7B8E4E8A DUP2 MSTORE RETURN JUMPDEST POP CALLVALUE PUSH2 0x4C4 JUMPI PUSH1 0x20 CALLDATASIZE PUSH1 0x3 NOT ADD SLT PUSH2 0x4C4 JUMPI PUSH2 0x77B PUSH2 0xA2F JUMP JUMPDEST PUSH1 0x40 MLOAD PUSH4 0x35EA6A75 PUSH1 0xE0 SHL DUP2 MSTORE PUSH1 0x1 PUSH1 0x1 PUSH1 0xA0 SHL SUB SWAP1 SWAP2 AND PUSH1 0x4 DUP3 ADD MSTORE PUSH2 0x1E0 DUP2 PUSH1 0x24 DUP2 PUSH20 0x87870BCA3F3FD6335C3F4CE8392D69350B4FA4E2 GAS STATICCALL SWAP1 DUP2 ISZERO PUSH2 0x5F1 JUMPI PUSH1 0x20 SWAP3 SWAP2 PUSH2 0x7DE JUMPI JUMPDEST POP PUSH2 0x100 ADD MLOAD PUSH1 0x40 MLOAD PUSH1 0x1 PUSH1 0x1 PUSH1 0xA0 SHL SUB SWAP1 SWAP2 AND DUP2 MSTORE RETURN JUMPDEST PUSH2 0x7F7 SWAP2 POP PUSH2 0x1E0 RETURNDATASIZE DUP2 GT PUSH2 0x478 JUMPI PUSH2 0x46A DUP2 DUP4 PUSH2 0xA45 JUMP JUMPDEST CODESIZE PUSH2 0x7C6 JUMP JUMPDEST POP CALLVALUE PUSH2 0x4C4 JUMPI PUSH1 0x60 CALLDATASIZE PUSH1 0x3 NOT ADD SLT PUSH2 0x4C4 JUMPI PUSH2 0x817 PUSH2 0xA2F JUMP JUMPDEST PUSH1 0x44 CALLDATALOAD PUSH1 0x1 PUSH1 0x1 PUSH1 0xA0 SHL SUB DUP2 AND SWAP1 PUSH1 0x24 CALLDATALOAD SWAP1 DUP3 SWAP1 SUB PUSH2 0x9FD JUMPI PUSH2 0x838 PUSH2 0xBF7 JUMP JUMPDEST DUP1 DUP3 ISZERO PUSH2 0x9C4 JUMPI PUSH1 0x40 MLOAD PUSH4 0x35EA6A75 PUSH1 0xE0 SHL DUP2 MSTORE PUSH1 0x1 PUSH1 0x1 PUSH1 0xA0 SHL SUB SWAP1 SWAP5 AND PUSH1 0x4 DUP6 ADD DUP2 SWAP1 MSTORE SWAP4 PUSH2 0x1E0 DUP2 PUSH1 0x24 DUP2 PUSH20 0x87870BCA3F3FD6335C3F4CE8392D69350B4FA4E2 GAS STATICCALL SWAP1 DUP2 ISZERO PUSH2 0x406 JUMPI DUP7 SWAP2 PUSH2 0x9A5 JUMPI JUMPDEST POP PUSH2 0x100 ADD MLOAD PUSH1 0x1 PUSH1 0x1 PUSH1 0xA0 SHL SUB AND SWAP1 PUSH1 0x0 NOT EQ PUSH2 0x93D JUMPI JUMPDEST DUP2 PUSH2 0x8B2 SWAP2 ADDRESS SWAP1 CALLER SWAP1 PUSH2 0xC19 JUMP JUMPDEST PUSH1 0x40 MLOAD SWAP3 PUSH4 0x1A4CA37B PUSH1 0xE2 SHL DUP5 MSTORE PUSH1 0x4 DUP5 ADD MSTORE PUSH1 0x24 DUP4 ADD MSTORE PUSH1 0x44 DUP3 ADD MSTORE PUSH1 0x20 DUP2 PUSH1 0x64 DUP2 DUP6 PUSH20 0x87870BCA3F3FD6335C3F4CE8392D69350B4FA4E2 GAS CALL SWAP1 DUP2 ISZERO PUSH2 0x5F1 JUMPI DUP3 SWAP2 PUSH2 0x90A JUMPI JUMPDEST POP PUSH1 0x1 PUSH1 0x20 SWAP3 SSTORE PUSH1 0x40 MLOAD SWAP1 DUP2 MSTORE RETURN JUMPDEST SWAP1 POP PUSH1 0x20 DUP2 RETURNDATASIZE PUSH1 0x20 GT PUSH2 0x935 JUMPI JUMPDEST DUP2 PUSH2 0x925 PUSH1 0x20 SWAP4 DUP4 PUSH2 0xA45 JUMP JUMPDEST DUP2 ADD SUB SLT PUSH2 0x5E5 JUMPI MLOAD PUSH1 0x1 PUSH2 0x8FB JUMP JUMPDEST RETURNDATASIZE SWAP2 POP PUSH2 0x918 JUMP JUMPDEST PUSH1 0x40 MLOAD PUSH4 0x70A08231 PUSH1 0xE0 SHL DUP2 MSTORE CALLER PUSH1 0x4 DUP3 ADD MSTORE SWAP1 SWAP2 POP PUSH1 0x20 DUP2 PUSH1 0x24 DUP2 DUP6 GAS STATICCALL DUP1 ISZERO PUSH2 0x445 JUMPI DUP6 SWAP1 PUSH2 0x971 JUMPI JUMPDEST SWAP2 SWAP1 POP PUSH2 0x8A4 JUMP JUMPDEST POP PUSH1 0x20 DUP2 RETURNDATASIZE PUSH1 0x20 GT PUSH2 0x99D JUMPI JUMPDEST DUP2 PUSH2 0x98B PUSH1 0x20 SWAP4 DUP4 PUSH2 0xA45 JUMP JUMPDEST DUP2 ADD SUB SLT PUSH2 0x344 JUMPI PUSH2 0x8B2 SWAP1 MLOAD PUSH2 0x969 JUMP JUMPDEST RETURNDATASIZE SWAP2 POP PUSH2 0x97E JUMP JUMPDEST PUSH2 0x9BE SWAP2 POP PUSH2 0x1E0 RETURNDATASIZE DUP2 GT PUSH2 0x478 JUMPI PUSH2 0x46A DUP2 DUP4 PUSH2 0xA45 JUMP JUMPDEST CODESIZE PUSH2 0x88B JUMP JUMPDEST PUSH1 0x40 MLOAD PUSH3 0x461BCD PUSH1 0xE5 SHL DUP2 MSTORE PUSH1 0x20 PUSH1 0x4 DUP3 ADD MSTORE PUSH1 0x11 PUSH1 0x24 DUP3 ADD MSTORE PUSH17 0x125B9D985B1A59081C9958DA5C1A595B9D PUSH1 0x7A SHL PUSH1 0x44 DUP3 ADD MSTORE PUSH1 0x64 SWAP1 REVERT JUMPDEST DUP4 DUP1 REVERT JUMPDEST SWAP1 POP CALLVALUE PUSH2 0x5E5 JUMPI DUP2 PUSH1 0x3 NOT CALLDATASIZE ADD SLT PUSH2 0x5E5 JUMPI DUP1 PUSH20 0x87870BCA3F3FD6335C3F4CE8392D69350B4FA4E2 PUSH1 0x20 SWAP3 MSTORE RETURN JUMPDEST PUSH1 0x4 CALLDATALOAD SWAP1 PUSH1 0x1 PUSH1 0x1 PUSH1 0xA0 SHL SUB DUP3 AND DUP3 SUB PUSH2 0x318 JUMPI JUMP JUMPDEST SWAP1 PUSH1 0x1F DUP1 NOT SWAP2 ADD AND DUP2 ADD SWAP1 DUP2 LT PUSH8 0xFFFFFFFFFFFFFFFF DUP3 GT OR PUSH2 0xA67 JUMPI PUSH1 0x40 MSTORE JUMP JUMPDEST PUSH4 0x4E487B71 PUSH1 0xE0 SHL PUSH1 0x0 MSTORE PUSH1 0x41 PUSH1 0x4 MSTORE PUSH1 0x24 PUSH1 0x0 REVERT JUMPDEST MLOAD SWAP1 PUSH1 0x1 PUSH1 0x1 PUSH1 0x80 SHL SUB DUP3 AND DUP3 SUB PUSH2 0x318 JUMPI JUMP JUMPDEST MLOAD SWAP1 PUSH1 0x1 PUSH1 0x1 PUSH1 0xA0 SHL SUB DUP3 AND DUP3 SUB PUSH2 0x318 JUMPI JUMP JUMPDEST SWAP1 DUP2 PUSH2 0x1E0 SWAP2 SUB SLT PUSH2 0x318 JUMPI PUSH1 0x40 MLOAD SWAP1 PUSH1 0x0 PUSH2 0x1E0 DUP4 ADD PUSH8 0xFFFFFFFFFFFFFFFF DUP2 GT DUP5 DUP3 LT OR PUSH2 0xBE3 JUMPI PUSH1 0x40 MSTORE DUP2 MLOAD DUP4 MSTORE PUSH2 0xAE2 PUSH1 0x20 DUP4 ADD PUSH2 0xA7D JUMP JUMPDEST PUSH1 0x20 DUP5 ADD MSTORE PUSH2 0xAF3 PUSH1 0x40 DUP4 ADD PUSH2 0xA7D JUMP JUMPDEST PUSH1 0x40 DUP5 ADD MSTORE PUSH2 0xB04 PUSH1 0x60 DUP4 ADD PUSH2 0xA7D JUMP JUMPDEST PUSH1 0x60 DUP5 ADD MSTORE PUSH2 0xB15 PUSH1 0x80 DUP4 ADD PUSH2 0xA7D JUMP JUMPDEST PUSH1 0x80 DUP5 ADD MSTORE PUSH2 0xB26 PUSH1 0xA0 DUP4 ADD PUSH2 0xA7D JUMP JUMPDEST PUSH1 0xA0 DUP5 ADD MSTORE PUSH1 0xC0 DUP3 ADD MLOAD PUSH5 0xFFFFFFFFFF DUP2 AND DUP2 SUB PUSH2 0x5E5 JUMPI PUSH1 0xC0 DUP5 ADD MSTORE PUSH1 0xE0 DUP3 ADD MLOAD SWAP1 PUSH2 0xFFFF DUP3 AND DUP3 SUB PUSH2 0x4C4 JUMPI POP PUSH2 0xBDA SWAP2 PUSH2 0x1C0 SWAP2 PUSH1 0xE0 DUP6 ADD MSTORE PUSH2 0xB6F PUSH2 0x100 DUP3 ADD PUSH2 0xA91 JUMP JUMPDEST PUSH2 0x100 DUP6 ADD MSTORE PUSH2 0xB82 PUSH2 0x120 DUP3 ADD PUSH2 0xA91 JUMP JUMPDEST PUSH2 0x120 DUP6 ADD MSTORE PUSH2 0xB95 PUSH2 0x140 DUP3 ADD PUSH2 0xA91 JUMP JUMPDEST PUSH2 0x140 DUP6 ADD MSTORE PUSH2 0xBA8 PUSH2 0x160 DUP3 ADD PUSH2 0xA91 JUMP JUMPDEST PUSH2 0x160 DUP6 ADD MSTORE PUSH2 0xBBB PUSH2 0x180 DUP3 ADD PUSH2 0xA7D JUMP JUMPDEST PUSH2 0x180 DUP6 ADD MSTORE PUSH2 0xBCE PUSH2 0x1A0 DUP3 ADD PUSH2 0xA7D JUMP JUMPDEST PUSH2 0x1A0 DUP6 ADD MSTORE ADD PUSH2 0xA7D JUMP JUMPDEST PUSH2 0x1C0 DUP3 ADD MSTORE SWAP1 JUMP JUMPDEST PUSH4 0x4E487B71 PUSH1 0xE0 SHL DUP3 MSTORE PUSH1 0x41 PUSH1 0x4 MSTORE PUSH1 0x24 DUP3 REVERT JUMPDEST PUSH1 0x2 PUSH1 0x0 SLOAD EQ PUSH2 0xC08 JUMPI PUSH1 0x2 PUSH1 0x0 SSTORE JUMP JUMPDEST PUSH4 0x3EE5AEB5 PUSH1 0xE0 SHL PUSH1 0x0 MSTORE PUSH1 0x4 PUSH1 0x0 REVERT JUMPDEST PUSH1 0x40 MLOAD PUSH4 0x23B872DD PUSH1 0xE0 SHL PUSH1 0x20 DUP3 ADD MSTORE PUSH1 0x1 PUSH1 0x1 PUSH1 0xA0 SHL SUB SWAP3 DUP4 AND PUSH1 0x24 DUP3 ADD MSTORE SWAP3 SWAP1 SWAP2 AND PUSH1 0x44 DUP4 ADD MSTORE PUSH1 0x64 DUP1 DUP4 ADD SWAP4 SWAP1 SWAP4 MSTORE SWAP2 DUP2 MSTORE PUSH2 0xC5D SWAP2 PUSH2 0x2CA PUSH1 0x84 DUP4 PUSH2 0xA45 JUMP JUMPDEST JUMP JUMPDEST SWAP1 PUSH1 0x0 PUSH1 0x20 SWAP2 DUP3 DUP2 MLOAD SWAP2 ADD DUP3 DUP6 GAS CALL ISZERO PUSH2 0xCBA JUMPI PUSH1 0x0 MLOAD RETURNDATASIZE PUSH2 0xCB1 JUMPI POP PUSH1 0x1 PUSH1 0x1 PUSH1 0xA0 SHL SUB DUP2 AND EXTCODESIZE ISZERO JUMPDEST PUSH2 0xC90 JUMPI POP JUMP JUMPDEST PUSH4 0x5274AFE7 PUSH1 0xE0 SHL PUSH1 0x0 SWAP1 DUP2 MSTORE PUSH1 0x1 PUSH1 0x1 PUSH1 0xA0 SHL SUB SWAP2 SWAP1 SWAP2 AND PUSH1 0x4 MSTORE PUSH1 0x24 SWAP1 REVERT JUMPDEST PUSH1 0x1 EQ ISZERO PUSH2 0xC89 JUMP JUMPDEST PUSH1 0x40 MLOAD RETURNDATASIZE PUSH1 0x0 DUP3 RETURNDATACOPY RETURNDATASIZE SWAP1 REVERT INVALID LOG2 PUSH5 0x6970667358 0x22 SLT KECCAK256 INVALID 0xE1 0xD2 SGT 0xDE LOG2 0xA9 RETURNDATASIZE ADDRESS SMOD 0xA8 0xD6 0xC1 PUSH23 0x7C1F87E1BC0C5E2005BD34593140E2C1E91264736F6C63 NUMBER STOP ADDMOD BYTE STOP CALLER PUSH1 0x80 DUP1 PUSH1 0x40 MSTORE CALLVALUE PUSH1 0x1A JUMPI PUSH1 0x1 PUSH1 0x0 SSTORE PUSH2 0x6B8 SWAP1 DUP2 PUSH2 0x20 DUP3 CODECOPY RETURN JUMPDEST PUSH1 0x0 DUP1 REVERT INVALID PUSH1 0x80 PUSH1 0x40 MSTORE PUSH1 0x4 CALLDATASIZE LT ISZERO PUSH2 0x12 JUMPI PUSH1 0x0 DUP1 REVERT JUMPDEST PUSH1 0x0 CALLDATALOAD PUSH1 0xE0 SHR DUP1 PUSH4 0x2E17DE78 EQ PUSH2 0x40C JUMPI DUP1 PUSH4 0x8B21F170 EQ PUSH2 0x11C JUMPI DUP1 PUSH4 0x962CA496 EQ PUSH2 0x3EF JUMPI DUP1 PUSH4 0xD5BDA32D EQ PUSH2 0x322 JUMPI DUP1 PUSH4 0xDCEB986D EQ PUSH2 0x14B JUMPI DUP1 PUSH4 0xE00BFE50 EQ PUSH2 0x11C JUMPI PUSH4 0xF8B2CB4F EQ PUSH2 0x69 JUMPI PUSH1 0x0 DUP1 REVERT JUMPDEST CALLVALUE PUSH2 0x103 JUMPI PUSH1 0x20 CALLDATASIZE PUSH1 0x3 NOT ADD SLT PUSH2 0x103 JUMPI PUSH1 0x4 CALLDATALOAD PUSH1 0x1 PUSH1 0x1 PUSH1 0xA0 SHL SUB DUP2 AND SWAP1 DUP2 SWAP1 SUB PUSH2 0x103 JUMPI PUSH1 0x40 MLOAD SWAP1 PUSH4 0x70A08231 PUSH1 0xE0 SHL DUP3 MSTORE PUSH1 0x4 DUP3 ADD MSTORE PUSH1 0x20 DUP2 PUSH1 0x24 DUP2 PUSH20 0xAE7AB96520DE3A18E5E111B5EAAB095312D7FE84 GAS STATICCALL DUP1 ISZERO PUSH2 0x110 JUMPI PUSH1 0x0 SWAP1 PUSH2 0xD8 JUMPI JUMPDEST PUSH1 0x20 SWAP1 PUSH1 0x40 MLOAD SWAP1 DUP2 MSTORE RETURN JUMPDEST POP PUSH1 0x20 DUP2 RETURNDATASIZE PUSH1 0x20 GT PUSH2 0x108 JUMPI JUMPDEST DUP2 PUSH2 0xF2 PUSH1 0x20 SWAP4 DUP4 PUSH2 0x5BE JUMP JUMPDEST DUP2 ADD SUB SLT PUSH2 0x103 JUMPI PUSH1 0x20 SWAP1 MLOAD PUSH2 0xCD JUMP JUMPDEST PUSH1 0x0 DUP1 REVERT JUMPDEST RETURNDATASIZE SWAP2 POP PUSH2 0xE5 JUMP JUMPDEST PUSH1 0x40 MLOAD RETURNDATASIZE PUSH1 0x0 DUP3 RETURNDATACOPY RETURNDATASIZE SWAP1 REVERT JUMPDEST CALLVALUE PUSH2 0x103 JUMPI PUSH1 0x0 CALLDATASIZE PUSH1 0x3 NOT ADD SLT PUSH2 0x103 JUMPI PUSH1 0x20 PUSH1 0x40 MLOAD PUSH20 0xAE7AB96520DE3A18E5E111B5EAAB095312D7FE84 DUP2 MSTORE RETURN JUMPDEST PUSH1 0x0 CALLDATASIZE PUSH1 0x3 NOT ADD SLT PUSH2 0x103 JUMPI PUSH2 0x15F PUSH2 0x5E0 JUMP JUMPDEST PUSH2 0x16A CALLVALUE ISZERO ISZERO PUSH2 0x572 JUMP JUMPDEST PUSH1 0x40 MLOAD PUSH4 0x70A08231 PUSH1 0xE0 SHL DUP2 MSTORE ADDRESS PUSH1 0x4 DUP3 ADD MSTORE PUSH1 0x20 DUP2 PUSH1 0x24 DUP2 PUSH20 0xAE7AB96520DE3A18E5E111B5EAAB095312D7FE84 GAS STATICCALL SWAP1 DUP2 ISZERO PUSH2 0x110 JUMPI PUSH1 0x0 SWAP2 PUSH2 0x2F0 JUMPI JUMPDEST POP PUSH1 0x40 MLOAD PUSH4 0xA1903EAB PUSH1 0xE0 SHL DUP2 MSTORE PUSH1 0x0 PUSH1 0x4 DUP3 ADD MSTORE PUSH1 0x20 DUP2 PUSH1 0x24 DUP2 CALLVALUE PUSH20 0xAE7AB96520DE3A18E5E111B5EAAB095312D7FE84 GAS CALL DUP1 ISZERO PUSH2 0x110 JUMPI PUSH2 0x2C1 JUMPI JUMPDEST POP PUSH1 0x40 MLOAD PUSH4 0x70A08231 PUSH1 0xE0 SHL DUP2 MSTORE ADDRESS PUSH1 0x4 DUP3 ADD MSTORE SWAP1 PUSH1 0x20 DUP3 PUSH1 0x24 DUP2 PUSH20 0xAE7AB96520DE3A18E5E111B5EAAB095312D7FE84 GAS STATICCALL SWAP2 DUP3 ISZERO PUSH2 0x110 JUMPI PUSH1 0x0 SWAP3 PUSH2 0x28A JUMPI JUMPDEST POP DUP2 SUB SWAP1 DUP2 GT PUSH2 0x274 JUMPI PUSH1 0x20 SWAP1 PUSH2 0x267 PUSH1 0x40 MLOAD PUSH4 0xA9059CBB PUSH1 0xE0 SHL DUP5 DUP3 ADD MSTORE CALLER PUSH1 0x24 DUP3 ADD MSTORE DUP3 PUSH1 0x44 DUP3 ADD MSTORE PUSH1 0x44 DUP2 MSTORE PUSH2 0x262 PUSH1 0x64 DUP3 PUSH2 0x5BE JUMP JUMPDEST PUSH2 0x602 JUMP JUMPDEST PUSH1 0x1 PUSH1 0x0 SSTORE PUSH1 0x40 MLOAD SWAP1 DUP2 MSTORE RETURN JUMPDEST PUSH4 0x4E487B71 PUSH1 0xE0 SHL PUSH1 0x0 MSTORE PUSH1 0x11 PUSH1 0x4 MSTORE PUSH1 0x24 PUSH1 0x0 REVERT JUMPDEST SWAP1 SWAP2 PUSH1 0x20 DUP3 RETURNDATASIZE PUSH1 0x20 GT PUSH2 0x2B9 JUMPI JUMPDEST DUP2 PUSH2 0x2A5 PUSH1 0x20 SWAP4 DUP4 PUSH2 0x5BE JUMP JUMPDEST DUP2 ADD SUB SLT PUSH2 0x2B6 JUMPI POP MLOAD SWAP1 DUP3 PUSH2 0x228 JUMP JUMPDEST DUP1 REVERT JUMPDEST RETURNDATASIZE SWAP2 POP PUSH2 0x298 JUMP JUMPDEST PUSH1 0x20 DUP2 RETURNDATASIZE PUSH1 0x20 GT PUSH2 0x2E8 JUMPI JUMPDEST DUP2 PUSH2 0x2DA PUSH1 0x20 SWAP4 DUP4 PUSH2 0x5BE JUMP JUMPDEST DUP2 ADD SUB SLT PUSH2 0x103 JUMPI MLOAD PUSH2 0x1E7 JUMP JUMPDEST RETURNDATASIZE SWAP2 POP PUSH2 0x2CD JUMP JUMPDEST SWAP1 POP PUSH1 0x20 DUP2 RETURNDATASIZE PUSH1 0x20 GT PUSH2 0x31A JUMPI JUMPDEST DUP2 PUSH2 0x30B PUSH1 0x20 SWAP4 DUP4 PUSH2 0x5BE JUMP JUMPDEST DUP2 ADD SUB SLT PUSH2 0x103 JUMPI MLOAD DUP2 PUSH2 0x1A9 JUMP JUMPDEST RETURNDATASIZE SWAP2 POP PUSH2 0x2FE JUMP JUMPDEST CALLVALUE PUSH2 0x103 JUMPI PUSH1 0x20 CALLDATASIZE PUSH1 0x3 NOT ADD SLT PUSH2 0x103 JUMPI PUSH1 0x40 MLOAD PUSH4 0x19208451 PUSH1 0xE0 SHL DUP2 MSTORE PUSH1 0x4 DUP1 CALLDATALOAD SWAP1 DUP3 ADD MSTORE PUSH1 0x20 DUP2 PUSH1 0x24 DUP2 PUSH20 0xAE7AB96520DE3A18E5E111B5EAAB095312D7FE84 GAS STATICCALL SWAP1 DUP2 ISZERO PUSH2 0x110 JUMPI PUSH1 0x0 SWAP2 PUSH2 0x3BD JUMPI JUMPDEST POP PUSH1 0x40 MLOAD SWAP1 PUSH4 0xF451F71 PUSH1 0xE3 SHL DUP3 MSTORE PUSH1 0x4 DUP3 ADD MSTORE PUSH1 0x20 DUP2 PUSH1 0x24 DUP2 PUSH20 0xAE7AB96520DE3A18E5E111B5EAAB095312D7FE84 GAS STATICCALL DUP1 ISZERO PUSH2 0x110 JUMPI PUSH1 0x0 SWAP1 PUSH2 0xD8 JUMPI PUSH1 0x20 SWAP1 PUSH1 0x40 MLOAD SWAP1 DUP2 MSTORE RETURN JUMPDEST SWAP1 POP PUSH1 0x20 DUP2 RETURNDATASIZE PUSH1 0x20 GT PUSH2 0x3E7 JUMPI JUMPDEST DUP2 PUSH2 0x3D8 PUSH1 0x20 SWAP4 DUP4 PUSH2 0x5BE JUMP JUMPDEST DUP2 ADD SUB SLT PUSH2 0x103 JUMPI MLOAD DUP2 PUSH2 0x374 JUMP JUMPDEST RETURNDATASIZE SWAP2 POP PUSH2 0x3CB JUMP JUMPDEST CALLVALUE PUSH2 0x103 JUMPI PUSH1 0x0 CALLDATASIZE PUSH1 0x3 NOT ADD SLT PUSH2 0x103 JUMPI PUSH1 0x20 PUSH1 0x40 MLOAD PUSH2 0x208 DUP2 MSTORE RETURN JUMPDEST CALLVALUE PUSH2 0x103 JUMPI PUSH1 0x20 CALLDATASIZE PUSH1 0x3 NOT ADD SLT PUSH2 0x103 JUMPI PUSH1 0x4 CALLDATALOAD PUSH2 0x428 PUSH2 0x5E0 JUMP JUMPDEST PUSH2 0x433 DUP2 ISZERO ISZERO PUSH2 0x572 JUMP JUMPDEST PUSH2 0x467 PUSH1 0x40 MLOAD PUSH4 0x23B872DD PUSH1 0xE0 SHL PUSH1 0x20 DUP3 ADD MSTORE CALLER PUSH1 0x24 DUP3 ADD MSTORE ADDRESS PUSH1 0x44 DUP3 ADD MSTORE DUP3 PUSH1 0x64 DUP3 ADD MSTORE PUSH1 0x64 DUP2 MSTORE PUSH2 0x262 PUSH1 0x84 DUP3 PUSH2 0x5BE JUMP JUMPDEST PUSH1 0x40 MLOAD SWAP1 PUSH4 0xD5BDA32D PUSH1 0xE0 SHL DUP3 MSTORE PUSH1 0x4 DUP3 ADD MSTORE PUSH1 0x20 DUP2 PUSH1 0x24 DUP2 ADDRESS GAS STATICCALL SWAP1 DUP2 ISZERO PUSH2 0x110 JUMPI PUSH1 0x0 SWAP2 PUSH2 0x540 JUMPI JUMPDEST POP PUSH1 0x0 DUP1 DUP1 DUP1 DUP5 CALLER GAS CALL RETURNDATASIZE ISZERO PUSH2 0x53B JUMPI RETURNDATASIZE PUSH8 0xFFFFFFFFFFFFFFFF DUP2 GT PUSH2 0x525 JUMPI PUSH1 0x40 MLOAD SWAP1 PUSH2 0x4CA PUSH1 0x1F DUP3 ADD PUSH1 0x1F NOT AND PUSH1 0x20 ADD DUP4 PUSH2 0x5BE JUMP JUMPDEST DUP2 MSTORE PUSH1 0x0 PUSH1 0x20 RETURNDATASIZE SWAP3 ADD RETURNDATACOPY JUMPDEST ISZERO PUSH2 0x4EA JUMPI PUSH1 0x20 SWAP1 PUSH1 0x1 PUSH1 0x0 SSTORE PUSH1 0x40 MLOAD SWAP1 DUP2 MSTORE RETURN JUMPDEST PUSH1 0x40 MLOAD PUSH3 0x461BCD PUSH1 0xE5 SHL DUP2 MSTORE PUSH1 0x20 PUSH1 0x4 DUP3 ADD MSTORE PUSH1 0x13 PUSH1 0x24 DUP3 ADD MSTORE PUSH19 0x115512081D1C985B9CD9995C8819985A5B1959 PUSH1 0x6A SHL PUSH1 0x44 DUP3 ADD MSTORE PUSH1 0x64 SWAP1 REVERT JUMPDEST PUSH4 0x4E487B71 PUSH1 0xE0 SHL PUSH1 0x0 MSTORE PUSH1 0x41 PUSH1 0x4 MSTORE PUSH1 0x24 PUSH1 0x0 REVERT JUMPDEST PUSH2 0x4D5 JUMP JUMPDEST SWAP1 PUSH1 0x20 DUP3 RETURNDATASIZE PUSH1 0x20 GT PUSH2 0x56A JUMPI JUMPDEST DUP2 PUSH2 0x55A PUSH1 0x20 SWAP4 DUP4 PUSH2 0x5BE JUMP JUMPDEST DUP2 ADD SUB SLT PUSH2 0x2B6 JUMPI POP MLOAD DUP2 PUSH2 0x492 JUMP JUMPDEST RETURNDATASIZE SWAP2 POP PUSH2 0x54D JUMP JUMPDEST ISZERO PUSH2 0x579 JUMPI JUMP JUMPDEST PUSH1 0x40 MLOAD PUSH3 0x461BCD PUSH1 0xE5 SHL DUP2 MSTORE PUSH1 0x20 PUSH1 0x4 DUP3 ADD MSTORE PUSH1 0x1D PUSH1 0x24 DUP3 ADD MSTORE PUSH32 0x416D6F756E74206D7573742062652067726561746572207468616E2030000000 PUSH1 0x44 DUP3 ADD MSTORE PUSH1 0x64 SWAP1 REVERT JUMPDEST SWAP1 PUSH1 0x1F DUP1 NOT SWAP2 ADD AND DUP2 ADD SWAP1 DUP2 LT PUSH8 0xFFFFFFFFFFFFFFFF DUP3 GT OR PUSH2 0x525 JUMPI PUSH1 0x40 MSTORE JUMP JUMPDEST PUSH1 0x2 PUSH1 0x0 SLOAD EQ PUSH2 0x5F1 JUMPI PUSH1 0x2 PUSH1 0x0 SSTORE JUMP JUMPDEST PUSH4 0x3EE5AEB5 PUSH1 0xE0 SHL PUSH1 0x0 MSTORE PUSH1 0x4 PUSH1 0x0 REVERT JUMPDEST PUSH1 0x0 PUSH1 0x20 SWAP2 DUP3 DUP2 MLOAD SWAP2 ADD DUP3 PUSH20 0xAE7AB96520DE3A18E5E111B5EAAB095312D7FE84 GAS CALL ISZERO PUSH2 0x110 JUMPI PUSH1 0x0 MLOAD RETURNDATASIZE PUSH2 0x679 JUMPI POP PUSH20 0xAE7AB96520DE3A18E5E111B5EAAB095312D7FE84 EXTCODESIZE ISZERO JUMPDEST PUSH2 0x650 JUMPI JUMP JUMPDEST PUSH4 0x5274AFE7 PUSH1 0xE0 SHL PUSH1 0x0 MSTORE PUSH20 0xAE7AB96520DE3A18E5E111B5EAAB095312D7FE84 PUSH1 0x4 MSTORE PUSH1 0x24 PUSH1 0x0 REVERT JUMPDEST PUSH1 0x1 EQ ISZERO PUSH2 0x64A JUMP INVALID LOG2 PUSH5 0x6970667358 0x22 SLT KECCAK256 0xEC BASEFEE 0x24 EQ PUSH21 0x5C7ADF5689DE2BC3AF35694E1BF874253DCC0D3FD6 0xD0 SWAP7 SWAP13 SWAP4 JUMP GAS PUSH5 0x736F6C6343 STOP ADDMOD BYTE STOP CALLER "
        },
        "methodIdentifiers": {
          "BPS_DENOMINATOR()": "e1a45218",
          "PERFORMANCE_FEE_BPS()": "5b01e374",
          "aaveAdapter()": "571eb114",
          "approvedStakingProtocols(address)": "0a926300",
          "createYieldVault(uint256,address,uint256,address)": "34fa6983",
          "deposit(uint256,address)": "6e553f65",
          "getEstimatedAPY(address)": "b0db972f",
          "getVault(uint256)": "9403b634",
          "getVaultsByOwner(address)": "ac818711",
          "getYieldVaultForGuardiaVault(uint256)": "0e0ec8be",
          "guardiaVault()": "5fce5401",
          "harvest(uint256)": "ddc63262",
          "lidoAdapter()": "4dda1fbf",
          "owner()": "8da5cb5b",
          "protocolTokenMap(address)": "c4c88dd5",
          "protocolTypes(address)": "099788b5",
          "renounceOwnership()": "715018a6",
          "setApprovedProtocol(address,address,uint8)": "46b0c016",
          "setGuardiaVault(address)": "e559ed1b",
          "setTreasury(address)": "f0f44260",
          "transferOwnership(address)": "f2fde38b",
          "treasury()": "61d027b3",
          "triggerVault(uint256,address)": "c7d1fa9d",
          "updateYield(uint256,uint256)": "54973c0e",
          "withdraw(address,uint256,uint256)": "b5c5f672"
        }
      }
    }
  }
}