{
  "contracts/adapters/AaveAdapter.sol": {
    "AaveAdapter": {
      "abi": [
        {
          "inputs": [],
          "name": "ReentrancyGuardReentrantCall",
          "type": "error"
        },
        {
          "inputs": [
            {
              "internalType": "address",
              "name": "token",
              "type": "address"
            }
          ],
          "name": "SafeERC20FailedOperation",
          "type": "error"
        },
        {
          "inputs": [],
          "name": "AAVE_POOL",
          "outputs": [
            {
              "internalType": "contract IAavePool",
              "name": "",
              "type": "address"
            }
          ],
          "stateMutability": "view",
          "type": "function"
        },
        {
          "inputs": [],
          "name": "DAI",
          "outputs": [
            {
              "internalType": "address",
              "name": "",
              "type": "address"
            }
          ],
          "stateMutability": "view",
          "type": "function"
        },
        {
          "inputs": [],
          "name": "USDC",
          "outputs": [
            {
              "internalType": "address",
              "name": "",
              "type": "address"
            }
          ],
          "stateMutability": "view",
          "type": "function"
        },
        {
          "inputs": [],
          "name": "USDT",
          "outputs": [
            {
              "internalType": "address",
              "name": "",
              "type": "address"
            }
          ],
          "stateMutability": "view",
          "type": "function"
        },
        {
          "inputs": [],
          "name": "WETH",
          "outputs": [
            {
              "internalType": "address",
              "name": "",
              "type": "address"
            }
          ],
          "stateMutability": "view",
          "type": "function"
        },
        {
          "inputs": [
            {
              "internalType": "address",
              "name": "asset",
              "type": "address"
            }
          ],
          "name": "getAToken",
          "outputs": [
            {
              "internalType": "address",
              "name": "",
              "type": "address"
            }
          ],
          "stateMutability": "view",
          "type": "function"
        },
        {
          "inputs": [
            {
              "internalType": "address",
              "name": "asset",
              "type": "address"
            },
            {
              "internalType": "address",
              "name": "account",
              "type": "address"
            }
          ],
          "name": "getBalance",
          "outputs": [
            {
              "internalType": "uint256",
              "name": "",
              "type": "uint256"
            }
          ],
          "stateMutability": "view",
          "type": "function"
        },
        {
          "inputs": [
            {
              "internalType": "address",
              "name": "asset",
              "type": "address"
            }
          ],
          "name": "getCurrentAPY",
          "outputs": [
            {
              "internalType": "uint256",
              "name": "",
              "type": "uint256"
            }
          ],
          "stateMutability": "view",
          "type": "function"
        },
        {
          "inputs": [
            {
              "internalType": "address",
              "name": "asset",
              "type": "address"
            },
            {
              "internalType": "uint256",
              "name": "amount",
              "type": "uint256"
            }
          ],
          "name": "supply",
          "outputs": [
            {
              "internalType": "uint256",
              "name": "",
              "type": "uint256"
            }
          ],
          "stateMutability": "nonpayable",
          "type": "function"
        },
        {
          "inputs": [
            {
              "internalType": "address",
              "name": "asset",
              "type": "address"
            },
            {
              "internalType": "uint256",
              "name": "amount",
              "type": "uint256"
            },
            {
              "internalType": "address",
              "name": "to",
              "type": "address"
            }
          ],
          "name": "withdraw",
          "outputs": [
            {
              "internalType": "uint256",
              "name": "",
              "type": "uint256"
            }
          ],
          "stateMutability": "nonpayable",
          "type": "function"
        }
      ],
      "evm": {
        "bytecode": {
          "linkReferences": {},
          "object": "60808060405234601a576001600055610cfc90816100208239f35b600080fdfe608080604052600436101561001357600080fd5b600090813560e01c90816308a0167514610a015750806369328dec146107fd578063732a52ee1461076157806389a3027114610732578063a8bb832e14610688578063ad5c464814610659578063c54e44eb1461062a578063d4fac45d146104f6578063e0bab4c4146104c75763f2b9fdb81461008f57600080fd5b346104c45760403660031901126104c4576100a8610a2f565b602435906100b4610bf7565b811561047f576001600160a01b03166100cf82303384610c19565b6040516335ea6a7560e01b8152600481018290526101e0816024817387870bca3f3fd6335c3f4ce8392d69350b4fa4e25afa908115610325578491610450575b5061010001516040516370a0823160e01b8152306004820152926001600160a01b039091169190602084602481865afa938415610445578594610411575b50604051636eb1769f60e11b81523060048201527387870bca3f3fd6335c3f4ce8392d69350b4fa4e26024820152602081604481865afa9081156104065786916103d0575b508181018091116103bc57602086604051928284019063095ea7b360e01b82527387870bca3f3fd6335c3f4ce8392d69350b4fa4e260248601526044850152604484526101e0606485610a45565b83519082875af186513d826103a0575b505015610348575b507387870bca3f3fd6335c3f4ce8392d69350b4fa4e23b15610344576040519163617ba03760e01b8352600483015260248201523060448201528360648201528381608481837387870bca3f3fd6335c3f4ce8392d69350b4fa4e25af1801561032557610330575b506040516370a0823160e01b815230600482015291602083602481855afa9283156103255784936102ec575b5082039182116102d8576020926102cf6001926040519063a9059cbb60e01b87830152336024830152856044830152604482526102ca606483610a45565b610c5f565b55604051908152f35b634e487b7160e01b83526011600452602483fd5b9092506020813d60201161031d575b8161030860209383610a45565b810103126103185751913861028c565b600080fd5b3d91506102fb565b6040513d86823e3d90fd5b8361033d91949294610a45565b9138610260565b8480fd5b61039a9061039460405163095ea7b360e01b60208201527387870bca3f3fd6335c3f4ce8392d69350b4fa4e260248201528860448201526044815261038e606482610a45565b85610c5f565b83610c5f565b386101f8565b9091506103b45750823b15155b38806101f0565b6001146103ad565b634e487b7160e01b86526011600452602486fd5b90506020813d6020116103fe575b816103eb60209383610a45565b810103126103fa575138610192565b8580fd5b3d91506103de565b6040513d88823e3d90fd5b9093506020813d60201161043d575b8161042d60209383610a45565b810103126103445751923861014d565b3d9150610420565b6040513d87823e3d90fd5b61047291506101e03d8111610478575b61046a8183610a45565b810190610aa5565b3861010f565b503d610460565b60405162461bcd60e51b815260206004820152601d60248201527f416d6f756e74206d7573742062652067726561746572207468616e20300000006044820152606490fd5b80fd5b50346104c457806003193601126104c4576020604051736b175474e89094c44da98b954eedeac495271d0f8152f35b50346104c45760403660031901126104c457610510610a2f565b6024356001600160a01b0381169190829003610626576040516335ea6a7560e01b81526001600160a01b0390911660048201526101e0816024817387870bca3f3fd6335c3f4ce8392d69350b4fa4e25afa801561061b5760209184916105fc575b5061010001516040516370a0823160e01b81526004810193909352829060249082906001600160a01b03165afa9081156105f15782916105b7575b602082604051908152f35b90506020813d6020116105e9575b816105d260209383610a45565b810103126105e5576020915051386105ac565b5080fd5b3d91506105c5565b6040513d84823e3d90fd5b61061591506101e03d81116104785761046a8183610a45565b38610571565b6040513d85823e3d90fd5b8280fd5b50346104c457806003193601126104c457602060405173dac17f958d2ee523a2206206994597c13d831ec78152f35b50346104c457806003193601126104c457602060405173c02aaa39b223fe8d0a0e5c4f27ead9083c756cc28152f35b50346104c45760203660031901126104c4576106a2610a2f565b6040516335ea6a7560e01b81526001600160a01b0390911660048201526101e0816024817387870bca3f3fd6335c3f4ce8392d69350b4fa4e25afa9081156105f1576001600160801b036040819369152d02c7e14af68000009360209691610713575b500151160416604051908152f35b61072c91506101e03d81116104785761046a8183610a45565b38610705565b50346104c457806003193601126104c457602060405173a0b86a33e6441b8435b662303c4b5c5b7b8e4e8a8152f35b50346104c45760203660031901126104c45761077b610a2f565b6040516335ea6a7560e01b81526001600160a01b0390911660048201526101e0816024817387870bca3f3fd6335c3f4ce8392d69350b4fa4e25afa9081156105f157602092916107de575b5061010001516040516001600160a01b039091168152f35b6107f791506101e03d81116104785761046a8183610a45565b386107c6565b50346104c45760603660031901126104c457610817610a2f565b6044356001600160a01b03811690602435908290036109fd57610838610bf7565b8082156109c4576040516335ea6a7560e01b81526001600160a01b0390941660048501819052936101e0816024817387870bca3f3fd6335c3f4ce8392d69350b4fa4e25afa9081156104065786916109a5575b5061010001516001600160a01b0316906000191461093d575b816108b29130903390610c19565b60405192631a4ca37b60e21b8452600484015260248301526044820152602081606481857387870bca3f3fd6335c3f4ce8392d69350b4fa4e25af19081156105f157829161090a575b50600160209255604051908152f35b90506020813d602011610935575b8161092560209383610a45565b810103126105e5575160016108fb565b3d9150610918565b6040516370a0823160e01b8152336004820152909150602081602481855afa8015610445578590610971575b9190506108a4565b506020813d60201161099d575b8161098b60209383610a45565b81010312610344576108b29051610969565b3d915061097e565b6109be91506101e03d81116104785761046a8183610a45565b3861088b565b60405162461bcd60e51b8152602060048201526011602482015270125b9d985b1a59081c9958da5c1a595b9d607a1b6044820152606490fd5b8380fd5b9050346105e557816003193601126105e557807387870bca3f3fd6335c3f4ce8392d69350b4fa4e260209252f35b600435906001600160a01b038216820361031857565b90601f8019910116810190811067ffffffffffffffff821117610a6757604052565b634e487b7160e01b600052604160045260246000fd5b51906001600160801b038216820361031857565b51906001600160a01b038216820361031857565b90816101e0910312610318576040519060006101e0830167ffffffffffffffff811184821017610be35760405281518352610ae260208301610a7d565b6020840152610af360408301610a7d565b6040840152610b0460608301610a7d565b6060840152610b1560808301610a7d565b6080840152610b2660a08301610a7d565b60a084015260c082015164ffffffffff811681036105e55760c084015260e08201519061ffff821682036104c45750610bda916101c09160e0850152610b6f6101008201610a91565b610100850152610b826101208201610a91565b610120850152610b956101408201610a91565b610140850152610ba86101608201610a91565b610160850152610bbb6101808201610a7d565b610180850152610bce6101a08201610a7d565b6101a085015201610a7d565b6101c082015290565b634e487b7160e01b82526041600452602482fd5b600260005414610c08576002600055565b633ee5aeb560e01b60005260046000fd5b6040516323b872dd60e01b60208201526001600160a01b039283166024820152929091166044830152606480830193909352918152610c5d916102ca608483610a45565b565b906000602091828151910182855af115610cba576000513d610cb157506001600160a01b0381163b155b610c905750565b635274afe760e01b60009081526001600160a01b0391909116600452602490fd5b60011415610c89565b6040513d6000823e3d90fdfea2646970667358221220fee1d213dea2a93d3007a8d6c1767c1f87e1bc0c5e2005bd34593140e2c1e91264736f6c634300081a0033",
          "opcodes": "PUSH1 0x80 DUP1 PUSH1 0x40 MSTORE CALLVALUE PUSH1 0x1A JUMPI PUSH1 0x1 PUSH1 0x0 SSTORE PUSH2 0xCFC SWAP1 DUP2 PUSH2 0x20 DUP3 CODECOPY RETURN JUMPDEST PUSH1 0x0 DUP1 REVERT INVALID PUSH1 0x80 DUP1 PUSH1 0x40 MSTORE PUSH1 0x4 CALLDATASIZE LT ISZERO PUSH2 0x13 JUMPI PUSH1 0x0 DUP1 REVERT JUMPDEST PUSH1 0x0 SWAP1 DUP2 CALLDATALOAD PUSH1 0xE0 SHR SWAP1 DUP2 PUSH4 0x8A01675 EQ PUSH2 0xA01 JUMPI POP DUP1 PUSH4 0x69328DEC EQ PUSH2 0x7FD JUMPI DUP1 PUSH4 0x732A52EE EQ PUSH2 0x761 JUMPI DUP1 PUSH4 0x89A30271 EQ PUSH2 0x732 JUMPI DUP1 PUSH4 0xA8BB832E EQ PUSH2 0x688 JUMPI DUP1 PUSH4 0xAD5C4648 EQ PUSH2 0x659 JUMPI DUP1 PUSH4 0xC54E44EB EQ PUSH2 0x62A JUMPI DUP1 PUSH4 0xD4FAC45D EQ PUSH2 0x4F6 JUMPI DUP1 PUSH4 0xE0BAB4C4 EQ PUSH2 0x4C7 JUMPI PUSH4 0xF2B9FDB8 EQ PUSH2 0x8F JUMPI PUSH1 0x0 DUP1 REVERT JUMPDEST CALLVALUE PUSH2 0x4C4 JUMPI PUSH1 0x40 CALLDATASIZE PUSH1 0x3 NOT ADD SLT PUSH2 0x4C4 JUMPI PUSH2 0xA8 PUSH2 0xA2F JUMP JUMPDEST PUSH1 0x24 CALLDATALOAD SWAP1 PUSH2 0xB4 PUSH2 0xBF7 JUMP JUMPDEST DUP2 ISZERO PUSH2 0x47F JUMPI PUSH1 0x1 PUSH1 0x1 PUSH1 0xA0 SHL SUB AND PUSH2 0xCF DUP3 ADDRESS CALLER DUP5 PUSH2 0xC19 JUMP JUMPDEST PUSH1 0x40 MLOAD PUSH4 0x35EA6A75 PUSH1 0xE0 SHL DUP2 MSTORE PUSH1 0x4 DUP2 ADD DUP3 SWAP1 MSTORE PUSH2 0x1E0 DUP2 PUSH1 0x24 DUP2 PUSH20 0x87870BCA3F3FD6335C3F4CE8392D69350B4FA4E2 GAS STATICCALL SWAP1 DUP2 ISZERO PUSH2 0x325 JUMPI DUP5 SWAP2 PUSH2 0x450 JUMPI JUMPDEST POP PUSH2 0x100 ADD MLOAD PUSH1 0x40 MLOAD PUSH4 0x70A08231 PUSH1 0xE0 SHL DUP2 MSTORE ADDRESS PUSH1 0x4 DUP3 ADD MSTORE SWAP3 PUSH1 0x1 PUSH1 0x1 PUSH1 0xA0 SHL SUB SWAP1 SWAP2 AND SWAP2 SWAP1 PUSH1 0x20 DUP5 PUSH1 0x24 DUP2 DUP7 GAS STATICCALL SWAP4 DUP5 ISZERO PUSH2 0x445 JUMPI DUP6 SWAP5 PUSH2 0x411 JUMPI JUMPDEST POP PUSH1 0x40 MLOAD PUSH4 0x6EB1769F PUSH1 0xE1 SHL DUP2 MSTORE ADDRESS PUSH1 0x4 DUP3 ADD MSTORE PUSH20 0x87870BCA3F3FD6335C3F4CE8392D69350B4FA4E2 PUSH1 0x24 DUP3 ADD MSTORE PUSH1 0x20 DUP2 PUSH1 0x44 DUP2 DUP7 GAS STATICCALL SWAP1 DUP2 ISZERO PUSH2 0x406 JUMPI DUP7 SWAP2 PUSH2 0x3D0 JUMPI JUMPDEST POP DUP2 DUP2 ADD DUP1 SWAP2 GT PUSH2 0x3BC JUMPI PUSH1 0x20 DUP7 PUSH1 0x40 MLOAD SWAP3 DUP3 DUP5 ADD SWAP1 PUSH4 0x95EA7B3 PUSH1 0xE0 SHL DUP3 MSTORE PUSH20 0x87870BCA3F3FD6335C3F4CE8392D69350B4FA4E2 PUSH1 0x24 DUP7 ADD MSTORE PUSH1 0x44 DUP6 ADD MSTORE PUSH1 0x44 DUP5 MSTORE PUSH2 0x1E0 PUSH1 0x64 DUP6 PUSH2 0xA45 JUMP JUMPDEST DUP4 MLOAD SWAP1 DUP3 DUP8 GAS CALL DUP7 MLOAD RETURNDATASIZE DUP3 PUSH2 0x3A0 JUMPI JUMPDEST POP POP ISZERO PUSH2 0x348 JUMPI JUMPDEST POP PUSH20 0x87870BCA3F3FD6335C3F4CE8392D69350B4FA4E2 EXTCODESIZE ISZERO PUSH2 0x344 JUMPI PUSH1 0x40 MLOAD SWAP2 PUSH4 0x617BA037 PUSH1 0xE0 SHL DUP4 MSTORE PUSH1 0x4 DUP4 ADD MSTORE PUSH1 0x24 DUP3 ADD MSTORE ADDRESS PUSH1 0x44 DUP3 ADD MSTORE DUP4 PUSH1 0x64 DUP3 ADD MSTORE DUP4 DUP2 PUSH1 0x84 DUP2 DUP4 PUSH20 0x87870BCA3F3FD6335C3F4CE8392D69350B4FA4E2 GAS CALL DUP1 ISZERO PUSH2 0x325 JUMPI PUSH2 0x330 JUMPI JUMPDEST POP PUSH1 0x40 MLOAD PUSH4 0x70A08231 PUSH1 0xE0 SHL DUP2 MSTORE ADDRESS PUSH1 0x4 DUP3 ADD MSTORE SWAP2 PUSH1 0x20 DUP4 PUSH1 0x24 DUP2 DUP6 GAS STATICCALL SWAP3 DUP4 ISZERO PUSH2 0x325 JUMPI DUP5 SWAP4 PUSH2 0x2EC JUMPI JUMPDEST POP DUP3 SUB SWAP2 DUP3 GT PUSH2 0x2D8 JUMPI PUSH1 0x20 SWAP3 PUSH2 0x2CF PUSH1 0x1 SWAP3 PUSH1 0x40 MLOAD SWAP1 PUSH4 0xA9059CBB PUSH1 0xE0 SHL DUP8 DUP4 ADD MSTORE CALLER PUSH1 0x24 DUP4 ADD MSTORE DUP6 PUSH1 0x44 DUP4 ADD MSTORE PUSH1 0x44 DUP3 MSTORE PUSH2 0x2CA PUSH1 0x64 DUP4 PUSH2 0xA45 JUMP JUMPDEST PUSH2 0xC5F JUMP JUMPDEST SSTORE PUSH1 0x40 MLOAD SWAP1 DUP2 MSTORE RETURN JUMPDEST PUSH4 0x4E487B71 PUSH1 0xE0 SHL DUP4 MSTORE PUSH1 0x11 PUSH1 0x4 MSTORE PUSH1 0x24 DUP4 REVERT JUMPDEST SWAP1 SWAP3 POP PUSH1 0x20 DUP2 RETURNDATASIZE PUSH1 0x20 GT PUSH2 0x31D JUMPI JUMPDEST DUP2 PUSH2 0x308 PUSH1 0x20 SWAP4 DUP4 PUSH2 0xA45 JUMP JUMPDEST DUP2 ADD SUB SLT PUSH2 0x318 JUMPI MLOAD SWAP2 CODESIZE PUSH2 0x28C JUMP JUMPDEST PUSH1 0x0 DUP1 REVERT JUMPDEST RETURNDATASIZE SWAP2 POP PUSH2 0x2FB JUMP JUMPDEST PUSH1 0x40 MLOAD RETURNDATASIZE DUP7 DUP3 RETURNDATACOPY RETURNDATASIZE SWAP1 REVERT JUMPDEST DUP4 PUSH2 0x33D SWAP2 SWAP5 SWAP3 SWAP5 PUSH2 0xA45 JUMP JUMPDEST SWAP2 CODESIZE PUSH2 0x260 JUMP JUMPDEST DUP5 DUP1 REVERT JUMPDEST PUSH2 0x39A SWAP1 PUSH2 0x394 PUSH1 0x40 MLOAD PUSH4 0x95EA7B3 PUSH1 0xE0 SHL PUSH1 0x20 DUP3 ADD MSTORE PUSH20 0x87870BCA3F3FD6335C3F4CE8392D69350B4FA4E2 PUSH1 0x24 DUP3 ADD MSTORE DUP9 PUSH1 0x44 DUP3 ADD MSTORE PUSH1 0x44 DUP2 MSTORE PUSH2 0x38E PUSH1 0x64 DUP3 PUSH2 0xA45 JUMP JUMPDEST DUP6 PUSH2 0xC5F JUMP JUMPDEST DUP4 PUSH2 0xC5F JUMP JUMPDEST CODESIZE PUSH2 0x1F8 JUMP JUMPDEST SWAP1 SWAP2 POP PUSH2 0x3B4 JUMPI POP DUP3 EXTCODESIZE ISZERO ISZERO JUMPDEST CODESIZE DUP1 PUSH2 0x1F0 JUMP JUMPDEST PUSH1 0x1 EQ PUSH2 0x3AD JUMP JUMPDEST PUSH4 0x4E487B71 PUSH1 0xE0 SHL DUP7 MSTORE PUSH1 0x11 PUSH1 0x4 MSTORE PUSH1 0x24 DUP7 REVERT JUMPDEST SWAP1 POP PUSH1 0x20 DUP2 RETURNDATASIZE PUSH1 0x20 GT PUSH2 0x3FE JUMPI JUMPDEST DUP2 PUSH2 0x3EB PUSH1 0x20 SWAP4 DUP4 PUSH2 0xA45 JUMP JUMPDEST DUP2 ADD SUB SLT PUSH2 0x3FA JUMPI MLOAD CODESIZE PUSH2 0x192 JUMP JUMPDEST DUP6 DUP1 REVERT JUMPDEST RETURNDATASIZE SWAP2 POP PUSH2 0x3DE JUMP JUMPDEST PUSH1 0x40 MLOAD RETURNDATASIZE DUP9 DUP3 RETURNDATACOPY RETURNDATASIZE SWAP1 REVERT JUMPDEST SWAP1 SWAP4 POP PUSH1 0x20 DUP2 RETURNDATASIZE PUSH1 0x20 GT PUSH2 0x43D JUMPI JUMPDEST DUP2 PUSH2 0x42D PUSH1 0x20 SWAP4 DUP4 PUSH2 0xA45 JUMP JUMPDEST DUP2 ADD SUB SLT PUSH2 0x344 JUMPI MLOAD SWAP3 CODESIZE PUSH2 0x14D JUMP JUMPDEST RETURNDATASIZE SWAP2 POP PUSH2 0x420 JUMP JUMPDEST PUSH1 0x40 MLOAD RETURNDATASIZE DUP8 DUP3 RETURNDATACOPY RETURNDATASIZE SWAP1 REVERT JUMPDEST PUSH2 0x472 SWAP2 POP PUSH2 0x1E0 RETURNDATASIZE DUP2 GT PUSH2 0x478 JUMPI JUMPDEST PUSH2 0x46A DUP2 DUP4 PUSH2 0xA45 JUMP JUMPDEST DUP2 ADD SWAP1 PUSH2 0xAA5 JUMP JUMPDEST CODESIZE PUSH2 0x10F JUMP JUMPDEST POP RETURNDATASIZE PUSH2 0x460 JUMP JUMPDEST PUSH1 0x40 MLOAD PUSH3 0x461BCD PUSH1 0xE5 SHL DUP2 MSTORE PUSH1 0x20 PUSH1 0x4 DUP3 ADD MSTORE PUSH1 0x1D PUSH1 0x24 DUP3 ADD MSTORE PUSH32 0x416D6F756E74206D7573742062652067726561746572207468616E2030000000 PUSH1 0x44 DUP3 ADD MSTORE PUSH1 0x64 SWAP1 REVERT JUMPDEST DUP1 REVERT JUMPDEST POP CALLVALUE PUSH2 0x4C4 JUMPI DUP1 PUSH1 0x3 NOT CALLDATASIZE ADD SLT PUSH2 0x4C4 JUMPI PUSH1 0x20 PUSH1 0x40 MLOAD PUSH20 0x6B175474E89094C44DA98B954EEDEAC495271D0F DUP2 MSTORE RETURN JUMPDEST POP CALLVALUE PUSH2 0x4C4 JUMPI PUSH1 0x40 CALLDATASIZE PUSH1 0x3 NOT ADD SLT PUSH2 0x4C4 JUMPI PUSH2 0x510 PUSH2 0xA2F JUMP JUMPDEST PUSH1 0x24 CALLDATALOAD PUSH1 0x1 PUSH1 0x1 PUSH1 0xA0 SHL SUB DUP2 AND SWAP2 SWAP1 DUP3 SWAP1 SUB PUSH2 0x626 JUMPI PUSH1 0x40 MLOAD PUSH4 0x35EA6A75 PUSH1 0xE0 SHL DUP2 MSTORE PUSH1 0x1 PUSH1 0x1 PUSH1 0xA0 SHL SUB SWAP1 SWAP2 AND PUSH1 0x4 DUP3 ADD MSTORE PUSH2 0x1E0 DUP2 PUSH1 0x24 DUP2 PUSH20 0x87870BCA3F3FD6335C3F4CE8392D69350B4FA4E2 GAS STATICCALL DUP1 ISZERO PUSH2 0x61B JUMPI PUSH1 0x20 SWAP2 DUP5 SWAP2 PUSH2 0x5FC JUMPI JUMPDEST POP PUSH2 0x100 ADD MLOAD PUSH1 0x40 MLOAD PUSH4 0x70A08231 PUSH1 0xE0 SHL DUP2 MSTORE PUSH1 0x4 DUP2 ADD SWAP4 SWAP1 SWAP4 MSTORE DUP3 SWAP1 PUSH1 0x24 SWAP1 DUP3 SWAP1 PUSH1 0x1 PUSH1 0x1 PUSH1 0xA0 SHL SUB AND GAS STATICCALL SWAP1 DUP2 ISZERO PUSH2 0x5F1 JUMPI DUP3 SWAP2 PUSH2 0x5B7 JUMPI JUMPDEST PUSH1 0x20 DUP3 PUSH1 0x40 MLOAD SWAP1 DUP2 MSTORE RETURN JUMPDEST SWAP1 POP PUSH1 0x20 DUP2 RETURNDATASIZE PUSH1 0x20 GT PUSH2 0x5E9 JUMPI JUMPDEST DUP2 PUSH2 0x5D2 PUSH1 0x20 SWAP4 DUP4 PUSH2 0xA45 JUMP JUMPDEST DUP2 ADD SUB SLT PUSH2 0x5E5 JUMPI PUSH1 0x20 SWAP2 POP MLOAD CODESIZE PUSH2 0x5AC JUMP JUMPDEST POP DUP1 REVERT JUMPDEST RETURNDATASIZE SWAP2 POP PUSH2 0x5C5 JUMP JUMPDEST PUSH1 0x40 MLOAD RETURNDATASIZE DUP5 DUP3 RETURNDATACOPY RETURNDATASIZE SWAP1 REVERT JUMPDEST PUSH2 0x615 SWAP2 POP PUSH2 0x1E0 RETURNDATASIZE DUP2 GT PUSH2 0x478 JUMPI PUSH2 0x46A DUP2 DUP4 PUSH2 0xA45 JUMP JUMPDEST CODESIZE PUSH2 0x571 JUMP JUMPDEST PUSH1 0x40 MLOAD RETURNDATASIZE DUP6 DUP3 RETURNDATACOPY RETURNDATASIZE SWAP1 REVERT JUMPDEST DUP3 DUP1 REVERT JUMPDEST POP CALLVALUE PUSH2 0x4C4 JUMPI DUP1 PUSH1 0x3 NOT CALLDATASIZE ADD SLT PUSH2 0x4C4 JUMPI PUSH1 0x20 PUSH1 0x40 MLOAD PUSH20 0xDAC17F958D2EE523A2206206994597C13D831EC7 DUP2 MSTORE RETURN JUMPDEST POP CALLVALUE PUSH2 0x4C4 JUMPI DUP1 PUSH1 0x3 NOT CALLDATASIZE ADD SLT PUSH2 0x4C4 JUMPI PUSH1 0x20 PUSH1 0x40 MLOAD PUSH20 0xC02AAA39B223FE8D0A0E5C4F27EAD9083C756CC2 DUP2 MSTORE RETURN JUMPDEST POP CALLVALUE PUSH2 0x4C4 JUMPI PUSH1 0x20 CALLDATASIZE PUSH1 0x3 NOT ADD SLT PUSH2 0x4C4 JUMPI PUSH2 0x6A2 PUSH2 0xA2F JUMP JUMPDEST PUSH1 0x40 MLOAD PUSH4 0x35EA6A75 PUSH1 0xE0 SHL DUP2 MSTORE PUSH1 0x1 PUSH1 0x1 PUSH1 0xA0 SHL SUB SWAP1 SWAP2 AND PUSH1 0x4 DUP3 ADD MSTORE PUSH2 0x1E0 DUP2 PUSH1 0x24 DUP2 PUSH20 0x87870BCA3F3FD6335C3F4CE8392D69350B4FA4E2 GAS STATICCALL SWAP1 DUP2 ISZERO PUSH2 0x5F1 JUMPI PUSH1 0x1 PUSH1 0x1 PUSH1 0x80 SHL SUB PUSH1 0x40 DUP2 SWAP4 PUSH10 0x152D02C7E14AF6800000 SWAP4 PUSH1 0x20 SWAP7 SWAP2 PUSH2 0x713 JUMPI JUMPDEST POP ADD MLOAD AND DIV AND PUSH1 0x40 MLOAD SWAP1 DUP2 MSTORE RETURN JUMPDEST PUSH2 0x72C SWAP2 POP PUSH2 0x1E0 RETURNDATASIZE DUP2 GT PUSH2 0x478 JUMPI PUSH2 0x46A DUP2 DUP4 PUSH2 0xA45 JUMP JUMPDEST CODESIZE PUSH2 0x705 JUMP JUMPDEST POP CALLVALUE PUSH2 0x4C4 JUMPI DUP1 PUSH1 0x3 NOT CALLDATASIZE ADD SLT PUSH2 0x4C4 JUMPI PUSH1 0x20 PUSH1 0x40 MLOAD PUSH20 0xA0B86A33E6441B8435B662303C4B5C5B7B8E4E8A DUP2 MSTORE RETURN JUMPDEST POP CALLVALUE PUSH2 0x4C4 JUMPI PUSH1 0x20 CALLDATASIZE PUSH1 0x3 NOT ADD SLT PUSH2 0x4C4 JUMPI PUSH2 0x77B PUSH2 0xA2F JUMP JUMPDEST PUSH1 0x40 MLOAD PUSH4 0x35EA6A75 PUSH1 0xE0 SHL DUP2 MSTORE PUSH1 0x1 PUSH1 0x1 PUSH1 0xA0 SHL SUB SWAP1 SWAP2 AND PUSH1 0x4 DUP3 ADD MSTORE PUSH2 0x1E0 DUP2 PUSH1 0x24 DUP2 PUSH20 0x87870BCA3F3FD6335C3F4CE8392D69350B4FA4E2 GAS STATICCALL SWAP1 DUP2 ISZERO PUSH2 0x5F1 JUMPI PUSH1 0x20 SWAP3 SWAP2 PUSH2 0x7DE JUMPI JUMPDEST POP PUSH2 0x100 ADD MLOAD PUSH1 0x40 MLOAD PUSH1 0x1 PUSH1 0x1 PUSH1 0xA0 SHL SUB SWAP1 SWAP2 AND DUP2 MSTORE RETURN JUMPDEST PUSH2 0x7F7 SWAP2 POP PUSH2 0x1E0 RETURNDATASIZE DUP2 GT PUSH2 0x478 JUMPI PUSH2 0x46A DUP2 DUP4 PUSH2 0xA45 JUMP JUMPDEST CODESIZE PUSH2 0x7C6 JUMP JUMPDEST POP CALLVALUE PUSH2 0x4C4 JUMPI PUSH1 0x60 CALLDATASIZE PUSH1 0x3 NOT ADD SLT PUSH2 0x4C4 JUMPI PUSH2 0x817 PUSH2 0xA2F JUMP JUMPDEST PUSH1 0x44 CALLDATALOAD PUSH1 0x1 PUSH1 0x1 PUSH1 0xA0 SHL SUB DUP2 AND SWAP1 PUSH1 0x24 CALLDATALOAD SWAP1 DUP3 SWAP1 SUB PUSH2 0x9FD JUMPI PUSH2 0x838 PUSH2 0xBF7 JUMP JUMPDEST DUP1 DUP3 ISZERO PUSH2 0x9C4 JUMPI PUSH1 0x40 MLOAD PUSH4 0x35EA6A75 PUSH1 0xE0 SHL DUP2 MSTORE PUSH1 0x1 PUSH1 0x1 PUSH1 0xA0 SHL SUB SWAP1 SWAP5 AND PUSH1 0x4 DUP6 ADD DUP2 SWAP1 MSTORE SWAP4 PUSH2 0x1E0 DUP2 PUSH1 0x24 DUP2 PUSH20 0x87870BCA3F3FD6335C3F4CE8392D69350B4FA4E2 GAS STATICCALL SWAP1 DUP2 ISZERO PUSH2 0x406 JUMPI DUP7 SWAP2 PUSH2 0x9A5 JUMPI JUMPDEST POP PUSH2 0x100 ADD MLOAD PUSH1 0x1 PUSH1 0x1 PUSH1 0xA0 SHL SUB AND SWAP1 PUSH1 0x0 NOT EQ PUSH2 0x93D JUMPI JUMPDEST DUP2 PUSH2 0x8B2 SWAP2 ADDRESS SWAP1 CALLER SWAP1 PUSH2 0xC19 JUMP JUMPDEST PUSH1 0x40 MLOAD SWAP3 PUSH4 0x1A4CA37B PUSH1 0xE2 SHL DUP5 MSTORE PUSH1 0x4 DUP5 ADD MSTORE PUSH1 0x24 DUP4 ADD MSTORE PUSH1 0x44 DUP3 ADD MSTORE PUSH1 0x20 DUP2 PUSH1 0x64 DUP2 DUP6 PUSH20 0x87870BCA3F3FD6335C3F4CE8392D69350B4FA4E2 GAS CALL SWAP1 DUP2 ISZERO PUSH2 0x5F1 JUMPI DUP3 SWAP2 PUSH2 0x90A JUMPI JUMPDEST POP PUSH1 0x1 PUSH1 0x20 SWAP3 SSTORE PUSH1 0x40 MLOAD SWAP1 DUP2 MSTORE RETURN JUMPDEST SWAP1 POP PUSH1 0x20 DUP2 RETURNDATASIZE PUSH1 0x20 GT PUSH2 0x935 JUMPI JUMPDEST DUP2 PUSH2 0x925 PUSH1 0x20 SWAP4 DUP4 PUSH2 0xA45 JUMP JUMPDEST DUP2 ADD SUB SLT PUSH2 0x5E5 JUMPI MLOAD PUSH1 0x1 PUSH2 0x8FB JUMP JUMPDEST RETURNDATASIZE SWAP2 POP PUSH2 0x918 JUMP JUMPDEST PUSH1 0x40 MLOAD PUSH4 0x70A08231 PUSH1 0xE0 SHL DUP2 MSTORE CALLER PUSH1 0x4 DUP3 ADD MSTORE SWAP1 SWAP2 POP PUSH1 0x20 DUP2 PUSH1 0x24 DUP2 DUP6 GAS STATICCALL DUP1 ISZERO PUSH2 0x445 JUMPI DUP6 SWAP1 PUSH2 0x971 JUMPI JUMPDEST SWAP2 SWAP1 POP PUSH2 0x8A4 JUMP JUMPDEST POP PUSH1 0x20 DUP2 RETURNDATASIZE PUSH1 0x20 GT PUSH2 0x99D JUMPI JUMPDEST DUP2 PUSH2 0x98B PUSH1 0x20 SWAP4 DUP4 PUSH2 0xA45 JUMP JUMPDEST DUP2 ADD SUB SLT PUSH2 0x344 JUMPI PUSH2 0x8B2 SWAP1 MLOAD PUSH2 0x969 JUMP JUMPDEST RETURNDATASIZE SWAP2 POP PUSH2 0x97E JUMP JUMPDEST PUSH2 0x9BE SWAP2 POP PUSH2 0x1E0 RETURNDATASIZE DUP2 GT PUSH2 0x478 JUMPI PUSH2 0x46A DUP2 DUP4 PUSH2 0xA45 JUMP JUMPDEST CODESIZE PUSH2 0x88B JUMP JUMPDEST PUSH1 0x40 MLOAD PUSH3 0x461BCD PUSH1 0xE5 SHL DUP2 MSTORE PUSH1 0x20 PUSH1 0x4 DUP3 ADD MSTORE PUSH1 0x11 PUSH1 0x24 DUP3 ADD MSTORE PUSH17 0x125B9D985B1A59081C9958DA5C1A595B9D PUSH1 0x7A SHL PUSH1 0x44 DUP3 ADD MSTORE PUSH1 0x64 SWAP1 REVERT JUMPDEST DUP4 DUP1 REVERT JUMPDEST SWAP1 POP CALLVALUE PUSH2 0x5E5 JUMPI DUP2 PUSH1 0x3 NOT CALLDATASIZE ADD SLT PUSH2 0x5E5 JUMPI DUP1 PUSH20 0x87870BCA3F3FD6335C3F4CE8392D69350B4FA4E2 PUSH1 0x20 SWAP3 MSTORE RETURN JUMPDEST PUSH1 0x4 CALLDATALOAD SWAP1 PUSH1 0x1 PUSH1 0x1 PUSH1 0xA0 SHL SUB DUP3 AND DUP3 SUB PUSH2 0x318 JUMPI JUMP JUMPDEST SWAP1 PUSH1 0x1F DUP1 NOT SWAP2 ADD AND DUP2 ADD SWAP1 DUP2 LT PUSH8 0xFFFFFFFFFFFFFFFF DUP3 GT OR PUSH2 0xA67 JUMPI PUSH1 0x40 MSTORE JUMP JUMPDEST PUSH4 0x4E487B71 PUSH1 0xE0 SHL PUSH1 0x0 MSTORE PUSH1 0x41 PUSH1 0x4 MSTORE PUSH1 0x24 PUSH1 0x0 REVERT JUMPDEST MLOAD SWAP1 PUSH1 0x1 PUSH1 0x1 PUSH1 0x80 SHL SUB DUP3 AND DUP3 SUB PUSH2 0x318 JUMPI JUMP JUMPDEST MLOAD SWAP1 PUSH1 0x1 PUSH1 0x1 PUSH1 0xA0 SHL SUB DUP3 AND DUP3 SUB PUSH2 0x318 JUMPI JUMP JUMPDEST SWAP1 DUP2 PUSH2 0x1E0 SWAP2 SUB SLT PUSH2 0x318 JUMPI PUSH1 0x40 MLOAD SWAP1 PUSH1 0x0 PUSH2 0x1E0 DUP4 ADD PUSH8 0xFFFFFFFFFFFFFFFF DUP2 GT DUP5 DUP3 LT OR PUSH2 0xBE3 JUMPI PUSH1 0x40 MSTORE DUP2 MLOAD DUP4 MSTORE PUSH2 0xAE2 PUSH1 0x20 DUP4 ADD PUSH2 0xA7D JUMP JUMPDEST PUSH1 0x20 DUP5 ADD MSTORE PUSH2 0xAF3 PUSH1 0x40 DUP4 ADD PUSH2 0xA7D JUMP JUMPDEST PUSH1 0x40 DUP5 ADD MSTORE PUSH2 0xB04 PUSH1 0x60 DUP4 ADD PUSH2 0xA7D JUMP JUMPDEST PUSH1 0x60 DUP5 ADD MSTORE PUSH2 0xB15 PUSH1 0x80 DUP4 ADD PUSH2 0xA7D JUMP JUMPDEST PUSH1 0x80 DUP5 ADD MSTORE PUSH2 0xB26 PUSH1 0xA0 DUP4 ADD PUSH2 0xA7D JUMP JUMPDEST PUSH1 0xA0 DUP5 ADD MSTORE PUSH1 0xC0 DUP3 ADD MLOAD PUSH5 0xFFFFFFFFFF DUP2 AND DUP2 SUB PUSH2 0x5E5 JUMPI PUSH1 0xC0 DUP5 ADD MSTORE PUSH1 0xE0 DUP3 ADD MLOAD SWAP1 PUSH2 0xFFFF DUP3 AND DUP3 SUB PUSH2 0x4C4 JUMPI POP PUSH2 0xBDA SWAP2 PUSH2 0x1C0 SWAP2 PUSH1 0xE0 DUP6 ADD MSTORE PUSH2 0xB6F PUSH2 0x100 DUP3 ADD PUSH2 0xA91 JUMP JUMPDEST PUSH2 0x100 DUP6 ADD MSTORE PUSH2 0xB82 PUSH2 0x120 DUP3 ADD PUSH2 0xA91 JUMP JUMPDEST PUSH2 0x120 DUP6 ADD MSTORE PUSH2 0xB95 PUSH2 0x140 DUP3 ADD PUSH2 0xA91 JUMP JUMPDEST PUSH2 0x140 DUP6 ADD MSTORE PUSH2 0xBA8 PUSH2 0x160 DUP3 ADD PUSH2 0xA91 JUMP JUMPDEST PUSH2 0x160 DUP6 ADD MSTORE PUSH2 0xBBB PUSH2 0x180 DUP3 ADD PUSH2 0xA7D JUMP JUMPDEST PUSH2 0x180 DUP6 ADD MSTORE PUSH2 0xBCE PUSH2 0x1A0 DUP3 ADD PUSH2 0xA7D JUMP JUMPDEST PUSH2 0x1A0 DUP6 ADD MSTORE ADD PUSH2 0xA7D JUMP JUMPDEST PUSH2 0x1C0 DUP3 ADD MSTORE SWAP1 JUMP JUMPDEST PUSH4 0x4E487B71 PUSH1 0xE0 SHL DUP3 MSTORE PUSH1 0x41 PUSH1 0x4 MSTORE PUSH1 0x24 DUP3 REVERT JUMPDEST PUSH1 0x2 PUSH1 0x0 SLOAD EQ PUSH2 0xC08 JUMPI PUSH1 0x2 PUSH1 0x0 SSTORE JUMP JUMPDEST PUSH4 0x3EE5AEB5 PUSH1 0xE0 SHL PUSH1 0x0 MSTORE PUSH1 0x4 PUSH1 0x0 REVERT JUMPDEST PUSH1 0x40 MLOAD PUSH4 0x23B872DD PUSH1 0xE0 SHL PUSH1 0x20 DUP3 ADD MSTORE PUSH1 0x1 PUSH1 0x1 PUSH1 0xA0 SHL SUB SWAP3 DUP4 AND PUSH1 0x24 DUP3 ADD MSTORE SWAP3 SWAP1 SWAP2 AND PUSH1 0x44 DUP4 ADD MSTORE PUSH1 0x64 DUP1 DUP4 ADD SWAP4 SWAP1 SWAP4 MSTORE SWAP2 DUP2 MSTORE PUSH2 0xC5D SWAP2 PUSH2 0x2CA PUSH1 0x84 DUP4 PUSH2 0xA45 JUMP JUMPDEST JUMP JUMPDEST SWAP1 PUSH1 0x0 PUSH1 0x20 SWAP2 DUP3 DUP2 MLOAD SWAP2 ADD DUP3 DUP6 GAS CALL ISZERO PUSH2 0xCBA JUMPI PUSH1 0x0 MLOAD RETURNDATASIZE PUSH2 0xCB1 JUMPI POP PUSH1 0x1 PUSH1 0x1 PUSH1 0xA0 SHL SUB DUP2 AND EXTCODESIZE ISZERO JUMPDEST PUSH2 0xC90 JUMPI POP JUMP JUMPDEST PUSH4 0x5274AFE7 PUSH1 0xE0 SHL PUSH1 0x0 SWAP1 DUP2 MSTORE PUSH1 0x1 PUSH1 0x1 PUSH1 0xA0 SHL SUB SWAP2 SWAP1 SWAP2 AND PUSH1 0x4 MSTORE PUSH1 0x24 SWAP1 REVERT JUMPDEST PUSH1 0x1 EQ ISZERO PUSH2 0xC89 JUMP JUMPDEST PUSH1 0x40 MLOAD RETURNDATASIZE PUSH1 0x0 DUP3 RETURNDATACOPY RETURNDATASIZE SWAP1 REVERT INVALID LOG2 PUSH5 0x6970667358 0x22 SLT KECCAK256 INVALID 0xE1 0xD2 SGT 0xDE LOG2 0xA9 RETURNDATASIZE ADDRESS SMOD 0xA8 0xD6 0xC1 PUSH23 0x7C1F87E1BC0C5E2005BD34593140E2C1E91264736F6C63 NUMBER STOP ADDMOD BYTE STOP CALLER "
        },
        "methodIdentifiers": {
          "AAVE_POOL()": "08a01675",
          "DAI()": "e0bab4c4",
          "USDC()": "89a30271",
          "USDT()": "c54e44eb",
          "WETH()": "ad5c4648",
          "getAToken(address)": "732a52ee",
          "getBalance(address,address)": "d4fac45d",
          "getCurrentAPY(address)": "a8bb832e",
          "supply(address,uint256)": "f2b9fdb8",
          "withdraw(address,uint256,address)": "69328dec"
        }
      }
    }
  }
}