{
  "contracts/adapters/LidoAdapter.sol": {
    "LidoAdapter": {
      "abi": [
        {
          "inputs": [],
          "name": "ReentrancyGuardReentrantCall",
          "type": "error"
        },
        {
          "inputs": [
            {
              "internalType": "address",
              "name": "token",
              "type": "address"
            }
          ],
          "name": "SafeERC20FailedOperation",
          "type": "error"
        },
        {
          "inputs": [],
          "name": "LIDO",
          "outputs": [
            {
              "internalType": "contract ILido",
              "name": "",
              "type": "address"
            }
          ],
          "stateMutability": "view",
          "type": "function"
        },
        {
          "inputs": [],
          "name": "STETH",
          "outputs": [
            {
              "internalType": "address",
              "name": "",
              "type": "address"
            }
          ],
          "stateMutability": "view",
          "type": "function"
        },
        {
          "inputs": [
            {
              "internalType": "address",
              "name": "account",
              "type": "address"
            }
          ],
          "name": "getBalance",
          "outputs": [
            {
              "internalType": "uint256",
              "name": "",
              "type": "uint256"
            }
          ],
          "stateMutability": "view",
          "type": "function"
        },
        {
          "inputs": [],
          "name": "getCurrentAPY",
          "outputs": [
            {
              "internalType": "uint256",
              "name": "",
              "type": "uint256"
            }
          ],
          "stateMutability": "pure",
          "type": "function"
        },
        {
          "inputs": [
            {
              "internalType": "uint256",
              "name": "stETHAmount",
              "type": "uint256"
            }
          ],
          "name": "getETHValue",
          "outputs": [
            {
              "internalType": "uint256",
              "name": "",
              "type": "uint256"
            }
          ],
          "stateMutability": "view",
          "type": "function"
        },
        {
          "inputs": [],
          "name": "stakeETH",
          "outputs": [
            {
              "internalType": "uint256",
              "name": "",
              "type": "uint256"
            }
          ],
          "stateMutability": "payable",
          "type": "function"
        },
        {
          "inputs": [
            {
              "internalType": "uint256",
              "name": "stETHAmount",
              "type": "uint256"
            }
          ],
          "name": "unstake",
          "outputs": [
            {
              "internalType": "uint256",
              "name": "",
              "type": "uint256"
            }
          ],
          "stateMutability": "nonpayable",
          "type": "function"
        }
      ],
      "evm": {
        "bytecode": {
          "linkReferences": {},
          "object": "60808060405234601a5760016000556106b890816100208239f35b600080fdfe6080604052600436101561001257600080fd5b60003560e01c80632e17de781461040c5780638b21f1701461011c578063962ca496146103ef578063d5bda32d14610322578063dceb986d1461014b578063e00bfe501461011c5763f8b2cb4f1461006957600080fd5b34610103576020366003190112610103576004356001600160a01b0381169081900361010357604051906370a0823160e01b8252600482015260208160248173ae7ab96520de3a18e5e111b5eaab095312d7fe845afa8015610110576000906100d8575b602090604051908152f35b506020813d602011610108575b816100f2602093836105be565b8101031261010357602090516100cd565b600080fd5b3d91506100e5565b6040513d6000823e3d90fd5b3461010357600036600319011261010357602060405173ae7ab96520de3a18e5e111b5eaab095312d7fe848152f35b60003660031901126101035761015f6105e0565b61016a341515610572565b6040516370a0823160e01b815230600482015260208160248173ae7ab96520de3a18e5e111b5eaab095312d7fe845afa908115610110576000916102f0575b5060405163a1903eab60e01b8152600060048201526020816024813473ae7ab96520de3a18e5e111b5eaab095312d7fe845af18015610110576102c1575b506040516370a0823160e01b81523060048201529060208260248173ae7ab96520de3a18e5e111b5eaab095312d7fe845afa9182156101105760009261028a575b5081039081116102745760209061026760405163a9059cbb60e01b84820152336024820152826044820152604481526102626064826105be565b610602565b6001600055604051908152f35b634e487b7160e01b600052601160045260246000fd5b90916020823d6020116102b9575b816102a5602093836105be565b810103126102b65750519082610228565b80fd5b3d9150610298565b6020813d6020116102e8575b816102da602093836105be565b8101031261010357516101e7565b3d91506102cd565b90506020813d60201161031a575b8161030b602093836105be565b810103126101035751816101a9565b3d91506102fe565b3461010357602036600319011261010357604051631920845160e01b8152600480359082015260208160248173ae7ab96520de3a18e5e111b5eaab095312d7fe845afa908115610110576000916103bd575b5060405190630f451f7160e31b8252600482015260208160248173ae7ab96520de3a18e5e111b5eaab095312d7fe845afa8015610110576000906100d857602090604051908152f35b90506020813d6020116103e7575b816103d8602093836105be565b81010312610103575181610374565b3d91506103cb565b346101035760003660031901126101035760206040516102088152f35b34610103576020366003190112610103576004356104286105e0565b610433811515610572565b6104676040516323b872dd60e01b6020820152336024820152306044820152826064820152606481526102626084826105be565b6040519063d5bda32d60e01b82526004820152602081602481305afa90811561011057600091610540575b50600080808084335af13d1561053b573d67ffffffffffffffff811161052557604051906104ca601f8201601f1916602001836105be565b8152600060203d92013e5b156104ea576020906001600055604051908152f35b60405162461bcd60e51b8152602060048201526013602482015272115512081d1c985b9cd9995c8819985a5b1959606a1b6044820152606490fd5b634e487b7160e01b600052604160045260246000fd5b6104d5565b906020823d60201161056a575b8161055a602093836105be565b810103126102b657505181610492565b3d915061054d565b1561057957565b60405162461bcd60e51b815260206004820152601d60248201527f416d6f756e74206d7573742062652067726561746572207468616e20300000006044820152606490fd5b90601f8019910116810190811067ffffffffffffffff82111761052557604052565b6002600054146105f1576002600055565b633ee5aeb560e01b60005260046000fd5b600060209182815191018273ae7ab96520de3a18e5e111b5eaab095312d7fe845af115610110576000513d610679575073ae7ab96520de3a18e5e111b5eaab095312d7fe843b155b61065057565b635274afe760e01b60005273ae7ab96520de3a18e5e111b5eaab095312d7fe8460045260246000fd5b6001141561064a56fea2646970667358221220ec482414745c7adf5689de2bc3af35694e1bf874253dcc0d3fd6d0969c93565a64736f6c634300081a0033",
          "opcodes": "PUSH1 0x80 DUP1 PUSH1 0x40 MSTORE CALLVALUE PUSH1 0x1A JUMPI PUSH1 0x1 PUSH1 0x0 SSTORE PUSH2 0x6B8 SWAP1 DUP2 PUSH2 0x20 DUP3 CODECOPY RETURN JUMPDEST PUSH1 0x0 DUP1 REVERT INVALID PUSH1 0x80 PUSH1 0x40 MSTORE PUSH1 0x4 CALLDATASIZE LT ISZERO PUSH2 0x12 JUMPI PUSH1 0x0 DUP1 REVERT JUMPDEST PUSH1 0x0 CALLDATALOAD PUSH1 0xE0 SHR DUP1 PUSH4 0x2E17DE78 EQ PUSH2 0x40C JUMPI DUP1 PUSH4 0x8B21F170 EQ PUSH2 0x11C JUMPI DUP1 PUSH4 0x962CA496 EQ PUSH2 0x3EF JUMPI DUP1 PUSH4 0xD5BDA32D EQ PUSH2 0x322 JUMPI DUP1 PUSH4 0xDCEB986D EQ PUSH2 0x14B JUMPI DUP1 PUSH4 0xE00BFE50 EQ PUSH2 0x11C JUMPI PUSH4 0xF8B2CB4F EQ PUSH2 0x69 JUMPI PUSH1 0x0 DUP1 REVERT JUMPDEST CALLVALUE PUSH2 0x103 JUMPI PUSH1 0x20 CALLDATASIZE PUSH1 0x3 NOT ADD SLT PUSH2 0x103 JUMPI PUSH1 0x4 CALLDATALOAD PUSH1 0x1 PUSH1 0x1 PUSH1 0xA0 SHL SUB DUP2 AND SWAP1 DUP2 SWAP1 SUB PUSH2 0x103 JUMPI PUSH1 0x40 MLOAD SWAP1 PUSH4 0x70A08231 PUSH1 0xE0 SHL DUP3 MSTORE PUSH1 0x4 DUP3 ADD MSTORE PUSH1 0x20 DUP2 PUSH1 0x24 DUP2 PUSH20 0xAE7AB96520DE3A18E5E111B5EAAB095312D7FE84 GAS STATICCALL DUP1 ISZERO PUSH2 0x110 JUMPI PUSH1 0x0 SWAP1 PUSH2 0xD8 JUMPI JUMPDEST PUSH1 0x20 SWAP1 PUSH1 0x40 MLOAD SWAP1 DUP2 MSTORE RETURN JUMPDEST POP PUSH1 0x20 DUP2 RETURNDATASIZE PUSH1 0x20 GT PUSH2 0x108 JUMPI JUMPDEST DUP2 PUSH2 0xF2 PUSH1 0x20 SWAP4 DUP4 PUSH2 0x5BE JUMP JUMPDEST DUP2 ADD SUB SLT PUSH2 0x103 JUMPI PUSH1 0x20 SWAP1 MLOAD PUSH2 0xCD JUMP JUMPDEST PUSH1 0x0 DUP1 REVERT JUMPDEST RETURNDATASIZE SWAP2 POP PUSH2 0xE5 JUMP JUMPDEST PUSH1 0x40 MLOAD RETURNDATASIZE PUSH1 0x0 DUP3 RETURNDATACOPY RETURNDATASIZE SWAP1 REVERT JUMPDEST CALLVALUE PUSH2 0x103 JUMPI PUSH1 0x0 CALLDATASIZE PUSH1 0x3 NOT ADD SLT PUSH2 0x103 JUMPI PUSH1 0x20 PUSH1 0x40 MLOAD PUSH20 0xAE7AB96520DE3A18E5E111B5EAAB095312D7FE84 DUP2 MSTORE RETURN JUMPDEST PUSH1 0x0 CALLDATASIZE PUSH1 0x3 NOT ADD SLT PUSH2 0x103 JUMPI PUSH2 0x15F PUSH2 0x5E0 JUMP JUMPDEST PUSH2 0x16A CALLVALUE ISZERO ISZERO PUSH2 0x572 JUMP JUMPDEST PUSH1 0x40 MLOAD PUSH4 0x70A08231 PUSH1 0xE0 SHL DUP2 MSTORE ADDRESS PUSH1 0x4 DUP3 ADD MSTORE PUSH1 0x20 DUP2 PUSH1 0x24 DUP2 PUSH20 0xAE7AB96520DE3A18E5E111B5EAAB095312D7FE84 GAS STATICCALL SWAP1 DUP2 ISZERO PUSH2 0x110 JUMPI PUSH1 0x0 SWAP2 PUSH2 0x2F0 JUMPI JUMPDEST POP PUSH1 0x40 MLOAD PUSH4 0xA1903EAB PUSH1 0xE0 SHL DUP2 MSTORE PUSH1 0x0 PUSH1 0x4 DUP3 ADD MSTORE PUSH1 0x20 DUP2 PUSH1 0x24 DUP2 CALLVALUE PUSH20 0xAE7AB96520DE3A18E5E111B5EAAB095312D7FE84 GAS CALL DUP1 ISZERO PUSH2 0x110 JUMPI PUSH2 0x2C1 JUMPI JUMPDEST POP PUSH1 0x40 MLOAD PUSH4 0x70A08231 PUSH1 0xE0 SHL DUP2 MSTORE ADDRESS PUSH1 0x4 DUP3 ADD MSTORE SWAP1 PUSH1 0x20 DUP3 PUSH1 0x24 DUP2 PUSH20 0xAE7AB96520DE3A18E5E111B5EAAB095312D7FE84 GAS STATICCALL SWAP2 DUP3 ISZERO PUSH2 0x110 JUMPI PUSH1 0x0 SWAP3 PUSH2 0x28A JUMPI JUMPDEST POP DUP2 SUB SWAP1 DUP2 GT PUSH2 0x274 JUMPI PUSH1 0x20 SWAP1 PUSH2 0x267 PUSH1 0x40 MLOAD PUSH4 0xA9059CBB PUSH1 0xE0 SHL DUP5 DUP3 ADD MSTORE CALLER PUSH1 0x24 DUP3 ADD MSTORE DUP3 PUSH1 0x44 DUP3 ADD MSTORE PUSH1 0x44 DUP2 MSTORE PUSH2 0x262 PUSH1 0x64 DUP3 PUSH2 0x5BE JUMP JUMPDEST PUSH2 0x602 JUMP JUMPDEST PUSH1 0x1 PUSH1 0x0 SSTORE PUSH1 0x40 MLOAD SWAP1 DUP2 MSTORE RETURN JUMPDEST PUSH4 0x4E487B71 PUSH1 0xE0 SHL PUSH1 0x0 MSTORE PUSH1 0x11 PUSH1 0x4 MSTORE PUSH1 0x24 PUSH1 0x0 REVERT JUMPDEST SWAP1 SWAP2 PUSH1 0x20 DUP3 RETURNDATASIZE PUSH1 0x20 GT PUSH2 0x2B9 JUMPI JUMPDEST DUP2 PUSH2 0x2A5 PUSH1 0x20 SWAP4 DUP4 PUSH2 0x5BE JUMP JUMPDEST DUP2 ADD SUB SLT PUSH2 0x2B6 JUMPI POP MLOAD SWAP1 DUP3 PUSH2 0x228 JUMP JUMPDEST DUP1 REVERT JUMPDEST RETURNDATASIZE SWAP2 POP PUSH2 0x298 JUMP JUMPDEST PUSH1 0x20 DUP2 RETURNDATASIZE PUSH1 0x20 GT PUSH2 0x2E8 JUMPI JUMPDEST DUP2 PUSH2 0x2DA PUSH1 0x20 SWAP4 DUP4 PUSH2 0x5BE JUMP JUMPDEST DUP2 ADD SUB SLT PUSH2 0x103 JUMPI MLOAD PUSH2 0x1E7 JUMP JUMPDEST RETURNDATASIZE SWAP2 POP PUSH2 0x2CD JUMP JUMPDEST SWAP1 POP PUSH1 0x20 DUP2 RETURNDATASIZE PUSH1 0x20 GT PUSH2 0x31A JUMPI JUMPDEST DUP2 PUSH2 0x30B PUSH1 0x20 SWAP4 DUP4 PUSH2 0x5BE JUMP JUMPDEST DUP2 ADD SUB SLT PUSH2 0x103 JUMPI MLOAD DUP2 PUSH2 0x1A9 JUMP JUMPDEST RETURNDATASIZE SWAP2 POP PUSH2 0x2FE JUMP JUMPDEST CALLVALUE PUSH2 0x103 JUMPI PUSH1 0x20 CALLDATASIZE PUSH1 0x3 NOT ADD SLT PUSH2 0x103 JUMPI PUSH1 0x40 MLOAD PUSH4 0x19208451 PUSH1 0xE0 SHL DUP2 MSTORE PUSH1 0x4 DUP1 CALLDATALOAD SWAP1 DUP3 ADD MSTORE PUSH1 0x20 DUP2 PUSH1 0x24 DUP2 PUSH20 0xAE7AB96520DE3A18E5E111B5EAAB095312D7FE84 GAS STATICCALL SWAP1 DUP2 ISZERO PUSH2 0x110 JUMPI PUSH1 0x0 SWAP2 PUSH2 0x3BD JUMPI JUMPDEST POP PUSH1 0x40 MLOAD SWAP1 PUSH4 0xF451F71 PUSH1 0xE3 SHL DUP3 MSTORE PUSH1 0x4 DUP3 ADD MSTORE PUSH1 0x20 DUP2 PUSH1 0x24 DUP2 PUSH20 0xAE7AB96520DE3A18E5E111B5EAAB095312D7FE84 GAS STATICCALL DUP1 ISZERO PUSH2 0x110 JUMPI PUSH1 0x0 SWAP1 PUSH2 0xD8 JUMPI PUSH1 0x20 SWAP1 PUSH1 0x40 MLOAD SWAP1 DUP2 MSTORE RETURN JUMPDEST SWAP1 POP PUSH1 0x20 DUP2 RETURNDATASIZE PUSH1 0x20 GT PUSH2 0x3E7 JUMPI JUMPDEST DUP2 PUSH2 0x3D8 PUSH1 0x20 SWAP4 DUP4 PUSH2 0x5BE JUMP JUMPDEST DUP2 ADD SUB SLT PUSH2 0x103 JUMPI MLOAD DUP2 PUSH2 0x374 JUMP JUMPDEST RETURNDATASIZE SWAP2 POP PUSH2 0x3CB JUMP JUMPDEST CALLVALUE PUSH2 0x103 JUMPI PUSH1 0x0 CALLDATASIZE PUSH1 0x3 NOT ADD SLT PUSH2 0x103 JUMPI PUSH1 0x20 PUSH1 0x40 MLOAD PUSH2 0x208 DUP2 MSTORE RETURN JUMPDEST CALLVALUE PUSH2 0x103 JUMPI PUSH1 0x20 CALLDATASIZE PUSH1 0x3 NOT ADD SLT PUSH2 0x103 JUMPI PUSH1 0x4 CALLDATALOAD PUSH2 0x428 PUSH2 0x5E0 JUMP JUMPDEST PUSH2 0x433 DUP2 ISZERO ISZERO PUSH2 0x572 JUMP JUMPDEST PUSH2 0x467 PUSH1 0x40 MLOAD PUSH4 0x23B872DD PUSH1 0xE0 SHL PUSH1 0x20 DUP3 ADD MSTORE CALLER PUSH1 0x24 DUP3 ADD MSTORE ADDRESS PUSH1 0x44 DUP3 ADD MSTORE DUP3 PUSH1 0x64 DUP3 ADD MSTORE PUSH1 0x64 DUP2 MSTORE PUSH2 0x262 PUSH1 0x84 DUP3 PUSH2 0x5BE JUMP JUMPDEST PUSH1 0x40 MLOAD SWAP1 PUSH4 0xD5BDA32D PUSH1 0xE0 SHL DUP3 MSTORE PUSH1 0x4 DUP3 ADD MSTORE PUSH1 0x20 DUP2 PUSH1 0x24 DUP2 ADDRESS GAS STATICCALL SWAP1 DUP2 ISZERO PUSH2 0x110 JUMPI PUSH1 0x0 SWAP2 PUSH2 0x540 JUMPI JUMPDEST POP PUSH1 0x0 DUP1 DUP1 DUP1 DUP5 CALLER GAS CALL RETURNDATASIZE ISZERO PUSH2 0x53B JUMPI RETURNDATASIZE PUSH8 0xFFFFFFFFFFFFFFFF DUP2 GT PUSH2 0x525 JUMPI PUSH1 0x40 MLOAD SWAP1 PUSH2 0x4CA PUSH1 0x1F DUP3 ADD PUSH1 0x1F NOT AND PUSH1 0x20 ADD DUP4 PUSH2 0x5BE JUMP JUMPDEST DUP2 MSTORE PUSH1 0x0 PUSH1 0x20 RETURNDATASIZE SWAP3 ADD RETURNDATACOPY JUMPDEST ISZERO PUSH2 0x4EA JUMPI PUSH1 0x20 SWAP1 PUSH1 0x1 PUSH1 0x0 SSTORE PUSH1 0x40 MLOAD SWAP1 DUP2 MSTORE RETURN JUMPDEST PUSH1 0x40 MLOAD PUSH3 0x461BCD PUSH1 0xE5 SHL DUP2 MSTORE PUSH1 0x20 PUSH1 0x4 DUP3 ADD MSTORE PUSH1 0x13 PUSH1 0x24 DUP3 ADD MSTORE PUSH19 0x115512081D1C985B9CD9995C8819985A5B1959 PUSH1 0x6A SHL PUSH1 0x44 DUP3 ADD MSTORE PUSH1 0x64 SWAP1 REVERT JUMPDEST PUSH4 0x4E487B71 PUSH1 0xE0 SHL PUSH1 0x0 MSTORE PUSH1 0x41 PUSH1 0x4 MSTORE PUSH1 0x24 PUSH1 0x0 REVERT JUMPDEST PUSH2 0x4D5 JUMP JUMPDEST SWAP1 PUSH1 0x20 DUP3 RETURNDATASIZE PUSH1 0x20 GT PUSH2 0x56A JUMPI JUMPDEST DUP2 PUSH2 0x55A PUSH1 0x20 SWAP4 DUP4 PUSH2 0x5BE JUMP JUMPDEST DUP2 ADD SUB SLT PUSH2 0x2B6 JUMPI POP MLOAD DUP2 PUSH2 0x492 JUMP JUMPDEST RETURNDATASIZE SWAP2 POP PUSH2 0x54D JUMP JUMPDEST ISZERO PUSH2 0x579 JUMPI JUMP JUMPDEST PUSH1 0x40 MLOAD PUSH3 0x461BCD PUSH1 0xE5 SHL DUP2 MSTORE PUSH1 0x20 PUSH1 0x4 DUP3 ADD MSTORE PUSH1 0x1D PUSH1 0x24 DUP3 ADD MSTORE PUSH32 0x416D6F756E74206D7573742062652067726561746572207468616E2030000000 PUSH1 0x44 DUP3 ADD MSTORE PUSH1 0x64 SWAP1 REVERT JUMPDEST SWAP1 PUSH1 0x1F DUP1 NOT SWAP2 ADD AND DUP2 ADD SWAP1 DUP2 LT PUSH8 0xFFFFFFFFFFFFFFFF DUP3 GT OR PUSH2 0x525 JUMPI PUSH1 0x40 MSTORE JUMP JUMPDEST PUSH1 0x2 PUSH1 0x0 SLOAD EQ PUSH2 0x5F1 JUMPI PUSH1 0x2 PUSH1 0x0 SSTORE JUMP JUMPDEST PUSH4 0x3EE5AEB5 PUSH1 0xE0 SHL PUSH1 0x0 MSTORE PUSH1 0x4 PUSH1 0x0 REVERT JUMPDEST PUSH1 0x0 PUSH1 0x20 SWAP2 DUP3 DUP2 MLOAD SWAP2 ADD DUP3 PUSH20 0xAE7AB96520DE3A18E5E111B5EAAB095312D7FE84 GAS CALL ISZERO PUSH2 0x110 JUMPI PUSH1 0x0 MLOAD RETURNDATASIZE PUSH2 0x679 JUMPI POP PUSH20 0xAE7AB96520DE3A18E5E111B5EAAB095312D7FE84 EXTCODESIZE ISZERO JUMPDEST PUSH2 0x650 JUMPI JUMP JUMPDEST PUSH4 0x5274AFE7 PUSH1 0xE0 SHL PUSH1 0x0 MSTORE PUSH20 0xAE7AB96520DE3A18E5E111B5EAAB095312D7FE84 PUSH1 0x4 MSTORE PUSH1 0x24 PUSH1 0x0 REVERT JUMPDEST PUSH1 0x1 EQ ISZERO PUSH2 0x64A JUMP INVALID LOG2 PUSH5 0x6970667358 0x22 SLT KECCAK256 0xEC BASEFEE 0x24 EQ PUSH21 0x5C7ADF5689DE2BC3AF35694E1BF874253DCC0D3FD6 0xD0 SWAP7 SWAP13 SWAP4 JUMP GAS PUSH5 0x736F6C6343 STOP ADDMOD BYTE STOP CALLER "
        },
        "methodIdentifiers": {
          "LIDO()": "8b21f170",
          "STETH()": "e00bfe50",
          "getBalance(address)": "f8b2cb4f",
          "getCurrentAPY()": "962ca496",
          "getETHValue(uint256)": "d5bda32d",
          "stakeETH()": "dceb986d",
          "unstake(uint256)": "2e17de78"
        }
      }
    }
  }
}