{
  "contracts/GuardiaVault.sol": {
    "GuardiaVault": {
      "abi": [
        {
          "inputs": [],
          "stateMutability": "nonpayable",
          "type": "constructor"
        },
        {
          "inputs": [],
          "name": "AlreadyAttested",
          "type": "error"
        },
        {
          "inputs": [],
          "name": "AlreadyClaimed",
          "type": "error"
        },
        {
          "inputs": [],
          "name": "AttestationCooldown",
          "type": "error"
        },
        {
          "inputs": [],
          "name": "BeneficiaryCannotBeGuardian",
          "type": "error"
        },
        {
          "inputs": [],
          "name": "CannotModifyDuringWarning",
          "type": "error"
        },
        {
          "inputs": [],
          "name": "CannotRevokeBeforeWindow",
          "type": "error"
        },
        {
          "inputs": [],
          "name": "DeathAlreadyVerified",
          "type": "error"
        },
        {
          "inputs": [],
          "name": "DeathNotVerified",
          "type": "error"
        },
        {
          "inputs": [],
          "name": "DuplicateBeneficiary",
          "type": "error"
        },
        {
          "inputs": [],
          "name": "DuplicateGuardian",
          "type": "error"
        },
        {
          "inputs": [],
          "name": "EmailHashAlreadyLinked",
          "type": "error"
        },
        {
          "inputs": [],
          "name": "EmailHashNotGuardian",
          "type": "error"
        },
        {
          "inputs": [],
          "name": "InvalidBeneficiary",
          "type": "error"
        },
        {
          "inputs": [],
          "name": "InvalidBeneficiaryCount",
          "type": "error"
        },
        {
          "inputs": [],
          "name": "InvalidCheckInInterval",
          "type": "error"
        },
        {
          "inputs": [],
          "name": "InvalidEmailHash",
          "type": "error"
        },
        {
          "inputs": [],
          "name": "InvalidGracePeriod",
          "type": "error"
        },
        {
          "inputs": [],
          "name": "InvalidGuardian",
          "type": "error"
        },
        {
          "inputs": [],
          "name": "InvalidGuardianCount",
          "type": "error"
        },
        {
          "inputs": [],
          "name": "InvalidStatus",
          "type": "error"
        },
        {
          "inputs": [],
          "name": "NoBeneficiaries",
          "type": "error"
        },
        {
          "inputs": [],
          "name": "NotBeneficiary",
          "type": "error"
        },
        {
          "inputs": [],
          "name": "NotGuardian",
          "type": "error"
        },
        {
          "inputs": [],
          "name": "NotReadyForClaim",
          "type": "error"
        },
        {
          "inputs": [],
          "name": "OnlyOracle",
          "type": "error"
        },
        {
          "inputs": [],
          "name": "ReentrancyGuardReentrantCall",
          "type": "error"
        },
        {
          "inputs": [],
          "name": "RevokeWindowExpired",
          "type": "error"
        },
        {
          "inputs": [],
          "name": "Unauthorized",
          "type": "error"
        },
        {
          "inputs": [],
          "name": "VaultNotFound",
          "type": "error"
        },
        {
          "inputs": [],
          "name": "VaultNotTriggered",
          "type": "error"
        },
        {
          "anonymous": false,
          "inputs": [
            {
              "indexed": true,
              "internalType": "uint256",
              "name": "vaultId",
              "type": "uint256"
            },
            {
              "indexed": true,
              "internalType": "address",
              "name": "beneficiary",
              "type": "address"
            },
            {
              "indexed": false,
              "internalType": "uint256",
              "name": "timestamp",
              "type": "uint256"
            },
            {
              "indexed": false,
              "internalType": "string",
              "name": "metadataHash",
              "type": "string"
            }
          ],
          "name": "BeneficiaryClaimed",
          "type": "event"
        },
        {
          "anonymous": false,
          "inputs": [
            {
              "indexed": true,
              "internalType": "uint256",
              "name": "vaultId",
              "type": "uint256"
            },
            {
              "indexed": false,
              "internalType": "uint256",
              "name": "timestamp",
              "type": "uint256"
            },
            {
              "indexed": false,
              "internalType": "uint256",
              "name": "nextDeadline",
              "type": "uint256"
            }
          ],
          "name": "CheckInPerformed",
          "type": "event"
        },
        {
          "anonymous": false,
          "inputs": [
            {
              "indexed": true,
              "internalType": "uint256",
              "name": "vaultId",
              "type": "uint256"
            },
            {
              "indexed": true,
              "internalType": "address",
              "name": "user",
              "type": "address"
            },
            {
              "indexed": true,
              "internalType": "address",
              "name": "verifiedBy",
              "type": "address"
            },
            {
              "indexed": false,
              "internalType": "uint256",
              "name": "timestamp",
              "type": "uint256"
            },
            {
              "indexed": false,
              "internalType": "uint256",
              "name": "readyForClaimAt",
              "type": "uint256"
            }
          ],
          "name": "DeathVerified",
          "type": "event"
        },
        {
          "anonymous": false,
          "inputs": [
            {
              "indexed": true,
              "internalType": "uint256",
              "name": "vaultId",
              "type": "uint256"
            },
            {
              "indexed": true,
              "internalType": "address",
              "name": "guardian",
              "type": "address"
            },
            {
              "indexed": false,
              "internalType": "uint256",
              "name": "attestationCount",
              "type": "uint256"
            },
            {
              "indexed": false,
              "internalType": "bool",
              "name": "triggered",
              "type": "bool"
            }
          ],
          "name": "GuardianAttested",
          "type": "event"
        },
        {
          "anonymous": false,
          "inputs": [
            {
              "indexed": true,
              "internalType": "uint256",
              "name": "vaultId",
              "type": "uint256"
            },
            {
              "indexed": true,
              "internalType": "bytes32",
              "name": "emailHash",
              "type": "bytes32"
            },
            {
              "indexed": false,
              "internalType": "address",
              "name": "guardianAddress",
              "type": "address"
            },
            {
              "indexed": false,
              "internalType": "uint256",
              "name": "attestationCount",
              "type": "uint256"
            },
            {
              "indexed": false,
              "internalType": "bool",
              "name": "triggered",
              "type": "bool"
            }
          ],
          "name": "GuardianAttestedByEmailHash",
          "type": "event"
        },
        {
          "anonymous": false,
          "inputs": [
            {
              "indexed": true,
              "internalType": "uint256",
              "name": "vaultId",
              "type": "uint256"
            },
            {
              "indexed": true,
              "internalType": "bytes32",
              "name": "emailHash",
              "type": "bytes32"
            },
            {
              "indexed": true,
              "internalType": "address",
              "name": "addedBy",
              "type": "address"
            }
          ],
          "name": "GuardianEmailHashAdded",
          "type": "event"
        },
        {
          "anonymous": false,
          "inputs": [
            {
              "indexed": true,
              "internalType": "uint256",
              "name": "vaultId",
              "type": "uint256"
            },
            {
              "indexed": true,
              "internalType": "bytes32",
              "name": "emailHash",
              "type": "bytes32"
            },
            {
              "indexed": true,
              "internalType": "address",
              "name": "walletAddress",
              "type": "address"
            }
          ],
          "name": "GuardianEmailHashLinked",
          "type": "event"
        },
        {
          "anonymous": false,
          "inputs": [
            {
              "indexed": true,
              "internalType": "uint256",
              "name": "vaultId",
              "type": "uint256"
            },
            {
              "indexed": false,
              "internalType": "string",
              "name": "newMetadataHash",
              "type": "string"
            }
          ],
          "name": "MetadataUpdated",
          "type": "event"
        },
        {
          "anonymous": false,
          "inputs": [
            {
              "indexed": true,
              "internalType": "uint256",
              "name": "vaultId",
              "type": "uint256"
            },
            {
              "indexed": true,
              "internalType": "address",
              "name": "owner",
              "type": "address"
            },
            {
              "indexed": false,
              "internalType": "uint256",
              "name": "checkInInterval",
              "type": "uint256"
            },
            {
              "indexed": false,
              "internalType": "uint256",
              "name": "gracePeriod",
              "type": "uint256"
            },
            {
              "indexed": false,
              "internalType": "uint256",
              "name": "beneficiaryCount",
              "type": "uint256"
            },
            {
              "indexed": false,
              "internalType": "address[]",
              "name": "guardians",
              "type": "address[]"
            }
          ],
          "name": "VaultCreated",
          "type": "event"
        },
        {
          "anonymous": false,
          "inputs": [
            {
              "indexed": true,
              "internalType": "uint256",
              "name": "vaultId",
              "type": "uint256"
            },
            {
              "indexed": false,
              "internalType": "uint256",
              "name": "timestamp",
              "type": "uint256"
            }
          ],
          "name": "VaultReadyForClaim",
          "type": "event"
        },
        {
          "anonymous": false,
          "inputs": [
            {
              "indexed": true,
              "internalType": "uint256",
              "name": "vaultId",
              "type": "uint256"
            },
            {
              "indexed": true,
              "internalType": "address",
              "name": "owner",
              "type": "address"
            },
            {
              "indexed": false,
              "internalType": "uint256",
              "name": "timestamp",
              "type": "uint256"
            }
          ],
          "name": "VaultRevoked",
          "type": "event"
        },
        {
          "anonymous": false,
          "inputs": [
            {
              "indexed": true,
              "internalType": "uint256",
              "name": "vaultId",
              "type": "uint256"
            },
            {
              "indexed": false,
              "internalType": "uint256",
              "name": "timestamp",
              "type": "uint256"
            },
            {
              "indexed": false,
              "internalType": "enum GuardiaVault.VaultStatus",
              "name": "newStatus",
              "type": "uint8"
            },
            {
              "indexed": false,
              "internalType": "string",
              "name": "reason",
              "type": "string"
            }
          ],
          "name": "VaultTriggered",
          "type": "event"
        },
        {
          "anonymous": false,
          "inputs": [
            {
              "indexed": true,
              "internalType": "uint256",
              "name": "vaultId",
              "type": "uint256"
            },
            {
              "indexed": true,
              "internalType": "uint256",
              "name": "yieldVaultId",
              "type": "uint256"
            },
            {
              "indexed": true,
              "internalType": "address",
              "name": "beneficiary",
              "type": "address"
            },
            {
              "indexed": false,
              "internalType": "uint256",
              "name": "amount",
              "type": "uint256"
            }
          ],
          "name": "YieldVaultWithdrawn",
          "type": "event"
        },
        {
          "inputs": [],
          "name": "DEFAULT_DEATH_VERIFICATION_DELAY",
          "outputs": [
            {
              "internalType": "uint256",
              "name": "",
              "type": "uint256"
            }
          ],
          "stateMutability": "view",
          "type": "function"
        },
        {
          "inputs": [],
          "name": "GUARDIAN_ATTESTATION_COOLDOWN",
          "outputs": [
            {
              "internalType": "uint256",
              "name": "",
              "type": "uint256"
            }
          ],
          "stateMutability": "view",
          "type": "function"
        },
        {
          "inputs": [],
          "name": "GUARDIAN_COUNT",
          "outputs": [
            {
              "internalType": "uint256",
              "name": "",
              "type": "uint256"
            }
          ],
          "stateMutability": "view",
          "type": "function"
        },
        {
          "inputs": [],
          "name": "GUARDIAN_TRIGGER_THRESHOLD",
          "outputs": [
            {
              "internalType": "uint256",
              "name": "",
              "type": "uint256"
            }
          ],
          "stateMutability": "view",
          "type": "function"
        },
        {
          "inputs": [],
          "name": "MAX_BENEFICIARIES",
          "outputs": [
            {
              "internalType": "uint256",
              "name": "",
              "type": "uint256"
            }
          ],
          "stateMutability": "view",
          "type": "function"
        },
        {
          "inputs": [],
          "name": "MAX_CHECK_IN_INTERVAL",
          "outputs": [
            {
              "internalType": "uint256",
              "name": "",
              "type": "uint256"
            }
          ],
          "stateMutability": "view",
          "type": "function"
        },
        {
          "inputs": [],
          "name": "MAX_GRACE_PERIOD",
          "outputs": [
            {
              "internalType": "uint256",
              "name": "",
              "type": "uint256"
            }
          ],
          "stateMutability": "view",
          "type": "function"
        },
        {
          "inputs": [],
          "name": "MIN_CHECK_IN_INTERVAL",
          "outputs": [
            {
              "internalType": "uint256",
              "name": "",
              "type": "uint256"
            }
          ],
          "stateMutability": "view",
          "type": "function"
        },
        {
          "inputs": [],
          "name": "MIN_GRACE_PERIOD",
          "outputs": [
            {
              "internalType": "uint256",
              "name": "",
              "type": "uint256"
            }
          ],
          "stateMutability": "view",
          "type": "function"
        },
        {
          "inputs": [],
          "name": "REVOKE_WINDOW",
          "outputs": [
            {
              "internalType": "uint256",
              "name": "",
              "type": "uint256"
            }
          ],
          "stateMutability": "view",
          "type": "function"
        },
        {
          "inputs": [
            {
              "internalType": "uint256",
              "name": "vaultId",
              "type": "uint256"
            },
            {
              "internalType": "bytes32",
              "name": "emailHash",
              "type": "bytes32"
            }
          ],
          "name": "addGuardianByEmailHash",
          "outputs": [],
          "stateMutability": "nonpayable",
          "type": "function"
        },
        {
          "inputs": [
            {
              "internalType": "uint256",
              "name": "vaultId",
              "type": "uint256"
            }
          ],
          "name": "attestDeath",
          "outputs": [],
          "stateMutability": "nonpayable",
          "type": "function"
        },
        {
          "inputs": [
            {
              "internalType": "uint256",
              "name": "vaultId",
              "type": "uint256"
            },
            {
              "internalType": "bytes32",
              "name": "emailHash",
              "type": "bytes32"
            },
            {
              "internalType": "bytes",
              "name": "signature",
              "type": "bytes"
            }
          ],
          "name": "attestDeathByEmailHash",
          "outputs": [],
          "stateMutability": "nonpayable",
          "type": "function"
        },
        {
          "inputs": [
            {
              "internalType": "uint256",
              "name": "vaultId",
              "type": "uint256"
            }
          ],
          "name": "canRevoke",
          "outputs": [
            {
              "internalType": "bool",
              "name": "canRevokeStatus",
              "type": "bool"
            },
            {
              "internalType": "uint256",
              "name": "timeRemaining",
              "type": "uint256"
            }
          ],
          "stateMutability": "view",
          "type": "function"
        },
        {
          "inputs": [
            {
              "internalType": "uint256",
              "name": "vaultId",
              "type": "uint256"
            }
          ],
          "name": "checkIn",
          "outputs": [],
          "stateMutability": "nonpayable",
          "type": "function"
        },
        {
          "inputs": [
            {
              "internalType": "uint256",
              "name": "vaultId",
              "type": "uint256"
            }
          ],
          "name": "claim",
          "outputs": [],
          "stateMutability": "nonpayable",
          "type": "function"
        },
        {
          "inputs": [
            {
              "internalType": "uint256",
              "name": "checkInInterval",
              "type": "uint256"
            },
            {
              "internalType": "uint256",
              "name": "gracePeriod",
              "type": "uint256"
            },
            {
              "internalType": "address[]",
              "name": "beneficiaries",
              "type": "address[]"
            },
            {
              "internalType": "address[3]",
              "name": "guardians",
              "type": "address[3]"
            },
            {
              "internalType": "string",
              "name": "metadataHash",
              "type": "string"
            }
          ],
          "name": "createVault",
          "outputs": [
            {
              "internalType": "uint256",
              "name": "vaultId",
              "type": "uint256"
            }
          ],
          "stateMutability": "nonpayable",
          "type": "function"
        },
        {
          "inputs": [],
          "name": "deathVerificationDelay",
          "outputs": [
            {
              "internalType": "uint256",
              "name": "",
              "type": "uint256"
            }
          ],
          "stateMutability": "view",
          "type": "function"
        },
        {
          "inputs": [
            {
              "internalType": "uint256",
              "name": "vaultId",
              "type": "uint256"
            }
          ],
          "name": "emergencyRevoke",
          "outputs": [],
          "stateMutability": "nonpayable",
          "type": "function"
        },
        {
          "inputs": [
            {
              "internalType": "uint256",
              "name": "vaultId",
              "type": "uint256"
            }
          ],
          "name": "getBeneficiaries",
          "outputs": [
            {
              "internalType": "address[]",
              "name": "",
              "type": "address[]"
            }
          ],
          "stateMutability": "view",
          "type": "function"
        },
        {
          "inputs": [
            {
              "internalType": "uint256",
              "name": "vaultId",
              "type": "uint256"
            }
          ],
          "name": "getDeathVerification",
          "outputs": [
            {
              "internalType": "bool",
              "name": "verified",
              "type": "bool"
            },
            {
              "internalType": "uint256",
              "name": "verifiedAt",
              "type": "uint256"
            },
            {
              "internalType": "address",
              "name": "verifiedBy",
              "type": "address"
            }
          ],
          "stateMutability": "view",
          "type": "function"
        },
        {
          "inputs": [
            {
              "internalType": "uint256",
              "name": "vaultId",
              "type": "uint256"
            },
            {
              "internalType": "bytes32",
              "name": "emailHash",
              "type": "bytes32"
            }
          ],
          "name": "getEmailHashLinkedAddress",
          "outputs": [
            {
              "internalType": "address",
              "name": "",
              "type": "address"
            }
          ],
          "stateMutability": "view",
          "type": "function"
        },
        {
          "inputs": [
            {
              "internalType": "uint256",
              "name": "vaultId",
              "type": "uint256"
            }
          ],
          "name": "getGuardianAttestationCount",
          "outputs": [
            {
              "internalType": "uint256",
              "name": "",
              "type": "uint256"
            }
          ],
          "stateMutability": "view",
          "type": "function"
        },
        {
          "inputs": [
            {
              "internalType": "uint256",
              "name": "vaultId",
              "type": "uint256"
            }
          ],
          "name": "getGuardianCount",
          "outputs": [
            {
              "internalType": "uint256",
              "name": "totalCount",
              "type": "uint256"
            },
            {
              "internalType": "uint256",
              "name": "addressCount",
              "type": "uint256"
            },
            {
              "internalType": "uint256",
              "name": "emailHashCount",
              "type": "uint256"
            }
          ],
          "stateMutability": "view",
          "type": "function"
        },
        {
          "inputs": [
            {
              "internalType": "uint256",
              "name": "vaultId",
              "type": "uint256"
            }
          ],
          "name": "getGuardianEmailHashes",
          "outputs": [
            {
              "internalType": "bytes32[]",
              "name": "",
              "type": "bytes32[]"
            }
          ],
          "stateMutability": "view",
          "type": "function"
        },
        {
          "inputs": [
            {
              "internalType": "uint256",
              "name": "vaultId",
              "type": "uint256"
            }
          ],
          "name": "getGuardians",
          "outputs": [
            {
              "internalType": "address[]",
              "name": "",
              "type": "address[]"
            }
          ],
          "stateMutability": "view",
          "type": "function"
        },
        {
          "inputs": [],
          "name": "getNextVaultId",
          "outputs": [
            {
              "internalType": "uint256",
              "name": "",
              "type": "uint256"
            }
          ],
          "stateMutability": "view",
          "type": "function"
        },
        {
          "inputs": [
            {
              "internalType": "uint256",
              "name": "vaultId",
              "type": "uint256"
            }
          ],
          "name": "getReadyForClaimAt",
          "outputs": [
            {
              "internalType": "uint256",
              "name": "",
              "type": "uint256"
            }
          ],
          "stateMutability": "view",
          "type": "function"
        },
        {
          "inputs": [
            {
              "internalType": "uint256",
              "name": "vaultId",
              "type": "uint256"
            }
          ],
          "name": "getTimeUntilDeadline",
          "outputs": [
            {
              "internalType": "uint256",
              "name": "",
              "type": "uint256"
            }
          ],
          "stateMutability": "view",
          "type": "function"
        },
        {
          "inputs": [
            {
              "internalType": "uint256",
              "name": "vaultId",
              "type": "uint256"
            }
          ],
          "name": "getTimeUntilTrigger",
          "outputs": [
            {
              "internalType": "uint256",
              "name": "",
              "type": "uint256"
            }
          ],
          "stateMutability": "view",
          "type": "function"
        },
        {
          "inputs": [
            {
              "internalType": "uint256",
              "name": "vaultId",
              "type": "uint256"
            }
          ],
          "name": "getVault",
          "outputs": [
            {
              "internalType": "address",
              "name": "owner",
              "type": "address"
            },
            {
              "internalType": "uint256",
              "name": "checkInInterval",
              "type": "uint256"
            },
            {
              "internalType": "uint256",
              "name": "gracePeriod",
              "type": "uint256"
            },
            {
              "internalType": "uint256",
              "name": "lastCheckIn",
              "type": "uint256"
            },
            {
              "internalType": "address[]",
              "name": "beneficiaries",
              "type": "address[]"
            },
            {
              "internalType": "address[]",
              "name": "guardians",
              "type": "address[]"
            },
            {
              "internalType": "enum GuardiaVault.VaultStatus",
              "name": "status",
              "type": "uint8"
            },
            {
              "internalType": "string",
              "name": "metadataHash",
              "type": "string"
            }
          ],
          "stateMutability": "view",
          "type": "function"
        },
        {
          "inputs": [
            {
              "internalType": "uint256",
              "name": "vaultId",
              "type": "uint256"
            }
          ],
          "name": "getVaultStatus",
          "outputs": [
            {
              "internalType": "enum GuardiaVault.VaultStatus",
              "name": "",
              "type": "uint8"
            }
          ],
          "stateMutability": "view",
          "type": "function"
        },
        {
          "inputs": [
            {
              "internalType": "uint256",
              "name": "vaultId",
              "type": "uint256"
            }
          ],
          "name": "getVaultWithEmailHashes",
          "outputs": [
            {
              "internalType": "address",
              "name": "owner",
              "type": "address"
            },
            {
              "internalType": "uint256",
              "name": "checkInInterval",
              "type": "uint256"
            },
            {
              "internalType": "uint256",
              "name": "gracePeriod",
              "type": "uint256"
            },
            {
              "internalType": "uint256",
              "name": "lastCheckIn",
              "type": "uint256"
            },
            {
              "internalType": "address[]",
              "name": "beneficiaries",
              "type": "address[]"
            },
            {
              "internalType": "address[]",
              "name": "guardians",
              "type": "address[]"
            },
            {
              "internalType": "bytes32[]",
              "name": "guardianEmailHashes",
              "type": "bytes32[]"
            },
            {
              "internalType": "enum GuardiaVault.VaultStatus",
              "name": "status",
              "type": "uint8"
            },
            {
              "internalType": "string",
              "name": "metadataHash",
              "type": "string"
            }
          ],
          "stateMutability": "view",
          "type": "function"
        },
        {
          "inputs": [
            {
              "internalType": "uint256",
              "name": "vaultId",
              "type": "uint256"
            },
            {
              "internalType": "address",
              "name": "beneficiary",
              "type": "address"
            }
          ],
          "name": "hasClaimed",
          "outputs": [
            {
              "internalType": "bool",
              "name": "",
              "type": "bool"
            }
          ],
          "stateMutability": "view",
          "type": "function"
        },
        {
          "inputs": [
            {
              "internalType": "uint256",
              "name": "vaultId",
              "type": "uint256"
            },
            {
              "internalType": "address",
              "name": "guardian",
              "type": "address"
            }
          ],
          "name": "hasGuardianAttested",
          "outputs": [
            {
              "internalType": "bool",
              "name": "",
              "type": "bool"
            }
          ],
          "stateMutability": "view",
          "type": "function"
        },
        {
          "inputs": [
            {
              "internalType": "uint256",
              "name": "vaultId",
              "type": "uint256"
            },
            {
              "internalType": "bytes32",
              "name": "emailHash",
              "type": "bytes32"
            }
          ],
          "name": "hasGuardianAttestedByEmailHash",
          "outputs": [
            {
              "internalType": "bool",
              "name": "",
              "type": "bool"
            }
          ],
          "stateMutability": "view",
          "type": "function"
        },
        {
          "inputs": [
            {
              "internalType": "uint256",
              "name": "vaultId",
              "type": "uint256"
            },
            {
              "internalType": "address",
              "name": "beneficiary",
              "type": "address"
            }
          ],
          "name": "isBeneficiary",
          "outputs": [
            {
              "internalType": "bool",
              "name": "",
              "type": "bool"
            }
          ],
          "stateMutability": "view",
          "type": "function"
        },
        {
          "inputs": [
            {
              "internalType": "uint256",
              "name": "vaultId",
              "type": "uint256"
            },
            {
              "internalType": "address",
              "name": "guardian",
              "type": "address"
            }
          ],
          "name": "isGuardian",
          "outputs": [
            {
              "internalType": "bool",
              "name": "",
              "type": "bool"
            }
          ],
          "stateMutability": "view",
          "type": "function"
        },
        {
          "inputs": [
            {
              "internalType": "uint256",
              "name": "vaultId",
              "type": "uint256"
            },
            {
              "internalType": "bytes32",
              "name": "emailHash",
              "type": "bytes32"
            }
          ],
          "name": "isGuardianByEmailHash",
          "outputs": [
            {
              "internalType": "bool",
              "name": "",
              "type": "bool"
            }
          ],
          "stateMutability": "view",
          "type": "function"
        },
        {
          "inputs": [
            {
              "internalType": "uint256",
              "name": "vaultId",
              "type": "uint256"
            },
            {
              "internalType": "bytes32",
              "name": "emailHash",
              "type": "bytes32"
            },
            {
              "internalType": "bytes",
              "name": "signature",
              "type": "bytes"
            }
          ],
          "name": "linkEmailHashToAddress",
          "outputs": [],
          "stateMutability": "nonpayable",
          "type": "function"
        },
        {
          "inputs": [
            {
              "internalType": "uint256",
              "name": "guardiaVaultId",
              "type": "uint256"
            },
            {
              "internalType": "uint256",
              "name": "yieldVaultId",
              "type": "uint256"
            }
          ],
          "name": "linkYieldVault",
          "outputs": [],
          "stateMutability": "nonpayable",
          "type": "function"
        },
        {
          "inputs": [],
          "name": "oracle",
          "outputs": [
            {
              "internalType": "address",
              "name": "",
              "type": "address"
            }
          ],
          "stateMutability": "view",
          "type": "function"
        },
        {
          "inputs": [
            {
              "internalType": "uint256",
              "name": "newDelay",
              "type": "uint256"
            }
          ],
          "name": "setDeathVerificationDelay",
          "outputs": [],
          "stateMutability": "nonpayable",
          "type": "function"
        },
        {
          "inputs": [
            {
              "internalType": "address",
              "name": "newOracle",
              "type": "address"
            }
          ],
          "name": "setOracle",
          "outputs": [],
          "stateMutability": "nonpayable",
          "type": "function"
        },
        {
          "inputs": [
            {
              "internalType": "address",
              "name": "_yieldVault",
              "type": "address"
            }
          ],
          "name": "setYieldVault",
          "outputs": [],
          "stateMutability": "nonpayable",
          "type": "function"
        },
        {
          "inputs": [
            {
              "internalType": "uint256",
              "name": "vaultId",
              "type": "uint256"
            }
          ],
          "name": "updateDeathVerificationStatus",
          "outputs": [],
          "stateMutability": "nonpayable",
          "type": "function"
        },
        {
          "inputs": [
            {
              "internalType": "uint256",
              "name": "vaultId",
              "type": "uint256"
            },
            {
              "internalType": "string",
              "name": "newMetadataHash",
              "type": "string"
            }
          ],
          "name": "updateMetadata",
          "outputs": [],
          "stateMutability": "nonpayable",
          "type": "function"
        },
        {
          "inputs": [
            {
              "internalType": "uint256",
              "name": "vaultId",
              "type": "uint256"
            }
          ],
          "name": "updateVaultStatus",
          "outputs": [],
          "stateMutability": "nonpayable",
          "type": "function"
        },
        {
          "inputs": [
            {
              "internalType": "address",
              "name": "userAddress",
              "type": "address"
            }
          ],
          "name": "verifyDeath",
          "outputs": [],
          "stateMutability": "nonpayable",
          "type": "function"
        },
        {
          "inputs": [],
          "name": "yieldVault",
          "outputs": [
            {
              "internalType": "address",
              "name": "",
              "type": "address"
            }
          ],
          "stateMutability": "view",
          "type": "function"
        }
      ],
      "evm": {
        "bytecode": {
          "linkReferences": {},
          "object": "608080604052346033576001600055600f80546001600160a01b0319163317905562093a8060125561361d90816100398239f35b600080fdfe608080604052600436101561001357600080fd5b60003560e01c908163137c3f691461283e578163161195c6146128225750806318188d5a146127ea5780632348dd18146127ce578063264be8f1146127935780632b039c27146121d75780632f60062e1461218e578063360e548e1461215457806336acbe1914612138578063379607f514611d735780633aeaba4514611bef578063439fab0714611ba55780634661964914611b8757806349ebb77d14611b3c5780634df306ef14611adc57806352646f2f14611a1057806353c8388e1461177d57806356cb2b61146117455780636281e5fb146116f857806375ec260e146116915780637677f3261461160857806376a89bca146115ea578063783804d91461159e5780637adbf973146115485780637dc0d1d01461151f5780637f446351146114095780638015f929146113eb578063853aec0f146113af57806385da5c1514611391578063873f6f9e14611344578063883a003814610b445780639403b6341461124f57806397657e89146111ea578063a11fee93146111cb578063a7f8a5e2146111a2578063b4fc066314610e40578063b968367814610c16578063c165c1c914610b44578063c2e4c63314610bfa578063c3dafbf014610b96578063c773d96d14610b49578063cbc5539a14610b44578063cd444466146108d2578063dbf6be8214610879578063e95a644f146106fc578063e9783e60146106af578063e9e55583146104d7578063eb1f9f60146102db578063ee7da0df1461029f5763fe9f55691461024557600080fd5b3461029a57602036600319011261029a576004356000818152600260205260409020546001600160a01b031615610289576102816020916132d7565b604051908152f35b63dee790fb60e01b60005260046000fd5b600080fd5b3461029a57602036600319011261029a576004356000818152600260205260409020546001600160a01b03161561028957610281602091613285565b3461029a576102e9366129d1565b6000848152600260205260409020549091906001600160a01b0316156102895782156104c65783600052600a60205260406000208360005260205260ff60406000205416156104b55783600052600e60205260406000208360005260205260018060a01b03604060002054166104a45761043a6040519260208401927123bab0b93234b0ab30bab63a1d2634b7359d60711b8452866032860152601d60f91b6052860152856053860152601d60f91b60738601523360601b6074860152606885526103b5608886612b26565b6104286103c28651613397565b95603a604051968792610418602085019a7f19457468657265756d205369676e6564204d6573736167653a0a0000000000008c52610409815180926020888a01910161296b565b8501915180938584019061296b565b010103601f198101865285612b26565b339460018060a01b039451902061345c565b1603610494576000828152600e60209081526040808320848452909152812080546001600160a01b0319163390811790915592907f3da7257c87d0b4bf595b90f8b1070d2faec72bde85a5aefce76e5106b3e45e5d9080a4005b6282b42960e81b60005260046000fd5b630af21fb360e31b60005260046000fd5b630e5a23c760e31b60005260046000fd5b637e02616560e11b60005260046000fd5b3461029a57602036600319011261029a576104f061287d565b60018060a01b03600f54168033141590816106a5575b506106945761051481613573565b9060001982146102895781600052600260205260406000209082600052601060205260406000209182549060ff8216610683576007019260ff845416600681101561065c5760051461067257600160ff199290921682178155429181018290556002018054336001600160a01b0319909116179055600084815260116020526040902055815460ff16600681101561065c5760028114159081610650575b50610640575b601254906105c68242612a2e565b604051904282526020820152847f083b640a84b5058b01bdc07bbc23862e5969dbedf201193506c77272adef0fca6040339460018060a01b031693a41561060957005b600460ff198254161790557f1d71cd89a1cd78bca44ad23693f37cdae6b7a09e13fbe2667cd07d4f1f3fde7d6020604051428152a2005b815460ff191660031782556105b8565b600491501415846105b2565b634e487b7160e01b600052602160045260246000fd5b6307a92f1960e51b60005260046000fd5b630c6f37f760e21b60005260046000fd5b6380fee10560e01b60005260046000fd5b9050151582610506565b3461029a57604036600319011261029a576106c8612893565b600435600052600460205260406000209060018060a01b0316600052602052602060ff604060002054166040519015158152f35b3461029a57602036600319011261029a576004356000818152600260205260409020546001600160a01b031615610289576000818152600260205260409020546001600160a01b031633036104945780600052600260205260406000206007810160ff815416600681101561065c576002811490811561086e575b50610672576000838152600260205260409020546001600160a01b031615610289576107a283612b64565b60ff815416600681101561065c576002146106725742600383015560ff19815416905581600052600860205260006040812055600060058201905b815481101561082e576001908460005260066020526040806000206108028386612a94565b905460039190911b1c60a085901b85900316600090815260209190915220805460ff19169055016107dd565b837f72dbb658922b3fac69a03e69848ad6ad5e2be500f0d5b7ee624523960dab2cc16040610860600187015442612a2e565b8151904282526020820152a2005b600591501484610777565b3461029a57602036600319011261029a576004356276a700811161089c57601255005b60405162461bcd60e51b815260206004820152600e60248201526d44656c617920746f6f206c6f6e6760901b6044820152606490fd5b3461029a57602036600319011261029a576004356000818152600260205260409020546001600160a01b031615610289576000818152600260205260409020546001600160a01b03163303610494576000818152600260205260409020546001600160a01b0316156102895780600052600260205260406000206007810160ff815416600681101561065c57600203610b33578260005260096020526040600020548015610b335762093a808101809111610b1d574211610b0c5760ff19815416905542600382015581600052600860205260006040812055600060058201905b8154811015610a35576001908460005260066020526040806000206109d88386612a94565b905460039190911b1c60a085901b8590031660009081526020918252918220805460ff19169055868252600790526040808220610a158487612a94565b905460039190911b1c60a086901b869003168352602052812055016109b3565b50506006810160005b8154811015610a9f5780610a5460019284612a94565b90549060031b1c85600052600c602052604060002081600052602052604060002060ff19815416905585600052600d6020526040600020906000526020526000604081205501610a3e565b837f72dbb658922b3fac69a03e69848ad6ad5e2be500f0d5b7ee624523960dab2cc160406108606001878560005260096020526000848120558351428152867f65143c9c8db9ce46388460bbee1d8a9ba68ac5d991af0cc533dbffe7b9b98db660203393a3015442612a2e565b6315de6e9560e11b60005260046000fd5b634e487b7160e01b600052601160045260246000fd5b630448520d60e51b60005260046000fd5b6129b3565b3461029a57604036600319011261029a57610b62612893565b600435600052600560205260406000209060018060a01b0316600052602052602060ff604060002054166040519015158152f35b3461029a57602036600319011261029a576004356000818152600260205260409020546001600160a01b031615610289576000526002602052610bf6610be26005604060002001612da3565b60405191829160208352602083019061292e565b0390f35b3461029a57600036600319011261029a57602060405160028152f35b3461029a57602036600319011261029a576004356000818152600260205260409020546001600160a01b03161561028957600081815260056020908152604080832033845290915290205460ff1615610e2f5760008181526007602090815260408083203384529091529020548015159081610e18575b50610e0757600081815260066020908152604080832033845290915290205460ff16610df657806000526002602052600760406000200160ff815416600681101561065c5760028114908115610deb575b5061067257600082815260066020908152604080832033808552908352818420805460ff19166001179055858452600783528184209084528252808320429055848352600890915290208054610d3390612a4b565b90556000908282526008602052600260408320541015610d95575b509080600052600860205260406000205491604051928352151560208301527ff31e9d491a1dc8fc32be0412649145136b2c7f9ad701b1e3645e2caef580eb0160403393a3005b600260ff198254161790558181526009602052604042912055600190807ff1561b9cf8e23c452e442e4d614a737ea0e0527de9ae4a72a530620a9bc665d260405180610de14282613249565b0390a29082610d4e565b600591501483610cde565b6335d9080560e01b60005260046000fd5b633e39020b60e21b60005260046000fd5b9050620151808101809111610b1d57421082610c8d565b6377b6878160e11b60005260046000fd5b3461029a57610e4e366129d1565b6000848152600260205260409020549293926001600160a01b0316156102895783156104c65782600052600a60205260406000208460005260205260ff60406000205416156104b557610f4d91604051602081017323bab0b93234b0ab30bab63a1d20ba3a32b9ba1d60611b8152856034830152601d60f91b605483015286605583015260558252610ee1607583612b26565b610f45610eee8351613397565b92603a604051938492610f3560208501977f19457468657265756d205369676e6564204d6573736167653a0a0000000000008952610409815180926020888a01910161296b565b010103601f198101835282612b26565b51902061345c565b6000828152600e602090815260408083208684529091529020546001600160a01b0316801561113e576001600160a01b03821603610494575b81600052600d6020526040600020836000526020526040600020548015159081611127575b50610e075781600052600c60205260406000208360005260205260ff60406000205416610df657816000526002602052600760406000200160ff815416600681101561065c576002811490811561111c575b50610672577f1b9ace257e9aa275598a1d9e1931613c88674a97c7d31bbe6552562679a13da09160609184600052600c6020526040600020866000526020526040600020600160ff1982541617905584600052600d6020526040600020866000526020524260406000205584600052600860205260406000206110808154612a4b565b905560009085825260086020526002604083205410156110c8575b508460005260086020526040600020546040519260018060a01b03168352602083015215156040820152a3005b600260ff1982541617905584815260096020526040429120556001847ff1561b9cf8e23c452e442e4d614a737ea0e0527de9ae4a72a530620a9bc665d2604051806111134282613249565b0390a28661109b565b600591501485610ffd565b9050620151808101809111610b1d57421084610fab565b506000828152600e60209081526040808320868452909152812080546001600160a01b0319166001600160a01b03841690811790915590849084907f3da7257c87d0b4bf595b90f8b1070d2faec72bde85a5aefce76e5106b3e45e5d9080a4610f86565b3461029a57600036600319011261029a576013546040516001600160a01b039091168152602090f35b3461029a57600036600319011261029a5760206040516301e133808152f35b3461029a57604036600319011261029a576004356000818152600260205260409020546001600160a01b031615610289576000818152600260205260409020546001600160a01b03163303610494576000526014602052602435604060002055600080f35b3461029a57602036600319011261029a576004356000818152600260205260409020546001600160a01b031615610289576000526002602052604060002060018060a01b03815416610bf6600183015492600861133761132c60028401549361131e60038201549560ff600784015416966112cc60048501612da3565b916112f46112dc60058701612da3565b956112ed604051809b819301612d20565b0389612b26565b6040519b8c9b8c5260208c015260408b015260608a015261010060808a015261010089019061292e565b9087820360a089015261292e565b9260c08601906128ed565b83820360e085015261298e565b3461029a57604036600319011261029a5761135d612893565b600435600052600360205260406000209060018060a01b0316600052602052602060ff604060002054166040519015158152f35b3461029a57600036600319011261029a576020604051620151808152f35b3461029a57602036600319011261029a576004356000818152600260205260409020546001600160a01b03161561028957610281602091613172565b3461029a57600036600319011261029a576020601254604051908152f35b3461029a57602036600319011261029a576004356000818152600260205260409020546001600160a01b03161561028957600052600260205260206040600020610bf660018060a01b038254169160086115116115066001840154936114f86002820154956114ea60038401549760ff6007860154169861148c60048701612da3565b9161149960058801612da3565b946114c16114a960068a01612df9565b986114ba604051809e819301612d20565b038c612b26565b6040519e8f9e8f908152015260408d015260608c015261012060808c01526101208b019061292e565b9089820360a08b015261292e565b9087820360c08901526128fa565b9260e08601906128ed565b83820361010085015261298e565b3461029a57600036600319011261029a57600f546040516001600160a01b039091168152602090f35b3461029a57602036600319011261029a576001600160a01b0361156961287d565b16801561158d576bffffffffffffffffffffffff60a01b600f541617600f55600080f35b63a6c1146b60e01b60005260046000fd5b3461029a57602036600319011261029a576004356000818152600260205260409020546001600160a01b031615610289576000526002602052610bf6610be26004604060002001612da3565b3461029a57600036600319011261029a576020600154604051908152f35b3461029a57602036600319011261029a576004356000818152600260205260409020546001600160a01b03161561028957600052601060205260606040600020604080519161165683612aed565b60ff815416151592838152600182015491826020830152600260018060a01b0391015416928391015260405192835260208301526040820152f35b3461029a57602036600319011261029a576004356000818152600260205260409020546001600160a01b03161561028957600052600260205260606040600020600660058201549101546116e58183612a2e565b9160405192835260208301526040820152f35b3461029a57604036600319011261029a57611711612893565b600435600052600660205260406000209060018060a01b0316600052602052602060ff604060002054166040519015158152f35b3461029a57611753366128a9565b90600052600a602052604060002090600052602052602060ff604060002054166040519015158152f35b3461029a57604036600319011261029a5760043560243567ffffffffffffffff811161029a576117b19036906004016128bf565b6000838152600260205260409020549091906001600160a01b031615610289576000838152600260205260409020546001600160a01b03163303610494576000838152600260205260409020546001600160a01b031615610289576000838152600260205260409020546001600160a01b0316156102895761183283612b64565b826000526002602052604060002060ff600782015416600681101561065c576119ff5782156119ee5760080167ffffffffffffffff83116119d8576118778154612a5a565b601f8111611990575b506000601f84116001146119085791604091847f459157ba24c7ab9878b165ef465fa6ae2ab42bcd8445f576be378768b0c4730995946000916118fd575b508460011b906000198660031b1c19161790555b82825193849260208452816020850152848401376000828201840152601f01601f19168101030190a2005b9050820135876118be565b8181526020812090601f198516815b81811061197857509160409391867f459157ba24c7ab9878b165ef465fa6ae2ab42bcd8445f576be378768b0c473099796941061195e575b5050600184811b0190556118d2565b830135600019600387901b60f8161c19169055868061194f565b91926020600181928689013581550194019201611917565b816000526020600020601f850160051c810191602086106119ce575b601f0160051c01905b8181106119c25750611880565b600081556001016119b5565b90915081906119ac565b634e487b7160e01b600052604160045260246000fd5b631559b7d760e21b60005260046000fd5b63ae0ceec760e01b60005260046000fd5b3461029a57602036600319011261029a576004356000818152600260205260409020546001600160a01b031615610289578060005260026020526040600020816000526010602052604060002060ff81541680611ac2575b611a6e57005b60010154601254611a7e91612a2e565b421015611a88575b005b600701600460ff198254161790557f1d71cd89a1cd78bca44ad23693f37cdae6b7a09e13fbe2667cd07d4f1f3fde7d6020604051428152a2005b5060ff600783015416600681101561065c57600314611a68565b3461029a57602036600319011261029a576004356000818152600260205260409020546001600160a01b031615610289576000526002602052610bf6611b286006604060002001612df9565b6040519182916020835260208301906128fa565b3461029a57602036600319011261029a576004356000818152600260205260409020546001600160a01b03161561028957611b78602091612f7b565b611b8560405180926128ed565bf35b3461029a57600036600319011261029a5760206040516276a7008152f35b3461029a57602036600319011261029a576004356000818152600260205260409020546001600160a01b03161561028957611be1604091612e51565b825191151582526020820152f35b3461029a57611bfd366128a9565b6000828152600260205260409020546001600160a01b031615610289576000828152600260205260409020546001600160a01b03163303610494576000828152600260205260409020546001600160a01b0316156102895780156104c65781600052600a60205260406000208160005260205260ff60406000205416611d51578160005260026020526040600020600660058201549101906005611ca383548093612a2e565b1015611d625760005b818110611d325750600160401b8110156119d857611ccf91600182018155612a94565b81549060031b9083821b91600019901b191617905581600052600a6020526040600020816000526020526040600020600160ff1982541617905533917fabeb4af55cfdc28272397dbb108a89ef774183b68fdd2eaea3abc3234c9d857d600080a4005b83611d3d8285612a94565b90549060031b1c14611d5157600101611cac565b636f3bdabb60e01b60005260046000fd5b6345d0f35560e01b60005260046000fd5b3461029a57602036600319011261029a5760043560026000541461212757600260005580600052600260205260018060a01b03604060002054161561028957600081815260046020908152604080832033845290915290205460ff161561211657600081815260036020908152604080832033845290915290205460ff16612105576000818152600260205260409020546001600160a01b03161561028957611e1b81612b64565b6000818152600260205260409020546001600160a01b031615610289578060005260026020526040600020816000526010602052604060002060ff815416806120eb575b61208e575b50508060005260026020526040600020906007820160ff815416600681101561065c5760048114159081612082575b506120715760008281526003602090815260408083203384529091528120805460ff1916600190811790915560048501805491925b82811061201b575b50505061200a575b5080600052601460205260406000205480151580611ff6575b611f42575b507f89263393a8b4b5b876540c973c46128a1819286122a95d26cc93f872607ec90f6040514281526040602082015280611f3833956008604084019101612d20565b0390a36001600055005b60135460405163c7d1fa9d60e01b8152600481018390523360248201529190602090839060449082906000906001600160a01b03165af160009281611fc2575b50611f8e575b50611ef6565b604051918252827faae205f838ec61ef4f20d38b040693dcd7c7fd9a4521e355a72028ce40197be160203394a48280611f88565b9092506020813d602011611fee575b81611fde60209383612b26565b8101031261029a57519185611f82565b3d9150611fd1565b506013546001600160a01b03161515611ef1565b805460ff1916600517905582611ed8565b85600052600360205260ff6040806000206120368486612a94565b905460039190911b1c6001600160a01b031660009081526020919091522054161561206357600101611ec8565b505050506000848080611ed0565b630a075a0560e41b60005260046000fd5b60029150141584611e93565b6001015460125461209e91612a2e565b4210156120ac575b80611e64565b600701600460ff19825416179055807f1d71cd89a1cd78bca44ad23693f37cdae6b7a09e13fbe2667cd07d4f1f3fde7d6020604051428152a2816120a6565b5060ff600783015416600681101561065c57600314611e5f565b630c8d9eab60e31b60005260046000fd5b63644d871f60e01b60005260046000fd5b633ee5aeb560e01b60005260046000fd5b3461029a57600036600319011261029a57602060405160038152f35b3461029a57602036600319011261029a576004356000818152600260205260409020546001600160a01b03161561028957611a8690612b64565b3461029a57602036600319011261029a576004356000818152600260205260409020546001600160a01b0316156102895760005260086020526020604060002054604051908152f35b3461029a5760e036600319011261029a5760243560443560043567ffffffffffffffff821161029a573660238301121561029a5781600401359267ffffffffffffffff841161029a576024830192602436918660051b01011161029a573660c41161029a5760c43567ffffffffffffffff811161029a5761225c9036906004016128bf565b909362278d0084108015612786575b6127755762093a8083108015612769575b612758578515801561274e575b61273d5781156119ee5760005b600381106126b1575060005b8681106125b45750600154946122b786612a4b565b6001908155600087815260026020819052604090912080546001600160a01b03191633178155918201879055810185905542600382015592600884019167ffffffffffffffff82116119d857819061230f8454612a5a565b601f8111612561575b50600090601f83116001146124fb576000926124f0575b50508160011b916000199060031b1c19161790555b60078201805460ff19169055600482019060005b8781106124985750505060050160005b60038110612444575050608091604051946123838487612b26565b60038652601f19840136602088013760005b600381106123f55750917ff32ee6327d6e2c0d65b12a134953fc4e7aecd0271ab62b35fe4cea2b89cf23ed916123ea602097879560405194859485528a8501526040840152866060840152339683019061292e565b0390a3604051908152f35b61240661240182612a08565b612a1a565b90875181101561242e576001600160a01b03909116600582901b880160200152600101612395565b634e487b7160e01b600052603260045260246000fd5b8061245c612456612401600194612a08565b84612aac565b85600052600560205260408060002061247761240184612a08565b90600091858060a01b03168252602052208260ff1982541617905501612368565b806124b26124ac6124016001948c87612a3b565b85612aac565b8760005260046020526040806000206124cf612401848d88612a3b565b90600091858060a01b03168252602052208260ff1982541617905501612358565b01359050898061232f565b84825260208220925090601f198416815b818110612549575090846001959493921061252f575b505050811b019055612344565b0135600019600384901b60f8161c19169055898080612522565b9193602060018192878701358155019501920161250c565b909150836000526020600020601f840160051c810191602085106125aa575b90601f859493920160051c01905b81811061259b5750612318565b6000815584935060010161258e565b9091508190612580565b6001600160a01b036125ca612401838a86612a3b565b16156119ee57336001600160a01b036125e7612401848b87612a3b565b16146119ee5760005b60038110612664575060018101808211610b1d575b87811061261557506001016122a2565b612623612401838a86612a3b565b6001600160a01b03612639612401848c88612a3b565b6001600160a01b0390921691161461265357600101612605565b631abd4ef760e21b60005260046000fd5b612672612401838a86612a3b565b6001600160a01b0361268661240184612a08565b6001600160a01b039092169116146126a0576001016125f0565b635886af2560e01b60005260046000fd5b6001600160a01b036126c561240183612a08565b161561158d57336001600160a01b036126e061240184612a08565b161461158d5760018101808211610b1d575b600381106127035750600101612296565b61270f61240183612a08565b6001600160a01b0361272361240184612a08565b6001600160a01b03909216911614611d51576001016126f2565b636849c3cf60e01b60005260046000fd5b50600a8611612289565b63d7c43e0f60e01b60005260046000fd5b506276a700831161227c565b63ab257c7f60e01b60005260046000fd5b506301e13380841161226b565b3461029a576127a1366128a9565b90600052600e602052604060002090600052602052602060018060a01b0360406000205416604051908152f35b3461029a57600036600319011261029a576020604051600a8152f35b3461029a576127f8366128a9565b90600052600c602052604060002090600052602052602060ff604060002054166040519015158152f35b3461029a57600036600319011261029a578062278d0060209252f35b3461029a57602036600319011261029a576001600160a01b0361285f61287d565b166bffffffffffffffffffffffff60a01b6013541617601355600080f35b600435906001600160a01b038216820361029a57565b602435906001600160a01b038216820361029a57565b604090600319011261029a576004359060243590565b9181601f8401121561029a5782359167ffffffffffffffff831161029a576020838186019501011161029a57565b90600682101561065c5752565b906020808351928381520192019060005b8181106129185750505090565b825184526020938401939092019160010161290b565b906020808351928381520192019060005b81811061294c5750505090565b82516001600160a01b031684526020938401939092019160010161293f565b60005b83811061297e5750506000910152565b818101518382015260200161296e565b906020916129a78151809281855285808601910161296b565b601f01601f1916010190565b3461029a57600036600319011261029a57602060405162093a808152f35b606060031982011261029a5760043591602435916044359067ffffffffffffffff821161029a57612a04916004016128bf565b9091565b600381101561242e5760051b60640190565b356001600160a01b038116810361029a5790565b91908201809211610b1d57565b919081101561242e5760051b0190565b6000198114610b1d5760010190565b90600182811c92168015612a8a575b6020831014612a7457565b634e487b7160e01b600052602260045260246000fd5b91607f1691612a69565b805482101561242e5760005260206000200190600090565b8054600160401b8110156119d857612ac991600182018155612a94565b81546001600160a01b0393841660039290921b91821b9390911b1916919091179055565b6060810190811067ffffffffffffffff8211176119d857604052565b610120810190811067ffffffffffffffff8211176119d857604052565b90601f8019910116810190811067ffffffffffffffff8211176119d857604052565b67ffffffffffffffff81116119d857601f01601f191660200190565b8060005260026020526040600020600781019060ff825416906006821015928361065c57600583148015612d12575b848115612d02575b8115612cf2575b50612c3a57612bc86002612bbf6003850154600186015490612a2e565b93015483612a2e565b602092604051612bd88582612b26565b6000815291421115612cd75750506002926040948551612bf88782612b26565b600c81526b1d1a5b5957d95e1c1a5c995960a21b85820152958760005260098552806000205415612cc3575b505b61065c57600684101561065c578303612c41575b5050505050565b60ff1981541660ff84161790556002821480612cb9575b612c63575b80612c3a565b612cad7ff1561b9cf8e23c452e442e4d614a737ea0e0527de9ae4a72a530620a9bc665d293612c9c6040519485944286528501906128ed565b60606040840152606083019061298e565b0390a238808080612c5d565b5082511515612c58565b876000526009855242906000205538612c24565b90949390421115612cea57600193612c26565b600093612c26565b905061065c576004831484612ba2565b905061065c576003831484612b9b565b506000935060028314612b93565b60009291815491612d3083612a5a565b8083529260018116908115612d865750600114612d4c57505050565b60009081526020812093945091925b838310612d6c575060209250010190565b600181602092949394548385870101520191019190612d5b565b915050602093945060ff929192191683830152151560051b010190565b906040519182815491828252602082019060005260206000209260005b818110612dd7575050612dd592500383612b26565b565b84546001600160a01b0316835260019485019487945060209093019201612dc0565b906040519182815491828252602082019060005260206000209260005b818110612e2b575050612dd592500383612b26565b8454835260019485019487945060209093019201612e16565b91908203918211610b1d57565b9081600052600260205260406000209160405192612e6e84612b09565b80546001600160a01b03168452600181015460208501526002810154604085015260038101546060850152612ea560048201612da3565b6080850152612eb660058201612da3565b60a0850152612ec760068201612df9565b60c085015260ff6007820154169060e0850194600683101561065c57612f06610100926008948852612eff6040518096819301612d20565b0384612b26565b01526000526009602052604060002054915191600683101561065c57600260009314801590612f73575b612f5a5762093a808101809111612f5f57804211612f5a57612f559192504290612e44565b600191565b508190565b634e487b7160e01b83526011600452602483fd5b508015612f30565b80600052600260205260406000209060405191612f9783612b09565b60018060a01b038154168352600181015490602084019182526002810154926040850193845260038201549160608601928352612fd660048201612da3565b6080870152612fe760058201612da3565b60a0870152612ff860068201612df9565b60c087015260ff6007820154169060e0870196600683101561065c57613030610100926008948a52612eff6040518096819301612d20565b01526000526010602052604060002060405161304b81612aed565b815460ff1615158082526001830154602083019081526002909301546001600160a01b03166040909201919091528061315e575b61313a5750835193600685101561065c576005600095148015613126575b6130eb5780516006811015613112576002146130eb57506130cd916130c59151905190612a2e565b915182612a2e565b4211156130db575050600290565b4211156130e85750600190565b90565b92505050519060068210156130fe575090565b634e487b7160e01b81526021600452602490fd5b634e487b7160e01b86526021600452602486fd5b50805160068110156131125760041461309d565b9250505061314d91505160125490612a2e565b42101561315957600390565b600490565b508451600681101561065c5760031461307f565b600052600260205260406000206040519061318c82612b09565b80546001600160a01b031682526001810154602083019081526002820154604084015260038201546060840190815290916131c960048201612da3565b60808501526131da60058201612da3565b60a08501526131eb60068201612df9565b60c085015260ff60078201541690600682101561065c57846132256101009260089460e0613230990152612eff6040518096819301612d20565b015251905190612a2e565b80421015613243576130e8904290612e44565b50600090565b908152806002602060a093015260606040820152601460608201527333bab0b93234b0b72fb0ba3a32b9ba30ba34b7b760611b60808201520190565b6000526010602052604060002060405161329e81612aed565b60ff8254161590811581526040600184015493846020840152600260018060a01b0391015416910152613243576012546130e891612a2e565b600052600260205260406000206040516132f081612b09565b81546001600160a01b031681526001820154602082019081526002830154604083019081526003840154606084019081529092919061333160048601612da3565b608084015261334260058601612da3565b60a084015261335360068601612df9565b60c084015260ff600786015416600681101561065c57610100846132256132309860089460e061338f990152612eff6040518096819301612d20565b905190612a2e565b801561343c57600081805b61342857506133b081612b48565b906133be6040519283612b26565b808252601f196133cd82612b48565b013660208401375b808315613421578015610b1d576000190192600a81066030019182603011610b1d57835185101561242e57600a9260f81b6001600160f81b03191660001a908401601f015304916133d5565b5050905090565b90613434600a91612a4b565b9104806133a2565b5060405161344b604082612b26565b60018152600360fc1b602082015290565b9160410361352e57604081013560001a601b811061350c575b60ff1690601b82148015613502575b156134c9576020928360809260009460405193845282840152803560408401520135606082015282805260015afa156134bd5760005190565b6040513d6000823e3d90fd5b60405162461bcd60e51b8152602060048201526011602482015270496e76616c6964207369676e617475726560781b6044820152606490fd5b50601c8214613484565b601b0160ff81111561347557634e487b7160e01b600052601160045260246000fd5b60405162461bcd60e51b815260206004820152601860248201527f496e76616c6964207369676e6174757265206c656e67746800000000000000006044820152606490fd5b6001549060005b82811061358a5750505060001990565b6000818152600260205260409020546001600160a01b03838116911614806135bf575b6135b95760010161357a565b91505090565b5080600052600260205260ff60076040600020015416600681101561065c57600514156135ad56fea26469706673582212206f0b2ba1ce0350f1f51edbe1de3d52d778639d4fb27089ed8344c7dc820b8d1264736f6c634300081a0033",
          "opcodes": "PUSH1 0x80 DUP1 PUSH1 0x40 MSTORE CALLVALUE PUSH1 0x33 JUMPI PUSH1 0x1 PUSH1 0x0 SSTORE PUSH1 0xF DUP1 SLOAD PUSH1 0x1 PUSH1 0x1 PUSH1 0xA0 SHL SUB NOT AND CALLER OR SWAP1 SSTORE PUSH3 0x93A80 PUSH1 0x12 SSTORE PUSH2 0x361D SWAP1 DUP2 PUSH2 0x39 DUP3 CODECOPY RETURN JUMPDEST PUSH1 0x0 DUP1 REVERT INVALID PUSH1 0x80 DUP1 PUSH1 0x40 MSTORE PUSH1 0x4 CALLDATASIZE LT ISZERO PUSH2 0x13 JUMPI PUSH1 0x0 DUP1 REVERT JUMPDEST PUSH1 0x0 CALLDATALOAD PUSH1 0xE0 SHR SWAP1 DUP2 PUSH4 0x137C3F69 EQ PUSH2 0x283E JUMPI DUP2 PUSH4 0x161195C6 EQ PUSH2 0x2822 JUMPI POP DUP1 PUSH4 0x18188D5A EQ PUSH2 0x27EA JUMPI DUP1 PUSH4 0x2348DD18 EQ PUSH2 0x27CE JUMPI DUP1 PUSH4 0x264BE8F1 EQ PUSH2 0x2793 JUMPI DUP1 PUSH4 0x2B039C27 EQ PUSH2 0x21D7 JUMPI DUP1 PUSH4 0x2F60062E EQ PUSH2 0x218E JUMPI DUP1 PUSH4 0x360E548E EQ PUSH2 0x2154 JUMPI DUP1 PUSH4 0x36ACBE19 EQ PUSH2 0x2138 JUMPI DUP1 PUSH4 0x379607F5 EQ PUSH2 0x1D73 JUMPI DUP1 PUSH4 0x3AEABA45 EQ PUSH2 0x1BEF JUMPI DUP1 PUSH4 0x439FAB07 EQ PUSH2 0x1BA5 JUMPI DUP1 PUSH4 0x46619649 EQ PUSH2 0x1B87 JUMPI DUP1 PUSH4 0x49EBB77D EQ PUSH2 0x1B3C JUMPI DUP1 PUSH4 0x4DF306EF EQ PUSH2 0x1ADC JUMPI DUP1 PUSH4 0x52646F2F EQ PUSH2 0x1A10 JUMPI DUP1 PUSH4 0x53C8388E EQ PUSH2 0x177D JUMPI DUP1 PUSH4 0x56CB2B61 EQ PUSH2 0x1745 JUMPI DUP1 PUSH4 0x6281E5FB EQ PUSH2 0x16F8 JUMPI DUP1 PUSH4 0x75EC260E EQ PUSH2 0x1691 JUMPI DUP1 PUSH4 0x7677F326 EQ PUSH2 0x1608 JUMPI DUP1 PUSH4 0x76A89BCA EQ PUSH2 0x15EA JUMPI DUP1 PUSH4 0x783804D9 EQ PUSH2 0x159E JUMPI DUP1 PUSH4 0x7ADBF973 EQ PUSH2 0x1548 JUMPI DUP1 PUSH4 0x7DC0D1D0 EQ PUSH2 0x151F JUMPI DUP1 PUSH4 0x7F446351 EQ PUSH2 0x1409 JUMPI DUP1 PUSH4 0x8015F929 EQ PUSH2 0x13EB JUMPI DUP1 PUSH4 0x853AEC0F EQ PUSH2 0x13AF JUMPI DUP1 PUSH4 0x85DA5C15 EQ PUSH2 0x1391 JUMPI DUP1 PUSH4 0x873F6F9E EQ PUSH2 0x1344 JUMPI DUP1 PUSH4 0x883A0038 EQ PUSH2 0xB44 JUMPI DUP1 PUSH4 0x9403B634 EQ PUSH2 0x124F JUMPI DUP1 PUSH4 0x97657E89 EQ PUSH2 0x11EA JUMPI DUP1 PUSH4 0xA11FEE93 EQ PUSH2 0x11CB JUMPI DUP1 PUSH4 0xA7F8A5E2 EQ PUSH2 0x11A2 JUMPI DUP1 PUSH4 0xB4FC0663 EQ PUSH2 0xE40 JUMPI DUP1 PUSH4 0xB9683678 EQ PUSH2 0xC16 JUMPI DUP1 PUSH4 0xC165C1C9 EQ PUSH2 0xB44 JUMPI DUP1 PUSH4 0xC2E4C633 EQ PUSH2 0xBFA JUMPI DUP1 PUSH4 0xC3DAFBF0 EQ PUSH2 0xB96 JUMPI DUP1 PUSH4 0xC773D96D EQ PUSH2 0xB49 JUMPI DUP1 PUSH4 0xCBC5539A EQ PUSH2 0xB44 JUMPI DUP1 PUSH4 0xCD444466 EQ PUSH2 0x8D2 JUMPI DUP1 PUSH4 0xDBF6BE82 EQ PUSH2 0x879 JUMPI DUP1 PUSH4 0xE95A644F EQ PUSH2 0x6FC JUMPI DUP1 PUSH4 0xE9783E60 EQ PUSH2 0x6AF JUMPI DUP1 PUSH4 0xE9E55583 EQ PUSH2 0x4D7 JUMPI DUP1 PUSH4 0xEB1F9F60 EQ PUSH2 0x2DB JUMPI DUP1 PUSH4 0xEE7DA0DF EQ PUSH2 0x29F JUMPI PUSH4 0xFE9F5569 EQ PUSH2 0x245 JUMPI PUSH1 0x0 DUP1 REVERT JUMPDEST CALLVALUE PUSH2 0x29A JUMPI PUSH1 0x20 CALLDATASIZE PUSH1 0x3 NOT ADD SLT PUSH2 0x29A JUMPI PUSH1 0x4 CALLDATALOAD PUSH1 0x0 DUP2 DUP2 MSTORE PUSH1 0x2 PUSH1 0x20 MSTORE PUSH1 0x40 SWAP1 KECCAK256 SLOAD PUSH1 0x1 PUSH1 0x1 PUSH1 0xA0 SHL SUB AND ISZERO PUSH2 0x289 JUMPI PUSH2 0x281 PUSH1 0x20 SWAP2 PUSH2 0x32D7 JUMP JUMPDEST PUSH1 0x40 MLOAD SWAP1 DUP2 MSTORE RETURN JUMPDEST PUSH4 0xDEE790FB PUSH1 0xE0 SHL PUSH1 0x0 MSTORE PUSH1 0x4 PUSH1 0x0 REVERT JUMPDEST PUSH1 0x0 DUP1 REVERT JUMPDEST CALLVALUE PUSH2 0x29A JUMPI PUSH1 0x20 CALLDATASIZE PUSH1 0x3 NOT ADD SLT PUSH2 0x29A JUMPI PUSH1 0x4 CALLDATALOAD PUSH1 0x0 DUP2 DUP2 MSTORE PUSH1 0x2 PUSH1 0x20 MSTORE PUSH1 0x40 SWAP1 KECCAK256 SLOAD PUSH1 0x1 PUSH1 0x1 PUSH1 0xA0 SHL SUB AND ISZERO PUSH2 0x289 JUMPI PUSH2 0x281 PUSH1 0x20 SWAP2 PUSH2 0x3285 JUMP JUMPDEST CALLVALUE PUSH2 0x29A JUMPI PUSH2 0x2E9 CALLDATASIZE PUSH2 0x29D1 JUMP JUMPDEST PUSH1 0x0 DUP5 DUP2 MSTORE PUSH1 0x2 PUSH1 0x20 MSTORE PUSH1 0x40 SWAP1 KECCAK256 SLOAD SWAP1 SWAP2 SWAP1 PUSH1 0x1 PUSH1 0x1 PUSH1 0xA0 SHL SUB AND ISZERO PUSH2 0x289 JUMPI DUP3 ISZERO PUSH2 0x4C6 JUMPI DUP4 PUSH1 0x0 MSTORE PUSH1 0xA PUSH1 0x20 MSTORE PUSH1 0x40 PUSH1 0x0 KECCAK256 DUP4 PUSH1 0x0 MSTORE PUSH1 0x20 MSTORE PUSH1 0xFF PUSH1 0x40 PUSH1 0x0 KECCAK256 SLOAD AND ISZERO PUSH2 0x4B5 JUMPI DUP4 PUSH1 0x0 MSTORE PUSH1 0xE PUSH1 0x20 MSTORE PUSH1 0x40 PUSH1 0x0 KECCAK256 DUP4 PUSH1 0x0 MSTORE PUSH1 0x20 MSTORE PUSH1 0x1 DUP1 PUSH1 0xA0 SHL SUB PUSH1 0x40 PUSH1 0x0 KECCAK256 SLOAD AND PUSH2 0x4A4 JUMPI PUSH2 0x43A PUSH1 0x40 MLOAD SWAP3 PUSH1 0x20 DUP5 ADD SWAP3 PUSH18 0x23BAB0B93234B0AB30BAB63A1D2634B7359D PUSH1 0x71 SHL DUP5 MSTORE DUP7 PUSH1 0x32 DUP7 ADD MSTORE PUSH1 0x1D PUSH1 0xF9 SHL PUSH1 0x52 DUP7 ADD MSTORE DUP6 PUSH1 0x53 DUP7 ADD MSTORE PUSH1 0x1D PUSH1 0xF9 SHL PUSH1 0x73 DUP7 ADD MSTORE CALLER PUSH1 0x60 SHL PUSH1 0x74 DUP7 ADD MSTORE PUSH1 0x68 DUP6 MSTORE PUSH2 0x3B5 PUSH1 0x88 DUP7 PUSH2 0x2B26 JUMP JUMPDEST PUSH2 0x428 PUSH2 0x3C2 DUP7 MLOAD PUSH2 0x3397 JUMP JUMPDEST SWAP6 PUSH1 0x3A PUSH1 0x40 MLOAD SWAP7 DUP8 SWAP3 PUSH2 0x418 PUSH1 0x20 DUP6 ADD SWAP11 PUSH32 0x19457468657265756D205369676E6564204D6573736167653A0A000000000000 DUP13 MSTORE PUSH2 0x409 DUP2 MLOAD DUP1 SWAP3 PUSH1 0x20 DUP9 DUP11 ADD SWAP2 ADD PUSH2 0x296B JUMP JUMPDEST DUP6 ADD SWAP2 MLOAD DUP1 SWAP4 DUP6 DUP5 ADD SWAP1 PUSH2 0x296B JUMP JUMPDEST ADD ADD SUB PUSH1 0x1F NOT DUP2 ADD DUP7 MSTORE DUP6 PUSH2 0x2B26 JUMP JUMPDEST CALLER SWAP5 PUSH1 0x1 DUP1 PUSH1 0xA0 SHL SUB SWAP5 MLOAD SWAP1 KECCAK256 PUSH2 0x345C JUMP JUMPDEST AND SUB PUSH2 0x494 JUMPI PUSH1 0x0 DUP3 DUP2 MSTORE PUSH1 0xE PUSH1 0x20 SWAP1 DUP2 MSTORE PUSH1 0x40 DUP1 DUP4 KECCAK256 DUP5 DUP5 MSTORE SWAP1 SWAP2 MSTORE DUP2 KECCAK256 DUP1 SLOAD PUSH1 0x1 PUSH1 0x1 PUSH1 0xA0 SHL SUB NOT AND CALLER SWAP1 DUP2 OR SWAP1 SWAP2 SSTORE SWAP3 SWAP1 PUSH32 0x3DA7257C87D0B4BF595B90F8B1070D2FAEC72BDE85A5AEFCE76E5106B3E45E5D SWAP1 DUP1 LOG4 STOP JUMPDEST PUSH3 0x82B429 PUSH1 0xE8 SHL PUSH1 0x0 MSTORE PUSH1 0x4 PUSH1 0x0 REVERT JUMPDEST PUSH4 0xAF21FB3 PUSH1 0xE3 SHL PUSH1 0x0 MSTORE PUSH1 0x4 PUSH1 0x0 REVERT JUMPDEST PUSH4 0xE5A23C7 PUSH1 0xE3 SHL PUSH1 0x0 MSTORE PUSH1 0x4 PUSH1 0x0 REVERT JUMPDEST PUSH4 0x7E026165 PUSH1 0xE1 SHL PUSH1 0x0 MSTORE PUSH1 0x4 PUSH1 0x0 REVERT JUMPDEST CALLVALUE PUSH2 0x29A JUMPI PUSH1 0x20 CALLDATASIZE PUSH1 0x3 NOT ADD SLT PUSH2 0x29A JUMPI PUSH2 0x4F0 PUSH2 0x287D JUMP JUMPDEST PUSH1 0x1 DUP1 PUSH1 0xA0 SHL SUB PUSH1 0xF SLOAD AND DUP1 CALLER EQ ISZERO SWAP1 DUP2 PUSH2 0x6A5 JUMPI JUMPDEST POP PUSH2 0x694 JUMPI PUSH2 0x514 DUP2 PUSH2 0x3573 JUMP JUMPDEST SWAP1 PUSH1 0x0 NOT DUP3 EQ PUSH2 0x289 JUMPI DUP2 PUSH1 0x0 MSTORE PUSH1 0x2 PUSH1 0x20 MSTORE PUSH1 0x40 PUSH1 0x0 KECCAK256 SWAP1 DUP3 PUSH1 0x0 MSTORE PUSH1 0x10 PUSH1 0x20 MSTORE PUSH1 0x40 PUSH1 0x0 KECCAK256 SWAP2 DUP3 SLOAD SWAP1 PUSH1 0xFF DUP3 AND PUSH2 0x683 JUMPI PUSH1 0x7 ADD SWAP3 PUSH1 0xFF DUP5 SLOAD AND PUSH1 0x6 DUP2 LT ISZERO PUSH2 0x65C JUMPI PUSH1 0x5 EQ PUSH2 0x672 JUMPI PUSH1 0x1 PUSH1 0xFF NOT SWAP3 SWAP1 SWAP3 AND DUP3 OR DUP2 SSTORE TIMESTAMP SWAP2 DUP2 ADD DUP3 SWAP1 SSTORE PUSH1 0x2 ADD DUP1 SLOAD CALLER PUSH1 0x1 PUSH1 0x1 PUSH1 0xA0 SHL SUB NOT SWAP1 SWAP2 AND OR SWAP1 SSTORE PUSH1 0x0 DUP5 DUP2 MSTORE PUSH1 0x11 PUSH1 0x20 MSTORE PUSH1 0x40 SWAP1 KECCAK256 SSTORE DUP2 SLOAD PUSH1 0xFF AND PUSH1 0x6 DUP2 LT ISZERO PUSH2 0x65C JUMPI PUSH1 0x2 DUP2 EQ ISZERO SWAP1 DUP2 PUSH2 0x650 JUMPI JUMPDEST POP PUSH2 0x640 JUMPI JUMPDEST PUSH1 0x12 SLOAD SWAP1 PUSH2 0x5C6 DUP3 TIMESTAMP PUSH2 0x2A2E JUMP JUMPDEST PUSH1 0x40 MLOAD SWAP1 TIMESTAMP DUP3 MSTORE PUSH1 0x20 DUP3 ADD MSTORE DUP5 PUSH32 0x83B640A84B5058B01BDC07BBC23862E5969DBEDF201193506C77272ADEF0FCA PUSH1 0x40 CALLER SWAP5 PUSH1 0x1 DUP1 PUSH1 0xA0 SHL SUB AND SWAP4 LOG4 ISZERO PUSH2 0x609 JUMPI STOP JUMPDEST PUSH1 0x4 PUSH1 0xFF NOT DUP3 SLOAD AND OR SWAP1 SSTORE PUSH32 0x1D71CD89A1CD78BCA44AD23693F37CDAE6B7A09E13FBE2667CD07D4F1F3FDE7D PUSH1 0x20 PUSH1 0x40 MLOAD TIMESTAMP DUP2 MSTORE LOG2 STOP JUMPDEST DUP2 SLOAD PUSH1 0xFF NOT AND PUSH1 0x3 OR DUP3 SSTORE PUSH2 0x5B8 JUMP JUMPDEST PUSH1 0x4 SWAP2 POP EQ ISZERO DUP5 PUSH2 0x5B2 JUMP JUMPDEST PUSH4 0x4E487B71 PUSH1 0xE0 SHL PUSH1 0x0 MSTORE PUSH1 0x21 PUSH1 0x4 MSTORE PUSH1 0x24 PUSH1 0x0 REVERT JUMPDEST PUSH4 0x7A92F19 PUSH1 0xE5 SHL PUSH1 0x0 MSTORE PUSH1 0x4 PUSH1 0x0 REVERT JUMPDEST PUSH4 0xC6F37F7 PUSH1 0xE2 SHL PUSH1 0x0 MSTORE PUSH1 0x4 PUSH1 0x0 REVERT JUMPDEST PUSH4 0x80FEE105 PUSH1 0xE0 SHL PUSH1 0x0 MSTORE PUSH1 0x4 PUSH1 0x0 REVERT JUMPDEST SWAP1 POP ISZERO ISZERO DUP3 PUSH2 0x506 JUMP JUMPDEST CALLVALUE PUSH2 0x29A JUMPI PUSH1 0x40 CALLDATASIZE PUSH1 0x3 NOT ADD SLT PUSH2 0x29A JUMPI PUSH2 0x6C8 PUSH2 0x2893 JUMP JUMPDEST PUSH1 0x4 CALLDATALOAD PUSH1 0x0 MSTORE PUSH1 0x4 PUSH1 0x20 MSTORE PUSH1 0x40 PUSH1 0x0 KECCAK256 SWAP1 PUSH1 0x1 DUP1 PUSH1 0xA0 SHL SUB AND PUSH1 0x0 MSTORE PUSH1 0x20 MSTORE PUSH1 0x20 PUSH1 0xFF PUSH1 0x40 PUSH1 0x0 KECCAK256 SLOAD AND PUSH1 0x40 MLOAD SWAP1 ISZERO ISZERO DUP2 MSTORE RETURN JUMPDEST CALLVALUE PUSH2 0x29A JUMPI PUSH1 0x20 CALLDATASIZE PUSH1 0x3 NOT ADD SLT PUSH2 0x29A JUMPI PUSH1 0x4 CALLDATALOAD PUSH1 0x0 DUP2 DUP2 MSTORE PUSH1 0x2 PUSH1 0x20 MSTORE PUSH1 0x40 SWAP1 KECCAK256 SLOAD PUSH1 0x1 PUSH1 0x1 PUSH1 0xA0 SHL SUB AND ISZERO PUSH2 0x289 JUMPI PUSH1 0x0 DUP2 DUP2 MSTORE PUSH1 0x2 PUSH1 0x20 MSTORE PUSH1 0x40 SWAP1 KECCAK256 SLOAD PUSH1 0x1 PUSH1 0x1 PUSH1 0xA0 SHL SUB AND CALLER SUB PUSH2 0x494 JUMPI DUP1 PUSH1 0x0 MSTORE PUSH1 0x2 PUSH1 0x20 MSTORE PUSH1 0x40 PUSH1 0x0 KECCAK256 PUSH1 0x7 DUP2 ADD PUSH1 0xFF DUP2 SLOAD AND PUSH1 0x6 DUP2 LT ISZERO PUSH2 0x65C JUMPI PUSH1 0x2 DUP2 EQ SWAP1 DUP2 ISZERO PUSH2 0x86E JUMPI JUMPDEST POP PUSH2 0x672 JUMPI PUSH1 0x0 DUP4 DUP2 MSTORE PUSH1 0x2 PUSH1 0x20 MSTORE PUSH1 0x40 SWAP1 KECCAK256 SLOAD PUSH1 0x1 PUSH1 0x1 PUSH1 0xA0 SHL SUB AND ISZERO PUSH2 0x289 JUMPI PUSH2 0x7A2 DUP4 PUSH2 0x2B64 JUMP JUMPDEST PUSH1 0xFF DUP2 SLOAD AND PUSH1 0x6 DUP2 LT ISZERO PUSH2 0x65C JUMPI PUSH1 0x2 EQ PUSH2 0x672 JUMPI TIMESTAMP PUSH1 0x3 DUP4 ADD SSTORE PUSH1 0xFF NOT DUP2 SLOAD AND SWAP1 SSTORE DUP2 PUSH1 0x0 MSTORE PUSH1 0x8 PUSH1 0x20 MSTORE PUSH1 0x0 PUSH1 0x40 DUP2 KECCAK256 SSTORE PUSH1 0x0 PUSH1 0x5 DUP3 ADD SWAP1 JUMPDEST DUP2 SLOAD DUP2 LT ISZERO PUSH2 0x82E JUMPI PUSH1 0x1 SWAP1 DUP5 PUSH1 0x0 MSTORE PUSH1 0x6 PUSH1 0x20 MSTORE PUSH1 0x40 DUP1 PUSH1 0x0 KECCAK256 PUSH2 0x802 DUP4 DUP7 PUSH2 0x2A94 JUMP JUMPDEST SWAP1 SLOAD PUSH1 0x3 SWAP2 SWAP1 SWAP2 SHL SHR PUSH1 0xA0 DUP6 SWAP1 SHL DUP6 SWAP1 SUB AND PUSH1 0x0 SWAP1 DUP2 MSTORE PUSH1 0x20 SWAP2 SWAP1 SWAP2 MSTORE KECCAK256 DUP1 SLOAD PUSH1 0xFF NOT AND SWAP1 SSTORE ADD PUSH2 0x7DD JUMP JUMPDEST DUP4 PUSH32 0x72DBB658922B3FAC69A03E69848AD6AD5E2BE500F0D5B7EE624523960DAB2CC1 PUSH1 0x40 PUSH2 0x860 PUSH1 0x1 DUP8 ADD SLOAD TIMESTAMP PUSH2 0x2A2E JUMP JUMPDEST DUP2 MLOAD SWAP1 TIMESTAMP DUP3 MSTORE PUSH1 0x20 DUP3 ADD MSTORE LOG2 STOP JUMPDEST PUSH1 0x5 SWAP2 POP EQ DUP5 PUSH2 0x777 JUMP JUMPDEST CALLVALUE PUSH2 0x29A JUMPI PUSH1 0x20 CALLDATASIZE PUSH1 0x3 NOT ADD SLT PUSH2 0x29A JUMPI PUSH1 0x4 CALLDATALOAD PUSH3 0x76A700 DUP2 GT PUSH2 0x89C JUMPI PUSH1 0x12 SSTORE STOP JUMPDEST PUSH1 0x40 MLOAD PUSH3 0x461BCD PUSH1 0xE5 SHL DUP2 MSTORE PUSH1 0x20 PUSH1 0x4 DUP3 ADD MSTORE PUSH1 0xE PUSH1 0x24 DUP3 ADD MSTORE PUSH14 0x44656C617920746F6F206C6F6E67 PUSH1 0x90 SHL PUSH1 0x44 DUP3 ADD MSTORE PUSH1 0x64 SWAP1 REVERT JUMPDEST CALLVALUE PUSH2 0x29A JUMPI PUSH1 0x20 CALLDATASIZE PUSH1 0x3 NOT ADD SLT PUSH2 0x29A JUMPI PUSH1 0x4 CALLDATALOAD PUSH1 0x0 DUP2 DUP2 MSTORE PUSH1 0x2 PUSH1 0x20 MSTORE PUSH1 0x40 SWAP1 KECCAK256 SLOAD PUSH1 0x1 PUSH1 0x1 PUSH1 0xA0 SHL SUB AND ISZERO PUSH2 0x289 JUMPI PUSH1 0x0 DUP2 DUP2 MSTORE PUSH1 0x2 PUSH1 0x20 MSTORE PUSH1 0x40 SWAP1 KECCAK256 SLOAD PUSH1 0x1 PUSH1 0x1 PUSH1 0xA0 SHL SUB AND CALLER SUB PUSH2 0x494 JUMPI PUSH1 0x0 DUP2 DUP2 MSTORE PUSH1 0x2 PUSH1 0x20 MSTORE PUSH1 0x40 SWAP1 KECCAK256 SLOAD PUSH1 0x1 PUSH1 0x1 PUSH1 0xA0 SHL SUB AND ISZERO PUSH2 0x289 JUMPI DUP1 PUSH1 0x0 MSTORE PUSH1 0x2 PUSH1 0x20 MSTORE PUSH1 0x40 PUSH1 0x0 KECCAK256 PUSH1 0x7 DUP2 ADD PUSH1 0xFF DUP2 SLOAD AND PUSH1 0x6 DUP2 LT ISZERO PUSH2 0x65C JUMPI PUSH1 0x2 SUB PUSH2 0xB33 JUMPI DUP3 PUSH1 0x0 MSTORE PUSH1 0x9 PUSH1 0x20 MSTORE PUSH1 0x40 PUSH1 0x0 KECCAK256 SLOAD DUP1 ISZERO PUSH2 0xB33 JUMPI PUSH3 0x93A80 DUP2 ADD DUP1 SWAP2 GT PUSH2 0xB1D JUMPI TIMESTAMP GT PUSH2 0xB0C JUMPI PUSH1 0xFF NOT DUP2 SLOAD AND SWAP1 SSTORE TIMESTAMP PUSH1 0x3 DUP3 ADD SSTORE DUP2 PUSH1 0x0 MSTORE PUSH1 0x8 PUSH1 0x20 MSTORE PUSH1 0x0 PUSH1 0x40 DUP2 KECCAK256 SSTORE PUSH1 0x0 PUSH1 0x5 DUP3 ADD SWAP1 JUMPDEST DUP2 SLOAD DUP2 LT ISZERO PUSH2 0xA35 JUMPI PUSH1 0x1 SWAP1 DUP5 PUSH1 0x0 MSTORE PUSH1 0x6 PUSH1 0x20 MSTORE PUSH1 0x40 DUP1 PUSH1 0x0 KECCAK256 PUSH2 0x9D8 DUP4 DUP7 PUSH2 0x2A94 JUMP JUMPDEST SWAP1 SLOAD PUSH1 0x3 SWAP2 SWAP1 SWAP2 SHL SHR PUSH1 0xA0 DUP6 SWAP1 SHL DUP6 SWAP1 SUB AND PUSH1 0x0 SWAP1 DUP2 MSTORE PUSH1 0x20 SWAP2 DUP3 MSTORE SWAP2 DUP3 KECCAK256 DUP1 SLOAD PUSH1 0xFF NOT AND SWAP1 SSTORE DUP7 DUP3 MSTORE PUSH1 0x7 SWAP1 MSTORE PUSH1 0x40 DUP1 DUP3 KECCAK256 PUSH2 0xA15 DUP5 DUP8 PUSH2 0x2A94 JUMP JUMPDEST SWAP1 SLOAD PUSH1 0x3 SWAP2 SWAP1 SWAP2 SHL SHR PUSH1 0xA0 DUP7 SWAP1 SHL DUP7 SWAP1 SUB AND DUP4 MSTORE PUSH1 0x20 MSTORE DUP2 KECCAK256 SSTORE ADD PUSH2 0x9B3 JUMP JUMPDEST POP POP PUSH1 0x6 DUP2 ADD PUSH1 0x0 JUMPDEST DUP2 SLOAD DUP2 LT ISZERO PUSH2 0xA9F JUMPI DUP1 PUSH2 0xA54 PUSH1 0x1 SWAP3 DUP5 PUSH2 0x2A94 JUMP JUMPDEST SWAP1 SLOAD SWAP1 PUSH1 0x3 SHL SHR DUP6 PUSH1 0x0 MSTORE PUSH1 0xC PUSH1 0x20 MSTORE PUSH1 0x40 PUSH1 0x0 KECCAK256 DUP2 PUSH1 0x0 MSTORE PUSH1 0x20 MSTORE PUSH1 0x40 PUSH1 0x0 KECCAK256 PUSH1 0xFF NOT DUP2 SLOAD AND SWAP1 SSTORE DUP6 PUSH1 0x0 MSTORE PUSH1 0xD PUSH1 0x20 MSTORE PUSH1 0x40 PUSH1 0x0 KECCAK256 SWAP1 PUSH1 0x0 MSTORE PUSH1 0x20 MSTORE PUSH1 0x0 PUSH1 0x40 DUP2 KECCAK256 SSTORE ADD PUSH2 0xA3E JUMP JUMPDEST DUP4 PUSH32 0x72DBB658922B3FAC69A03E69848AD6AD5E2BE500F0D5B7EE624523960DAB2CC1 PUSH1 0x40 PUSH2 0x860 PUSH1 0x1 DUP8 DUP6 PUSH1 0x0 MSTORE PUSH1 0x9 PUSH1 0x20 MSTORE PUSH1 0x0 DUP5 DUP2 KECCAK256 SSTORE DUP4 MLOAD TIMESTAMP DUP2 MSTORE DUP7 PUSH32 0x65143C9C8DB9CE46388460BBEE1D8A9BA68AC5D991AF0CC533DBFFE7B9B98DB6 PUSH1 0x20 CALLER SWAP4 LOG3 ADD SLOAD TIMESTAMP PUSH2 0x2A2E JUMP JUMPDEST PUSH4 0x15DE6E95 PUSH1 0xE1 SHL PUSH1 0x0 MSTORE PUSH1 0x4 PUSH1 0x0 REVERT JUMPDEST PUSH4 0x4E487B71 PUSH1 0xE0 SHL PUSH1 0x0 MSTORE PUSH1 0x11 PUSH1 0x4 MSTORE PUSH1 0x24 PUSH1 0x0 REVERT JUMPDEST PUSH4 0x448520D PUSH1 0xE5 SHL PUSH1 0x0 MSTORE PUSH1 0x4 PUSH1 0x0 REVERT JUMPDEST PUSH2 0x29B3 JUMP JUMPDEST CALLVALUE PUSH2 0x29A JUMPI PUSH1 0x40 CALLDATASIZE PUSH1 0x3 NOT ADD SLT PUSH2 0x29A JUMPI PUSH2 0xB62 PUSH2 0x2893 JUMP JUMPDEST PUSH1 0x4 CALLDATALOAD PUSH1 0x0 MSTORE PUSH1 0x5 PUSH1 0x20 MSTORE PUSH1 0x40 PUSH1 0x0 KECCAK256 SWAP1 PUSH1 0x1 DUP1 PUSH1 0xA0 SHL SUB AND PUSH1 0x0 MSTORE PUSH1 0x20 MSTORE PUSH1 0x20 PUSH1 0xFF PUSH1 0x40 PUSH1 0x0 KECCAK256 SLOAD AND PUSH1 0x40 MLOAD SWAP1 ISZERO ISZERO DUP2 MSTORE RETURN JUMPDEST CALLVALUE PUSH2 0x29A JUMPI PUSH1 0x20 CALLDATASIZE PUSH1 0x3 NOT ADD SLT PUSH2 0x29A JUMPI PUSH1 0x4 CALLDATALOAD PUSH1 0x0 DUP2 DUP2 MSTORE PUSH1 0x2 PUSH1 0x20 MSTORE PUSH1 0x40 SWAP1 KECCAK256 SLOAD PUSH1 0x1 PUSH1 0x1 PUSH1 0xA0 SHL SUB AND ISZERO PUSH2 0x289 JUMPI PUSH1 0x0 MSTORE PUSH1 0x2 PUSH1 0x20 MSTORE PUSH2 0xBF6 PUSH2 0xBE2 PUSH1 0x5 PUSH1 0x40 PUSH1 0x0 KECCAK256 ADD PUSH2 0x2DA3 JUMP JUMPDEST PUSH1 0x40 MLOAD SWAP2 DUP3 SWAP2 PUSH1 0x20 DUP4 MSTORE PUSH1 0x20 DUP4 ADD SWAP1 PUSH2 0x292E JUMP JUMPDEST SUB SWAP1 RETURN JUMPDEST CALLVALUE PUSH2 0x29A JUMPI PUSH1 0x0 CALLDATASIZE PUSH1 0x3 NOT ADD SLT PUSH2 0x29A JUMPI PUSH1 0x20 PUSH1 0x40 MLOAD PUSH1 0x2 DUP2 MSTORE RETURN JUMPDEST CALLVALUE PUSH2 0x29A JUMPI PUSH1 0x20 CALLDATASIZE PUSH1 0x3 NOT ADD SLT PUSH2 0x29A JUMPI PUSH1 0x4 CALLDATALOAD PUSH1 0x0 DUP2 DUP2 MSTORE PUSH1 0x2 PUSH1 0x20 MSTORE PUSH1 0x40 SWAP1 KECCAK256 SLOAD PUSH1 0x1 PUSH1 0x1 PUSH1 0xA0 SHL SUB AND ISZERO PUSH2 0x289 JUMPI PUSH1 0x0 DUP2 DUP2 MSTORE PUSH1 0x5 PUSH1 0x20 SWAP1 DUP2 MSTORE PUSH1 0x40 DUP1 DUP4 KECCAK256 CALLER DUP5 MSTORE SWAP1 SWAP2 MSTORE SWAP1 KECCAK256 SLOAD PUSH1 0xFF AND ISZERO PUSH2 0xE2F JUMPI PUSH1 0x0 DUP2 DUP2 MSTORE PUSH1 0x7 PUSH1 0x20 SWAP1 DUP2 MSTORE PUSH1 0x40 DUP1 DUP4 KECCAK256 CALLER DUP5 MSTORE SWAP1 SWAP2 MSTORE SWAP1 KECCAK256 SLOAD DUP1 ISZERO ISZERO SWAP1 DUP2 PUSH2 0xE18 JUMPI JUMPDEST POP PUSH2 0xE07 JUMPI PUSH1 0x0 DUP2 DUP2 MSTORE PUSH1 0x6 PUSH1 0x20 SWAP1 DUP2 MSTORE PUSH1 0x40 DUP1 DUP4 KECCAK256 CALLER DUP5 MSTORE SWAP1 SWAP2 MSTORE SWAP1 KECCAK256 SLOAD PUSH1 0xFF AND PUSH2 0xDF6 JUMPI DUP1 PUSH1 0x0 MSTORE PUSH1 0x2 PUSH1 0x20 MSTORE PUSH1 0x7 PUSH1 0x40 PUSH1 0x0 KECCAK256 ADD PUSH1 0xFF DUP2 SLOAD AND PUSH1 0x6 DUP2 LT ISZERO PUSH2 0x65C JUMPI PUSH1 0x2 DUP2 EQ SWAP1 DUP2 ISZERO PUSH2 0xDEB JUMPI JUMPDEST POP PUSH2 0x672 JUMPI PUSH1 0x0 DUP3 DUP2 MSTORE PUSH1 0x6 PUSH1 0x20 SWAP1 DUP2 MSTORE PUSH1 0x40 DUP1 DUP4 KECCAK256 CALLER DUP1 DUP6 MSTORE SWAP1 DUP4 MSTORE DUP2 DUP5 KECCAK256 DUP1 SLOAD PUSH1 0xFF NOT AND PUSH1 0x1 OR SWAP1 SSTORE DUP6 DUP5 MSTORE PUSH1 0x7 DUP4 MSTORE DUP2 DUP5 KECCAK256 SWAP1 DUP5 MSTORE DUP3 MSTORE DUP1 DUP4 KECCAK256 TIMESTAMP SWAP1 SSTORE DUP5 DUP4 MSTORE PUSH1 0x8 SWAP1 SWAP2 MSTORE SWAP1 KECCAK256 DUP1 SLOAD PUSH2 0xD33 SWAP1 PUSH2 0x2A4B JUMP JUMPDEST SWAP1 SSTORE PUSH1 0x0 SWAP1 DUP3 DUP3 MSTORE PUSH1 0x8 PUSH1 0x20 MSTORE PUSH1 0x2 PUSH1 0x40 DUP4 KECCAK256 SLOAD LT ISZERO PUSH2 0xD95 JUMPI JUMPDEST POP SWAP1 DUP1 PUSH1 0x0 MSTORE PUSH1 0x8 PUSH1 0x20 MSTORE PUSH1 0x40 PUSH1 0x0 KECCAK256 SLOAD SWAP2 PUSH1 0x40 MLOAD SWAP3 DUP4 MSTORE ISZERO ISZERO PUSH1 0x20 DUP4 ADD MSTORE PUSH32 0xF31E9D491A1DC8FC32BE0412649145136B2C7F9AD701B1E3645E2CAEF580EB01 PUSH1 0x40 CALLER SWAP4 LOG3 STOP JUMPDEST PUSH1 0x2 PUSH1 0xFF NOT DUP3 SLOAD AND OR SWAP1 SSTORE DUP2 DUP2 MSTORE PUSH1 0x9 PUSH1 0x20 MSTORE PUSH1 0x40 TIMESTAMP SWAP2 KECCAK256 SSTORE PUSH1 0x1 SWAP1 DUP1 PUSH32 0xF1561B9CF8E23C452E442E4D614A737EA0E0527DE9AE4A72A530620A9BC665D2 PUSH1 0x40 MLOAD DUP1 PUSH2 0xDE1 TIMESTAMP DUP3 PUSH2 0x3249 JUMP JUMPDEST SUB SWAP1 LOG2 SWAP1 DUP3 PUSH2 0xD4E JUMP JUMPDEST PUSH1 0x5 SWAP2 POP EQ DUP4 PUSH2 0xCDE JUMP JUMPDEST PUSH4 0x35D90805 PUSH1 0xE0 SHL PUSH1 0x0 MSTORE PUSH1 0x4 PUSH1 0x0 REVERT JUMPDEST PUSH4 0x3E39020B PUSH1 0xE2 SHL PUSH1 0x0 MSTORE PUSH1 0x4 PUSH1 0x0 REVERT JUMPDEST SWAP1 POP PUSH3 0x15180 DUP2 ADD DUP1 SWAP2 GT PUSH2 0xB1D JUMPI TIMESTAMP LT DUP3 PUSH2 0xC8D JUMP JUMPDEST PUSH4 0x77B68781 PUSH1 0xE1 SHL PUSH1 0x0 MSTORE PUSH1 0x4 PUSH1 0x0 REVERT JUMPDEST CALLVALUE PUSH2 0x29A JUMPI PUSH2 0xE4E CALLDATASIZE PUSH2 0x29D1 JUMP JUMPDEST PUSH1 0x0 DUP5 DUP2 MSTORE PUSH1 0x2 PUSH1 0x20 MSTORE PUSH1 0x40 SWAP1 KECCAK256 SLOAD SWAP3 SWAP4 SWAP3 PUSH1 0x1 PUSH1 0x1 PUSH1 0xA0 SHL SUB AND ISZERO PUSH2 0x289 JUMPI DUP4 ISZERO PUSH2 0x4C6 JUMPI DUP3 PUSH1 0x0 MSTORE PUSH1 0xA PUSH1 0x20 MSTORE PUSH1 0x40 PUSH1 0x0 KECCAK256 DUP5 PUSH1 0x0 MSTORE PUSH1 0x20 MSTORE PUSH1 0xFF PUSH1 0x40 PUSH1 0x0 KECCAK256 SLOAD AND ISZERO PUSH2 0x4B5 JUMPI PUSH2 0xF4D SWAP2 PUSH1 0x40 MLOAD PUSH1 0x20 DUP2 ADD PUSH20 0x23BAB0B93234B0AB30BAB63A1D20BA3A32B9BA1D PUSH1 0x61 SHL DUP2 MSTORE DUP6 PUSH1 0x34 DUP4 ADD MSTORE PUSH1 0x1D PUSH1 0xF9 SHL PUSH1 0x54 DUP4 ADD MSTORE DUP7 PUSH1 0x55 DUP4 ADD MSTORE PUSH1 0x55 DUP3 MSTORE PUSH2 0xEE1 PUSH1 0x75 DUP4 PUSH2 0x2B26 JUMP JUMPDEST PUSH2 0xF45 PUSH2 0xEEE DUP4 MLOAD PUSH2 0x3397 JUMP JUMPDEST SWAP3 PUSH1 0x3A PUSH1 0x40 MLOAD SWAP4 DUP5 SWAP3 PUSH2 0xF35 PUSH1 0x20 DUP6 ADD SWAP8 PUSH32 0x19457468657265756D205369676E6564204D6573736167653A0A000000000000 DUP10 MSTORE PUSH2 0x409 DUP2 MLOAD DUP1 SWAP3 PUSH1 0x20 DUP9 DUP11 ADD SWAP2 ADD PUSH2 0x296B JUMP JUMPDEST ADD ADD SUB PUSH1 0x1F NOT DUP2 ADD DUP4 MSTORE DUP3 PUSH2 0x2B26 JUMP JUMPDEST MLOAD SWAP1 KECCAK256 PUSH2 0x345C JUMP JUMPDEST PUSH1 0x0 DUP3 DUP2 MSTORE PUSH1 0xE PUSH1 0x20 SWAP1 DUP2 MSTORE PUSH1 0x40 DUP1 DUP4 KECCAK256 DUP7 DUP5 MSTORE SWAP1 SWAP2 MSTORE SWAP1 KECCAK256 SLOAD PUSH1 0x1 PUSH1 0x1 PUSH1 0xA0 SHL SUB AND DUP1 ISZERO PUSH2 0x113E JUMPI PUSH1 0x1 PUSH1 0x1 PUSH1 0xA0 SHL SUB DUP3 AND SUB PUSH2 0x494 JUMPI JUMPDEST DUP2 PUSH1 0x0 MSTORE PUSH1 0xD PUSH1 0x20 MSTORE PUSH1 0x40 PUSH1 0x0 KECCAK256 DUP4 PUSH1 0x0 MSTORE PUSH1 0x20 MSTORE PUSH1 0x40 PUSH1 0x0 KECCAK256 SLOAD DUP1 ISZERO ISZERO SWAP1 DUP2 PUSH2 0x1127 JUMPI JUMPDEST POP PUSH2 0xE07 JUMPI DUP2 PUSH1 0x0 MSTORE PUSH1 0xC PUSH1 0x20 MSTORE PUSH1 0x40 PUSH1 0x0 KECCAK256 DUP4 PUSH1 0x0 MSTORE PUSH1 0x20 MSTORE PUSH1 0xFF PUSH1 0x40 PUSH1 0x0 KECCAK256 SLOAD AND PUSH2 0xDF6 JUMPI DUP2 PUSH1 0x0 MSTORE PUSH1 0x2 PUSH1 0x20 MSTORE PUSH1 0x7 PUSH1 0x40 PUSH1 0x0 KECCAK256 ADD PUSH1 0xFF DUP2 SLOAD AND PUSH1 0x6 DUP2 LT ISZERO PUSH2 0x65C JUMPI PUSH1 0x2 DUP2 EQ SWAP1 DUP2 ISZERO PUSH2 0x111C JUMPI JUMPDEST POP PUSH2 0x672 JUMPI PUSH32 0x1B9ACE257E9AA275598A1D9E1931613C88674A97C7D31BBE6552562679A13DA0 SWAP2 PUSH1 0x60 SWAP2 DUP5 PUSH1 0x0 MSTORE PUSH1 0xC PUSH1 0x20 MSTORE PUSH1 0x40 PUSH1 0x0 KECCAK256 DUP7 PUSH1 0x0 MSTORE PUSH1 0x20 MSTORE PUSH1 0x40 PUSH1 0x0 KECCAK256 PUSH1 0x1 PUSH1 0xFF NOT DUP3 SLOAD AND OR SWAP1 SSTORE DUP5 PUSH1 0x0 MSTORE PUSH1 0xD PUSH1 0x20 MSTORE PUSH1 0x40 PUSH1 0x0 KECCAK256 DUP7 PUSH1 0x0 MSTORE PUSH1 0x20 MSTORE TIMESTAMP PUSH1 0x40 PUSH1 0x0 KECCAK256 SSTORE DUP5 PUSH1 0x0 MSTORE PUSH1 0x8 PUSH1 0x20 MSTORE PUSH1 0x40 PUSH1 0x0 KECCAK256 PUSH2 0x1080 DUP2 SLOAD PUSH2 0x2A4B JUMP JUMPDEST SWAP1 SSTORE PUSH1 0x0 SWAP1 DUP6 DUP3 MSTORE PUSH1 0x8 PUSH1 0x20 MSTORE PUSH1 0x2 PUSH1 0x40 DUP4 KECCAK256 SLOAD LT ISZERO PUSH2 0x10C8 JUMPI JUMPDEST POP DUP5 PUSH1 0x0 MSTORE PUSH1 0x8 PUSH1 0x20 MSTORE PUSH1 0x40 PUSH1 0x0 KECCAK256 SLOAD PUSH1 0x40 MLOAD SWAP3 PUSH1 0x1 DUP1 PUSH1 0xA0 SHL SUB AND DUP4 MSTORE PUSH1 0x20 DUP4 ADD MSTORE ISZERO ISZERO PUSH1 0x40 DUP3 ADD MSTORE LOG3 STOP JUMPDEST PUSH1 0x2 PUSH1 0xFF NOT DUP3 SLOAD AND OR SWAP1 SSTORE DUP5 DUP2 MSTORE PUSH1 0x9 PUSH1 0x20 MSTORE PUSH1 0x40 TIMESTAMP SWAP2 KECCAK256 SSTORE PUSH1 0x1 DUP5 PUSH32 0xF1561B9CF8E23C452E442E4D614A737EA0E0527DE9AE4A72A530620A9BC665D2 PUSH1 0x40 MLOAD DUP1 PUSH2 0x1113 TIMESTAMP DUP3 PUSH2 0x3249 JUMP JUMPDEST SUB SWAP1 LOG2 DUP7 PUSH2 0x109B JUMP JUMPDEST PUSH1 0x5 SWAP2 POP EQ DUP6 PUSH2 0xFFD JUMP JUMPDEST SWAP1 POP PUSH3 0x15180 DUP2 ADD DUP1 SWAP2 GT PUSH2 0xB1D JUMPI TIMESTAMP LT DUP5 PUSH2 0xFAB JUMP JUMPDEST POP PUSH1 0x0 DUP3 DUP2 MSTORE PUSH1 0xE PUSH1 0x20 SWAP1 DUP2 MSTORE PUSH1 0x40 DUP1 DUP4 KECCAK256 DUP7 DUP5 MSTORE SWAP1 SWAP2 MSTORE DUP2 KECCAK256 DUP1 SLOAD PUSH1 0x1 PUSH1 0x1 PUSH1 0xA0 SHL SUB NOT AND PUSH1 0x1 PUSH1 0x1 PUSH1 0xA0 SHL SUB DUP5 AND SWAP1 DUP2 OR SWAP1 SWAP2 SSTORE SWAP1 DUP5 SWAP1 DUP5 SWAP1 PUSH32 0x3DA7257C87D0B4BF595B90F8B1070D2FAEC72BDE85A5AEFCE76E5106B3E45E5D SWAP1 DUP1 LOG4 PUSH2 0xF86 JUMP JUMPDEST CALLVALUE PUSH2 0x29A JUMPI PUSH1 0x0 CALLDATASIZE PUSH1 0x3 NOT ADD SLT PUSH2 0x29A JUMPI PUSH1 0x13 SLOAD PUSH1 0x40 MLOAD PUSH1 0x1 PUSH1 0x1 PUSH1 0xA0 SHL SUB SWAP1 SWAP2 AND DUP2 MSTORE PUSH1 0x20 SWAP1 RETURN JUMPDEST CALLVALUE PUSH2 0x29A JUMPI PUSH1 0x0 CALLDATASIZE PUSH1 0x3 NOT ADD SLT PUSH2 0x29A JUMPI PUSH1 0x20 PUSH1 0x40 MLOAD PUSH4 0x1E13380 DUP2 MSTORE RETURN JUMPDEST CALLVALUE PUSH2 0x29A JUMPI PUSH1 0x40 CALLDATASIZE PUSH1 0x3 NOT ADD SLT PUSH2 0x29A JUMPI PUSH1 0x4 CALLDATALOAD PUSH1 0x0 DUP2 DUP2 MSTORE PUSH1 0x2 PUSH1 0x20 MSTORE PUSH1 0x40 SWAP1 KECCAK256 SLOAD PUSH1 0x1 PUSH1 0x1 PUSH1 0xA0 SHL SUB AND ISZERO PUSH2 0x289 JUMPI PUSH1 0x0 DUP2 DUP2 MSTORE PUSH1 0x2 PUSH1 0x20 MSTORE PUSH1 0x40 SWAP1 KECCAK256 SLOAD PUSH1 0x1 PUSH1 0x1 PUSH1 0xA0 SHL SUB AND CALLER SUB PUSH2 0x494 JUMPI PUSH1 0x0 MSTORE PUSH1 0x14 PUSH1 0x20 MSTORE PUSH1 0x24 CALLDATALOAD PUSH1 0x40 PUSH1 0x0 KECCAK256 SSTORE PUSH1 0x0 DUP1 RETURN JUMPDEST CALLVALUE PUSH2 0x29A JUMPI PUSH1 0x20 CALLDATASIZE PUSH1 0x3 NOT ADD SLT PUSH2 0x29A JUMPI PUSH1 0x4 CALLDATALOAD PUSH1 0x0 DUP2 DUP2 MSTORE PUSH1 0x2 PUSH1 0x20 MSTORE PUSH1 0x40 SWAP1 KECCAK256 SLOAD PUSH1 0x1 PUSH1 0x1 PUSH1 0xA0 SHL SUB AND ISZERO PUSH2 0x289 JUMPI PUSH1 0x0 MSTORE PUSH1 0x2 PUSH1 0x20 MSTORE PUSH1 0x40 PUSH1 0x0 KECCAK256 PUSH1 0x1 DUP1 PUSH1 0xA0 SHL SUB DUP2 SLOAD AND PUSH2 0xBF6 PUSH1 0x1 DUP4 ADD SLOAD SWAP3 PUSH1 0x8 PUSH2 0x1337 PUSH2 0x132C PUSH1 0x2 DUP5 ADD SLOAD SWAP4 PUSH2 0x131E PUSH1 0x3 DUP3 ADD SLOAD SWAP6 PUSH1 0xFF PUSH1 0x7 DUP5 ADD SLOAD AND SWAP7 PUSH2 0x12CC PUSH1 0x4 DUP6 ADD PUSH2 0x2DA3 JUMP JUMPDEST SWAP2 PUSH2 0x12F4 PUSH2 0x12DC PUSH1 0x5 DUP8 ADD PUSH2 0x2DA3 JUMP JUMPDEST SWAP6 PUSH2 0x12ED PUSH1 0x40 MLOAD DUP1 SWAP12 DUP2 SWAP4 ADD PUSH2 0x2D20 JUMP JUMPDEST SUB DUP10 PUSH2 0x2B26 JUMP JUMPDEST PUSH1 0x40 MLOAD SWAP12 DUP13 SWAP12 DUP13 MSTORE PUSH1 0x20 DUP13 ADD MSTORE PUSH1 0x40 DUP12 ADD MSTORE PUSH1 0x60 DUP11 ADD MSTORE PUSH2 0x100 PUSH1 0x80 DUP11 ADD MSTORE PUSH2 0x100 DUP10 ADD SWAP1 PUSH2 0x292E JUMP JUMPDEST SWAP1 DUP8 DUP3 SUB PUSH1 0xA0 DUP10 ADD MSTORE PUSH2 0x292E JUMP JUMPDEST SWAP3 PUSH1 0xC0 DUP7 ADD SWAP1 PUSH2 0x28ED JUMP JUMPDEST DUP4 DUP3 SUB PUSH1 0xE0 DUP6 ADD MSTORE PUSH2 0x298E JUMP JUMPDEST CALLVALUE PUSH2 0x29A JUMPI PUSH1 0x40 CALLDATASIZE PUSH1 0x3 NOT ADD SLT PUSH2 0x29A JUMPI PUSH2 0x135D PUSH2 0x2893 JUMP JUMPDEST PUSH1 0x4 CALLDATALOAD PUSH1 0x0 MSTORE PUSH1 0x3 PUSH1 0x20 MSTORE PUSH1 0x40 PUSH1 0x0 KECCAK256 SWAP1 PUSH1 0x1 DUP1 PUSH1 0xA0 SHL SUB AND PUSH1 0x0 MSTORE PUSH1 0x20 MSTORE PUSH1 0x20 PUSH1 0xFF PUSH1 0x40 PUSH1 0x0 KECCAK256 SLOAD AND PUSH1 0x40 MLOAD SWAP1 ISZERO ISZERO DUP2 MSTORE RETURN JUMPDEST CALLVALUE PUSH2 0x29A JUMPI PUSH1 0x0 CALLDATASIZE PUSH1 0x3 NOT ADD SLT PUSH2 0x29A JUMPI PUSH1 0x20 PUSH1 0x40 MLOAD PUSH3 0x15180 DUP2 MSTORE RETURN JUMPDEST CALLVALUE PUSH2 0x29A JUMPI PUSH1 0x20 CALLDATASIZE PUSH1 0x3 NOT ADD SLT PUSH2 0x29A JUMPI PUSH1 0x4 CALLDATALOAD PUSH1 0x0 DUP2 DUP2 MSTORE PUSH1 0x2 PUSH1 0x20 MSTORE PUSH1 0x40 SWAP1 KECCAK256 SLOAD PUSH1 0x1 PUSH1 0x1 PUSH1 0xA0 SHL SUB AND ISZERO PUSH2 0x289 JUMPI PUSH2 0x281 PUSH1 0x20 SWAP2 PUSH2 0x3172 JUMP JUMPDEST CALLVALUE PUSH2 0x29A JUMPI PUSH1 0x0 CALLDATASIZE PUSH1 0x3 NOT ADD SLT PUSH2 0x29A JUMPI PUSH1 0x20 PUSH1 0x12 SLOAD PUSH1 0x40 MLOAD SWAP1 DUP2 MSTORE RETURN JUMPDEST CALLVALUE PUSH2 0x29A JUMPI PUSH1 0x20 CALLDATASIZE PUSH1 0x3 NOT ADD SLT PUSH2 0x29A JUMPI PUSH1 0x4 CALLDATALOAD PUSH1 0x0 DUP2 DUP2 MSTORE PUSH1 0x2 PUSH1 0x20 MSTORE PUSH1 0x40 SWAP1 KECCAK256 SLOAD PUSH1 0x1 PUSH1 0x1 PUSH1 0xA0 SHL SUB AND ISZERO PUSH2 0x289 JUMPI PUSH1 0x0 MSTORE PUSH1 0x2 PUSH1 0x20 MSTORE PUSH1 0x20 PUSH1 0x40 PUSH1 0x0 KECCAK256 PUSH2 0xBF6 PUSH1 0x1 DUP1 PUSH1 0xA0 SHL SUB DUP3 SLOAD AND SWAP2 PUSH1 0x8 PUSH2 0x1511 PUSH2 0x1506 PUSH1 0x1 DUP5 ADD SLOAD SWAP4 PUSH2 0x14F8 PUSH1 0x2 DUP3 ADD SLOAD SWAP6 PUSH2 0x14EA PUSH1 0x3 DUP5 ADD SLOAD SWAP8 PUSH1 0xFF PUSH1 0x7 DUP7 ADD SLOAD AND SWAP9 PUSH2 0x148C PUSH1 0x4 DUP8 ADD PUSH2 0x2DA3 JUMP JUMPDEST SWAP2 PUSH2 0x1499 PUSH1 0x5 DUP9 ADD PUSH2 0x2DA3 JUMP JUMPDEST SWAP5 PUSH2 0x14C1 PUSH2 0x14A9 PUSH1 0x6 DUP11 ADD PUSH2 0x2DF9 JUMP JUMPDEST SWAP9 PUSH2 0x14BA PUSH1 0x40 MLOAD DUP1 SWAP15 DUP2 SWAP4 ADD PUSH2 0x2D20 JUMP JUMPDEST SUB DUP13 PUSH2 0x2B26 JUMP JUMPDEST PUSH1 0x40 MLOAD SWAP15 DUP16 SWAP15 DUP16 SWAP1 DUP2 MSTORE ADD MSTORE PUSH1 0x40 DUP14 ADD MSTORE PUSH1 0x60 DUP13 ADD MSTORE PUSH2 0x120 PUSH1 0x80 DUP13 ADD MSTORE PUSH2 0x120 DUP12 ADD SWAP1 PUSH2 0x292E JUMP JUMPDEST SWAP1 DUP10 DUP3 SUB PUSH1 0xA0 DUP12 ADD MSTORE PUSH2 0x292E JUMP JUMPDEST SWAP1 DUP8 DUP3 SUB PUSH1 0xC0 DUP10 ADD MSTORE PUSH2 0x28FA JUMP JUMPDEST SWAP3 PUSH1 0xE0 DUP7 ADD SWAP1 PUSH2 0x28ED JUMP JUMPDEST DUP4 DUP3 SUB PUSH2 0x100 DUP6 ADD MSTORE PUSH2 0x298E JUMP JUMPDEST CALLVALUE PUSH2 0x29A JUMPI PUSH1 0x0 CALLDATASIZE PUSH1 0x3 NOT ADD SLT PUSH2 0x29A JUMPI PUSH1 0xF SLOAD PUSH1 0x40 MLOAD PUSH1 0x1 PUSH1 0x1 PUSH1 0xA0 SHL SUB SWAP1 SWAP2 AND DUP2 MSTORE PUSH1 0x20 SWAP1 RETURN JUMPDEST CALLVALUE PUSH2 0x29A JUMPI PUSH1 0x20 CALLDATASIZE PUSH1 0x3 NOT ADD SLT PUSH2 0x29A JUMPI PUSH1 0x1 PUSH1 0x1 PUSH1 0xA0 SHL SUB PUSH2 0x1569 PUSH2 0x287D JUMP JUMPDEST AND DUP1 ISZERO PUSH2 0x158D JUMPI PUSH12 0xFFFFFFFFFFFFFFFFFFFFFFFF PUSH1 0xA0 SHL PUSH1 0xF SLOAD AND OR PUSH1 0xF SSTORE PUSH1 0x0 DUP1 RETURN JUMPDEST PUSH4 0xA6C1146B PUSH1 0xE0 SHL PUSH1 0x0 MSTORE PUSH1 0x4 PUSH1 0x0 REVERT JUMPDEST CALLVALUE PUSH2 0x29A JUMPI PUSH1 0x20 CALLDATASIZE PUSH1 0x3 NOT ADD SLT PUSH2 0x29A JUMPI PUSH1 0x4 CALLDATALOAD PUSH1 0x0 DUP2 DUP2 MSTORE PUSH1 0x2 PUSH1 0x20 MSTORE PUSH1 0x40 SWAP1 KECCAK256 SLOAD PUSH1 0x1 PUSH1 0x1 PUSH1 0xA0 SHL SUB AND ISZERO PUSH2 0x289 JUMPI PUSH1 0x0 MSTORE PUSH1 0x2 PUSH1 0x20 MSTORE PUSH2 0xBF6 PUSH2 0xBE2 PUSH1 0x4 PUSH1 0x40 PUSH1 0x0 KECCAK256 ADD PUSH2 0x2DA3 JUMP JUMPDEST CALLVALUE PUSH2 0x29A JUMPI PUSH1 0x0 CALLDATASIZE PUSH1 0x3 NOT ADD SLT PUSH2 0x29A JUMPI PUSH1 0x20 PUSH1 0x1 SLOAD PUSH1 0x40 MLOAD SWAP1 DUP2 MSTORE RETURN JUMPDEST CALLVALUE PUSH2 0x29A JUMPI PUSH1 0x20 CALLDATASIZE PUSH1 0x3 NOT ADD SLT PUSH2 0x29A JUMPI PUSH1 0x4 CALLDATALOAD PUSH1 0x0 DUP2 DUP2 MSTORE PUSH1 0x2 PUSH1 0x20 MSTORE PUSH1 0x40 SWAP1 KECCAK256 SLOAD PUSH1 0x1 PUSH1 0x1 PUSH1 0xA0 SHL SUB AND ISZERO PUSH2 0x289 JUMPI PUSH1 0x0 MSTORE PUSH1 0x10 PUSH1 0x20 MSTORE PUSH1 0x60 PUSH1 0x40 PUSH1 0x0 KECCAK256 PUSH1 0x40 DUP1 MLOAD SWAP2 PUSH2 0x1656 DUP4 PUSH2 0x2AED JUMP JUMPDEST PUSH1 0xFF DUP2 SLOAD AND ISZERO ISZERO SWAP3 DUP4 DUP2 MSTORE PUSH1 0x1 DUP3 ADD SLOAD SWAP2 DUP3 PUSH1 0x20 DUP4 ADD MSTORE PUSH1 0x2 PUSH1 0x1 DUP1 PUSH1 0xA0 SHL SUB SWAP2 ADD SLOAD AND SWAP3 DUP4 SWAP2 ADD MSTORE PUSH1 0x40 MLOAD SWAP3 DUP4 MSTORE PUSH1 0x20 DUP4 ADD MSTORE PUSH1 0x40 DUP3 ADD MSTORE RETURN JUMPDEST CALLVALUE PUSH2 0x29A JUMPI PUSH1 0x20 CALLDATASIZE PUSH1 0x3 NOT ADD SLT PUSH2 0x29A JUMPI PUSH1 0x4 CALLDATALOAD PUSH1 0x0 DUP2 DUP2 MSTORE PUSH1 0x2 PUSH1 0x20 MSTORE PUSH1 0x40 SWAP1 KECCAK256 SLOAD PUSH1 0x1 PUSH1 0x1 PUSH1 0xA0 SHL SUB AND ISZERO PUSH2 0x289 JUMPI PUSH1 0x0 MSTORE PUSH1 0x2 PUSH1 0x20 MSTORE PUSH1 0x60 PUSH1 0x40 PUSH1 0x0 KECCAK256 PUSH1 0x6 PUSH1 0x5 DUP3 ADD SLOAD SWAP2 ADD SLOAD PUSH2 0x16E5 DUP2 DUP4 PUSH2 0x2A2E JUMP JUMPDEST SWAP2 PUSH1 0x40 MLOAD SWAP3 DUP4 MSTORE PUSH1 0x20 DUP4 ADD MSTORE PUSH1 0x40 DUP3 ADD MSTORE RETURN JUMPDEST CALLVALUE PUSH2 0x29A JUMPI PUSH1 0x40 CALLDATASIZE PUSH1 0x3 NOT ADD SLT PUSH2 0x29A JUMPI PUSH2 0x1711 PUSH2 0x2893 JUMP JUMPDEST PUSH1 0x4 CALLDATALOAD PUSH1 0x0 MSTORE PUSH1 0x6 PUSH1 0x20 MSTORE PUSH1 0x40 PUSH1 0x0 KECCAK256 SWAP1 PUSH1 0x1 DUP1 PUSH1 0xA0 SHL SUB AND PUSH1 0x0 MSTORE PUSH1 0x20 MSTORE PUSH1 0x20 PUSH1 0xFF PUSH1 0x40 PUSH1 0x0 KECCAK256 SLOAD AND PUSH1 0x40 MLOAD SWAP1 ISZERO ISZERO DUP2 MSTORE RETURN JUMPDEST CALLVALUE PUSH2 0x29A JUMPI PUSH2 0x1753 CALLDATASIZE PUSH2 0x28A9 JUMP JUMPDEST SWAP1 PUSH1 0x0 MSTORE PUSH1 0xA PUSH1 0x20 MSTORE PUSH1 0x40 PUSH1 0x0 KECCAK256 SWAP1 PUSH1 0x0 MSTORE PUSH1 0x20 MSTORE PUSH1 0x20 PUSH1 0xFF PUSH1 0x40 PUSH1 0x0 KECCAK256 SLOAD AND PUSH1 0x40 MLOAD SWAP1 ISZERO ISZERO DUP2 MSTORE RETURN JUMPDEST CALLVALUE PUSH2 0x29A JUMPI PUSH1 0x40 CALLDATASIZE PUSH1 0x3 NOT ADD SLT PUSH2 0x29A JUMPI PUSH1 0x4 CALLDATALOAD PUSH1 0x24 CALLDATALOAD PUSH8 0xFFFFFFFFFFFFFFFF DUP2 GT PUSH2 0x29A JUMPI PUSH2 0x17B1 SWAP1 CALLDATASIZE SWAP1 PUSH1 0x4 ADD PUSH2 0x28BF JUMP JUMPDEST PUSH1 0x0 DUP4 DUP2 MSTORE PUSH1 0x2 PUSH1 0x20 MSTORE PUSH1 0x40 SWAP1 KECCAK256 SLOAD SWAP1 SWAP2 SWAP1 PUSH1 0x1 PUSH1 0x1 PUSH1 0xA0 SHL SUB AND ISZERO PUSH2 0x289 JUMPI PUSH1 0x0 DUP4 DUP2 MSTORE PUSH1 0x2 PUSH1 0x20 MSTORE PUSH1 0x40 SWAP1 KECCAK256 SLOAD PUSH1 0x1 PUSH1 0x1 PUSH1 0xA0 SHL SUB AND CALLER SUB PUSH2 0x494 JUMPI PUSH1 0x0 DUP4 DUP2 MSTORE PUSH1 0x2 PUSH1 0x20 MSTORE PUSH1 0x40 SWAP1 KECCAK256 SLOAD PUSH1 0x1 PUSH1 0x1 PUSH1 0xA0 SHL SUB AND ISZERO PUSH2 0x289 JUMPI PUSH1 0x0 DUP4 DUP2 MSTORE PUSH1 0x2 PUSH1 0x20 MSTORE PUSH1 0x40 SWAP1 KECCAK256 SLOAD PUSH1 0x1 PUSH1 0x1 PUSH1 0xA0 SHL SUB AND ISZERO PUSH2 0x289 JUMPI PUSH2 0x1832 DUP4 PUSH2 0x2B64 JUMP JUMPDEST DUP3 PUSH1 0x0 MSTORE PUSH1 0x2 PUSH1 0x20 MSTORE PUSH1 0x40 PUSH1 0x0 KECCAK256 PUSH1 0xFF PUSH1 0x7 DUP3 ADD SLOAD AND PUSH1 0x6 DUP2 LT ISZERO PUSH2 0x65C JUMPI PUSH2 0x19FF JUMPI DUP3 ISZERO PUSH2 0x19EE JUMPI PUSH1 0x8 ADD PUSH8 0xFFFFFFFFFFFFFFFF DUP4 GT PUSH2 0x19D8 JUMPI PUSH2 0x1877 DUP2 SLOAD PUSH2 0x2A5A JUMP JUMPDEST PUSH1 0x1F DUP2 GT PUSH2 0x1990 JUMPI JUMPDEST POP PUSH1 0x0 PUSH1 0x1F DUP5 GT PUSH1 0x1 EQ PUSH2 0x1908 JUMPI SWAP2 PUSH1 0x40 SWAP2 DUP5 PUSH32 0x459157BA24C7AB9878B165EF465FA6AE2AB42BCD8445F576BE378768B0C47309 SWAP6 SWAP5 PUSH1 0x0 SWAP2 PUSH2 0x18FD JUMPI JUMPDEST POP DUP5 PUSH1 0x1 SHL SWAP1 PUSH1 0x0 NOT DUP7 PUSH1 0x3 SHL SHR NOT AND OR SWAP1 SSTORE JUMPDEST DUP3 DUP3 MLOAD SWAP4 DUP5 SWAP3 PUSH1 0x20 DUP5 MSTORE DUP2 PUSH1 0x20 DUP6 ADD MSTORE DUP5 DUP5 ADD CALLDATACOPY PUSH1 0x0 DUP3 DUP3 ADD DUP5 ADD MSTORE PUSH1 0x1F ADD PUSH1 0x1F NOT AND DUP2 ADD SUB ADD SWAP1 LOG2 STOP JUMPDEST SWAP1 POP DUP3 ADD CALLDATALOAD DUP8 PUSH2 0x18BE JUMP JUMPDEST DUP2 DUP2 MSTORE PUSH1 0x20 DUP2 KECCAK256 SWAP1 PUSH1 0x1F NOT DUP6 AND DUP2 JUMPDEST DUP2 DUP2 LT PUSH2 0x1978 JUMPI POP SWAP2 PUSH1 0x40 SWAP4 SWAP2 DUP7 PUSH32 0x459157BA24C7AB9878B165EF465FA6AE2AB42BCD8445F576BE378768B0C47309 SWAP8 SWAP7 SWAP5 LT PUSH2 0x195E JUMPI JUMPDEST POP POP PUSH1 0x1 DUP5 DUP2 SHL ADD SWAP1 SSTORE PUSH2 0x18D2 JUMP JUMPDEST DUP4 ADD CALLDATALOAD PUSH1 0x0 NOT PUSH1 0x3 DUP8 SWAP1 SHL PUSH1 0xF8 AND SHR NOT AND SWAP1 SSTORE DUP7 DUP1 PUSH2 0x194F JUMP JUMPDEST SWAP2 SWAP3 PUSH1 0x20 PUSH1 0x1 DUP2 SWAP3 DUP7 DUP10 ADD CALLDATALOAD DUP2 SSTORE ADD SWAP5 ADD SWAP3 ADD PUSH2 0x1917 JUMP JUMPDEST DUP2 PUSH1 0x0 MSTORE PUSH1 0x20 PUSH1 0x0 KECCAK256 PUSH1 0x1F DUP6 ADD PUSH1 0x5 SHR DUP2 ADD SWAP2 PUSH1 0x20 DUP7 LT PUSH2 0x19CE JUMPI JUMPDEST PUSH1 0x1F ADD PUSH1 0x5 SHR ADD SWAP1 JUMPDEST DUP2 DUP2 LT PUSH2 0x19C2 JUMPI POP PUSH2 0x1880 JUMP JUMPDEST PUSH1 0x0 DUP2 SSTORE PUSH1 0x1 ADD PUSH2 0x19B5 JUMP JUMPDEST SWAP1 SWAP2 POP DUP2 SWAP1 PUSH2 0x19AC JUMP JUMPDEST PUSH4 0x4E487B71 PUSH1 0xE0 SHL PUSH1 0x0 MSTORE PUSH1 0x41 PUSH1 0x4 MSTORE PUSH1 0x24 PUSH1 0x0 REVERT JUMPDEST PUSH4 0x1559B7D7 PUSH1 0xE2 SHL PUSH1 0x0 MSTORE PUSH1 0x4 PUSH1 0x0 REVERT JUMPDEST PUSH4 0xAE0CEEC7 PUSH1 0xE0 SHL PUSH1 0x0 MSTORE PUSH1 0x4 PUSH1 0x0 REVERT JUMPDEST CALLVALUE PUSH2 0x29A JUMPI PUSH1 0x20 CALLDATASIZE PUSH1 0x3 NOT ADD SLT PUSH2 0x29A JUMPI PUSH1 0x4 CALLDATALOAD PUSH1 0x0 DUP2 DUP2 MSTORE PUSH1 0x2 PUSH1 0x20 MSTORE PUSH1 0x40 SWAP1 KECCAK256 SLOAD PUSH1 0x1 PUSH1 0x1 PUSH1 0xA0 SHL SUB AND ISZERO PUSH2 0x289 JUMPI DUP1 PUSH1 0x0 MSTORE PUSH1 0x2 PUSH1 0x20 MSTORE PUSH1 0x40 PUSH1 0x0 KECCAK256 DUP2 PUSH1 0x0 MSTORE PUSH1 0x10 PUSH1 0x20 MSTORE PUSH1 0x40 PUSH1 0x0 KECCAK256 PUSH1 0xFF DUP2 SLOAD AND DUP1 PUSH2 0x1AC2 JUMPI JUMPDEST PUSH2 0x1A6E JUMPI STOP JUMPDEST PUSH1 0x1 ADD SLOAD PUSH1 0x12 SLOAD PUSH2 0x1A7E SWAP2 PUSH2 0x2A2E JUMP JUMPDEST TIMESTAMP LT ISZERO PUSH2 0x1A88 JUMPI JUMPDEST STOP JUMPDEST PUSH1 0x7 ADD PUSH1 0x4 PUSH1 0xFF NOT DUP3 SLOAD AND OR SWAP1 SSTORE PUSH32 0x1D71CD89A1CD78BCA44AD23693F37CDAE6B7A09E13FBE2667CD07D4F1F3FDE7D PUSH1 0x20 PUSH1 0x40 MLOAD TIMESTAMP DUP2 MSTORE LOG2 STOP JUMPDEST POP PUSH1 0xFF PUSH1 0x7 DUP4 ADD SLOAD AND PUSH1 0x6 DUP2 LT ISZERO PUSH2 0x65C JUMPI PUSH1 0x3 EQ PUSH2 0x1A68 JUMP JUMPDEST CALLVALUE PUSH2 0x29A JUMPI PUSH1 0x20 CALLDATASIZE PUSH1 0x3 NOT ADD SLT PUSH2 0x29A JUMPI PUSH1 0x4 CALLDATALOAD PUSH1 0x0 DUP2 DUP2 MSTORE PUSH1 0x2 PUSH1 0x20 MSTORE PUSH1 0x40 SWAP1 KECCAK256 SLOAD PUSH1 0x1 PUSH1 0x1 PUSH1 0xA0 SHL SUB AND ISZERO PUSH2 0x289 JUMPI PUSH1 0x0 MSTORE PUSH1 0x2 PUSH1 0x20 MSTORE PUSH2 0xBF6 PUSH2 0x1B28 PUSH1 0x6 PUSH1 0x40 PUSH1 0x0 KECCAK256 ADD PUSH2 0x2DF9 JUMP JUMPDEST PUSH1 0x40 MLOAD SWAP2 DUP3 SWAP2 PUSH1 0x20 DUP4 MSTORE PUSH1 0x20 DUP4 ADD SWAP1 PUSH2 0x28FA JUMP JUMPDEST CALLVALUE PUSH2 0x29A JUMPI PUSH1 0x20 CALLDATASIZE PUSH1 0x3 NOT ADD SLT PUSH2 0x29A JUMPI PUSH1 0x4 CALLDATALOAD PUSH1 0x0 DUP2 DUP2 MSTORE PUSH1 0x2 PUSH1 0x20 MSTORE PUSH1 0x40 SWAP1 KECCAK256 SLOAD PUSH1 0x1 PUSH1 0x1 PUSH1 0xA0 SHL SUB AND ISZERO PUSH2 0x289 JUMPI PUSH2 0x1B78 PUSH1 0x20 SWAP2 PUSH2 0x2F7B JUMP JUMPDEST PUSH2 0x1B85 PUSH1 0x40 MLOAD DUP1 SWAP3 PUSH2 0x28ED JUMP JUMPDEST RETURN JUMPDEST CALLVALUE PUSH2 0x29A JUMPI PUSH1 0x0 CALLDATASIZE PUSH1 0x3 NOT ADD SLT PUSH2 0x29A JUMPI PUSH1 0x20 PUSH1 0x40 MLOAD PUSH3 0x76A700 DUP2 MSTORE RETURN JUMPDEST CALLVALUE PUSH2 0x29A JUMPI PUSH1 0x20 CALLDATASIZE PUSH1 0x3 NOT ADD SLT PUSH2 0x29A JUMPI PUSH1 0x4 CALLDATALOAD PUSH1 0x0 DUP2 DUP2 MSTORE PUSH1 0x2 PUSH1 0x20 MSTORE PUSH1 0x40 SWAP1 KECCAK256 SLOAD PUSH1 0x1 PUSH1 0x1 PUSH1 0xA0 SHL SUB AND ISZERO PUSH2 0x289 JUMPI PUSH2 0x1BE1 PUSH1 0x40 SWAP2 PUSH2 0x2E51 JUMP JUMPDEST DUP3 MLOAD SWAP2 ISZERO ISZERO DUP3 MSTORE PUSH1 0x20 DUP3 ADD MSTORE RETURN JUMPDEST CALLVALUE PUSH2 0x29A JUMPI PUSH2 0x1BFD CALLDATASIZE PUSH2 0x28A9 JUMP JUMPDEST PUSH1 0x0 DUP3 DUP2 MSTORE PUSH1 0x2 PUSH1 0x20 MSTORE PUSH1 0x40 SWAP1 KECCAK256 SLOAD PUSH1 0x1 PUSH1 0x1 PUSH1 0xA0 SHL SUB AND ISZERO PUSH2 0x289 JUMPI PUSH1 0x0 DUP3 DUP2 MSTORE PUSH1 0x2 PUSH1 0x20 MSTORE PUSH1 0x40 SWAP1 KECCAK256 SLOAD PUSH1 0x1 PUSH1 0x1 PUSH1 0xA0 SHL SUB AND CALLER SUB PUSH2 0x494 JUMPI PUSH1 0x0 DUP3 DUP2 MSTORE PUSH1 0x2 PUSH1 0x20 MSTORE PUSH1 0x40 SWAP1 KECCAK256 SLOAD PUSH1 0x1 PUSH1 0x1 PUSH1 0xA0 SHL SUB AND ISZERO PUSH2 0x289 JUMPI DUP1 ISZERO PUSH2 0x4C6 JUMPI DUP2 PUSH1 0x0 MSTORE PUSH1 0xA PUSH1 0x20 MSTORE PUSH1 0x40 PUSH1 0x0 KECCAK256 DUP2 PUSH1 0x0 MSTORE PUSH1 0x20 MSTORE PUSH1 0xFF PUSH1 0x40 PUSH1 0x0 KECCAK256 SLOAD AND PUSH2 0x1D51 JUMPI DUP2 PUSH1 0x0 MSTORE PUSH1 0x2 PUSH1 0x20 MSTORE PUSH1 0x40 PUSH1 0x0 KECCAK256 PUSH1 0x6 PUSH1 0x5 DUP3 ADD SLOAD SWAP2 ADD SWAP1 PUSH1 0x5 PUSH2 0x1CA3 DUP4 SLOAD DUP1 SWAP4 PUSH2 0x2A2E JUMP JUMPDEST LT ISZERO PUSH2 0x1D62 JUMPI PUSH1 0x0 JUMPDEST DUP2 DUP2 LT PUSH2 0x1D32 JUMPI POP PUSH1 0x1 PUSH1 0x40 SHL DUP2 LT ISZERO PUSH2 0x19D8 JUMPI PUSH2 0x1CCF SWAP2 PUSH1 0x1 DUP3 ADD DUP2 SSTORE PUSH2 0x2A94 JUMP JUMPDEST DUP2 SLOAD SWAP1 PUSH1 0x3 SHL SWAP1 DUP4 DUP3 SHL SWAP2 PUSH1 0x0 NOT SWAP1 SHL NOT AND OR SWAP1 SSTORE DUP2 PUSH1 0x0 MSTORE PUSH1 0xA PUSH1 0x20 MSTORE PUSH1 0x40 PUSH1 0x0 KECCAK256 DUP2 PUSH1 0x0 MSTORE PUSH1 0x20 MSTORE PUSH1 0x40 PUSH1 0x0 KECCAK256 PUSH1 0x1 PUSH1 0xFF NOT DUP3 SLOAD AND OR SWAP1 SSTORE CALLER SWAP2 PUSH32 0xABEB4AF55CFDC28272397DBB108A89EF774183B68FDD2EAEA3ABC3234C9D857D PUSH1 0x0 DUP1 LOG4 STOP JUMPDEST DUP4 PUSH2 0x1D3D DUP3 DUP6 PUSH2 0x2A94 JUMP JUMPDEST SWAP1 SLOAD SWAP1 PUSH1 0x3 SHL SHR EQ PUSH2 0x1D51 JUMPI PUSH1 0x1 ADD PUSH2 0x1CAC JUMP JUMPDEST PUSH4 0x6F3BDABB PUSH1 0xE0 SHL PUSH1 0x0 MSTORE PUSH1 0x4 PUSH1 0x0 REVERT JUMPDEST PUSH4 0x45D0F355 PUSH1 0xE0 SHL PUSH1 0x0 MSTORE PUSH1 0x4 PUSH1 0x0 REVERT JUMPDEST CALLVALUE PUSH2 0x29A JUMPI PUSH1 0x20 CALLDATASIZE PUSH1 0x3 NOT ADD SLT PUSH2 0x29A JUMPI PUSH1 0x4 CALLDATALOAD PUSH1 0x2 PUSH1 0x0 SLOAD EQ PUSH2 0x2127 JUMPI PUSH1 0x2 PUSH1 0x0 SSTORE DUP1 PUSH1 0x0 MSTORE PUSH1 0x2 PUSH1 0x20 MSTORE PUSH1 0x1 DUP1 PUSH1 0xA0 SHL SUB PUSH1 0x40 PUSH1 0x0 KECCAK256 SLOAD AND ISZERO PUSH2 0x289 JUMPI PUSH1 0x0 DUP2 DUP2 MSTORE PUSH1 0x4 PUSH1 0x20 SWAP1 DUP2 MSTORE PUSH1 0x40 DUP1 DUP4 KECCAK256 CALLER DUP5 MSTORE SWAP1 SWAP2 MSTORE SWAP1 KECCAK256 SLOAD PUSH1 0xFF AND ISZERO PUSH2 0x2116 JUMPI PUSH1 0x0 DUP2 DUP2 MSTORE PUSH1 0x3 PUSH1 0x20 SWAP1 DUP2 MSTORE PUSH1 0x40 DUP1 DUP4 KECCAK256 CALLER DUP5 MSTORE SWAP1 SWAP2 MSTORE SWAP1 KECCAK256 SLOAD PUSH1 0xFF AND PUSH2 0x2105 JUMPI PUSH1 0x0 DUP2 DUP2 MSTORE PUSH1 0x2 PUSH1 0x20 MSTORE PUSH1 0x40 SWAP1 KECCAK256 SLOAD PUSH1 0x1 PUSH1 0x1 PUSH1 0xA0 SHL SUB AND ISZERO PUSH2 0x289 JUMPI PUSH2 0x1E1B DUP2 PUSH2 0x2B64 JUMP JUMPDEST PUSH1 0x0 DUP2 DUP2 MSTORE PUSH1 0x2 PUSH1 0x20 MSTORE PUSH1 0x40 SWAP1 KECCAK256 SLOAD PUSH1 0x1 PUSH1 0x1 PUSH1 0xA0 SHL SUB AND ISZERO PUSH2 0x289 JUMPI DUP1 PUSH1 0x0 MSTORE PUSH1 0x2 PUSH1 0x20 MSTORE PUSH1 0x40 PUSH1 0x0 KECCAK256 DUP2 PUSH1 0x0 MSTORE PUSH1 0x10 PUSH1 0x20 MSTORE PUSH1 0x40 PUSH1 0x0 KECCAK256 PUSH1 0xFF DUP2 SLOAD AND DUP1 PUSH2 0x20EB JUMPI JUMPDEST PUSH2 0x208E JUMPI JUMPDEST POP POP DUP1 PUSH1 0x0 MSTORE PUSH1 0x2 PUSH1 0x20 MSTORE PUSH1 0x40 PUSH1 0x0 KECCAK256 SWAP1 PUSH1 0x7 DUP3 ADD PUSH1 0xFF DUP2 SLOAD AND PUSH1 0x6 DUP2 LT ISZERO PUSH2 0x65C JUMPI PUSH1 0x4 DUP2 EQ ISZERO SWAP1 DUP2 PUSH2 0x2082 JUMPI JUMPDEST POP PUSH2 0x2071 JUMPI PUSH1 0x0 DUP3 DUP2 MSTORE PUSH1 0x3 PUSH1 0x20 SWAP1 DUP2 MSTORE PUSH1 0x40 DUP1 DUP4 KECCAK256 CALLER DUP5 MSTORE SWAP1 SWAP2 MSTORE DUP2 KECCAK256 DUP1 SLOAD PUSH1 0xFF NOT AND PUSH1 0x1 SWAP1 DUP2 OR SWAP1 SWAP2 SSTORE PUSH1 0x4 DUP6 ADD DUP1 SLOAD SWAP2 SWAP3 JUMPDEST DUP3 DUP2 LT PUSH2 0x201B JUMPI JUMPDEST POP POP POP PUSH2 0x200A JUMPI JUMPDEST POP DUP1 PUSH1 0x0 MSTORE PUSH1 0x14 PUSH1 0x20 MSTORE PUSH1 0x40 PUSH1 0x0 KECCAK256 SLOAD DUP1 ISZERO ISZERO DUP1 PUSH2 0x1FF6 JUMPI JUMPDEST PUSH2 0x1F42 JUMPI JUMPDEST POP PUSH32 0x89263393A8B4B5B876540C973C46128A1819286122A95D26CC93F872607EC90F PUSH1 0x40 MLOAD TIMESTAMP DUP2 MSTORE PUSH1 0x40 PUSH1 0x20 DUP3 ADD MSTORE DUP1 PUSH2 0x1F38 CALLER SWAP6 PUSH1 0x8 PUSH1 0x40 DUP5 ADD SWAP2 ADD PUSH2 0x2D20 JUMP JUMPDEST SUB SWAP1 LOG3 PUSH1 0x1 PUSH1 0x0 SSTORE STOP JUMPDEST PUSH1 0x13 SLOAD PUSH1 0x40 MLOAD PUSH4 0xC7D1FA9D PUSH1 0xE0 SHL DUP2 MSTORE PUSH1 0x4 DUP2 ADD DUP4 SWAP1 MSTORE CALLER PUSH1 0x24 DUP3 ADD MSTORE SWAP2 SWAP1 PUSH1 0x20 SWAP1 DUP4 SWAP1 PUSH1 0x44 SWAP1 DUP3 SWAP1 PUSH1 0x0 SWAP1 PUSH1 0x1 PUSH1 0x1 PUSH1 0xA0 SHL SUB AND GAS CALL PUSH1 0x0 SWAP3 DUP2 PUSH2 0x1FC2 JUMPI JUMPDEST POP PUSH2 0x1F8E JUMPI JUMPDEST POP PUSH2 0x1EF6 JUMP JUMPDEST PUSH1 0x40 MLOAD SWAP2 DUP3 MSTORE DUP3 PUSH32 0xAAE205F838EC61EF4F20D38B040693DCD7C7FD9A4521E355A72028CE40197BE1 PUSH1 0x20 CALLER SWAP5 LOG4 DUP3 DUP1 PUSH2 0x1F88 JUMP JUMPDEST SWAP1 SWAP3 POP PUSH1 0x20 DUP2 RETURNDATASIZE PUSH1 0x20 GT PUSH2 0x1FEE JUMPI JUMPDEST DUP2 PUSH2 0x1FDE PUSH1 0x20 SWAP4 DUP4 PUSH2 0x2B26 JUMP JUMPDEST DUP2 ADD SUB SLT PUSH2 0x29A JUMPI MLOAD SWAP2 DUP6 PUSH2 0x1F82 JUMP JUMPDEST RETURNDATASIZE SWAP2 POP PUSH2 0x1FD1 JUMP JUMPDEST POP PUSH1 0x13 SLOAD PUSH1 0x1 PUSH1 0x1 PUSH1 0xA0 SHL SUB AND ISZERO ISZERO PUSH2 0x1EF1 JUMP JUMPDEST DUP1 SLOAD PUSH1 0xFF NOT AND PUSH1 0x5 OR SWAP1 SSTORE DUP3 PUSH2 0x1ED8 JUMP JUMPDEST DUP6 PUSH1 0x0 MSTORE PUSH1 0x3 PUSH1 0x20 MSTORE PUSH1 0xFF PUSH1 0x40 DUP1 PUSH1 0x0 KECCAK256 PUSH2 0x2036 DUP5 DUP7 PUSH2 0x2A94 JUMP JUMPDEST SWAP1 SLOAD PUSH1 0x3 SWAP2 SWAP1 SWAP2 SHL SHR PUSH1 0x1 PUSH1 0x1 PUSH1 0xA0 SHL SUB AND PUSH1 0x0 SWAP1 DUP2 MSTORE PUSH1 0x20 SWAP2 SWAP1 SWAP2 MSTORE KECCAK256 SLOAD AND ISZERO PUSH2 0x2063 JUMPI PUSH1 0x1 ADD PUSH2 0x1EC8 JUMP JUMPDEST POP POP POP POP PUSH1 0x0 DUP5 DUP1 DUP1 PUSH2 0x1ED0 JUMP JUMPDEST PUSH4 0xA075A05 PUSH1 0xE4 SHL PUSH1 0x0 MSTORE PUSH1 0x4 PUSH1 0x0 REVERT JUMPDEST PUSH1 0x2 SWAP2 POP EQ ISZERO DUP5 PUSH2 0x1E93 JUMP JUMPDEST PUSH1 0x1 ADD SLOAD PUSH1 0x12 SLOAD PUSH2 0x209E SWAP2 PUSH2 0x2A2E JUMP JUMPDEST TIMESTAMP LT ISZERO PUSH2 0x20AC JUMPI JUMPDEST DUP1 PUSH2 0x1E64 JUMP JUMPDEST PUSH1 0x7 ADD PUSH1 0x4 PUSH1 0xFF NOT DUP3 SLOAD AND OR SWAP1 SSTORE DUP1 PUSH32 0x1D71CD89A1CD78BCA44AD23693F37CDAE6B7A09E13FBE2667CD07D4F1F3FDE7D PUSH1 0x20 PUSH1 0x40 MLOAD TIMESTAMP DUP2 MSTORE LOG2 DUP2 PUSH2 0x20A6 JUMP JUMPDEST POP PUSH1 0xFF PUSH1 0x7 DUP4 ADD SLOAD AND PUSH1 0x6 DUP2 LT ISZERO PUSH2 0x65C JUMPI PUSH1 0x3 EQ PUSH2 0x1E5F JUMP JUMPDEST PUSH4 0xC8D9EAB PUSH1 0xE3 SHL PUSH1 0x0 MSTORE PUSH1 0x4 PUSH1 0x0 REVERT JUMPDEST PUSH4 0x644D871F PUSH1 0xE0 SHL PUSH1 0x0 MSTORE PUSH1 0x4 PUSH1 0x0 REVERT JUMPDEST PUSH4 0x3EE5AEB5 PUSH1 0xE0 SHL PUSH1 0x0 MSTORE PUSH1 0x4 PUSH1 0x0 REVERT JUMPDEST CALLVALUE PUSH2 0x29A JUMPI PUSH1 0x0 CALLDATASIZE PUSH1 0x3 NOT ADD SLT PUSH2 0x29A JUMPI PUSH1 0x20 PUSH1 0x40 MLOAD PUSH1 0x3 DUP2 MSTORE RETURN JUMPDEST CALLVALUE PUSH2 0x29A JUMPI PUSH1 0x20 CALLDATASIZE PUSH1 0x3 NOT ADD SLT PUSH2 0x29A JUMPI PUSH1 0x4 CALLDATALOAD PUSH1 0x0 DUP2 DUP2 MSTORE PUSH1 0x2 PUSH1 0x20 MSTORE PUSH1 0x40 SWAP1 KECCAK256 SLOAD PUSH1 0x1 PUSH1 0x1 PUSH1 0xA0 SHL SUB AND ISZERO PUSH2 0x289 JUMPI PUSH2 0x1A86 SWAP1 PUSH2 0x2B64 JUMP JUMPDEST CALLVALUE PUSH2 0x29A JUMPI PUSH1 0x20 CALLDATASIZE PUSH1 0x3 NOT ADD SLT PUSH2 0x29A JUMPI PUSH1 0x4 CALLDATALOAD PUSH1 0x0 DUP2 DUP2 MSTORE PUSH1 0x2 PUSH1 0x20 MSTORE PUSH1 0x40 SWAP1 KECCAK256 SLOAD PUSH1 0x1 PUSH1 0x1 PUSH1 0xA0 SHL SUB AND ISZERO PUSH2 0x289 JUMPI PUSH1 0x0 MSTORE PUSH1 0x8 PUSH1 0x20 MSTORE PUSH1 0x20 PUSH1 0x40 PUSH1 0x0 KECCAK256 SLOAD PUSH1 0x40 MLOAD SWAP1 DUP2 MSTORE RETURN JUMPDEST CALLVALUE PUSH2 0x29A JUMPI PUSH1 0xE0 CALLDATASIZE PUSH1 0x3 NOT ADD SLT PUSH2 0x29A JUMPI PUSH1 0x24 CALLDATALOAD PUSH1 0x44 CALLDATALOAD PUSH1 0x4 CALLDATALOAD PUSH8 0xFFFFFFFFFFFFFFFF DUP3 GT PUSH2 0x29A JUMPI CALLDATASIZE PUSH1 0x23 DUP4 ADD SLT ISZERO PUSH2 0x29A JUMPI DUP2 PUSH1 0x4 ADD CALLDATALOAD SWAP3 PUSH8 0xFFFFFFFFFFFFFFFF DUP5 GT PUSH2 0x29A JUMPI PUSH1 0x24 DUP4 ADD SWAP3 PUSH1 0x24 CALLDATASIZE SWAP2 DUP7 PUSH1 0x5 SHL ADD ADD GT PUSH2 0x29A JUMPI CALLDATASIZE PUSH1 0xC4 GT PUSH2 0x29A JUMPI PUSH1 0xC4 CALLDATALOAD PUSH8 0xFFFFFFFFFFFFFFFF DUP2 GT PUSH2 0x29A JUMPI PUSH2 0x225C SWAP1 CALLDATASIZE SWAP1 PUSH1 0x4 ADD PUSH2 0x28BF JUMP JUMPDEST SWAP1 SWAP4 PUSH3 0x278D00 DUP5 LT DUP1 ISZERO PUSH2 0x2786 JUMPI JUMPDEST PUSH2 0x2775 JUMPI PUSH3 0x93A80 DUP4 LT DUP1 ISZERO PUSH2 0x2769 JUMPI JUMPDEST PUSH2 0x2758 JUMPI DUP6 ISZERO DUP1 ISZERO PUSH2 0x274E JUMPI JUMPDEST PUSH2 0x273D JUMPI DUP2 ISZERO PUSH2 0x19EE JUMPI PUSH1 0x0 JUMPDEST PUSH1 0x3 DUP2 LT PUSH2 0x26B1 JUMPI POP PUSH1 0x0 JUMPDEST DUP7 DUP2 LT PUSH2 0x25B4 JUMPI POP PUSH1 0x1 SLOAD SWAP5 PUSH2 0x22B7 DUP7 PUSH2 0x2A4B JUMP JUMPDEST PUSH1 0x1 SWAP1 DUP2 SSTORE PUSH1 0x0 DUP8 DUP2 MSTORE PUSH1 0x2 PUSH1 0x20 DUP2 SWAP1 MSTORE PUSH1 0x40 SWAP1 SWAP2 KECCAK256 DUP1 SLOAD PUSH1 0x1 PUSH1 0x1 PUSH1 0xA0 SHL SUB NOT AND CALLER OR DUP2 SSTORE SWAP2 DUP3 ADD DUP8 SWAP1 SSTORE DUP2 ADD DUP6 SWAP1 SSTORE TIMESTAMP PUSH1 0x3 DUP3 ADD SSTORE SWAP3 PUSH1 0x8 DUP5 ADD SWAP2 PUSH8 0xFFFFFFFFFFFFFFFF DUP3 GT PUSH2 0x19D8 JUMPI DUP2 SWAP1 PUSH2 0x230F DUP5 SLOAD PUSH2 0x2A5A JUMP JUMPDEST PUSH1 0x1F DUP2 GT PUSH2 0x2561 JUMPI JUMPDEST POP PUSH1 0x0 SWAP1 PUSH1 0x1F DUP4 GT PUSH1 0x1 EQ PUSH2 0x24FB JUMPI PUSH1 0x0 SWAP3 PUSH2 0x24F0 JUMPI JUMPDEST POP POP DUP2 PUSH1 0x1 SHL SWAP2 PUSH1 0x0 NOT SWAP1 PUSH1 0x3 SHL SHR NOT AND OR SWAP1 SSTORE JUMPDEST PUSH1 0x7 DUP3 ADD DUP1 SLOAD PUSH1 0xFF NOT AND SWAP1 SSTORE PUSH1 0x4 DUP3 ADD SWAP1 PUSH1 0x0 JUMPDEST DUP8 DUP2 LT PUSH2 0x2498 JUMPI POP POP POP PUSH1 0x5 ADD PUSH1 0x0 JUMPDEST PUSH1 0x3 DUP2 LT PUSH2 0x2444 JUMPI POP POP PUSH1 0x80 SWAP2 PUSH1 0x40 MLOAD SWAP5 PUSH2 0x2383 DUP5 DUP8 PUSH2 0x2B26 JUMP JUMPDEST PUSH1 0x3 DUP7 MSTORE PUSH1 0x1F NOT DUP5 ADD CALLDATASIZE PUSH1 0x20 DUP9 ADD CALLDATACOPY PUSH1 0x0 JUMPDEST PUSH1 0x3 DUP2 LT PUSH2 0x23F5 JUMPI POP SWAP2 PUSH32 0xF32EE6327D6E2C0D65B12A134953FC4E7AECD0271AB62B35FE4CEA2B89CF23ED SWAP2 PUSH2 0x23EA PUSH1 0x20 SWAP8 DUP8 SWAP6 PUSH1 0x40 MLOAD SWAP5 DUP6 SWAP5 DUP6 MSTORE DUP11 DUP6 ADD MSTORE PUSH1 0x40 DUP5 ADD MSTORE DUP7 PUSH1 0x60 DUP5 ADD MSTORE CALLER SWAP7 DUP4 ADD SWAP1 PUSH2 0x292E JUMP JUMPDEST SUB SWAP1 LOG3 PUSH1 0x40 MLOAD SWAP1 DUP2 MSTORE RETURN JUMPDEST PUSH2 0x2406 PUSH2 0x2401 DUP3 PUSH2 0x2A08 JUMP JUMPDEST PUSH2 0x2A1A JUMP JUMPDEST SWAP1 DUP8 MLOAD DUP2 LT ISZERO PUSH2 0x242E JUMPI PUSH1 0x1 PUSH1 0x1 PUSH1 0xA0 SHL SUB SWAP1 SWAP2 AND PUSH1 0x5 DUP3 SWAP1 SHL DUP9 ADD PUSH1 0x20 ADD MSTORE PUSH1 0x1 ADD PUSH2 0x2395 JUMP JUMPDEST PUSH4 0x4E487B71 PUSH1 0xE0 SHL PUSH1 0x0 MSTORE PUSH1 0x32 PUSH1 0x4 MSTORE PUSH1 0x24 PUSH1 0x0 REVERT JUMPDEST DUP1 PUSH2 0x245C PUSH2 0x2456 PUSH2 0x2401 PUSH1 0x1 SWAP5 PUSH2 0x2A08 JUMP JUMPDEST DUP5 PUSH2 0x2AAC JUMP JUMPDEST DUP6 PUSH1 0x0 MSTORE PUSH1 0x5 PUSH1 0x20 MSTORE PUSH1 0x40 DUP1 PUSH1 0x0 KECCAK256 PUSH2 0x2477 PUSH2 0x2401 DUP5 PUSH2 0x2A08 JUMP JUMPDEST SWAP1 PUSH1 0x0 SWAP2 DUP6 DUP1 PUSH1 0xA0 SHL SUB AND DUP3 MSTORE PUSH1 0x20 MSTORE KECCAK256 DUP3 PUSH1 0xFF NOT DUP3 SLOAD AND OR SWAP1 SSTORE ADD PUSH2 0x2368 JUMP JUMPDEST DUP1 PUSH2 0x24B2 PUSH2 0x24AC PUSH2 0x2401 PUSH1 0x1 SWAP5 DUP13 DUP8 PUSH2 0x2A3B JUMP JUMPDEST DUP6 PUSH2 0x2AAC JUMP JUMPDEST DUP8 PUSH1 0x0 MSTORE PUSH1 0x4 PUSH1 0x20 MSTORE PUSH1 0x40 DUP1 PUSH1 0x0 KECCAK256 PUSH2 0x24CF PUSH2 0x2401 DUP5 DUP14 DUP9 PUSH2 0x2A3B JUMP JUMPDEST SWAP1 PUSH1 0x0 SWAP2 DUP6 DUP1 PUSH1 0xA0 SHL SUB AND DUP3 MSTORE PUSH1 0x20 MSTORE KECCAK256 DUP3 PUSH1 0xFF NOT DUP3 SLOAD AND OR SWAP1 SSTORE ADD PUSH2 0x2358 JUMP JUMPDEST ADD CALLDATALOAD SWAP1 POP DUP10 DUP1 PUSH2 0x232F JUMP JUMPDEST DUP5 DUP3 MSTORE PUSH1 0x20 DUP3 KECCAK256 SWAP3 POP SWAP1 PUSH1 0x1F NOT DUP5 AND DUP2 JUMPDEST DUP2 DUP2 LT PUSH2 0x2549 JUMPI POP SWAP1 DUP5 PUSH1 0x1 SWAP6 SWAP5 SWAP4 SWAP3 LT PUSH2 0x252F JUMPI JUMPDEST POP POP POP DUP2 SHL ADD SWAP1 SSTORE PUSH2 0x2344 JUMP JUMPDEST ADD CALLDATALOAD PUSH1 0x0 NOT PUSH1 0x3 DUP5 SWAP1 SHL PUSH1 0xF8 AND SHR NOT AND SWAP1 SSTORE DUP10 DUP1 DUP1 PUSH2 0x2522 JUMP JUMPDEST SWAP2 SWAP4 PUSH1 0x20 PUSH1 0x1 DUP2 SWAP3 DUP8 DUP8 ADD CALLDATALOAD DUP2 SSTORE ADD SWAP6 ADD SWAP3 ADD PUSH2 0x250C JUMP JUMPDEST SWAP1 SWAP2 POP DUP4 PUSH1 0x0 MSTORE PUSH1 0x20 PUSH1 0x0 KECCAK256 PUSH1 0x1F DUP5 ADD PUSH1 0x5 SHR DUP2 ADD SWAP2 PUSH1 0x20 DUP6 LT PUSH2 0x25AA JUMPI JUMPDEST SWAP1 PUSH1 0x1F DUP6 SWAP5 SWAP4 SWAP3 ADD PUSH1 0x5 SHR ADD SWAP1 JUMPDEST DUP2 DUP2 LT PUSH2 0x259B JUMPI POP PUSH2 0x2318 JUMP JUMPDEST PUSH1 0x0 DUP2 SSTORE DUP5 SWAP4 POP PUSH1 0x1 ADD PUSH2 0x258E JUMP JUMPDEST SWAP1 SWAP2 POP DUP2 SWAP1 PUSH2 0x2580 JUMP JUMPDEST PUSH1 0x1 PUSH1 0x1 PUSH1 0xA0 SHL SUB PUSH2 0x25CA PUSH2 0x2401 DUP4 DUP11 DUP7 PUSH2 0x2A3B JUMP JUMPDEST AND ISZERO PUSH2 0x19EE JUMPI CALLER PUSH1 0x1 PUSH1 0x1 PUSH1 0xA0 SHL SUB PUSH2 0x25E7 PUSH2 0x2401 DUP5 DUP12 DUP8 PUSH2 0x2A3B JUMP JUMPDEST AND EQ PUSH2 0x19EE JUMPI PUSH1 0x0 JUMPDEST PUSH1 0x3 DUP2 LT PUSH2 0x2664 JUMPI POP PUSH1 0x1 DUP2 ADD DUP1 DUP3 GT PUSH2 0xB1D JUMPI JUMPDEST DUP8 DUP2 LT PUSH2 0x2615 JUMPI POP PUSH1 0x1 ADD PUSH2 0x22A2 JUMP JUMPDEST PUSH2 0x2623 PUSH2 0x2401 DUP4 DUP11 DUP7 PUSH2 0x2A3B JUMP JUMPDEST PUSH1 0x1 PUSH1 0x1 PUSH1 0xA0 SHL SUB PUSH2 0x2639 PUSH2 0x2401 DUP5 DUP13 DUP9 PUSH2 0x2A3B JUMP JUMPDEST PUSH1 0x1 PUSH1 0x1 PUSH1 0xA0 SHL SUB SWAP1 SWAP3 AND SWAP2 AND EQ PUSH2 0x2653 JUMPI PUSH1 0x1 ADD PUSH2 0x2605 JUMP JUMPDEST PUSH4 0x1ABD4EF7 PUSH1 0xE2 SHL PUSH1 0x0 MSTORE PUSH1 0x4 PUSH1 0x0 REVERT JUMPDEST PUSH2 0x2672 PUSH2 0x2401 DUP4 DUP11 DUP7 PUSH2 0x2A3B JUMP JUMPDEST PUSH1 0x1 PUSH1 0x1 PUSH1 0xA0 SHL SUB PUSH2 0x2686 PUSH2 0x2401 DUP5 PUSH2 0x2A08 JUMP JUMPDEST PUSH1 0x1 PUSH1 0x1 PUSH1 0xA0 SHL SUB SWAP1 SWAP3 AND SWAP2 AND EQ PUSH2 0x26A0 JUMPI PUSH1 0x1 ADD PUSH2 0x25F0 JUMP JUMPDEST PUSH4 0x5886AF25 PUSH1 0xE0 SHL PUSH1 0x0 MSTORE PUSH1 0x4 PUSH1 0x0 REVERT JUMPDEST PUSH1 0x1 PUSH1 0x1 PUSH1 0xA0 SHL SUB PUSH2 0x26C5 PUSH2 0x2401 DUP4 PUSH2 0x2A08 JUMP JUMPDEST AND ISZERO PUSH2 0x158D JUMPI CALLER PUSH1 0x1 PUSH1 0x1 PUSH1 0xA0 SHL SUB PUSH2 0x26E0 PUSH2 0x2401 DUP5 PUSH2 0x2A08 JUMP JUMPDEST AND EQ PUSH2 0x158D JUMPI PUSH1 0x1 DUP2 ADD DUP1 DUP3 GT PUSH2 0xB1D JUMPI JUMPDEST PUSH1 0x3 DUP2 LT PUSH2 0x2703 JUMPI POP PUSH1 0x1 ADD PUSH2 0x2296 JUMP JUMPDEST PUSH2 0x270F PUSH2 0x2401 DUP4 PUSH2 0x2A08 JUMP JUMPDEST PUSH1 0x1 PUSH1 0x1 PUSH1 0xA0 SHL SUB PUSH2 0x2723 PUSH2 0x2401 DUP5 PUSH2 0x2A08 JUMP JUMPDEST PUSH1 0x1 PUSH1 0x1 PUSH1 0xA0 SHL SUB SWAP1 SWAP3 AND SWAP2 AND EQ PUSH2 0x1D51 JUMPI PUSH1 0x1 ADD PUSH2 0x26F2 JUMP JUMPDEST PUSH4 0x6849C3CF PUSH1 0xE0 SHL PUSH1 0x0 MSTORE PUSH1 0x4 PUSH1 0x0 REVERT JUMPDEST POP PUSH1 0xA DUP7 GT PUSH2 0x2289 JUMP JUMPDEST PUSH4 0xD7C43E0F PUSH1 0xE0 SHL PUSH1 0x0 MSTORE PUSH1 0x4 PUSH1 0x0 REVERT JUMPDEST POP PUSH3 0x76A700 DUP4 GT PUSH2 0x227C JUMP JUMPDEST PUSH4 0xAB257C7F PUSH1 0xE0 SHL PUSH1 0x0 MSTORE PUSH1 0x4 PUSH1 0x0 REVERT JUMPDEST POP PUSH4 0x1E13380 DUP5 GT PUSH2 0x226B JUMP JUMPDEST CALLVALUE PUSH2 0x29A JUMPI PUSH2 0x27A1 CALLDATASIZE PUSH2 0x28A9 JUMP JUMPDEST SWAP1 PUSH1 0x0 MSTORE PUSH1 0xE PUSH1 0x20 MSTORE PUSH1 0x40 PUSH1 0x0 KECCAK256 SWAP1 PUSH1 0x0 MSTORE PUSH1 0x20 MSTORE PUSH1 0x20 PUSH1 0x1 DUP1 PUSH1 0xA0 SHL SUB PUSH1 0x40 PUSH1 0x0 KECCAK256 SLOAD AND PUSH1 0x40 MLOAD SWAP1 DUP2 MSTORE RETURN JUMPDEST CALLVALUE PUSH2 0x29A JUMPI PUSH1 0x0 CALLDATASIZE PUSH1 0x3 NOT ADD SLT PUSH2 0x29A JUMPI PUSH1 0x20 PUSH1 0x40 MLOAD PUSH1 0xA DUP2 MSTORE RETURN JUMPDEST CALLVALUE PUSH2 0x29A JUMPI PUSH2 0x27F8 CALLDATASIZE PUSH2 0x28A9 JUMP JUMPDEST SWAP1 PUSH1 0x0 MSTORE PUSH1 0xC PUSH1 0x20 MSTORE PUSH1 0x40 PUSH1 0x0 KECCAK256 SWAP1 PUSH1 0x0 MSTORE PUSH1 0x20 MSTORE PUSH1 0x20 PUSH1 0xFF PUSH1 0x40 PUSH1 0x0 KECCAK256 SLOAD AND PUSH1 0x40 MLOAD SWAP1 ISZERO ISZERO DUP2 MSTORE RETURN JUMPDEST CALLVALUE PUSH2 0x29A JUMPI PUSH1 0x0 CALLDATASIZE PUSH1 0x3 NOT ADD SLT PUSH2 0x29A JUMPI DUP1 PUSH3 0x278D00 PUSH1 0x20 SWAP3 MSTORE RETURN JUMPDEST CALLVALUE PUSH2 0x29A JUMPI PUSH1 0x20 CALLDATASIZE PUSH1 0x3 NOT ADD SLT PUSH2 0x29A JUMPI PUSH1 0x1 PUSH1 0x1 PUSH1 0xA0 SHL SUB PUSH2 0x285F PUSH2 0x287D JUMP JUMPDEST AND PUSH12 0xFFFFFFFFFFFFFFFFFFFFFFFF PUSH1 0xA0 SHL PUSH1 0x13 SLOAD AND OR PUSH1 0x13 SSTORE PUSH1 0x0 DUP1 RETURN JUMPDEST PUSH1 0x4 CALLDATALOAD SWAP1 PUSH1 0x1 PUSH1 0x1 PUSH1 0xA0 SHL SUB DUP3 AND DUP3 SUB PUSH2 0x29A JUMPI JUMP JUMPDEST PUSH1 0x24 CALLDATALOAD SWAP1 PUSH1 0x1 PUSH1 0x1 PUSH1 0xA0 SHL SUB DUP3 AND DUP3 SUB PUSH2 0x29A JUMPI JUMP JUMPDEST PUSH1 0x40 SWAP1 PUSH1 0x3 NOT ADD SLT PUSH2 0x29A JUMPI PUSH1 0x4 CALLDATALOAD SWAP1 PUSH1 0x24 CALLDATALOAD SWAP1 JUMP JUMPDEST SWAP2 DUP2 PUSH1 0x1F DUP5 ADD SLT ISZERO PUSH2 0x29A JUMPI DUP3 CALLDATALOAD SWAP2 PUSH8 0xFFFFFFFFFFFFFFFF DUP4 GT PUSH2 0x29A JUMPI PUSH1 0x20 DUP4 DUP2 DUP7 ADD SWAP6 ADD ADD GT PUSH2 0x29A JUMPI JUMP JUMPDEST SWAP1 PUSH1 0x6 DUP3 LT ISZERO PUSH2 0x65C JUMPI MSTORE JUMP JUMPDEST SWAP1 PUSH1 0x20 DUP1 DUP4 MLOAD SWAP3 DUP4 DUP2 MSTORE ADD SWAP3 ADD SWAP1 PUSH1 0x0 JUMPDEST DUP2 DUP2 LT PUSH2 0x2918 JUMPI POP POP POP SWAP1 JUMP JUMPDEST DUP3 MLOAD DUP5 MSTORE PUSH1 0x20 SWAP4 DUP5 ADD SWAP4 SWAP1 SWAP3 ADD SWAP2 PUSH1 0x1 ADD PUSH2 0x290B JUMP JUMPDEST SWAP1 PUSH1 0x20 DUP1 DUP4 MLOAD SWAP3 DUP4 DUP2 MSTORE ADD SWAP3 ADD SWAP1 PUSH1 0x0 JUMPDEST DUP2 DUP2 LT PUSH2 0x294C JUMPI POP POP POP SWAP1 JUMP JUMPDEST DUP3 MLOAD PUSH1 0x1 PUSH1 0x1 PUSH1 0xA0 SHL SUB AND DUP5 MSTORE PUSH1 0x20 SWAP4 DUP5 ADD SWAP4 SWAP1 SWAP3 ADD SWAP2 PUSH1 0x1 ADD PUSH2 0x293F JUMP JUMPDEST PUSH1 0x0 JUMPDEST DUP4 DUP2 LT PUSH2 0x297E JUMPI POP POP PUSH1 0x0 SWAP2 ADD MSTORE JUMP JUMPDEST DUP2 DUP2 ADD MLOAD DUP4 DUP3 ADD MSTORE PUSH1 0x20 ADD PUSH2 0x296E JUMP JUMPDEST SWAP1 PUSH1 0x20 SWAP2 PUSH2 0x29A7 DUP2 MLOAD DUP1 SWAP3 DUP2 DUP6 MSTORE DUP6 DUP1 DUP7 ADD SWAP2 ADD PUSH2 0x296B JUMP JUMPDEST PUSH1 0x1F ADD PUSH1 0x1F NOT AND ADD ADD SWAP1 JUMP JUMPDEST CALLVALUE PUSH2 0x29A JUMPI PUSH1 0x0 CALLDATASIZE PUSH1 0x3 NOT ADD SLT PUSH2 0x29A JUMPI PUSH1 0x20 PUSH1 0x40 MLOAD PUSH3 0x93A80 DUP2 MSTORE RETURN JUMPDEST PUSH1 0x60 PUSH1 0x3 NOT DUP3 ADD SLT PUSH2 0x29A JUMPI PUSH1 0x4 CALLDATALOAD SWAP2 PUSH1 0x24 CALLDATALOAD SWAP2 PUSH1 0x44 CALLDATALOAD SWAP1 PUSH8 0xFFFFFFFFFFFFFFFF DUP3 GT PUSH2 0x29A JUMPI PUSH2 0x2A04 SWAP2 PUSH1 0x4 ADD PUSH2 0x28BF JUMP JUMPDEST SWAP1 SWAP2 JUMP JUMPDEST PUSH1 0x3 DUP2 LT ISZERO PUSH2 0x242E JUMPI PUSH1 0x5 SHL PUSH1 0x64 ADD SWAP1 JUMP JUMPDEST CALLDATALOAD PUSH1 0x1 PUSH1 0x1 PUSH1 0xA0 SHL SUB DUP2 AND DUP2 SUB PUSH2 0x29A JUMPI SWAP1 JUMP JUMPDEST SWAP2 SWAP1 DUP3 ADD DUP1 SWAP3 GT PUSH2 0xB1D JUMPI JUMP JUMPDEST SWAP2 SWAP1 DUP2 LT ISZERO PUSH2 0x242E JUMPI PUSH1 0x5 SHL ADD SWAP1 JUMP JUMPDEST PUSH1 0x0 NOT DUP2 EQ PUSH2 0xB1D JUMPI PUSH1 0x1 ADD SWAP1 JUMP JUMPDEST SWAP1 PUSH1 0x1 DUP3 DUP2 SHR SWAP3 AND DUP1 ISZERO PUSH2 0x2A8A JUMPI JUMPDEST PUSH1 0x20 DUP4 LT EQ PUSH2 0x2A74 JUMPI JUMP JUMPDEST PUSH4 0x4E487B71 PUSH1 0xE0 SHL PUSH1 0x0 MSTORE PUSH1 0x22 PUSH1 0x4 MSTORE PUSH1 0x24 PUSH1 0x0 REVERT JUMPDEST SWAP2 PUSH1 0x7F AND SWAP2 PUSH2 0x2A69 JUMP JUMPDEST DUP1 SLOAD DUP3 LT ISZERO PUSH2 0x242E JUMPI PUSH1 0x0 MSTORE PUSH1 0x20 PUSH1 0x0 KECCAK256 ADD SWAP1 PUSH1 0x0 SWAP1 JUMP JUMPDEST DUP1 SLOAD PUSH1 0x1 PUSH1 0x40 SHL DUP2 LT ISZERO PUSH2 0x19D8 JUMPI PUSH2 0x2AC9 SWAP2 PUSH1 0x1 DUP3 ADD DUP2 SSTORE PUSH2 0x2A94 JUMP JUMPDEST DUP2 SLOAD PUSH1 0x1 PUSH1 0x1 PUSH1 0xA0 SHL SUB SWAP4 DUP5 AND PUSH1 0x3 SWAP3 SWAP1 SWAP3 SHL SWAP2 DUP3 SHL SWAP4 SWAP1 SWAP2 SHL NOT AND SWAP2 SWAP1 SWAP2 OR SWAP1 SSTORE JUMP JUMPDEST PUSH1 0x60 DUP2 ADD SWAP1 DUP2 LT PUSH8 0xFFFFFFFFFFFFFFFF DUP3 GT OR PUSH2 0x19D8 JUMPI PUSH1 0x40 MSTORE JUMP JUMPDEST PUSH2 0x120 DUP2 ADD SWAP1 DUP2 LT PUSH8 0xFFFFFFFFFFFFFFFF DUP3 GT OR PUSH2 0x19D8 JUMPI PUSH1 0x40 MSTORE JUMP JUMPDEST SWAP1 PUSH1 0x1F DUP1 NOT SWAP2 ADD AND DUP2 ADD SWAP1 DUP2 LT PUSH8 0xFFFFFFFFFFFFFFFF DUP3 GT OR PUSH2 0x19D8 JUMPI PUSH1 0x40 MSTORE JUMP JUMPDEST PUSH8 0xFFFFFFFFFFFFFFFF DUP2 GT PUSH2 0x19D8 JUMPI PUSH1 0x1F ADD PUSH1 0x1F NOT AND PUSH1 0x20 ADD SWAP1 JUMP JUMPDEST DUP1 PUSH1 0x0 MSTORE PUSH1 0x2 PUSH1 0x20 MSTORE PUSH1 0x40 PUSH1 0x0 KECCAK256 PUSH1 0x7 DUP2 ADD SWAP1 PUSH1 0xFF DUP3 SLOAD AND SWAP1 PUSH1 0x6 DUP3 LT ISZERO SWAP3 DUP4 PUSH2 0x65C JUMPI PUSH1 0x5 DUP4 EQ DUP1 ISZERO PUSH2 0x2D12 JUMPI JUMPDEST DUP5 DUP2 ISZERO PUSH2 0x2D02 JUMPI JUMPDEST DUP2 ISZERO PUSH2 0x2CF2 JUMPI JUMPDEST POP PUSH2 0x2C3A JUMPI PUSH2 0x2BC8 PUSH1 0x2 PUSH2 0x2BBF PUSH1 0x3 DUP6 ADD SLOAD PUSH1 0x1 DUP7 ADD SLOAD SWAP1 PUSH2 0x2A2E JUMP JUMPDEST SWAP4 ADD SLOAD DUP4 PUSH2 0x2A2E JUMP JUMPDEST PUSH1 0x20 SWAP3 PUSH1 0x40 MLOAD PUSH2 0x2BD8 DUP6 DUP3 PUSH2 0x2B26 JUMP JUMPDEST PUSH1 0x0 DUP2 MSTORE SWAP2 TIMESTAMP GT ISZERO PUSH2 0x2CD7 JUMPI POP POP PUSH1 0x2 SWAP3 PUSH1 0x40 SWAP5 DUP6 MLOAD PUSH2 0x2BF8 DUP8 DUP3 PUSH2 0x2B26 JUMP JUMPDEST PUSH1 0xC DUP2 MSTORE PUSH12 0x1D1A5B5957D95E1C1A5C9959 PUSH1 0xA2 SHL DUP6 DUP3 ADD MSTORE SWAP6 DUP8 PUSH1 0x0 MSTORE PUSH1 0x9 DUP6 MSTORE DUP1 PUSH1 0x0 KECCAK256 SLOAD ISZERO PUSH2 0x2CC3 JUMPI JUMPDEST POP JUMPDEST PUSH2 0x65C JUMPI PUSH1 0x6 DUP5 LT ISZERO PUSH2 0x65C JUMPI DUP4 SUB PUSH2 0x2C41 JUMPI JUMPDEST POP POP POP POP POP JUMP JUMPDEST PUSH1 0xFF NOT DUP2 SLOAD AND PUSH1 0xFF DUP5 AND OR SWAP1 SSTORE PUSH1 0x2 DUP3 EQ DUP1 PUSH2 0x2CB9 JUMPI JUMPDEST PUSH2 0x2C63 JUMPI JUMPDEST DUP1 PUSH2 0x2C3A JUMP JUMPDEST PUSH2 0x2CAD PUSH32 0xF1561B9CF8E23C452E442E4D614A737EA0E0527DE9AE4A72A530620A9BC665D2 SWAP4 PUSH2 0x2C9C PUSH1 0x40 MLOAD SWAP5 DUP6 SWAP5 TIMESTAMP DUP7 MSTORE DUP6 ADD SWAP1 PUSH2 0x28ED JUMP JUMPDEST PUSH1 0x60 PUSH1 0x40 DUP5 ADD MSTORE PUSH1 0x60 DUP4 ADD SWAP1 PUSH2 0x298E JUMP JUMPDEST SUB SWAP1 LOG2 CODESIZE DUP1 DUP1 DUP1 PUSH2 0x2C5D JUMP JUMPDEST POP DUP3 MLOAD ISZERO ISZERO PUSH2 0x2C58 JUMP JUMPDEST DUP8 PUSH1 0x0 MSTORE PUSH1 0x9 DUP6 MSTORE TIMESTAMP SWAP1 PUSH1 0x0 KECCAK256 SSTORE CODESIZE PUSH2 0x2C24 JUMP JUMPDEST SWAP1 SWAP5 SWAP4 SWAP1 TIMESTAMP GT ISZERO PUSH2 0x2CEA JUMPI PUSH1 0x1 SWAP4 PUSH2 0x2C26 JUMP JUMPDEST PUSH1 0x0 SWAP4 PUSH2 0x2C26 JUMP JUMPDEST SWAP1 POP PUSH2 0x65C JUMPI PUSH1 0x4 DUP4 EQ DUP5 PUSH2 0x2BA2 JUMP JUMPDEST SWAP1 POP PUSH2 0x65C JUMPI PUSH1 0x3 DUP4 EQ DUP5 PUSH2 0x2B9B JUMP JUMPDEST POP PUSH1 0x0 SWAP4 POP PUSH1 0x2 DUP4 EQ PUSH2 0x2B93 JUMP JUMPDEST PUSH1 0x0 SWAP3 SWAP2 DUP2 SLOAD SWAP2 PUSH2 0x2D30 DUP4 PUSH2 0x2A5A JUMP JUMPDEST DUP1 DUP4 MSTORE SWAP3 PUSH1 0x1 DUP2 AND SWAP1 DUP2 ISZERO PUSH2 0x2D86 JUMPI POP PUSH1 0x1 EQ PUSH2 0x2D4C JUMPI POP POP POP JUMP JUMPDEST PUSH1 0x0 SWAP1 DUP2 MSTORE PUSH1 0x20 DUP2 KECCAK256 SWAP4 SWAP5 POP SWAP2 SWAP3 JUMPDEST DUP4 DUP4 LT PUSH2 0x2D6C JUMPI POP PUSH1 0x20 SWAP3 POP ADD ADD SWAP1 JUMP JUMPDEST PUSH1 0x1 DUP2 PUSH1 0x20 SWAP3 SWAP5 SWAP4 SWAP5 SLOAD DUP4 DUP6 DUP8 ADD ADD MSTORE ADD SWAP2 ADD SWAP2 SWAP1 PUSH2 0x2D5B JUMP JUMPDEST SWAP2 POP POP PUSH1 0x20 SWAP4 SWAP5 POP PUSH1 0xFF SWAP3 SWAP2 SWAP3 NOT AND DUP4 DUP4 ADD MSTORE ISZERO ISZERO PUSH1 0x5 SHL ADD ADD SWAP1 JUMP JUMPDEST SWAP1 PUSH1 0x40 MLOAD SWAP2 DUP3 DUP2 SLOAD SWAP2 DUP3 DUP3 MSTORE PUSH1 0x20 DUP3 ADD SWAP1 PUSH1 0x0 MSTORE PUSH1 0x20 PUSH1 0x0 KECCAK256 SWAP3 PUSH1 0x0 JUMPDEST DUP2 DUP2 LT PUSH2 0x2DD7 JUMPI POP POP PUSH2 0x2DD5 SWAP3 POP SUB DUP4 PUSH2 0x2B26 JUMP JUMPDEST JUMP JUMPDEST DUP5 SLOAD PUSH1 0x1 PUSH1 0x1 PUSH1 0xA0 SHL SUB AND DUP4 MSTORE PUSH1 0x1 SWAP5 DUP6 ADD SWAP5 DUP8 SWAP5 POP PUSH1 0x20 SWAP1 SWAP4 ADD SWAP3 ADD PUSH2 0x2DC0 JUMP JUMPDEST SWAP1 PUSH1 0x40 MLOAD SWAP2 DUP3 DUP2 SLOAD SWAP2 DUP3 DUP3 MSTORE PUSH1 0x20 DUP3 ADD SWAP1 PUSH1 0x0 MSTORE PUSH1 0x20 PUSH1 0x0 KECCAK256 SWAP3 PUSH1 0x0 JUMPDEST DUP2 DUP2 LT PUSH2 0x2E2B JUMPI POP POP PUSH2 0x2DD5 SWAP3 POP SUB DUP4 PUSH2 0x2B26 JUMP JUMPDEST DUP5 SLOAD DUP4 MSTORE PUSH1 0x1 SWAP5 DUP6 ADD SWAP5 DUP8 SWAP5 POP PUSH1 0x20 SWAP1 SWAP4 ADD SWAP3 ADD PUSH2 0x2E16 JUMP JUMPDEST SWAP2 SWAP1 DUP3 SUB SWAP2 DUP3 GT PUSH2 0xB1D JUMPI JUMP JUMPDEST SWAP1 DUP2 PUSH1 0x0 MSTORE PUSH1 0x2 PUSH1 0x20 MSTORE PUSH1 0x40 PUSH1 0x0 KECCAK256 SWAP2 PUSH1 0x40 MLOAD SWAP3 PUSH2 0x2E6E DUP5 PUSH2 0x2B09 JUMP JUMPDEST DUP1 SLOAD PUSH1 0x1 PUSH1 0x1 PUSH1 0xA0 SHL SUB AND DUP5 MSTORE PUSH1 0x1 DUP2 ADD SLOAD PUSH1 0x20 DUP6 ADD MSTORE PUSH1 0x2 DUP2 ADD SLOAD PUSH1 0x40 DUP6 ADD MSTORE PUSH1 0x3 DUP2 ADD SLOAD PUSH1 0x60 DUP6 ADD MSTORE PUSH2 0x2EA5 PUSH1 0x4 DUP3 ADD PUSH2 0x2DA3 JUMP JUMPDEST PUSH1 0x80 DUP6 ADD MSTORE PUSH2 0x2EB6 PUSH1 0x5 DUP3 ADD PUSH2 0x2DA3 JUMP JUMPDEST PUSH1 0xA0 DUP6 ADD MSTORE PUSH2 0x2EC7 PUSH1 0x6 DUP3 ADD PUSH2 0x2DF9 JUMP JUMPDEST PUSH1 0xC0 DUP6 ADD MSTORE PUSH1 0xFF PUSH1 0x7 DUP3 ADD SLOAD AND SWAP1 PUSH1 0xE0 DUP6 ADD SWAP5 PUSH1 0x6 DUP4 LT ISZERO PUSH2 0x65C JUMPI PUSH2 0x2F06 PUSH2 0x100 SWAP3 PUSH1 0x8 SWAP5 DUP9 MSTORE PUSH2 0x2EFF PUSH1 0x40 MLOAD DUP1 SWAP7 DUP2 SWAP4 ADD PUSH2 0x2D20 JUMP JUMPDEST SUB DUP5 PUSH2 0x2B26 JUMP JUMPDEST ADD MSTORE PUSH1 0x0 MSTORE PUSH1 0x9 PUSH1 0x20 MSTORE PUSH1 0x40 PUSH1 0x0 KECCAK256 SLOAD SWAP2 MLOAD SWAP2 PUSH1 0x6 DUP4 LT ISZERO PUSH2 0x65C JUMPI PUSH1 0x2 PUSH1 0x0 SWAP4 EQ DUP1 ISZERO SWAP1 PUSH2 0x2F73 JUMPI JUMPDEST PUSH2 0x2F5A JUMPI PUSH3 0x93A80 DUP2 ADD DUP1 SWAP2 GT PUSH2 0x2F5F JUMPI DUP1 TIMESTAMP GT PUSH2 0x2F5A JUMPI PUSH2 0x2F55 SWAP2 SWAP3 POP TIMESTAMP SWAP1 PUSH2 0x2E44 JUMP JUMPDEST PUSH1 0x1 SWAP2 JUMP JUMPDEST POP DUP2 SWAP1 JUMP JUMPDEST PUSH4 0x4E487B71 PUSH1 0xE0 SHL DUP4 MSTORE PUSH1 0x11 PUSH1 0x4 MSTORE PUSH1 0x24 DUP4 REVERT JUMPDEST POP DUP1 ISZERO PUSH2 0x2F30 JUMP JUMPDEST DUP1 PUSH1 0x0 MSTORE PUSH1 0x2 PUSH1 0x20 MSTORE PUSH1 0x40 PUSH1 0x0 KECCAK256 SWAP1 PUSH1 0x40 MLOAD SWAP2 PUSH2 0x2F97 DUP4 PUSH2 0x2B09 JUMP JUMPDEST PUSH1 0x1 DUP1 PUSH1 0xA0 SHL SUB DUP2 SLOAD AND DUP4 MSTORE PUSH1 0x1 DUP2 ADD SLOAD SWAP1 PUSH1 0x20 DUP5 ADD SWAP2 DUP3 MSTORE PUSH1 0x2 DUP2 ADD SLOAD SWAP3 PUSH1 0x40 DUP6 ADD SWAP4 DUP5 MSTORE PUSH1 0x3 DUP3 ADD SLOAD SWAP2 PUSH1 0x60 DUP7 ADD SWAP3 DUP4 MSTORE PUSH2 0x2FD6 PUSH1 0x4 DUP3 ADD PUSH2 0x2DA3 JUMP JUMPDEST PUSH1 0x80 DUP8 ADD MSTORE PUSH2 0x2FE7 PUSH1 0x5 DUP3 ADD PUSH2 0x2DA3 JUMP JUMPDEST PUSH1 0xA0 DUP8 ADD MSTORE PUSH2 0x2FF8 PUSH1 0x6 DUP3 ADD PUSH2 0x2DF9 JUMP JUMPDEST PUSH1 0xC0 DUP8 ADD MSTORE PUSH1 0xFF PUSH1 0x7 DUP3 ADD SLOAD AND SWAP1 PUSH1 0xE0 DUP8 ADD SWAP7 PUSH1 0x6 DUP4 LT ISZERO PUSH2 0x65C JUMPI PUSH2 0x3030 PUSH2 0x100 SWAP3 PUSH1 0x8 SWAP5 DUP11 MSTORE PUSH2 0x2EFF PUSH1 0x40 MLOAD DUP1 SWAP7 DUP2 SWAP4 ADD PUSH2 0x2D20 JUMP JUMPDEST ADD MSTORE PUSH1 0x0 MSTORE PUSH1 0x10 PUSH1 0x20 MSTORE PUSH1 0x40 PUSH1 0x0 KECCAK256 PUSH1 0x40 MLOAD PUSH2 0x304B DUP2 PUSH2 0x2AED JUMP JUMPDEST DUP2 SLOAD PUSH1 0xFF AND ISZERO ISZERO DUP1 DUP3 MSTORE PUSH1 0x1 DUP4 ADD SLOAD PUSH1 0x20 DUP4 ADD SWAP1 DUP2 MSTORE PUSH1 0x2 SWAP1 SWAP4 ADD SLOAD PUSH1 0x1 PUSH1 0x1 PUSH1 0xA0 SHL SUB AND PUSH1 0x40 SWAP1 SWAP3 ADD SWAP2 SWAP1 SWAP2 MSTORE DUP1 PUSH2 0x315E JUMPI JUMPDEST PUSH2 0x313A JUMPI POP DUP4 MLOAD SWAP4 PUSH1 0x6 DUP6 LT ISZERO PUSH2 0x65C JUMPI PUSH1 0x5 PUSH1 0x0 SWAP6 EQ DUP1 ISZERO PUSH2 0x3126 JUMPI JUMPDEST PUSH2 0x30EB JUMPI DUP1 MLOAD PUSH1 0x6 DUP2 LT ISZERO PUSH2 0x3112 JUMPI PUSH1 0x2 EQ PUSH2 0x30EB JUMPI POP PUSH2 0x30CD SWAP2 PUSH2 0x30C5 SWAP2 MLOAD SWAP1 MLOAD SWAP1 PUSH2 0x2A2E JUMP JUMPDEST SWAP2 MLOAD DUP3 PUSH2 0x2A2E JUMP JUMPDEST TIMESTAMP GT ISZERO PUSH2 0x30DB JUMPI POP POP PUSH1 0x2 SWAP1 JUMP JUMPDEST TIMESTAMP GT ISZERO PUSH2 0x30E8 JUMPI POP PUSH1 0x1 SWAP1 JUMP JUMPDEST SWAP1 JUMP JUMPDEST SWAP3 POP POP POP MLOAD SWAP1 PUSH1 0x6 DUP3 LT ISZERO PUSH2 0x30FE JUMPI POP SWAP1 JUMP JUMPDEST PUSH4 0x4E487B71 PUSH1 0xE0 SHL DUP2 MSTORE PUSH1 0x21 PUSH1 0x4 MSTORE PUSH1 0x24 SWAP1 REVERT JUMPDEST PUSH4 0x4E487B71 PUSH1 0xE0 SHL DUP7 MSTORE PUSH1 0x21 PUSH1 0x4 MSTORE PUSH1 0x24 DUP7 REVERT JUMPDEST POP DUP1 MLOAD PUSH1 0x6 DUP2 LT ISZERO PUSH2 0x3112 JUMPI PUSH1 0x4 EQ PUSH2 0x309D JUMP JUMPDEST SWAP3 POP POP POP PUSH2 0x314D SWAP2 POP MLOAD PUSH1 0x12 SLOAD SWAP1 PUSH2 0x2A2E JUMP JUMPDEST TIMESTAMP LT ISZERO PUSH2 0x3159 JUMPI PUSH1 0x3 SWAP1 JUMP JUMPDEST PUSH1 0x4 SWAP1 JUMP JUMPDEST POP DUP5 MLOAD PUSH1 0x6 DUP2 LT ISZERO PUSH2 0x65C JUMPI PUSH1 0x3 EQ PUSH2 0x307F JUMP JUMPDEST PUSH1 0x0 MSTORE PUSH1 0x2 PUSH1 0x20 MSTORE PUSH1 0x40 PUSH1 0x0 KECCAK256 PUSH1 0x40 MLOAD SWAP1 PUSH2 0x318C DUP3 PUSH2 0x2B09 JUMP JUMPDEST DUP1 SLOAD PUSH1 0x1 PUSH1 0x1 PUSH1 0xA0 SHL SUB AND DUP3 MSTORE PUSH1 0x1 DUP2 ADD SLOAD PUSH1 0x20 DUP4 ADD SWAP1 DUP2 MSTORE PUSH1 0x2 DUP3 ADD SLOAD PUSH1 0x40 DUP5 ADD MSTORE PUSH1 0x3 DUP3 ADD SLOAD PUSH1 0x60 DUP5 ADD SWAP1 DUP2 MSTORE SWAP1 SWAP2 PUSH2 0x31C9 PUSH1 0x4 DUP3 ADD PUSH2 0x2DA3 JUMP JUMPDEST PUSH1 0x80 DUP6 ADD MSTORE PUSH2 0x31DA PUSH1 0x5 DUP3 ADD PUSH2 0x2DA3 JUMP JUMPDEST PUSH1 0xA0 DUP6 ADD MSTORE PUSH2 0x31EB PUSH1 0x6 DUP3 ADD PUSH2 0x2DF9 JUMP JUMPDEST PUSH1 0xC0 DUP6 ADD MSTORE PUSH1 0xFF PUSH1 0x7 DUP3 ADD SLOAD AND SWAP1 PUSH1 0x6 DUP3 LT ISZERO PUSH2 0x65C JUMPI DUP5 PUSH2 0x3225 PUSH2 0x100 SWAP3 PUSH1 0x8 SWAP5 PUSH1 0xE0 PUSH2 0x3230 SWAP10 ADD MSTORE PUSH2 0x2EFF PUSH1 0x40 MLOAD DUP1 SWAP7 DUP2 SWAP4 ADD PUSH2 0x2D20 JUMP JUMPDEST ADD MSTORE MLOAD SWAP1 MLOAD SWAP1 PUSH2 0x2A2E JUMP JUMPDEST DUP1 TIMESTAMP LT ISZERO PUSH2 0x3243 JUMPI PUSH2 0x30E8 SWAP1 TIMESTAMP SWAP1 PUSH2 0x2E44 JUMP JUMPDEST POP PUSH1 0x0 SWAP1 JUMP JUMPDEST SWAP1 DUP2 MSTORE DUP1 PUSH1 0x2 PUSH1 0x20 PUSH1 0xA0 SWAP4 ADD MSTORE PUSH1 0x60 PUSH1 0x40 DUP3 ADD MSTORE PUSH1 0x14 PUSH1 0x60 DUP3 ADD MSTORE PUSH20 0x33BAB0B93234B0B72FB0BA3A32B9BA30BA34B7B7 PUSH1 0x61 SHL PUSH1 0x80 DUP3 ADD MSTORE ADD SWAP1 JUMP JUMPDEST PUSH1 0x0 MSTORE PUSH1 0x10 PUSH1 0x20 MSTORE PUSH1 0x40 PUSH1 0x0 KECCAK256 PUSH1 0x40 MLOAD PUSH2 0x329E DUP2 PUSH2 0x2AED JUMP JUMPDEST PUSH1 0xFF DUP3 SLOAD AND ISZERO SWAP1 DUP2 ISZERO DUP2 MSTORE PUSH1 0x40 PUSH1 0x1 DUP5 ADD SLOAD SWAP4 DUP5 PUSH1 0x20 DUP5 ADD MSTORE PUSH1 0x2 PUSH1 0x1 DUP1 PUSH1 0xA0 SHL SUB SWAP2 ADD SLOAD AND SWAP2 ADD MSTORE PUSH2 0x3243 JUMPI PUSH1 0x12 SLOAD PUSH2 0x30E8 SWAP2 PUSH2 0x2A2E JUMP JUMPDEST PUSH1 0x0 MSTORE PUSH1 0x2 PUSH1 0x20 MSTORE PUSH1 0x40 PUSH1 0x0 KECCAK256 PUSH1 0x40 MLOAD PUSH2 0x32F0 DUP2 PUSH2 0x2B09 JUMP JUMPDEST DUP2 SLOAD PUSH1 0x1 PUSH1 0x1 PUSH1 0xA0 SHL SUB AND DUP2 MSTORE PUSH1 0x1 DUP3 ADD SLOAD PUSH1 0x20 DUP3 ADD SWAP1 DUP2 MSTORE PUSH1 0x2 DUP4 ADD SLOAD PUSH1 0x40 DUP4 ADD SWAP1 DUP2 MSTORE PUSH1 0x3 DUP5 ADD SLOAD PUSH1 0x60 DUP5 ADD SWAP1 DUP2 MSTORE SWAP1 SWAP3 SWAP2 SWAP1 PUSH2 0x3331 PUSH1 0x4 DUP7 ADD PUSH2 0x2DA3 JUMP JUMPDEST PUSH1 0x80 DUP5 ADD MSTORE PUSH2 0x3342 PUSH1 0x5 DUP7 ADD PUSH2 0x2DA3 JUMP JUMPDEST PUSH1 0xA0 DUP5 ADD MSTORE PUSH2 0x3353 PUSH1 0x6 DUP7 ADD PUSH2 0x2DF9 JUMP JUMPDEST PUSH1 0xC0 DUP5 ADD MSTORE PUSH1 0xFF PUSH1 0x7 DUP7 ADD SLOAD AND PUSH1 0x6 DUP2 LT ISZERO PUSH2 0x65C JUMPI PUSH2 0x100 DUP5 PUSH2 0x3225 PUSH2 0x3230 SWAP9 PUSH1 0x8 SWAP5 PUSH1 0xE0 PUSH2 0x338F SWAP10 ADD MSTORE PUSH2 0x2EFF PUSH1 0x40 MLOAD DUP1 SWAP7 DUP2 SWAP4 ADD PUSH2 0x2D20 JUMP JUMPDEST SWAP1 MLOAD SWAP1 PUSH2 0x2A2E JUMP JUMPDEST DUP1 ISZERO PUSH2 0x343C JUMPI PUSH1 0x0 DUP2 DUP1 JUMPDEST PUSH2 0x3428 JUMPI POP PUSH2 0x33B0 DUP2 PUSH2 0x2B48 JUMP JUMPDEST SWAP1 PUSH2 0x33BE PUSH1 0x40 MLOAD SWAP3 DUP4 PUSH2 0x2B26 JUMP JUMPDEST DUP1 DUP3 MSTORE PUSH1 0x1F NOT PUSH2 0x33CD DUP3 PUSH2 0x2B48 JUMP JUMPDEST ADD CALLDATASIZE PUSH1 0x20 DUP5 ADD CALLDATACOPY JUMPDEST DUP1 DUP4 ISZERO PUSH2 0x3421 JUMPI DUP1 ISZERO PUSH2 0xB1D JUMPI PUSH1 0x0 NOT ADD SWAP3 PUSH1 0xA DUP2 MOD PUSH1 0x30 ADD SWAP2 DUP3 PUSH1 0x30 GT PUSH2 0xB1D JUMPI DUP4 MLOAD DUP6 LT ISZERO PUSH2 0x242E JUMPI PUSH1 0xA SWAP3 PUSH1 0xF8 SHL PUSH1 0x1 PUSH1 0x1 PUSH1 0xF8 SHL SUB NOT AND PUSH1 0x0 BYTE SWAP1 DUP5 ADD PUSH1 0x1F ADD MSTORE8 DIV SWAP2 PUSH2 0x33D5 JUMP JUMPDEST POP POP SWAP1 POP SWAP1 JUMP JUMPDEST SWAP1 PUSH2 0x3434 PUSH1 0xA SWAP2 PUSH2 0x2A4B JUMP JUMPDEST SWAP2 DIV DUP1 PUSH2 0x33A2 JUMP JUMPDEST POP PUSH1 0x40 MLOAD PUSH2 0x344B PUSH1 0x40 DUP3 PUSH2 0x2B26 JUMP JUMPDEST PUSH1 0x1 DUP2 MSTORE PUSH1 0x3 PUSH1 0xFC SHL PUSH1 0x20 DUP3 ADD MSTORE SWAP1 JUMP JUMPDEST SWAP2 PUSH1 0x41 SUB PUSH2 0x352E JUMPI PUSH1 0x40 DUP2 ADD CALLDATALOAD PUSH1 0x0 BYTE PUSH1 0x1B DUP2 LT PUSH2 0x350C JUMPI JUMPDEST PUSH1 0xFF AND SWAP1 PUSH1 0x1B DUP3 EQ DUP1 ISZERO PUSH2 0x3502 JUMPI JUMPDEST ISZERO PUSH2 0x34C9 JUMPI PUSH1 0x20 SWAP3 DUP4 PUSH1 0x80 SWAP3 PUSH1 0x0 SWAP5 PUSH1 0x40 MLOAD SWAP4 DUP5 MSTORE DUP3 DUP5 ADD MSTORE DUP1 CALLDATALOAD PUSH1 0x40 DUP5 ADD MSTORE ADD CALLDATALOAD PUSH1 0x60 DUP3 ADD MSTORE DUP3 DUP1 MSTORE PUSH1 0x1 GAS STATICCALL ISZERO PUSH2 0x34BD JUMPI PUSH1 0x0 MLOAD SWAP1 JUMP JUMPDEST PUSH1 0x40 MLOAD RETURNDATASIZE PUSH1 0x0 DUP3 RETURNDATACOPY RETURNDATASIZE SWAP1 REVERT JUMPDEST PUSH1 0x40 MLOAD PUSH3 0x461BCD PUSH1 0xE5 SHL DUP2 MSTORE PUSH1 0x20 PUSH1 0x4 DUP3 ADD MSTORE PUSH1 0x11 PUSH1 0x24 DUP3 ADD MSTORE PUSH17 0x496E76616C6964207369676E6174757265 PUSH1 0x78 SHL PUSH1 0x44 DUP3 ADD MSTORE PUSH1 0x64 SWAP1 REVERT JUMPDEST POP PUSH1 0x1C DUP3 EQ PUSH2 0x3484 JUMP JUMPDEST PUSH1 0x1B ADD PUSH1 0xFF DUP2 GT ISZERO PUSH2 0x3475 JUMPI PUSH4 0x4E487B71 PUSH1 0xE0 SHL PUSH1 0x0 MSTORE PUSH1 0x11 PUSH1 0x4 MSTORE PUSH1 0x24 PUSH1 0x0 REVERT JUMPDEST PUSH1 0x40 MLOAD PUSH3 0x461BCD PUSH1 0xE5 SHL DUP2 MSTORE PUSH1 0x20 PUSH1 0x4 DUP3 ADD MSTORE PUSH1 0x18 PUSH1 0x24 DUP3 ADD MSTORE PUSH32 0x496E76616C6964207369676E6174757265206C656E6774680000000000000000 PUSH1 0x44 DUP3 ADD MSTORE PUSH1 0x64 SWAP1 REVERT JUMPDEST PUSH1 0x1 SLOAD SWAP1 PUSH1 0x0 JUMPDEST DUP3 DUP2 LT PUSH2 0x358A JUMPI POP POP POP PUSH1 0x0 NOT SWAP1 JUMP JUMPDEST PUSH1 0x0 DUP2 DUP2 MSTORE PUSH1 0x2 PUSH1 0x20 MSTORE PUSH1 0x40 SWAP1 KECCAK256 SLOAD PUSH1 0x1 PUSH1 0x1 PUSH1 0xA0 SHL SUB DUP4 DUP2 AND SWAP2 AND EQ DUP1 PUSH2 0x35BF JUMPI JUMPDEST PUSH2 0x35B9 JUMPI PUSH1 0x1 ADD PUSH2 0x357A JUMP JUMPDEST SWAP2 POP POP SWAP1 JUMP JUMPDEST POP DUP1 PUSH1 0x0 MSTORE PUSH1 0x2 PUSH1 0x20 MSTORE PUSH1 0xFF PUSH1 0x7 PUSH1 0x40 PUSH1 0x0 KECCAK256 ADD SLOAD AND PUSH1 0x6 DUP2 LT ISZERO PUSH2 0x65C JUMPI PUSH1 0x5 EQ ISZERO PUSH2 0x35AD JUMP INVALID LOG2 PUSH5 0x6970667358 0x22 SLT KECCAK256 PUSH16 0xB2BA1CE0350F1F51EDBE1DE3D52D778 PUSH4 0x9D4FB270 DUP10 0xED DUP4 PREVRANDAO 0xC7 0xDC DUP3 SIGNEXTEND DUP14 SLT PUSH5 0x736F6C6343 STOP ADDMOD BYTE STOP CALLER "
        },
        "methodIdentifiers": {
          "DEFAULT_DEATH_VERIFICATION_DELAY()": "cbc5539a",
          "GUARDIAN_ATTESTATION_COOLDOWN()": "85da5c15",
          "GUARDIAN_COUNT()": "36acbe19",
          "GUARDIAN_TRIGGER_THRESHOLD()": "c2e4c633",
          "MAX_BENEFICIARIES()": "2348dd18",
          "MAX_CHECK_IN_INTERVAL()": "a11fee93",
          "MAX_GRACE_PERIOD()": "46619649",
          "MIN_CHECK_IN_INTERVAL()": "161195c6",
          "MIN_GRACE_PERIOD()": "883a0038",
          "REVOKE_WINDOW()": "c165c1c9",
          "addGuardianByEmailHash(uint256,bytes32)": "3aeaba45",
          "attestDeath(uint256)": "b9683678",
          "attestDeathByEmailHash(uint256,bytes32,bytes)": "b4fc0663",
          "canRevoke(uint256)": "439fab07",
          "checkIn(uint256)": "e95a644f",
          "claim(uint256)": "379607f5",
          "createVault(uint256,uint256,address[],address[3],string)": "2b039c27",
          "deathVerificationDelay()": "8015f929",
          "emergencyRevoke(uint256)": "cd444466",
          "getBeneficiaries(uint256)": "783804d9",
          "getDeathVerification(uint256)": "7677f326",
          "getEmailHashLinkedAddress(uint256,bytes32)": "264be8f1",
          "getGuardianAttestationCount(uint256)": "2f60062e",
          "getGuardianCount(uint256)": "75ec260e",
          "getGuardianEmailHashes(uint256)": "4df306ef",
          "getGuardians(uint256)": "c3dafbf0",
          "getNextVaultId()": "76a89bca",
          "getReadyForClaimAt(uint256)": "ee7da0df",
          "getTimeUntilDeadline(uint256)": "853aec0f",
          "getTimeUntilTrigger(uint256)": "fe9f5569",
          "getVault(uint256)": "9403b634",
          "getVaultStatus(uint256)": "49ebb77d",
          "getVaultWithEmailHashes(uint256)": "7f446351",
          "hasClaimed(uint256,address)": "873f6f9e",
          "hasGuardianAttested(uint256,address)": "6281e5fb",
          "hasGuardianAttestedByEmailHash(uint256,bytes32)": "18188d5a",
          "isBeneficiary(uint256,address)": "e9783e60",
          "isGuardian(uint256,address)": "c773d96d",
          "isGuardianByEmailHash(uint256,bytes32)": "56cb2b61",
          "linkEmailHashToAddress(uint256,bytes32,bytes)": "eb1f9f60",
          "linkYieldVault(uint256,uint256)": "97657e89",
          "oracle()": "7dc0d1d0",
          "setDeathVerificationDelay(uint256)": "dbf6be82",
          "setOracle(address)": "7adbf973",
          "setYieldVault(address)": "137c3f69",
          "updateDeathVerificationStatus(uint256)": "52646f2f",
          "updateMetadata(uint256,string)": "53c8388e",
          "updateVaultStatus(uint256)": "360e548e",
          "verifyDeath(address)": "e9e55583",
          "yieldVault()": "a7f8a5e2"
        }
      }
    }
  }
}